S016000070696465746368696E67626174682E7372656350
S11300000C947B000C9498000C9498000C94980029
S11300100C9498000C9498000C9498000C949800FC
S11300200C9498000C9498000C9498000C949800EC
S11300300C9498000C9498000C9498000C949800DC
S11300400C94E60B0C9498000C9498000C94980073
S11300500C9498000C9498000C9498000C949800BC
S11300600C9498000C9498000C9498000C949800AC
S11300700C9498000C9498000C94980008000000CC
S1130080BE922449123EABAAAA2ABECDCCCC4C3E89
S113009000000080BEABAAAAAA3E00000000BF0078
S11300A00000803F0000000000084178D3BB438774
S11300B0D1133D190E3CC3BD4282AD2B3E68EC8288
S11300C076BED98FE1A93E4C80EFFFBE01C4FF7F0D
S11300D03F000000000000000000000000000000DD
S11300E0000000000100000000000000000000000B
S11300F0FFFF0000000011241FBECFEFD0E1DEBFE0
S1130100CDBF11E0A0E0B1E0E2E3F6E302C0059068
S11301100D92AE30B107D9F721E0AEE0B1E001C0F5
S11301201D92AF3DB207E1F70E94760C0C94171BA9
S11301300C9400000E94641180E008950E94F11460
S113014080E00895809135019091360118161906C2
S11301502CF480913D0161E08F5F06C0892B59F03A
S113016080913D0161E081500E946C0F60E00E942B
S1130170610F80933D010E94DB1380913D01882330
S113018061F0813021F56091730170917401809167
S113019075019091760141E009C060915F01709111
S11301A06001809161019091620140E00E947D0CA8
S11301B00E94D2138091370180FF0BC010923D0141
S11301C085E899E090933C0180933B0102C084E070
S11301D0089580E008958091350190913601892B2E
S11301E0A1F080915D0191E0811190E090935D0117
S11301F0811103C00E945A0C04C00E94690C109221
S11302005C018FE391E00E942F110E94DB13809127
S11302105D010E94D70D0E94D2138091370180FFA7
S113022009C081E080933D0187EA96E090933C0108
S113023080933B0180E0089560913501709136010F
S11302406115710549F1072E000C880B990B0E946A
S1130250701820E030E040E05FE30E94C319209171
S11302601F013091200140912101509122010E94EF
S1130270191720E030E048EC52E40E94A10F20E07E
S113028030E0A9010E94810F60931F017093200147
S113029080932101909322010E94DB1360911F013E
S11302A07091200180912101909122010E94530EAE
S11302B00E94D2138091370180FF09C082E08093AD
S11302C03D0187EA96E090933C0180933B0180E0F6
S11302D00895CF93209135013091360180913D01ED
S11302E0121613061CF463E08F5F04C0232B49F03D
S11302F063E081500E946C0F60E00E94610F809364
S11303003D01E0913D01E43028F4F0E0E050FF4F7E
S1130310C08101C0C0E00E94DB136C2F80913D01BD
S11303200E94920D0E94D2138091370180FF0FC06A
S1130330CC2369F080913D018093330183E0809365
S11303403D0187EA96E090933C0180933B0180E075
S1130350CF9108958F929F92AF92BF92CF92DF92E6
S1130360EF92FF920F931F936091350170913601C4
S11303706115710509F44CC0072E000C880B990B0C
S11303800E9470182AE037ED43E25CE30E94C3192F
S1130390209123013091240140912501509126019F
S11303A00E94191720E030E04AE754E40E94A10FAC
S11303B020E030E0A9010E94810FAB01BC01409311
S11303C02301509324016093250170932601C0906A
S11303D02B01D0902C01E0902D01F0902E01009182
S11303E02701109128012091290130912A0182E4EA
S11303F08F9388EC8F931F921F92812C912C540120
S11304008FE391E00E94FD0F0F900F900F900F90DB
S11304100E94DB13609123017091240180912501D6
S1130420909126010E94F30D0E94D213809137010E
S113043080FF09C081E080933D0180E097E09093C4
S11304403C0180933B0180E01F910F91FF90EF905E
S1130450DF90CF90BF90AF909F908F9008958F9230
S11304609F92AF92BF92CF92DF92EF92FF920F933F
S11304701F9360913501709136016115710509F47E
S11304804CC0072E000C880B990B0E9470182AE0B0
S113049037ED43E25CE30E94C319209127013091B8
S11304A028014091290150912A010E94191720E046
S11304B030E04AE754E40E94A10F20E030E0A901B3
S11304C00E94810F8B019C01609327017093280186
S11304D08093290190932A01C0902B01D0902C0184
S11304E0E0902D01F0902E014091230150912401C0
S11304F0609125017091260182E48F9388EC8F939B
S11305001F921F92812C912C54018FE391E00E9441
S1130510FD0F0F900F900F900F900E94DB136091CE
S11305202701709128018091290190912A010E944C
S11305300B0E0E94D2138091370180FF09C082E024
S113054080933D0180E097E090933C0180933B01D0
S113055080E01F910F91FF90EF90DF90CF90BF90BC
S1130560AF909F908F9008958F929F92AF92BF9279
S1130570CF92DF92EF92FF920F931F936091350118
S1130580709136016115710509F44CC0072E000CF9
S1130590880B990B0E9470182AE037ED43E25CE364
S11305A00E94C31920912B0130912C0140912D01FF
S11305B050912E010E94191720E030E04AE754E4DC
S11305C00E94A10F20E030E0A9010E94810F6B017D
S11305D07C0160932B0170932C0180932D019093E7
S11305E02E010091270110912801209129013091B9
S11305F02A014091230150912401609125017091B9
S1130600260182E48F9388EC8F931F921F92812C92
S1130610912C54018FE391E00E94FD0F0F900F90F5
S11306200F900F900E94DB1360912B0170912C01AD
S113063080912D0190912E010E94230E0E94D213CD
S11306408091370180FF09C083E080933D0180E001
S113065097E090933C0180933B0180E01F910F91C0
S1130660FF90EF90DF90CF90BF90AF909F908F90CE
S1130670089560913501709136016115710551F14C
S1130680072E000C880B990B0E94701820E030E0B4
S113069040E05FE30E94C31920912F0130913001A3
S11306A040913101509132010E94191720E030E04D
S11306B048E452E40E94A10F20E030E048E452EC08
S11306C00E94810F60932F01709330018093310158
S11306D0909332010E94DB1360912F0170913001DD
S11306E080913101909132010E943B0E0E94D213FD
S11306F08091370180FF09C085E080933D0187EA3E
S113070096E090933C0180933B0180E008958091B2
S1130710350190913601009729F120915B0164E63F
S113072070E0820F911D0E94710F60E070E00E94E2
S1130730660F80935B0190915E01911105C088233F
S113074039F00E943C1404C0811102C00E944F146D
S113075080915B0191E0811101C090E090935E0172
S11307600E9425140E94DB1380915B010E94550EA8
S11307700E94D2138091370180FF09C081E08093E9
S11307803D018AE497E090933C0180933B0180E033
S113079008950E94DB13609163017091640180915C
S11307A06501909166010E949E0E0E94D213809171
S11307B0370180FF09C081E080933D0185E897E01F
S11307C090933C0180933B0180E008950E94DB13E9
S11307D060917701709178018091790190917A010B
S11307E00E949E0E0E94D2138091370180FF09C09F
S11307F082E080933D0185E897E090933C018093EB
S11308003B0180E008950E94DB130E94AD0E0E941C
S1130810D2138091370180FF09C083E080933D01AA
S113082085E897E090933C0180933B0180E0089534
S11308300E94DB130E94AD0E0E94D21380913701F7
S113084080FF09C084E080933D0185E897E09093A0
S11308503C0180933B0180E008954F925F926F9238
S11308607F928F929F92AF92BF92CF92DF92EF923C
S1130870FF920F931F93CF93DF938EE391E00E9437
S1130880181660935F0170936001809361019093E7
S11308906201C0913E01C11148C280913B01909117
S11308A03C01895C934091F0C0905F01D09060015D
S11308B0E0906101F090620120E030E0A901C701FD
S11308C0B6010E94851787FF12C04DC08EE391E0E8
S11308D00E94CF1560936301709364018093650156
S11308E090936601C0913E01CC23F1F21EC220E038
S11308F030E048E453E4C701B6010E946E191816AB
S11309000CF43EC080915C0181113CC080915C017B
S113091081116DC08EE391E00E94CF166093730144
S1130920709374018093750190937601C0913E0198
S1130930C111FBC180913B0190913C01865E9340C3
S113094009F4B1C0C0907301D0907401E0907501B6
S1130950F090760120E030E0A901C701B6010E94C1
S1130960851787FF02C0C6E0E0C120E030E048E41C
S113097053E4C701B6010E946E1918160CF0A6C004
S1130980C5E0D3C1209167013091680140916901AC
S113099050916A01C701B6010E94181720E030E0A7
S11309A040EA50E40E94851787FFB0CF0E94A30B52
S11309B0A0906B01B0906C01C0906D01D0906E015D
S11309C0E0906F01F090700100917101109172013B
S11309D00E94D31A0E94D70920E030E040E751E496
S11309E00E946E1918160CF091CFC3E09EC120919D
S11309F06701309168014091690150916A016091E9
S1130A005F017091600180916101909162010E9487
S1130A10181720E030E040EA50E40E946E1987FD88
S1130A2079CF0E94A30BA0906B01B0906C01C09091
S1130A306D01D0906E01E0906F01F0907001009113
S1130A407101109172010E94D31A0E94D70920E00B
S1130A5030E040E751E40E94851718160CF45ACF91
S1130A6080915F0190916001A0916101B091620158
S1130A708093670190936801A0936901B0936A0120
S1130A800E94A30B20936B0130936C0140936D0182
S1130A9050936E0160936F017093700180937101A4
S1130AA09093720137CF8EE391E00E948616609393
S1130AB07701709378018093790190937A01809102
S1130AC03E01882309F43ECFC82F2FC18091330102
S1130AD0813009F097C080915C01811105C080913B
S1130AE05C01811135C08EC020917B0130917C0165
S1130AF040917D0150917E01C701B6010E941817F3
S1130B0020E030E040E450E40E94851787FFE7CFFF
S1130B100E94A30BA0907F01B0908001C09081013E
S1130B20D0908201E0908301F090840100918501CE
S1130B30109186010E94D31A0E94D70920E030E068
S1130B4046E953E40E946E1918160CF44ECFC7CF31
S1130B5020917B0130917C0140917D0150917E0177
S1130B606091730170917401809175019091760187
S1130B700E94181720E030E040E450E40E946E190F
S1130B8087FD40C00E94A30BA0907F01B09080011C
S1130B90C0908101D0908201E0908301F0908401A3
S1130BA000918501109186010E94D31A0E94D709F1
S1130BB020E030E046E953E40E948517181614F14A
S1130BC08091730190917401A0917501B0917601A7
S1130BD080937B0190937C01A0937D01B0937E016F
S1130BE00E94A30B20937F013093800140938101E5
S1130BF050938201609383017093840180938501F3
S1130C009093860180915D01882309F48EC08091C0
S1130C103301882361F0813009F086C0409173016B
S1130C2050917401609175017091760108C04091F2
S1130C305F015091600160916101709162010091C6
S1130C401F011091200120912101309122018FE395
S1130C5091E00E9439102B013C0180905F0190903B
S1130C606001A0906101B090620120E030E042E0B8
S1130C7053E4C501B4010E946E19F0905C0118168A
S1130C800CF44AC0C301B2010E943F18D62F633648
S1130C9008F443C0F11044C081E080935C01809269
S1130CA0670190926801A0926901B0926A010E9462
S1130CB0A30B20936B0130936C0140936D0150930F
S1130CC06E0160936F017093700180937101909332
S1130CD072018091730190917401A0917501B0919A
S1130CE0760180937B0190937C01A0937D01B09366
S1130CF07E010E94A30B20937F01309380014093D7
S1130D0081015093820160938301709384018093E5
S1130D1085019093860104C0D0E0F11010925C012B
S1130D208D2F0E94490C01C0C4E08C2FDF91CF911C
S1130D301F910F91FF90EF90DF90CF90BF90AF90F5
S1130D409F908F907F906F905F904F9008958091C7
S1130D50350190913601181619062CF480913D0145
S1130D6065E08F5F06C0892B59F080913D0165E0F5
S1130D7081500E946C0F60E00E94610F80933D01DE
S1130D800E94DB1380913D010E94120D0E94D21338
S1130D908091370180FF32C080913D018230D1F0D3
S1130DA04CF4882389F0813049F510923D018BEE93
S1130DB090E020C08430D1F094F08530F9F41092A2
S1130DC03D0189E393E016C081E080933D0185E80D
S1130DD099E010C010923D018CE191E00BC080912C
S1130DE0330180933D0189E691E004C010923D01F6
S1130DF080E097E090933C0180933B0180E008956C
S1130E008091350190913601181619062CF48091C1
S1130E103D0163E08F5F06C0892B59F080913D014D
S1130E2063E081500E946C0F60E00E94610F809328
S1130E303D010E94DB1380913D010E94BC0D0E9484
S1130E40D2138091370180FF23C080913D0181300E
S1130E5091F044F481111CC084E080933D0187EA41
S1130E6096E012C0823061F0833091F410923D011B
S1130E7084EB92E009C010923D018AEA91E004C03B
S1130E8010923D018FE292E090933C0180933B01EC
S1130E9080E0089580913501909136011816190665
S1130EA02CF480913D0161E08F5F06C0892B59F0DD
S1130EB080913D0161E081500E946C0F60E00E94CE
S1130EC0610F80933D010E94DB1380913D010E94DC
S1130ED0720D0E94D2138091370180FF14C080915B
S1130EE03D01882339F0813071F410923D0187E887
S1130EF093E005C082E080933D0185E899E09093FA
S1130F003C0180933B0180E00895809135019091EC
S1130F103601181619062CF480913D0164E08F5FA8
S1130F2006C0892B59F080913D0164E081500E94F4
S1130F306C0F60E00E94610F80933D010E94DB13FF
S1130F4080913D010E94710E0E94D213809137015D
S1130F5080FF2AC080913D018230C9F04CF488237F
S1130F6081F0813009F510923D0189EC93E018C0BD
S1130F70833091F08430C1F410923D0188E194E013
S1130F800FC083E080933D0185E899E009C0109289
S1130F903D0186EE93E004C010923D0183E094E0AD
S1130FA090933C0180933B0180E00895EFE1F1E0F0
S1130FB0178A168A108E118E128E138E0895CF936F
S1130FC0DF930E94D6070E945811CFE1D1E09F8B96
S1130FD08E8B80E00E94E5149B8D892B8B8F80E0A3
S1130FE00E948B14988D892B888F80E00E94C714EF
S1130FF0998D892B898F80E00E94A9149A8D892B61
S11310008A8FEC8DFD8DDF91CF91099480913E0103
S1131010882341F00E94DB1380913E010E94B50EAB
S11310200C94D2130895EFE1F1E080E090E0A8EC95
S1131030B1E480839183A283B38380E090E0A0E84D
S1131040BFE384839583A683B783108611861286B3
S113105013861486158616861786108A118A128AB4
S1131060138A148A0895CF93DF93CDB7DEB76697BA
S11310700FB6F894DEBF0FBECDBF8AE2898385E147
S1131080EFE1F1E0DE01129601900D928A95E1F70D
S113109046E150E060E070E0CE0101960E94F51A4E
S11310A066960FB6F894DEBF0FBECDBFDF91CF9129
S11310B00895CF93DF93CDB7DEB766970FB6F89454
S11310C0DEBF0FBECDBF46E150E060E070E0CE0170
S11310D001960E94E51A89818A3229F00E94130838
S11310E00E94330809C085E1FE013296AFE1B1E008
S11310F001900D928A95E1F766960FB6F894DEBFDB
S11311000FBECDBFDF91CF9108958F929F92AF9282
S1131110BF92CF92DF92EF92FF920F931F93CF93E0
S113112010923E010E94E0090E94E4130E945E14A2
S11311300E9439110E94590810925B0110925D01BE
S113114010925E0110925C010E94EA130E944F14F7
S11311500E94250C0E94690CC0902B01D0902C0198
S1131160E0902D01F0902E010091270110912801AB
S11311702091290130912A014091230150912401A9
S1131180609125017091260182E48F9388EC8F93FE
S11311901F921F92812C912C54018FE391E00E94A5
S11311A0C10F0E94751520E04DE254E06AE077ED2E
S11311B083EA9CE30E94B40B21E04FED57E06AE020
S11311C077ED83E29DE30E94B40B22E04AE950E00C
S11311D06FE672E183E89AE30E94B40B23E04EE9E0
S11311E050E06AE077ED83EA9BE30E94B40B0E942F
S11311F0D60782EA90E090933C0180933B010E94E1
S113120098158EE391E00E94181660935F01709325
S1131210600180936101909362010F900F900F9091
S11312200F9080913E01811146C08EE391E00E94AF
S1131230CF1560936301709364018093650190936B
S1131240660180913E01811136C08EE391E00E94D7
S1131250CF1660937301709374018093750190931A
S1131260760180913E01811126C08EE391E00E94B7
S11312708616609377017093780180937901909337
S11312807A0180913E01811116C00E942D0A1092AC
S11312903401C1E080913401811109C00E949C0A8B
S11312A080933E018823B1F3C0933401F3CFC091FE
S11312B03E01CC2379F00E94380C0E9409140E944C
S11312C087150E9450110E9476140E940608C0914E
S11312D03E010EC00E94560A0E9409140E94380C56
S11312E00E9487150E9450110E9476140E945B127E
S11312F08C2FCF911F910F91FF90EF90DF90CF90A3
S1131300BF90AF909F908F900895809135019091F8
S11313103601181619062CF480913D0165E08F5FA3
S113132006C0892B59F080913D0165E081500E94EF
S11313306C0F60E00E94610F80933D010E94DB13FB
S113134080913D010E94A20C0E94D213809137012A
S113135080FF2BC080913D018230B9F04CF488238A
S113136079F0813011F510923D0187EA96E016C0BC
S11313708430C9F07CF08530C1F40E94330815C074
S113138010923D0182EA90E009C010923D018AE486
S113139097E004C010923D0185E897E090933C01EA
S11313A080933B0102C00E94590880E008950E9486
S11313B0AB1828E33EE94FEC58E30E94C3190895A3
S11313C01092D7011092D8011092D9011092DA012B
S11313D01092DB011092DC011092DD011092DE010B
S11313E01092CF011092D0011092D1011092D2012B
S11313F01092D3011092D4011092D5011092D6010B
S1131400E7E8F1E0108211821282138214821582BD
S11314101682178210861186128613861486158604
S113142016861786118A108A729681E0EF3CF807B7
S113143049F780916E008C7F80936E0085B5887F1C
S113144085BD84B5826084BD82E687BD80916E00CF
S1131450826080936E00789408951092D701109260
S1131460D8011092D9011092DA011092DB01109286
S1131470DC011092DD011092DE011092CF01109276
S1131480D0011092D1011092D2011092D301109286
S1131490D4011092D5011092D60116BC85B5826094
S11314A085BD089585B5887F85BD08950E94520A3B
S11314B080916E008D7F80936E0084B58D7B84BD9A
S11314C016BC17BC1092D7011092D8011092D90102
S11314D01092DA011092DB011092DC011092DD010E
S11314E01092DE011092CF011092D0011092D1011E
S11314F01092D2011092D3011092D4011092D5010E
S11315001092D601E7E8F1E0108211821282138270
S1131510148215821682178210861186128613860B
S11315201486158616861786118A108A729681E0AB
S1131530EF3CF80749F708952F923F924F925F923C
S11315406F927F928F929F92AF92BF92CF92DF92CF
S1131550EF92FF920F931F93CF93DF93CDB7DEB734
S113156062970FB6F894DEBF0FBECDBFEFB7F89405
S11315702091D7013091D8014091D9015091DA01DD
S11315806091DB017091DC018091DD019091DE01BD
S1131590A090CF01B090D001C090D101D090D201E1
S11315A0E090D301F090D4010091D5011091D601BF
S11315B00E94D31A2F83388749875A876B877C8781
S11315C08D879E877091D7016091D8015091D90180
S11315D04091DA013091DB012091DC019091DD0131
S11315E08091DE017093CF016093D0015093D101BB
S11315F04093D2013093D3012093D4019093D50129
S11316008093D601EFBF87E891E0988B8F87EF85B1
S1131610F8890088F189E02DFE83ED83EF2B51F4E6
S11316208F8598894296988B8F878F5C914079F744
S113163080E070C02F81388549855A856B857C850B
S11316408D859E85EF85F889A084B184C284D38476
S1131650E484F584068517850E94BE1A19012A01BF
S11316603B014C0120873186428753866487758607
S113167086879786B081A181F281F98BEF85F889FD
S1131680F381FA8BEF85F889F481F983EF85F88982
S1131690F581FA83EF85F889F681FB83EF85F88974
S11316A0F781FC83AB2EBA2EC988DA88E980FA80E8
S11316B00B811F2F0E94DC1A08F4B2CF0E94D31AA8
S11316C019012A013B014C012B2F3A2FA601B70126
S11316D0C8015101620173018401EF85F8890E94F8
S11316E0DC1A51F048F0208631864286538664869F
S11316F075868686978608C010861186128613869C
S11317001486158616861786ED81FE810995882331
S113171009F486CF62960FB6F894DEBF0FBECDBF34
S1131720DF91CF911F910F91FF90EF90DF90CF90B9
S1131730BF90AF909F908F907F906F905F904F90ED
S11317403F902F9008952091CF013091D001409186
S1131750D1015091D2016091D3017091D401809153
S1131760D5019091D60108950F931F93CF93DF93E2
S11317708A0132E1239FE0011124C957DE4F28E397
S11317803EE94FEC58E30E948A1720E030E040E045
S11317905FE30E9419170E940118288339834A8342
S11317A05B836C837D838E839F83FE0138961886CA
S11317B01182128213821482158216821782198B67
S11317C0088BDF91CF911F910F9108951F920F9273
S11317D00FB60F9211242F933F934F935F936F9300
S11317E07F938F939F93AF932091D7013091D8012A
S11317F04091D9015091DA016091DB017091DC01D3
S11318008091DD019091DE01A1E00E94C71A20932E
S1131810D7013093D8014093D9015093DA016093F2
S1131820DB017093DC018093DD019093DE01AF91C5
S11318309F918F917F916F915F914F913F912F91E4
S11318400F900FBE0F901F90189510927000E1EB4F
S1131850F0E08081897F8083E0EBF0E0808181602B
S113186080831092B3001092B200579A5F98089543
S1131870E1EBF0E08081897F80831092B2001092C6
S1131880B300E0EBF0E080818E77808357985F9817
S1131890089564E60E947C0F60E00E94770F2FEFAA
S11318A0829FC001112464E670E00E94651A60936F
S11318B0B30008951092B2001092B300E0EBF0E090
S11318C0808180688083E1EBF0E0808186608083A2
S11318D00895E0EBF0E080818F778083E1EBF0E026
S11318E08081897F80831092B20008950E948508C8
S11318F08111FFCF80E090E00895CF92DF92EF92C4
S1131900FF920F936B017C01413049F030F042307B
S113191041F0433051F46FEC05C06FEB03C066E84F
S113192001C06BED80E00E945D1205E021E041E022
S1131930C701B6010E9468120F91FF90EF90DF90EB
S1131940CF9008958230F1F028F4882351F081304B
S113195059F008958430D9F120F1853009F44AC052
S1131960089560E480E05CC064E780E00E945D125A
S113197069E781E00E945D1267E782E00E945D12E0
S113198068E70DC06DE680E00E945D1268E781E0C3
S11319900E945D1266E082E00E945D1260E583E0D1
S11319A03FC068EF80E00E945D1269E381E00E941D
S11319B05D1267E782E00E945D1268E383E00E94A3
S11319C05D1266E084E00E945D126CE728C068E363
S11319D080E00E945D126CE581E00E945D1267E781
S11319E082E00E945D126EED83E00E945D126DEE56
S11319F084E016C06DE680E00E945D1268E781E035
S1131A000E945D126CE582E00E945D1260E583E055
S1131A100E945D1269EF84E00E945D126DEE85E024
S1131A200C945D12823039F128F4882351F081300E
S1131A3079F008958430D9F160F1853009F442C019
S1131A40089560E480E00E945D1260E481E048C093
S1131A506CE580E00E945D1264E581E00E945D1205
S1131A606CE582E00E945D1261E783E00E945D12F2
S1131A7061E784E035C068E780E00E945D126FEEA4
S1131A8081E00E945D1268E782E00E945D1263E7D4
S1131A9026C068EF80E00E945D126DE681E00E943E
S1131AA05D1269E782E00E945D1268E318C063E793
S1131AB080E00E945D1266E081E00E945D126EE5A6
S1131AC082E00EC06CE580E00E945D1261E781E077
S1131AD00E945D1261E782E00E945D126DE683E080
S1131AE00C945D12882319F0813041F0089560E46C
S1131AF080E00E945D1260E481E012C06DE680E047
S1131B000E945D1263E781E00E945D1269E782E052
S1131B100E945D1269E783E00E945D126EE584E035
S1131B200C945D12662301F1813089F050F082300B
S1131B30A1F08330C9F468E784E00E945D126FE489
S1131B4011C068E784E00E945D126FE30BC068E790
S1131B5084E00E945D1266E005C068E784E00E94AC
S1131B605D126BE585E006C064E580E00E945D12CD
S1131B7069E381E00C945D12813089F028F08230B1
S1131B8081F0833081F0089560E480E00E945D126A
S1131B9060E481E00E945D1260E482E006C063E7D5
S1131BA003C066E001C06EE580E00C945D1260E362
S1131BB0882351F080E00E945D126CE581E00E9470
S1131BC05D1264E582E00DC080E00E945D126CE568
S1131BD081E00E945D1261E782E00E945D1261E78C
S1131BE083E00C945D12CF92DF92EF92FF920F93F9
S1131BF06B017C0163E780E00E945D1205E022E056
S1131C0041E0C701B6010E9468120F91FF90EF9066
S1131C10DF90CF900895CF92DF92EF92FF920F93CF
S1131C206B017C0166E080E00E945D1205E022E029
S1131C3041E0C701B6010E9468120F91FF90EF9036
S1131C40DF90CF900895CF92DF92EF92FF920F939F
S1131C506B017C016EE580E00E945D1205E022E0EC
S1131C6041E0C701B6010E9468120F91FF90EF9006
S1131C70DF90CF900895CF92DF92EF92FF920F936F
S1131C806B017C0160E380E00E945D1205E021E0CD
S1131C9041E0C701B6010E9468120F91FF90EF90D6
S1131CA0DF90CF9008950C943B0ECF93C82F60E340
S1131CB080E00E945D12CC2339F045E061E08C2F76
S1131CC090E0CF910C945B136CE581E00E945D126F
S1131CD061E782E00E945D1261E783E0CF910C949A
S1131CE05D128230B9F028F4882341F0813061F02C
S1131CF008958330A9F08430C9F0089560E480E049
S1131D000E945D1260E417C068E780E00E945D12E3
S1131D106FE311C068E780E00E945D1266E00BC0CB
S1131D2068E780E00E945D126BE505C068E780E02B
S1131D300E945D126FE481E00C945D120F939F7713
S1131D4020E030E04AE754E40E948A1706E023E0EA
S1131D5040E00E9468120F91089564E580E00E94BB
S1131D605D1269E381E00C945D12833009F443C091
S1131D70D8F4813051F1823009F07CC068E780E00A
S1131D800E945D1264EF81E00E945D126DE682E0C4
S1131D900E945D1264E783E00E945D1260E584E0C6
S1131DA00E945D1268E752C0853009F451C0C8F141
S1131DB0863009F05FC068E780E00E945D1264EF3E
S1131DC081E00E945D1268E34CC068E780E00E94F5
S1131DD05D1264EF81E00E945D126CE582E00E9476
S1131DE05D1263E783E00E945D1269E784E00E946C
S1131DF05D1264E52BC068E780E00E945D1264EF29
S1131E0081E00E945D1264E582E00E945D1260E55B
S1131E1083E00E945D1269E784E00E945D126DE632
S1131E2015C068E780E00E945D1264EF81E00E94C3
S1131E305D1264E582E00E945D126CE583E00E941D
S1131E405D1263E784E00E945D1269E785E024C0C7
S1131E5068E780E00E945D1264EF81E00E945D12F9
S1131E6064E782E00E945D1268E783E00E945D12ED
S1131E7063E711C069E780E00E945D1260E581E0DC
S1131E800E945D1260E582E00E945D126CE583E0D1
S1131E900E945D1260E584E00C945D12AC0120E0C8
S1131EA081E090E03AE0622F70E06417750744F433
S1131EB0BC01369FC001379F900D11242F5FF3CFD3
S1131EC0089568170CF4682F862F0895681779070A
S1131ED00CF4BC01CB01089586170CF4682F862FEF
S1131EE00895861797070CF4BC01CB010895681771
S1131EF008F4682F862F0895861708F4682F862F14
S1131F000895CF92DF92EF92FF920F931F93CF9396
S1131F10DF938B01D82FC92F69017A010E946E19B2
S1131F2018161CF08601DE2DCF2DB8018D2F9C2FA5
S1131F30DF91CF911F910F91FF90EF90DF90CF90A1
S1131F400895CF92DF92EF92FF920F931F93CF9356
S1131F50DF938B01D82FC92F69017A010E9485175D
S1131F6087FD03C08601DE2DCF2DB8018D2F9C2F58
S1131F70DF91CF911F910F91FF90EF90DF90CF9061
S1131F8008958F929F92AF92BF92CF92DF92EF9279
S1131F90FF920F931F93CF93DF93CDB7DEB7FC016E
S1131FA04087518762877387048715872687378719
S1131FB0C08AD18AE28AF38A8F859889A989BA89E5
S1131FC0808F918FA28FB38F848A958AA68AB78ACD
S1131FD01082118212821382148215821682178251
S1131FE0DF91CF911F910F91FF90EF90DF90CF90F1
S1131FF0BF90AF909F908F9008958F929F92AF92D1
S1132000BF92CF92DF92EF92FF920F931F93CF93E1
S1132010DF93CDB7DEB7FC014087518762877387B2
S11320200487158726873787C08AD18AE28AF38A8C
S11320308F859889A989BA89808F918FA28FB38F50
S1132040848A958AA68AB78A1082118212821382A0
S11320501482158216821782DF91CF911F910F91FE
S1132060FF90EF90DF90CF90BF90AF909F908F90B4
S113207008954F925F926F927F928F929F92AF9248
S1132080BF92CF92DF92EF92FF920F931F93CF9361
S1132090DF93CDB7DEB762970FB6F894DEBF0FBEFD
S11320A0CDBF9A8B898B6A017B01C901B801A70155
S11320B096010E9418176B017C01A989BA891896A8
S11320C02D913D914D915C911B970E94C3196D8395
S11320D07E838F839887E989FA8984849584A6848A
S11320E0B7844480558066807780A3019201C7013C
S11320F0B6010E94191769877A878B879C87A989FB
S1132100BA892D913D914D915C91C701B6010E9410
S11321101817E989FA8920893189428953890E94EB
S1132120C3196D877E878F87988BA989BA89CD92C9
S1132130DD92ED92FC92139729853A854B855C8557
S1132140C501B4010E94C3192D813E814F81588578
S11321500E9419172D853E854F8558890E941917AD
S11321606B017C01A989BA8954968D919D910D903A
S1132170BC91A02D89839A83AB83BC839C01AD0160
S1132180C701B6010E946E1987FD0CC0E989FA895E
S1132190208D318D428D538DC701B6010E94851764
S11321A01816D4F5A989BA895896CD90DD90ED908A
S11321B0FC905B97A3019201C501B4010E94C3196D
S11321C02D813E814F8158850E9419172D853E85AA
S11321D04F8558890E941917A70196010E94A10FE3
S11321E029813A814B815C8162960FB6F894DEBFF7
S11321F00FBECDBFDF91CF911F910F91FF90EF9054
S1132200DF90CF90BF90AF909F908F907F906F9012
S11322105F904F900C94810F89859A85AB85BC851E
S1132220E989FA8984839583A683B783C701B601B4
S113223062960FB6F894DEBF0FBECDBFDF91CF918B
S11322401F910F91FF90EF90DF90CF90BF90AF90D0
S11322509F908F907F906F905F904F900895FC01B6
S113226010821182128213821482158216821782BE
S1132270089584B1837F84B985B18C6085B9109247
S11322800F0110920E011A9903C082E0809310018D
S11322901B9905C0809110018160809310010895FD
S11322A010920F0110920E0185B1837F85B90895B4
S11322B02FB7F89480910E0190910F0110920F01A5
S11322C010920E012FBF08958091100124E0829F87
S11322D0C00111248F70809310011A9905C0809158
S11322E010018260809310011B9905C08091100138
S11322F0816080931001E0911001F0E0EE0FFF1F68
S1132300EA52FF4F2591349180910E0190910F0173
S1132310820F931F90930F0180930E0160910E0121
S113232070910F0188EE93E00E94710FBC0188E167
S11323309CEF0E94660F90930F0180930E01089505
S11323402C982C9A08952D9A2D98089580FD2F9AF3
S113235080FF2F980C94A3110F931F93CF93DF93B7
S1132360C0E0D0E0082F10E0C8010C2E02C0959503
S113237087950A94E2F781700E94A6112196C830CD
S1132380D10591F7DF91CF911F910F9108950F938C
S11323901F93CF93DF938C01C62FD0E0C80FD91FB2
S11323A0C017D10729F0219788810E94AC11F8CF7A
S11323B0DF91CF911F910F9108952E9A2E98089531
S11323C084B1806F84B985B18F7185B92C9A0E94CC
S11323D0A0110C94DD110E94A0110C94DD119F92A8
S11323E0AF92BF92CF92DF92EF92FF920F931F931F
S11323F0CF93DF93EC01962E8A01662319F0D195D1
S1132400C195D109209759F030E0E22EF12C570103
S113241061E0A61AB1088AE0C82ED12C2EC0F801BA
S1132420E20FF11D31978FE3808331E02CC0832FBD
S113243090E041E050E0911002C040E050E0B7016C
S1132440641B750B86179707F4F43F5FF501E81BCF
S1132450F90BE00FF11FCE01B6010E94791A8150E9
S1132460893078F4A82FB0E0AC5FBE4F8C918083A4
S1132470CE01B6010E94791AEB011C161D06BCF2AE
S113248002C08FE3F4CF992049F0E22FF0E03197B6
S1132490E31BF109E00FF11F80E4808381E0DF9109
S11324A0CF911F910F91FF90EF90DF90CF90BF904D
S11324B0AF909F9008950C94EB11863038F4E82F78
S11324C0F0E0EF5EFE4F608381E0089580E00895C0
S11324D02F923F924F925F926F927F928F929F9230
S11324E0AF92BF92CF92DF92EF92FF920F931F931E
S11324F0CF93DF93CDB7DEB728970FB6F894DEBF3E
S11325000FBECDBFE42FF0E0FA83E98310E0AF0102
S1132510400F511F4730510514F080E0B3C02C83A5
S11325206B017C0120E030E0A9010E948517881F1F
S11325308827881F8B83C701B6010E9438184B0176
S11325405C017E836D835C81452F50E058874F8307
S1132550CA010E944E0F1C01B401092C000C880B07
S1132560990B0E9470189B01AC01C701B6010E942F
S113257018172B013C01E89477F8B101330C880B50
S1132580990B0E9470189B01AC01C301B2010E9417
S1132590C3190E943818562E772E862F972D1C01AA
S11325A08D819E81892B69F420E030E0A901C70167
S11325B0B6010E948517682E661C6624661C639407
S11325C00BC06B80C4012AE030E0B9010E94791A83
S11325D0CB0163940097C9F7232881F0472C441C4E
S11325E04424441C852D972D2AE030E0B9010E9433
S11325F0791ACB0143940097C9F702C04424439449
S1132600262C312C8F819885820D931D081719076C
S11326100CF483CFE981FA81EF5EFE4F6F014F81A5
S11326205885041B150B7F01E00EF11E2C81A701B8
S113263060E0852D972D0E94EF11F7018F81988519
S1132640841991099A8389832FE3CF018E199F09F5
S113265049815A818417950714F42193F6CFA80170
S1132660421953094C0D5D1D262D6B81C4010E9436
S1132670EF1101501109F601E00FF11F808180680C
S1132680808381E028960FB6F894DEBF0FBECDBFDD
S1132690DF91CF911F910F91FF90EF90DF90CF903A
S11326A0BF90AF909F908F907F906F905F904F906E
S11326B03F902F9008958F929F92AF92BF92CF92A6
S11326C0DF92EF92FF920F931F93CF93DF93EC016E
S11326D0E62FF0E0242F30E0CF01820F931F0797FD
S11326E00CF050C0EF5EFE4FD7FF05C00027112746
S11326F00C1B1D0B03C0209789F08E0140E08D2F29
S1132700881F8827881F5901A81AB108490181E048
S1132710881A91088AE0C82ED12C20C0E20FF31F3A
S113272031978FE32DC04F5F7401E81AF90AEE0E5A
S1132730FF1EC801B6010E94791A81508930A0F4A5
S1132740A82FB0E0AC5FBE4F8C91D7018C93C80129
S1132750B6010E94791A8B01672B41F0842F90E017
S11327608A159B0504F302C08FE3EFCFD7FF0CC09B
S1132770B90161507109641B7109E60FF71F80E408
S1132780808302C080E001C081E0DF91CF911F917E
S11327900F91FF90EF90DF90CF90BF90AF909F90FC
S11327A08F9008950E94A01166E081E191E00E945B
S11327B0C7110C94DD11E1E1F1E010821182128263
S11327C013821482158208950E94E0110E94DB1383
S11327D00C94D21310926F00E1E8F0E080818E7FB8
S11327E08083A0E8B0E08C918C93808180618083A9
S11327F080EA90E09093870080938600109289008D
S1132800109288001092850010928400559A5D9869
S11328100895E1E8F0E080818E7F80831092870044
S11328201092860010928500109284001092890004
S113283010928800A0E8B0E08C918F778C9380810F
S11328408F7E808355985D98089564E60E947C0F7E
S113285060E00E94770F282F30E0A0EAB0E00E94E9
S1132860AF1A24E630E040E050E00E948D1A309325
S113287089002093880008951092850010928400A6
S11328801092890010928800E0E8F0E0808180686E
S11328908083E1E8F0E08081816080830895E0E84E
S11328A0F0E080818F778083E1E8F0E080818E7FA3
S11328B080831092850010928400089584B18C7FE7
S11328C084B985B1836085B910921E0110921D01EF
S11328D010921C0110921901EAE1F1E010821182B8
S11328E083E08093180180931701089585B18C7F4C
S11328F085B910921E0110921D0110921C011092B4
S11329001901EAE1F1E01082118283E08093180159
S113291080931701089520911E0130E0082E02C013
S1132920359527950A94E2F720FF11C040911E01C6
S113293021E030E0B90102C0660F771F8A95E2F703
S1132940CB018095842380931E0181E0089580E06B
S1132950089520911D0130E0082E02C03595279579
S11329600A94E2F720FF11C040911D0121E030E0FC
S1132970B90102C0660F771F8A95E2F7CB018095F3
S1132980842380931D0181E0089580E008952091BF
S11329901C0130E0082E02C0359527950A94E2F711
S11329A020FF11C040911C0121E030E0B90102C0B8
S11329B0660F771F8A95E2F7CB0180958423809375
S11329C01C0181E0089580E008952091190130E010
S11329D0A90102C0559547958A95E2F7CA0181700D
S11329E0089593B1309119019095292F232780914F
S11329F0180182238095809318018091170190918A
S1132A0018018223892780931701909118018091DE
S1132A101701982393709223809119018927809339
S1132A201901409119014923809119018095892345
S1132A3020E030E050E0082E000C990BE1E0F0E0DB
S1132A40BA01022E02C0759567950A94E2F760FFF9
S1132A5010C0A0911E01BF01022E01C0660F0A948E
S1132A60EAF76A2B60931E01D901A65EBE4F1C9241
S1132A7014C0BC01022E02C0759567950A94E2F752
S1132A8060FF0BC0A0911D01BF01022E01C0660FA3
S1132A900A94EAF76A2B60931D016091190170E0B2
S1132AA0022E02C0759567950A94E2F760FF16C07E
S1132AB0D901A65EBE4F6C91643680F46C916F5F51
S1132AC06C93643659F4A0911C01BF01022E01C01D
S1132AD0660F0A94EAF76A2B60931C012F5F3F4F3D
S1132AE02230310509F0ACCF0895EAE7F0E08081A7
S1132AF087758083ACE7B0E01C928C9180648C93E2
S1132B0080818660808380EF80937E0008959FB7E4
S1132B10F894EAE7F0E080818775808310927C0066
S1132B208081887F80838FEF80937E009FBF08958C
S1132B3080917A00806880937A0080917A00806422
S1132B4080937A0080917A0086FDFCCF8091780092
S1132B50909179000895FC0180917C00807E80939F
S1132B607C0080917C0080937C0080917A0080645A
S1132B7080937A0080917A0086FDFCCF8091780062
S1132B8090917900009711F422E005C08F3F23E073
S1132B90920718F021E020830895108208958F92FF
S1132BA09F92AF92BF92CF92DF92EF92FF92CF9318
S1132BB05C01C4E0C12CD12C7601C5010E94AB1587
S1132BC0C80ED91EE11CF11CC150B9F7C701B601EA
S1132BD00E94701820E030E040E859E30E94C319D5
S1132BE020E030E040EA50E40E94C3196B017C010C
S1132BF020E030E543EC57E40E94C3194B015C012B
S1132C00A701960160E070E080EA90E40E94181742
S1132C109B01AC01C501B4010E948A17CF91FF90BA
S1132C20EF90DF90CF90BF90AF909F908F900895DA
S1132C308F929F92AF92BF92CF92DF92EF92FF92C8
S1132C400E94CF150E947B196B017C012BE037EDAC
S1132C504BE055EB0E94C319A70196010E94C319CA
S1132C60A70196010E94C3194B015C0120EA30E6DA
S1132C7042EF59E3C701B6010E94C31925E539EFB4
S1132C8046E95AE30E9418179B01AC01C501B4013F
S1132C900E9419179B01AC0160E070E080E89FE39B
S1132CA00E948A1723E333E948E853E40E94181783
S1132CB0FF90EF90DF90CF90BF90AF909F908F9058
S1132CC00895FC0180917C00807E80937C0080913B
S1132CD07C00816080937C0080917A008064809382
S1132CE07A0080917A0086FDFCCF809178009091E3
S1132CF07900009711F422E005C08F3F23E092078A
S1132D0018F021E020830895108208958F929F92F5
S1132D10AF92BF92CF92DF92EF92FF92CF935C017A
S1132D20C4E0C12CD12C7601C5010E946116C80EE5
S1132D30D91EE11CF11CC150B9F7C701B6010E94AC
S1132D40701820E030E040E859E30E94C31920E005
S1132D5030E040EA50E40E94C3196B017C0120E09A
S1132D6030E44CE156E40E94C3194B015C01A70115
S1132D70960160E070E080EA90E40E9418179B01DD
S1132D80AC01C501B4010E948A17CF91FF90EF9066
S1132D90DF90CF90BF90AF909F908F9008958F92C7
S1132DA09F92AF92BF92CF92DF92EF92FF920E94D6
S1132DB086160E947B196B017C0129E436E84CE7F6
S1132DC054E30E94C319A70196010E94C319A701E5
S1132DD096010E94C3194B015C0125EE31EC44E5D8
S1132DE059E3C701B6010E94C31921EA38EE4CEA3F
S1132DF05AE30E9419179B01AC01C501B4010E945A
S1132E0019179B01AC0160E070E080E89FE30E9429
S1132E108A1723E333E948E853E40E941817FF9024
S1132E20EF90DF90CF90BF90AF909F908F900895D8
S1132E305058BB27AA270E9430170C9434190E94BB
S1132E40261938F00E942D1920F039F49F3F19F407
S1132E5026F40C9413190EF4E095E7FB0C940D1969
S1132E60E92F0E94451958F3BA17620773078407BC
S1132E70950720F079F4A6F50C9467190EF4E09503
S1132E800B2EBA2FA02D0B01B90190010C01CA0120
S1132E90A0011124FF27591B99F0593F50F4503ECB
S1132EA068F11A16F040A22F232F342F4427585FBD
S1132EB0F3CF469537952795A795F0405395C9F7D5
S1132EC07EF41F16BA0B620B730B840BBAF091508D
S1132ED0A1F0FF0FBB1F661F771F881FC2F70EC02C
S1132EE0BA0F621F731F841F48F4879577956795FF
S1132EF0B795F7959E3F08F0B0CF9395880F08F0EB
S1132F009927EE0F9795879508950E94E91808F47C
S1132F1081E008950E949E170C9434190E942D1983
S1132F2058F00E94261940F029F45F3F29F00C94D0
S1132F300D1951110C9468190C9413190E94451918
S1132F4068F39923B1F3552391F3951B550BBB27D4
S1132F50AA2762177307840738F09F5F5F4F220F19
S1132F60331F441FAA1FA9F335D00E2E3AF0E0E810
S1132F7032D091505040E695001CCAF72BD0FE2F5A
S1132F8029D0660F771F881FBB1F261737074807EE
S1132F90AB07B0E809F0BB0B802DBF01FF279358A6
S1132FA05F4F3AF09E3F510578F00C940D190C9444
S1132FB068195F3FE4F3983ED4F386957795679557
S1132FC0B795F7959F5FC9F7880F911D96958795DB
S1132FD097F90895E1E0660F771F881FBB1F6217FA
S1132FE073078407BA0720F0621B730B840BBA0BB8
S1132FF0EE1F88F7E0950895BEE304D008F490E846
S11330000895BFE322273327A9010E944D1960F1D7
S11330109F5748F1B91740F1BFE3B91B9927B8503E
S11330203AF4660F771F881F991FB395D2F316C021
S1133030B8504AF0232F342F452F562F672F782F5F
S11330408827B850BAF7B85F49F0869577956795A1
S11330505795479537952795BA95B9F716F40E9471
S1133060161988940895889460E070E0CB0108955F
S11330700E943F186894B1110C94681908950E9435
S11330804D1988F09F5798F0B92F9927B751B0F090
S1133090E1F0660F771F881F991F1AF0BA95C9F7D8
S11330A014C0B13091F00E946719B1E008950C94F6
S11330B06719672F782F8827B85F39F0B93FCCF3A9
S11330C0869577956795B395D9F73EF49095809555
S11330D0709561957F4F8F4F9F4F0895E89409C075
S11330E097FB3EF490958095709561957F4F8F4F37
S11330F09F4F9923A9F0F92F96E9BB279395F6954D
S1133100879577956795B795F111F8CFFAF4BB0FCA
S113311011F460FF1BC06F5F7F4F8F4F9F4F16C02E
S1133120882311F096E911C0772321F09EE8872FB8
S1133130762F05C0662371F096E8862F70E060E074
S11331402AF09A95660F771F881FDAF7880F9695ED
S1133150879597F90895E894F92F96EBFF2381F06A
S1133160121613061406440B9395F69587957795D6
S1133170679557954040FF23B9F71BC099270895D9
S1133180882351F49850D2F7872B762F652F542F2C
S1133190432F322F20E0B1F3121613061406440B0A
S11331A088233AF09A95440F551F661F771F881F8E
S11331B0CAF755234AF4440F551F11F460FF04C0A5
S11331C06F5F7F4F8F4F9F4F880F9695879597F925
S11331D00895990F0008550FAA0BE0E8FEEF1616A4
S11331E01706E807F907C0F012161306E407F507F7
S11331F098F0621B730B840B950B39F40A2661F06B
S1133200232B242B252B21F408950A2609F4A1400D
S1133210A6958FEF811D811D089597F99F6780E81A
S113322070E060E008959FEF80EC0895909580959C
S11332307095609550954095309521953F4F4F4F2F
S11332405F4F6F4F7F4F8F4F9F4F089500240A9415
S11332501616170618060906089500240A9412166D
S11332601306140605060895092E0394000C11F4A0
S1133270882352F0BB0F40F4BF2B11F460FF04C04D
S11332806F5F7F4F8F4F9F4F089557FD9058440FA6
S1133290551F59F05F3F71F04795880F97FB991FB1
S11332A061F09F3F79F0879508951216130614066E
S11332B0551FF2CF4695F1DF08C0161617061806FB
S11332C0991FF1CF86957105610508940895E894D6
S11332D0BB2766277727CB0197F908950E94E91841
S11332E008F48FEF089516F00C94301A0C94131907
S11332F068940C940D190E944D19A8F39923C1F3F5
S1133300AEF3DF93CF931F930F93FF92C92FDD2763
S113331088232AF02197660F771F881FDAF720E0A9
S113332030E040E85FEB9FE3883920F0803E38F0DE
S113333021968F770E941917ECE7F0E004C00E94F1
S11333401917E9EAF0E00E943E1A8B01BE01EC0174
S1133350FB2E6F5771097595771F880B990B0E9487
S1133360701828E132E741E35FE30E94D619AF2DDC
S11333709801AE01FF900F911F91CF91DF910E94B0
S113338030170C9434190E94D6190C9434190E94E5
S1133390261938F00E942D1920F0952311F00C9471
S11333A00D190C94131911240C9468190E944519D1
S11333B070F3959FC1F3950F50E0551F629FF00184
S11333C0729FBB27F00DB11D639FAA27F00DB11D9D
S11333D0AA1F649F6627B00DA11D661F829F222726
S11333E0B00DA11D621F739FB00DA11D621F839FAD
S11333F0A00D611D221F749F3327A00D611D231F83
S1133400849F600D211D822F762F6A2F11249F57D0
S113341050409AF0F1F088234AF0EE0FFF1FBB1FD3
S1133420661F771F881F91505040A9F79E3F510592
S113343080F00C940D190C9468195F3FE4F3983EE6
S1133440D4F3869577956795B795F795E7959F5F3C
S1133450C1F7FE2B880F911D9695879597F90895CE
S11334609F3F31F0915020F4879577956795B795F4
S1133470880F911D9695879597F90895DF93CF93BB
S11334801F930F93FF92EF92DF927B018C0168945C
S113349006C0DA2EEF010E94D619FE01E894A59128
S11334A02591359145915591A6F3EF010E9430176E
S11334B0FE019701A801DA9469F7DF90EF90FF907D
S11334C00F911F91CF91DF910895AA1BBB1B51E16E
S11334D007C0AA1FBB1FA617B70710F0A61BB70B80
S11334E0881F991F5A95A9F780959095BC01CD0125
S11334F0089597FB072E16F4009407D077FD09D0A2
S11335000E94651A07FC05D03EF4909581959F4F63
S11335100895709561957F4F0895A1E21A2EAA1B14
S1133520BB1BFD010DC0AA1FBB1FEE1FFF1FA2176F
S1133530B307E407F50720F0A21BB30BE40BF50B6C
S1133540661F771F881F991F1A9469F760957095F5
S1133550809590959B01AC01BD01CF010895A29F78
S1133560B001B39FC001A39F700D811D1124911D53
S1133570B29F700D811D1124911D08952A0D3B1DCC
S11335804C1D5D1D6E1D7F1D801F911F089500241D
S1133590A7FD00942A0F301D401D501D601D701D95
S11335A0801D901D08952A193B094C095D096E0977
S11335B07F09800B910B08952A153B054C055D0589
S11335C06E057F05800791070895DC01CB01FC019E
S11335D0F999FECF06C0F2BDE1BDF89A319600B468
S11335E00D9241505040B8F70895DC01A40FB51F67
S11335F04150504048F0CB01840F951F2E910E94FA
S1133600061B41505040D0F70895262FF999FECF5C
S113361092BD81BDF89A019700B4021639F01FBA21
S113362020BD0FB6F894FA9AF99A0FBE0895F8944B
S1053630FFCFC6
S111363201010000065B4F666D7D077F6F008F
S9030000FC
