:100000000C9489000C94A6000C94A6000C94A600F5
:100010000C94A6000C94A6000C94A6000C94A600C8
:100020000C94A6000C94A6000C94A6000C94A600B8
:100030000C94A6000C94A6000C94A6000C94A600A8
:100040000C94C50E0C94A6000C94A6000C94A6006B
:100050000C94A6000C94A6000C94A6000C94A60088
:100060000C94A6000C94A6000C94A6000C94A60078
:100070000C94A6000C94A6000C94A60070097609B6
:100080007B09800985098A098F09A510AF10B21074
:10009000B810BF10D210E91008000000BE92244929
:1000A000123EABAAAA2ABECDCCCC4C3E00000080AA
:1000B000BEABAAAAAA3E00000000BF000000803F1D
:1000C0000000000000084178D3BB4387D1133D19DD
:1000D0000E3CC3BD4282AD2B3E68EC8276BED98F0A
:1000E000E1A93E4C80EFFFBE01C4FF7F3F0000004E
:1000F0000000000000000000000000000000000000
:10010000010000000000000000000000FFFF0000F0
:10011000000011241FBECFEFD0E1DEBFCDBF11E044
:10012000A0E0B1E0E8E5FEE302C005900D92AE303C
:10013000B107D9F721E0AEE0B1E001C01D92AB3FBD
:10014000B207E1F70E94550F0C942A1F0C9400008F
:100150000E94391580E008950E94FE1880E00895FD
:1001600080913D0190913E01181619062CF4809162
:10017000450161E08F5F06C0892B59F080914501F0
:1001800061E081500E94791260E00E946E128093BB
:1001900045010E94E81780914501882361F0813074
:1001A00021F560918F017091900180919101909162
:1001B000920141E009C060917B0170917C018091C6
:1001C0007D0190917E0140E00E945C0F0E94DF174C
:1001D00080913F0180FF0BC01092450184E69CE0B6
:1001E000909344018093430102C084E0089580E02D
:1001F000089580913D0190913E01892BA1F080915D
:10020000790191E0811190E090937901811103C00F
:100210000E94390F04C00E94480F1092780187E4B1
:1002200091E00E94FC140E94E817809179010E94DD
:10023000F6100E94DF1780913F0180FF09C081E026
:100240008093450189EE98E09093440180934301A7
:1002500080E0089560913D0170913E016115710546
:1002600049F1072E000C880B990B0E947D1C20E0A1
:1002700030E040E05FE30E94D01D20911F013091EB
:10028000200140912101509122010E94261B20E073
:1002900030E048EC52E40E94AE1220E030E0A901C8
:1002A0000E948E1260931F017093200180932101A0
:1002B000909322010E94E81760911F017091200124
:1002C00080912101909122010E9412110E94DF175A
:1002D00080913F0180FF09C082E08093450189EE53
:1002E00098E0909344018093430180E00895CF9378
:1002F00020913D0130913E01809145011216130677
:100300001CF463E08F5F04C0232B49F063E081504D
:100310000E94791260E00E946E1280934501E09184
:100320004501E43028F4F0E0E050FF4FC08101C007
:10033000C0E00E94E8176C2F809145010E94711067
:100340000E94DF1780913F0180FF0FC0CC2369F02E
:100350008091450180933B0183E08093450189EEC4
:1003600098E0909344018093430180E0CF910895F9
:100370008F929F92AF92BF92CF92DF92EF92FF92B5
:100380000F931F9360913D0170913E0161157105BE
:1003900009F471C0072E000C880B990B0E947D1C7C
:1003A0002DEC3CEC4CEC5DE30E94D01D2091230130
:1003B0003091240140912501509126010E94261B75
:1003C0002CE53FEF49E754E40E94AE1220E030E014
:1003D000A9010E948E12AB01BC01409323015093EE
:1003E0002401609325017093260180902F01909045
:1003F0003001A0903101B0903201C0902B01D0901B
:100400002C01E0902D01F0902E0100912701109118
:1004100028012091290130912A0182E48F9388ECF0
:100420008F931F921F921F921F921F921F92809173
:100430003A018F93809139018F93809138018F9386
:10044000809137018F93809136018F938091350190
:100450008F93809134018F93809133018F9387E440
:1004600091E00E942A138DB79EB740960FB6F8947C
:100470009EBF0FBE8DBF0E94E8176091230170914F
:10048000240180912501909126010E9448110E942B
:10049000DF1780913F0180FF09C081E08093450113
:1004A0008CE399E0909344018093430180E01F9195
:1004B0000F91FF90EF90DF90CF90BF90AF909F9003
:1004C0008F9008958F929F92AF92BF92CF92DF92BA
:1004D000EF92FF920F931F9360913D0170913E0147
:1004E0006115710509F471C0072E000C880B990B7A
:1004F0000E947D1C2DEC3CEC4CEC5DE30E94D01D79
:1005000020912701309128014091290150912A0121
:100510000E94261B2CE53FEF49E754E40E94AE12EF
:1005200020E030E0A9010E948E128B019C016093B3
:100530002701709328018093290190932A018090CC
:100540002F0190903001A0903101B0903201C09005
:100550002B01D0902C01E0902D01F0902E014091C4
:10056000230150912401609125017091260182E4BC
:100570008F9388EC8F931F921F921F921F921F924E
:100580001F9280913A018F93809139018F938091CE
:1005900038018F93809137018F93809136018F932B
:1005A000809135018F93809134018F938091330135
:1005B0008F9387E491E00E942A138DB79EB74096EF
:1005C0000FB6F8949EBF0FBE8DBF0E94E8176091D2
:1005D0002701709128018091290190912A010E94A0
:1005E00046110E94DF1780913F0180FF09C082E021
:1005F000809345018CE399E09093440180934301FB
:1006000080E01F910F91FF90EF90DF90CF90BF900F
:10061000AF909F908F9008958F929F92AF92BF92CC
:10062000CF92DF92EF92FF920F931F9360913D0163
:1006300070913E016115710509F471C0072E000C1F
:10064000880B990B0E947D1C2DEC3CEC4CEC5DE37F
:100650000E94D01D20912B0130912C0140912D0141
:1006600050912E010E94261B2CE53FEF49E754E4F0
:100670000E94AE1220E030E0A9010E948E126B01B0
:100680007C0160932B0170932C0180932D0190933A
:100690002E0180902F0190903001A0903101B090F8
:1006A00032010091270110912801209129013091F8
:1006B0002A014091230150912401609125017091FC
:1006C000260182E48F9388EC8F931F921F921F92D2
:1006D0001F921F921F9280913A018F93809139014E
:1006E0008F93809138018F93809137018F93809100
:1006F00036018F93809135018F93809134018F93D0
:10070000809133018F9387E491E00E942A138DB783
:100710009EB740960FB6F8949EBF0FBE8DBF0E9445
:10072000E81760912B0170912C0180912D0190911F
:100730002E010E9444110E94DF1780913F0180FF2B
:1007400009C083E0809345018CE399E090934401D4
:100750008093430180E01F910F91FF90EF90DF9015
:10076000CF90BF90AF909F908F9008958F929F925F
:10077000AF92BF92CF92DF92EF92FF920F931F93AF
:1007800060913D0170913E016115710509F471C0E0
:10079000072E000C880B990B0E947D1C2DEC3CEC65
:1007A0004CEC5DE30E94D01D20912F01309130016F
:1007B00040913101509132010E94261B20E030E02F
:1007C00040E85FE30E94AE1220E030E0A9010E9401
:1007D0008E124B015C0160932F0170933001809366
:1007E000310190933201C0902B01D0902C01E09008
:1007F0002D01F0902E0100912701109128012091E8
:10080000290130912A0140912301509124016091E6
:1008100025017091260182E48F9388EC8F931F92BB
:100820001F921F921F921F921F9280913A018F93E5
:10083000809139018F93809138018F938091370196
:100840008F93809136018F93809135018F938091A2
:1008500034018F93809133018F9387E491E00E945C
:100860002A138DB79EB740960FB6F8949EBF0FBE61
:100870008DBF0E94E81760912F0170913001809127
:100880003101909132010E9442110E94DF17809144
:100890003F0180FF09C084E0809345018CE399E02B
:1008A000909344018093430180E01F910F91FF904A
:1008B000EF90DF90CF90BF90AF909F908F90089572
:1008C0006F927F928F929F92AF92BF92CF92DF9260
:1008D000EF92FF920F931F9360913D0170913E0143
:1008E0006115710509F478C0072E000C880B990B6F
:1008F0000E947D1C20E030E040E05FE30E94D01DBC
:1009000020913301309134014091350150913601ED
:100910000E94261B20E030E048E452E40E94AE1220
:1009200020E030E048E452EC0E948E12F62F772E41
:10093000682EE92F862F972DA62DBE2F8093330189
:1009400090933401A0933501B093360180902F012C
:1009500090903001A0903101B0903201C0902B01F5
:10096000D0902C01E0902D01F0902E0100912701F4
:10097000109128012091290130912A0140912301F1
:1009800050912401609125017091260182E48F939A
:1009900088EC8F931F921F921F921F921F921F929B
:1009A00080913A018F93809139018F938091380122
:1009B0008F93809137018F93EF936F927F92FF9384
:1009C00087E491E00E942A138DB79EB740960FB638
:1009D000F8949EBF0FBE8DBF0E94E817609133014F
:1009E0007091340180913501909136010E942A1155
:1009F0000E94DF1780913F0180FF09C085E080934E
:100A000045018CE399E0909344018093430180E099
:100A10001F910F91FF90EF90DF90CF90BF90AF901C
:100A20009F908F907F906F9008956F927F928F929A
:100A30009F92AF92BF92CF92DF92EF92FF920F936D
:100A40001F9360913D0170913E016115710509F49C
:100A500077C0072E000C880B990B0E947D1C2AE0A2
:100A600037ED43EA5BE30E94D01D209137013091BE
:100A700038014091390150913A010E94261B20E033
:100A800030E040E85FE30E94AE1220E030E0A901D0
:100A90000E948E12F62F772E682EE92F862F972D23
:100AA000A62DBE2F8093370190933801A093390172
:100AB000B0933A0180902F0190903001A0903101C5
:100AC000B0903201C0902B01D0902C01E0902D010C
:100AD000F0902E0100912701109128012091290109
:100AE00030912A0140912301509124016091250108
:100AF0007091260182E48F9388EC8F931F921F924E
:100B00001F921F921F921F92EF936F927F92FF93FB
:100B1000809136018F93809135018F9380913401BC
:100B20008F93809133018F9387E491E00E942A1381
:100B30008DB79EB740960FB6F8949EBF0FBE8DBF7F
:100B40000E94E81760913701709138018091390156
:100B500090913A010E944A110E94DF1780913F0153
:100B600080FF09C086E0809345018CE399E0909373
:100B700044018093430180E01F910F91FF90EF901B
:100B8000DF90CF90BF90AF909F908F907F906F90AD
:100B9000089580913D0190913E01009729F12091A7
:100BA000770164E670E0820F911D0E947E1260E082
:100BB00070E00E9473128093770190917A019111F5
:100BC00005C0882339F00E94491804C0811102C071
:100BD0000E945C188091770191E0811101C090E042
:100BE00090937A010E9432180E94E8178091770151
:100BF0000E9462110E94DF1780913F0180FF09C0AF
:100C000081E08093450189E999E0909344018093C4
:100C1000430180E008950E94E81760917F01709180
:100C2000800180918101909182010E94AB110E940C
:100C3000DF1780913F0180FF09C081E0809345016B
:100C400084ED99E0909344018093430180E00895FE
:100C50000E94E81760919301709194018091950131
:100C6000909196010E94AB110E94DF1780913F0185
:100C700080FF09C082E08093450184ED99E0909364
:100C800044018093430180E008950E94E8170E9488
:100C9000BA110E94DF1780913F0180FF09C083E0F5
:100CA0008093450184ED99E0909344018093430142
:100CB00080E008950E94E8170E94BA110E94DF1791
:100CC00080913F0180FF09C084E08093450184ED5D
:100CD00099E0909344018093430180E008954F92FE
:100CE0005F926F927F928F929F92AF92BF92CF92BC
:100CF000DF92EF92FF920F931F93CF93DF9386E4DF
:100D000091E00E94251A60937B0170937C0180938F
:100D10007D0190937E01C0914601C11148C280912E
:100D20004301909144018B50964091F0C0907B011B
:100D3000D0907C01E0907D01F0907E0120E030E0D9
:100D4000A901C701B6010E94921B87FF12C04DC0C6
:100D500086E491E00E94DC1960937F01709380012A
:100D60008093810190938201C0914601CC23F1F2DE
:100D70001EC220E030E048E453E4C701B6010E94FF
:100D80007B1D18160CF43EC08091780181113CC087
:100D90008091780181116DC086E491E00E94DC1A97
:100DA00060938F01709390018093910190939201D1
:100DB000C0914601C111FBC1809143019091440152
:100DC0008852964009F4B1C0C0908F01D090900134
:100DD000E0909101F090920120E030E0A901C7017C
:100DE000B6010E94921B87FF02C0C6E0E0C120E06E
:100DF00030E048E453E4C701B6010E947B1D181699
:100E00000CF0A6C0C5E0D3C12091830130918401CC
:100E10004091850150918601C701B6010E94251BB2
:100E200020E030E040EA50E40E94921B87FFB0CF00
:100E30000E94820EA0908701B0908801C090890125
:100E4000D0908A01E0908B01F0908C0100918D018F
:100E500010918E010E94E61E0E94B60C20E030E048
:100E600040E752E40E947B1D18160CF091CFC3E0BE
:100E70009EC1209183013091840140918501509160
:100E8000860160917B0170917C0180917D01909140
:100E90007E010E94251B20E030E040EA50E40E94E1
:100EA0007B1D87FD79CF0E94820EA0908701B090B4
:100EB0008801C0908901D0908A01E0908B01F09068
:100EC0008C0100918D0110918E010E94E61E0E94FE
:100ED000B60C20E030E040E752E40E94921B181666
:100EE0000CF45ACF80917B0190917C01A0917D01FF
:100EF000B0917E018093830190938401A09385013A
:100F0000B09386010E94820E20938701309388015E
:100F10004093890150938A0160938B0170938C01F7
:100F200080938D0190938E0137CF86E491E00E94EB
:100F3000931A609393017093940180939501909319
:100F4000960180914601882309F43ECFC82F2FC116
:100F500080913B01813009F097C080917801811127
:100F600005C080917801811135C08EC02091970114
:100F7000309198014091990150919A01C701B601B1
:100F80000E94251B20E030E040E85FE30E94921BB6
:100F900087FFE7CF0E94820EA0909B01B0909C013A
:100FA000C0909D01D0909E01E0909F01F090A00123
:100FB0000091A1011091A2010E94E61E0E94B60CB0
:100FC00020E030E046E953E40E947B1D18160CF443
:100FD0004ECFC7CF20919701309198014091990150
:100FE00050919A0160918F017091900180919101CF
:100FF000909192010E94251B20E030E040E85FE3E1
:101000000E947B1D87FD40C00E94820EA0909B0124
:10101000B0909C01C0909D01D0909E01E0909F01F6
:10102000F090A0010091A1011091A2010E94E61E82
:101030000E94B60C20E030E046E953E40E94921B87
:10104000181614F180918F0190919001A091910157
:10105000B09192018093970190939801A093990188
:10106000B0939A010E94820E20939B0130939C01C1
:1010700040939D0150939E0160939F017093A00146
:101080008093A1019093A20180917901882309F4B2
:101090008EC080913B01882361F0813009F086C0C9
:1010A00040918F0150919001609191017091920156
:1010B00008C040917B0150917C0160917D0170914D
:1010C0007E0100911F01109120012091210130919A
:1010D000220187E491E00E9476132B013C0180906D
:1010E0007B0190907C01A0907D01B0907E0120E07A
:1010F00030E04CE053E4C501B4010E947B1DF09048
:10110000780118160CF44AC0C301B2010E944C1CAD
:10111000D62F633608F443C0F11044C081E08093B9
:1011200078018092830190928401A0928501B0920F
:1011300086010E94820E209387013093880140939C
:10114000890150938A0160938B0170938C01809385
:101150008D0190938E0180918F0190919001A091CB
:101160009101B09192018093970190939801A0937F
:101170009901B0939A010E94820E20939B013093B3
:101180009C0140939D0150939E0160939F01709339
:10119000A0018093A1019093A20104C0D0E0F110BE
:1011A000109278018D2F0E94280F01C0C4E08C2F6F
:1011B000DF91CF911F910F91FF90EF90DF90CF9033
:1011C000BF90AF909F908F907F906F905F904F9067
:1011D000089580913D0190913E01181619062CF456
:1011E0008091450164E08F5F06C0892B59F08091A2
:1011F000450164E081500E94791260E00E946E1205
:10120000809345010E94E817809145010E94F10FEB
:101210000E94DF1780913F0180FF2CC08091450123
:101220008230C9F04CF4882381F0813019F5109296
:10123000450189EF90E01AC0833091F08430D1F4F9
:10124000109245018CE399E011C081E08093450143
:1012500084E69CE00BC0109245018AE291E006C052
:1012600080913B018093450187E791E09093440191
:101270008093430180E0089580913D0190913E016B
:10128000181619062CF48091450166E08F5F06C0A0
:10129000892B59F08091450166E081500E947912B6
:1012A00060E00E946E12809345010E94E8178091D1
:1012B00045010E949B100E94DF1780913F0180FF33
:1012C00036C0E09145018E2FEE0F990BAA0BBB0B98
:1012D0008730910560F5FC01E25CFF4F0C94BC1E69
:1012E00084E08093450189EE98E01DC0109245018D
:1012F00088EB91E018C01092450182E692E013C09D
:10130000109245018CE093E00EC01092450186EBEF
:1013100093E009C01092450180E694E004C0109269
:10132000450185E195E0909344018093430180E07D
:10133000089580913D0190913E01181619062CF4F4
:101340008091450161E08F5F06C0892B59F0809143
:10135000450161E081500E94791260E00E946E12A6
:10136000809345010E94E817809145010E94511029
:101370000E94DF1780913F0180FF14C080914501DA
:10138000882339F0813071F41092450189EC95E0A1
:1013900005C082E08093450184E69CE0909344017F
:1013A0008093430180E0089580913D0190913E013A
:1013B000181619062CF48091450164E08F5F06C071
:1013C000892B59F08091450164E081500E94791287
:1013D00060E00E946E12809345010E94E8178091A0
:1013E00045010E947E110E94DF1780913F0180FF1E
:1013F0002AC0809145018230C9F04CF4882381F0E5
:10140000813009F5109245018BE096E018C08330D9
:1014100091F08430C1F4109245018AE596E00FC046
:1014200083E08093450184E69CE009C01092450169
:1014300088E296E004C01092450185E496E090931E
:1014400044018093430180E00895EFE1F1E0178EBD
:10145000168E10A211A212A213A20895CF93DF93A9
:101460000E94250A0E942D15CFE1D1E09F8F8E8F1B
:1014700080E00E94F2189BA1892B8BA380E00E9440
:10148000981898A1892B88A380E00E94D41899A16C
:10149000892B89A380E00E94B6189AA1892B8AA380
:1014A000ECA1FDA1DF91CF910994809146018823A1
:1014B00041F00E94E817809146010E94C2110C94ED
:1014C000DF170895EFE1F1E080E090E0A8ECB1E4EF
:1014D00080839183A283B38380E090E0A0E8BFE3A0
:1014E00084839583A683B78340E050E060EF71E486
:1014F00040875187628773871486158616861786FC
:10150000808B918BA28BB38B148A158A168A178ACB
:10151000108E118E128E138E148E0895CF93DF933A
:10152000CDB7DEB76E970FB6F894DEBF0FBECDBF56
:1015300089E089838DE1EFE1F1E0DE01129601900F
:101540000D928A95E1F74EE150E060E070E0CE0147
:1015500001960E94081F6E960FB6F894DEBF0FBE6C
:10156000CDBFDF91CF9108958F929F92AF92BF929E
:10157000CF92DF92EF92FF920F931F93CF93DF935F
:10158000CDB7DEB76E970FB6F894DEBF0FBECDBFF6
:101590004EE150E060E070E0CE0101960E94F81E3E
:1015A0008981893029F00E94620A0E948E0A09C04E
:1015B0008DE1FE013296AFE1B1E001900D928A9586
:1015C000E1F780902F0190903001A0903101B09010
:1015D0003201C0902B01D0902C01E0902D01F090B1
:1015E0002E010091270110912801209129013091AD
:1015F0002A014091230150912401609125017091AD
:10160000260182E48F9388EC8F931F921F921F9282
:101610001F921F921F9280913A018F9380913901FE
:101620008F93809138018F93809137018F938091B0
:1016300036018F93809135018F93809134018F9380
:10164000809133018F9387E491E00E942A130FB6B3
:10165000F894DEBF0FBECDBF6E960FB6F894DEBF16
:101660000FBECDBFDF91CF911F910F91FF90EF90F3
:10167000DF90CF90BF90AF909F908F9008958F9202
:101680009F92AF92BF92CF92DF92EF92FF920F9311
:101690001F93CF93109246010E94BF0C0E94F11736
:1016A0000E946B180E940E150E94B40A10927701D6
:1016B0001092790110927A01109278010E94F71726
:1016C0000E945C180E94040F0E94480F80902F0116
:1016D00090903001A0903101B0903201C0902B0168
:1016E000D0902C01E0902D01F0902E010091270167
:1016F000109128012091290130912A014091230164
:1017000050912401609125017091260182E48F930C
:1017100088EC8F931F921F921F921F921F921F920D
:1017200080913A018F93809139018F938091380194
:101730008F93809137018F93809136018F938091A1
:1017400035018F93809134018F93809133018F9372
:1017500087E491E00E94CE120E94821920E04FE6B9
:1017600056E06AE077ED83EA9CE30E94930E21E065
:101770004EE25AE06AE077ED83E29DE30E94930E29
:1017800022E048EA50E06FE672E183E89AE30E94C3
:10179000930E23E04CEA50E06AE077ED83EA9BE3A6
:1017A0000E94930E0E94250A80EB90E090934401E2
:1017B000809343010E94A51986E491E00E94251AB6
:1017C00060937B0170937C0180937D0190937E01F7
:1017D0008DB79EB740960FB6F8949EBF0FBE8DBFD3
:1017E00080914601811146C086E491E00E94DC1997
:1017F00060937F01709380018093810190938201B7
:1018000080914601811136C086E491E00E94DC1A85
:1018100060938F0170939001809391019093920156
:1018200080914601811126C086E491E00E94931ABE
:101830006093930170939401809395019093960126
:1018400080914601811116C00E940C0D10923C013E
:10185000C1E080913C01811109C00E947B0D809301
:1018600046018823B1F3C0933C01F3CFC0914601F8
:10187000CC2379F00E94170F0E9416180E94941929
:101880000E9425150E9483180E94550AC0914601A6
:101890000EC00E94350D0E9416180E94170F0E945C
:1018A00094190E9425150E9483180E9430168C2FCF
:1018B000CF911F910F91FF90EF90DF90CF90BF904D
:1018C000AF909F908F90089580913D0190913E013F
:1018D000181619062CF48091450165E08F5F06C04B
:1018E000892B59F08091450165E081500E94791261
:1018F00060E00E946E12809345010E94E81780917B
:1019000045010E94810F0E94DF1780913F0180FFF7
:101910002BC0809145018230B9F04CF4882379F0D6
:10192000813011F51092450189EE98E016C084309F
:10193000C9F07CF08530C1F40E948E0A15C0109267
:10194000450180EB90E009C01092450189E999E0DA
:1019500004C01092450184ED99E090934401809376
:10196000430102C00E94B40A80E008950E94B81C9E
:1019700028E33EE94FEC58E30E94D01D08951092F1
:10198000F3011092F4011092F5011092F6011092F9
:10199000F7011092F8011092F9011092FA011092D9
:1019A000EB011092EC011092ED011092EE011092F9
:1019B000EF011092F0011092F1011092F201E3EAAE
:1019C000F1E0108211821282138214821582168233
:1019D000178210861186128613861486158616863F
:1019E0001786118A108A729681E0EB3EF80749F754
:1019F00080916E008C7F80936E0085B5887F85BD59
:101A000084B5826084BD82E687BD80916E0082606D
:101A100080936E00789408951092F3011092F4016F
:101A20001092F5011092F6011092F7011092F80150
:101A30001092F9011092FA011092EB011092EC0150
:101A40001092ED011092EE011092EF011092F00150
:101A50001092F1011092F20116BC85B5826085BD2D
:101A6000089585B5887F85BD08950E94310D8091C8
:101A70006E008D7F80936E0084B58D7B84BD16BC17
:101A800017BC1092F3011092F4011092F50110921C
:101A9000F6011092F7011092F8011092F9011092DC
:101AA000FA011092EB011092EC011092ED011092EC
:101AB000EE011092EF011092F0011092F1011092DC
:101AC000F201E3EAF1E010821182128213821482A1
:101AD0001582168217821086118612861386148646
:101AE000158616861786118A108A729681E0EB3E5B
:101AF000F80749F708952F923F924F925F926F92A5
:101B00007F928F929F92AF92BF92CF92DF92EF928D
:101B1000FF920F931F93CF93DF93CDB7DEB76297FA
:101B20000FB6F894DEBF0FBECDBFEFB7F89420918B
:101B3000F3013091F4014091F5015091F60160916B
:101B4000F7017091F8018091F9019091FA01A0904C
:101B5000EB01B090EC01C090ED01D090EE01E0906F
:101B6000EF01F090F0010091F1011091F2010E945B
:101B7000E61E2F83388749875A876B877C878D8736
:101B80009E877091F3016091F4015091F5014091AD
:101B9000F6013091F7012091F8019091F9018091BF
:101BA000FA017093EB016093EC015093ED014093C7
:101BB000EE013093EF012093F0019093F1018093B7
:101BC000F201EFBF83EA91E0988B8F87EF85F88968
:101BD0000088F189E02DFE83ED83EF2B51F48F8592
:101BE00098894296988B8F878B5E914079F780E039
:101BF00070C02F81388549855A856B857C858D8598
:101C00009E85EF85F889A084B184C284D384E4845E
:101C1000F584068517850E94D11E19012A013B0112
:101C20004C01208731864287538664877586868774
:101C30009786B081A181F281F98BEF85F889F381D4
:101C4000FA8BEF85F889F481F983EF85F889F581BE
:101C5000FA83EF85F889F681FB83EF85F889F781B0
:101C6000FC83AB2EBA2EC988DA88E980FA800B8112
:101C70001F2F0E94EF1E08F4B2CF0E94E61E19012A
:101C80002A013B014C012B2F3A2FA601B701C801B5
:101C90005101620173018401EF85F8890E94EF1EF2
:101CA00051F048F0208631864286538664867586D8
:101CB0008686978608C0108611861286138614863B
:101CC000158616861786ED81FE810995882309F40D
:101CD00086CF62960FB6F894DEBF0FBECDBFDF9100
:101CE000CF911F910F91FF90EF90DF90CF90BF9019
:101CF000AF909F908F907F906F905F904F903F90AC
:101D00002F9008952091EB013091EC014091ED016D
:101D10005091EE016091EF017091F0018091F1011D
:101D20009091F20108950F931F93CF93DF938A014F
:101D300032E1239FE0011124CD55DE4F28E33EE937
:101D40004FEC58E30E94971B20E030E040E05FE357
:101D50000E94261B0E940E1C288339834A835B83C2
:101D60006C837D838E839F83FE0138961886118253
:101D7000128213821482158216821782198B088BA5
:101D8000DF91CF911F910F9108951F920F920FB67F
:101D90000F9211242F933F934F935F936F937F93F1
:101DA0008F939F93AF932091F3013091F401409171
:101DB000F5015091F6016091F7017091F801809161
:101DC000F9019091FA01A1E00E94DA1E2093F3013B
:101DD0003093F4014093F5015093F6016093F701BD
:101DE0007093F8018093F9019093FA01AF919F915C
:101DF0008F917F916F915F914F913F912F910F90B4
:101E00000FBE0F901F90189510927000E1EBF0E05C
:101E10008081897F8083E0EBF0E080818160808336
:101E20001092B3001092B200579A5F980895E1EBB8
:101E3000F0E08081897F80831092B2001092B3001D
:101E4000E0EBF0E080818E77808357985F9808956B
:101E500064E60E94891260E00E9484122FEF829F44
:101E6000C001112464E670E00E94721E6093B3000A
:101E700008951092B2001092B300E0EBF0E0808180
:101E800080688083E1EBF0E0808186608083089544
:101E9000E0EBF0E080818F778083E1EBF0E0808100
:101EA000897F80831092B20008950E943F0B8111B8
:101EB000FFCF80E090E00895CF92DF92EF92FF9203
:101EC0000F936B017C01413049F030F0423041F01A
:101ED000433051F46FEC05C06FEB03C066E801C0FE
:101EE0006BED80E00E94321605E021E041E0C70181
:101EF000B6010E943D160F91FF90EF90DF90CF90BA
:101F000008958230F1F028F4882351F0813059F09F
:101F100008958430D9F120F1853009F44AC008953C
:101F200060E480E05CC064E780E00E94321669E70C
:101F300081E00E94321667E782E00E94321668E76D
:101F40000DC06DE680E00E94321668E781E00E94D5
:101F5000321666E082E00E94321660E583E03FC000
:101F600068EF80E00E94321669E381E00E94321639
:101F700067E782E00E94321668E383E00E9432162F
:101F800066E084E00E9432166CE728C068E380E0D7
:101F90000E9432166CE581E00E94321667E782E00B
:101FA0000E9432166EED83E00E9432166DEE84E0E0
:101FB00016C06DE680E00E94321668E781E00E945C
:101FC00032166CE582E00E94321660E583E00E94E2
:101FD000321669EF84E00E9432166DEE85E00C94B3
:101FE0003216823039F128F4882351F0813079F0AB
:101FF00008958430D9F160F1853009F442C0089524
:1020000060E480E00E94321660E481E048C06CE544
:1020100080E00E94321664E581E00E9432166CE591
:1020200082E00E94321661E783E00E94321661E787
:1020300084E035C068E780E00E9432166FEE81E0F0
:102040000E94321668E782E00E94321663E726C0DB
:1020500068EF80E00E9432166DE681E00E94321641
:1020600069E782E00E94321668E318C063E780E007
:102070000E94321666E081E00E9432166EE582E030
:102080000EC06CE580E00E94321661E781E00E949C
:10209000321661E782E00E9432166DE683E00C940E
:1020A0003216882319F0813041F0089560E480E011
:1020B0000E94321660E481E012C06DE680E00E946A
:1020C000321663E781E00E94321669E782E00E94DF
:1020D000321669E783E00E9432166EE584E00C94C4
:1020E0003216662301F1813089F050F08230A1F080
:1020F0008330C9F468E784E00E9432166FE411C0AF
:1021000068E784E00E9432166FE30BC068E784E062
:102110000E94321666E005C068E784E00E9432162D
:102120006BE585E006C064E580E00E94321669E355
:1021300081E00C94321690E08730910508F055C08C
:10214000FC01EB5BFF4F0C94BC1E60E480E00E943E
:10215000321660E481E00E94321660E443C063E717
:1021600080E041C068E780E00E94321666E005C06A
:1021700068E780E00E9432166EE581E034C066E0D8
:1021800080E00E94321660E481E00E94321669E32A
:1021900082E00E94321668E383E00E94321663E711
:1021A00084E021C06CE580E00E94321661E781E0A6
:1021B0000E94321661E782E00E9432166DE683E0EB
:1021C0000E94321669E784E00E94321668E785E0D3
:1021D0000AC06EE580E00E9432166DE681E00E9442
:1021E000321661E782E00C943216089560E388238A
:1021F00051F080E00E9432166CE581E00E943216B8
:1022000064E582E00DC080E00E9432166CE581E05A
:102210000E94321661E782E00E94321661E783E095
:102220000C943216CF92DF92EF92FF920F936B01D4
:102230007C0160E380E00E94321605E021E041E08D
:10224000C701B6010E943D160F91FF90EF90DF90FD
:10225000CF900895CF92DF92EF92FF920F936B0190
:102260007C0160E380E00E94321605E022E041E05C
:10227000C701B6010E943D160F91FF90EF90DF90CD
:10228000CF9008950C942A110C942A110C942A11C1
:102290000C942A11CF92DF92EF92FF920F936B0171
:1022A0007C0160E380E00E94321605E023E041E01B
:1022B000C701B6010E943D160F91FF90EF90DF908D
:1022C000CF900895CF93C82F60E380E00E9432162C
:1022D000CC2339F045E061E08C2F90E0CF910C9455
:1022E00068176CE581E00E94321661E782E00E9487
:1022F000321661E783E0CF910C9432168230B9F048
:1023000028F4882341F0813061F008958330A9F0EA
:102310008430C9F0089560E480E00E94321660E4E1
:1023200017C068E780E00E9432166FE311C068E7CB
:1023300080E00E94321666E00BC068E780E00E94F1
:1023400032166BE505C068E780E00E9432166FE444
:1023500081E00C9432160F939F7720E030E04AE73B
:1023600054E40E94971B06E023E040E00E943D16E3
:102370000F91089564E580E00E94321669E381E0E0
:102380000C943216833009F443C0D8F4813051F1F3
:10239000823009F07CC068E780E00E94321664EF6A
:1023A00081E00E9432166DE682E00E94321664E7F8
:1023B00083E00E94321660E584E00E94321668E7EE
:1023C00052C0853009F451C0C8F1863009F05FC0B1
:1023D00068E780E00E94321664EF81E00E943216C6
:1023E00068E34CC068E780E00E94321664EF81E049
:1023F0000E9432166CE582E00E94321663E783E0A9
:102400000E94321669E784E00E94321664E52BC010
:1024100068E780E00E94321664EF81E00E94321685
:1024200064E582E00E94321660E583E00E94321685
:1024300069E784E00E9432166DE615C068E780E027
:102440000E94321664EF81E00E94321664E582E059
:102450000E9432166CE583E00E94321663E784E046
:102460000E94321669E785E024C068E780E00E9498
:10247000321664EF81E00E94321664E782E00E9427
:10248000321668E783E00E94321663E711C069E7FD
:1024900080E00E94321660E581E00E94321660E51D
:1024A00082E00E9432166CE583E00E94321660E5FD
:1024B00084E00C943216AC0120E081E090E03AE038
:1024C000622F70E06417750744F4BC01369FC001A9
:1024D000379F900D11242F5FF3CF089568170CF4E8
:1024E000682F862F0895681779070CF4BC01CB017B
:1024F000089586170CF4682F862F0895861797077E
:102500000CF4BC01CB010895681708F4682F862FDE
:102510000895861708F4682F862F0895CF92DF92CA
:10252000EF92FF920F931F93CF93DF938B01D82FDE
:10253000C92F69017A010E947B1D18161CF08601C3
:10254000DE2DCF2DB8018D2F9C2FDF91CF911F91C4
:102550000F91FF90EF90DF90CF900895CF92DF9290
:10256000EF92FF920F931F93CF93DF938B01D82F9E
:10257000C92F69017A010E94921B87FD03C0860161
:10258000DE2DCF2DB8018D2F9C2FDF91CF911F9184
:102590000F91FF90EF90DF90CF9008958F929F92D0
:1025A000AF92BF92CF92DF92EF92FF920F931F9361
:1025B000CF93DF93CDB7DEB7FC01408B518B628B9D
:1025C000738B048B158B268B378BC08ED18EE28E4E
:1025D000F38E848E958EA68EB78E8B8D9C8DAD8D51
:1025E000BE8D84A795A7A6A7B7A78F89988DA98D1B
:1025F000BA8D80A791A7A2A7B3A78F859889A9892B
:10260000BA8980A391A3A2A3B3A38B899C89AD8926
:10261000BE8984A395A3A6A3B7A3108211821282B8
:1026200013821482158216821782108611861286F2
:1026300013861486158616861786DF91CF911F9113
:102640000F91FF90EF90DF90CF90BF90AF909F9051
:102650008F9008958F929F92AF92BF92CF92DF9208
:10266000EF92FF920F931F93CF93DF93CDB7DEB717
:10267000FC01408B518B628B738B048B158B268BEB
:10268000378BC08ED18EE28EF38E848E958EA68E81
:10269000B78E8B8D9C8DAD8DBE8D84A795A7A6A77B
:1026A000B7A78F89988DA98DBA8D80A791A7A2A76A
:1026B000B3A78F859889A989BA8980A391A3A2A37A
:1026C000B3A38B899C89AD89BE8984A395A3A6A356
:1026D000B7A3DF91CF911F910F91FF90EF90DF9003
:1026E000CF90BF90AF909F908F9008954F925F9240
:1026F0006F927F928F929F92AF92BF92CF92DF9212
:10270000EF92FF920F931F93CF93DF93CDB7DEB776
:102710006A970FB6F894DEBF0FBECDBF9A8F898F30
:1027200049835A836B837C83C901B80129813A812B
:102730004B815C810E94251B6D877E878F87988BDC
:10274000A98DBA8D50968D919D910D90BC91A02D23
:1027500089879A87AB87BC879C01AD016D857E8593
:102760008F8598890E94D01DE98DFA8D20A131A115
:1027700042A153A10E94261B6D837E838F8398877D
:10278000A98DBA8D94964D905D906D907C909797A1
:10279000A301920160E070E080E89FE30E94251BA6
:1027A0006B017C01E98DFA8D208131814281538159
:1027B00069817A818B819C810E94251B2AE037EDFB
:1027C00043EA5CE30E94971BA70196010E94D01D7B
:1027D0004B015C01A98DBA8D18962D913D914D91BB
:1027E0005C911B97C301B2010E94D01D9B01AC01FB
:1027F000C501B4010E94261B4B015C01E98DFA8DD5
:1028000060877187828793872485358546855785BC
:10281000C701B6010E94D01D2B013C01A501940106
:10282000C701B6010E94D01D9B01AC01C301B201DA
:102830000E94261B6B017C01A98DBA8D1C966D939D
:102840007D938D939C931F9758962D913D914D911B
:102850005C915B9769857A858B859C850E94D01DEC
:10286000A70196010E94D01D9B01AC016D817E8164
:102870008F8198850E94251B6B017C0189819A813B
:10288000AB81BC81E98DFA8D80839183A283B38370
:1028900084A595A5A6A5B7A589839A83AB83BC8398
:1028A000A7019601BC01CD010E94251B20E030E06C
:1028B000A9010E948E124B015C01A98DBA8D5C9614
:1028C0008D919D910D90BC91A02D8D839E83AF83A2
:1028D000B887E98DFA8D40A451A462A473A4A7011E
:1028E0009601C301B2010E94251B20E030E0A9013E
:1028F0000E94AE12698B7A8B8B8B9C8BA98DBA8DC3
:1029000054966D917D918D919C9157972DEB37E366
:1029100046E054E30E948E126D8B7E8B8F8B988FD6
:102920002D813E814F815885C501B4010E94D01D83
:102930004B015C012D893E894F89588D69857A85C7
:102940008B859C850E94971B2D853E854F855889D8
:102950000E94D01D2AE037ED43EA5CE30E94D01DBF
:10296000E98DFA8D24813581468157810E94261B8D
:10297000A50194010E94AE124B015C0129893A899C
:102980004B895C896D817E818F8198850E94D01DE5
:102990009B01AC01C501B4010E948E129B01AC01E8
:1029A000A98DBA8D14966D937D938D939C931797F3
:1029B000C701B6010E94261B29813A814B815C81A7
:1029C0000E94AE12A30192016A960FB6F894DEBF80
:1029D0000FBECDBFDF91CF911F910F91FF90EF9070
:1029E000DF90CF90BF90AF909F908F907F906F902F
:1029F0005F904F900C948E12FC0110821182128213
:102A0000138214821582168217821086118612860E
:102A100013861486158616861786089584B1837FDB
:102A200084B985B18C6085B910920F0110920E01A6
:102A30001A9903C082E0809310011B9905C0809110
:102A40001001816080931001089510920F0110927F
:102A50000E0185B1837F85B908952FB7F8948091D1
:102A60000E0190910F0110920F0110920E012FBFD5
:102A700008958091100124E0829FC00111248F707D
:102A8000809310011A9905C0809110018260809393
:102A900010011B9905C08091100181608093100185
:102AA000E0911001F0E0EE0FFF1FEE50FF4F259177
:102AB000349180910E0190910F01820F931F90939A
:102AC0000F0180930E0160910E0170910F0188EE4D
:102AD00093E00E947E12BC0188E19CEF0E94731279
:102AE00090930F0180930E0108952C982C9A0895CD
:102AF0002D9A2D98089580FD2F9A80FF2F980C9481
:102B000078150F931F93CF93DF93C0E0D0E0082F89
:102B100010E0C8010C2E02C0959587950A94E2F743
:102B200081700E947B152196C830D10591F7DF9105
:102B3000CF911F910F9108950F931F93CF93DF9320
:102B40008C01C62FD0E0C80FD91FC017D10729F0BC
:102B5000219788810E948115F8CFDF91CF911F9135
:102B60000F9108952E9A2E98089584B1806F84B99C
:102B700085B18F7185B92C9A0E9475150C94B21588
:102B80000E9475150C94B2159F92AF92BF92CF928E
:102B9000DF92EF92FF920F931F93CF93DF93EC019D
:102BA000962E8A01662319F0D195C195D1092097F7
:102BB00059F030E0E22EF12C570161E0A61AB1087D
:102BC0008AE0C82ED12C2EC0F801E20FF11D3197FA
:102BD0008FE3808331E02CC0832F90E041E050E010
:102BE000911002C040E050E0B701641B750B8617DE
:102BF0009707F4F43F5FF501E81BF90BE00FF11FB5
:102C0000CE01B6010E94861E8150893078F4A82F2B
:102C1000B0E0AC5FBE4F8C918083CE01B6010E94C4
:102C2000861EEB011C161D06BCF202C08FE3F4CF1A
:102C3000992049F0E22FF0E03197E31BF109E00F12
:102C4000F11F80E4808381E0DF91CF911F910F918C
:102C5000FF90EF90DF90CF90BF90AF909F9008953E
:102C60000C94C015863038F4E82FF0E0EF5EFE4F8C
:102C7000608381E0089580E008952F923F924F9203
:102C80005F926F927F928F929F92AF92BF92CF92FC
:102C9000DF92EF92FF920F931F93CF93DF93CDB705
:102CA000DEB72A970FB6F894DEBF0FBECDBFE42F74
:102CB000F0E0FE83ED8310E0AF01400F511F47307D
:102CC000510514F080E0EBC0B22E6B017C0120E0D6
:102CD00030E0A9010E94921B8987A82EAA1CAA2471
:102CE000AA1CC701B6010E94451C2B013C014B01E7
:102CF0002B2C312CC1010E945B1298878F83B2016B
:102D0000052C000C880B990B0E947D1C9B01AC01CB
:102D1000C701B6010E94251B69837A838B839C833C
:102D20002F813885B901330F880B990B0E947D1CC8
:102D30009B01AC0169817A818B819C810E94D01DAD
:102D4000398537FF05C020E030E040E05FEB04C08C
:102D500020E030E040E05FE30E94261B0E94451C1B
:102D600069837A838B839C8320E030E0A901C701CB
:102D7000B6010E94921B87FF03C08FEF9FEF02C036
:102D800081E090E0E981FA818E9FA0018F9F500D34
:102D90009E9F500D11245A8749872F81388524170B
:102DA000350799F420E030E0A901C701B6010E947F
:102DB000921B87FF03C08FEF9FEF02C081E090E07E
:102DC0004C01840C951C1A8619868114910469F4AF
:102DD00020E030E0A901C701B6010E94921B582EE5
:102DE000551C5524551C53940BC05A2CC4012AE081
:102DF00030E0B9010E94861ECB0153940097C9F7B9
:102E000049855A854115510579F0452E441C4424C5
:102E1000441CCA012AE030E0B9010E94861ECB01A1
:102E200043940097C9F702C044244394652C712C45
:102E3000C101860D971D081719070CF443CF8D812A
:102E40009E818F5E9E4F7C01021913096C01C00E9A
:102E5000D11E2B2DA60160E089859A850E94C4159C
:102E6000F601241831082FE3CF018C199D09821532
:102E7000930514F42193F8CFA801461957094E0D74
:102E80005F1D252D6A2DC4010E94C4150150110932
:102E9000F701E00FF11F80818068808381E02A962E
:102EA0000FB6F894DEBF0FBECDBFDF91CF911F915B
:102EB0000F91FF90EF90DF90CF90BF90AF909F90D9
:102EC0008F907F906F905F904F903F902F900895DC
:102ED0008F929F92AF92BF92CF92DF92EF92FF922A
:102EE0000F931F93CF93DF93EC01E62FF0E0242F95
:102EF00030E0CF01820F931F07970CF050C0EF5EB8
:102F0000FE4FD7FF05C0002711270C1B1D0B03C068
:102F1000209789F08E0140E08D2F881F8827881F19
:102F20005901A81AB108490181E0881A91088AE07C
:102F3000C82ED12C20C0E20FF31F31978FE32DC094
:102F40004F5F7401E81AF90AEE0EFF1EC801B601C0
:102F50000E94861E81508930A0F4A82FB0E0AC5F9B
:102F6000BE4F8C91D7018C93C801B6010E94861E7A
:102F70008B01672B41F0842F90E08A159B0504F3A9
:102F800002C08FE3EFCFD7FF0CC0B90161507109C8
:102F9000641B7109E60FF71F80E4808302C080E0A4
:102FA00001C081E0DF91CF911F910F91FF90EF90D1
:102FB000DF90CF90BF90AF909F908F9008950E9428
:102FC000751566E081E191E00E949C150C94B215A4
:102FD000E1E1F1E0108211821282138214821582E3
:102FE00008950E94B5150E94E8170C94DF171092FF
:102FF0006F00E1E8F0E080818E7F8083A0E8B0E0A0
:103000008C918C9380818061808380EA90E09093A2
:103010008700809386001092890010928800109299
:10302000850010928400559A5D980895E1E8F0E0DB
:1030300080818E7F8083109287001092860010928C
:103040008500109284001092890010928800A0E8F8
:10305000B0E08C918F778C9380818F7E80835598A0
:103060005D98089564E60E94891260E00E948412CF
:10307000282F30E0A0EAB0E00E94C21E24E630E033
:1030800040E050E00E949A1E30938900209388000F
:103090000895109285001092840010928900109279
:1030A0008800E0E8F0E0808180688083E1E8F0E07B
:1030B0008081816080830895E0E8F0E080818F77EF
:1030C0008083E1E8F0E080818E7F8083109285002C
:1030D00010928400089584B18C7F84B985B1836097
:1030E00085B910921E0110921D0110921C011092C0
:1030F0001901EAE1F1E01082118283E08093180166
:1031000080931701089585B18C7F85B910921E01B7
:1031100010921D0110921C0110921901EAE1F1E0D8
:103120001082118283E08093180180931701089523
:1031300020911E0130E0082E02C0359527950A9493
:10314000E2F720FF11C040911E0121E030E0B901FB
:1031500002C0660F771F8A95E2F7CB018095842322
:1031600080931E0181E0089580E0089520911D0163
:1031700030E0082E02C0359527950A94E2F720FF2B
:1031800011C040911D0121E030E0B90102C0660F7D
:10319000771F8A95E2F7CB018095842380931D01E8
:1031A00081E0089580E0089520911C0130E0082E10
:1031B00002C0359527950A94E2F720FF11C040918F
:1031C0001C0121E030E0B90102C0660F771F8A952B
:1031D000E2F7CB018095842380931C0181E0089560
:1031E00080E008952091190130E0A90102C05595B1
:1031F00047958A95E2F7CA018170089593B130919D
:1032000019019095292F23278091180182238095F9
:1032100080931801809117019091180182238927CA
:103220008093170190911801809117019823937052
:1032300092238091190189278093190140911901E6
:103240004923809119018095892320E030E050E0E6
:10325000082E000C990BE1E0F0E0BA01022E02C04A
:10326000759567950A94E2F760FF10C0A0911E0162
:10327000BF01022E01C0660F0A94EAF76A2B609321
:103280001E01D901A65EBE4F1C9214C0BC01022EC5
:1032900002C0759567950A94E2F760FF0BC0A09194
:1032A0001D01BF01022E01C0660F0A94EAF76A2BC6
:1032B00060931D016091190170E0022E02C07595A6
:1032C00067950A94E2F760FF16C0D901A65EBE4F6B
:1032D0006C91643680F46C916F5F6C93643659F432
:1032E000A0911C01BF01022E01C0660F0A94EAF7EB
:1032F0006A2B60931C012F5F3F4F2230310509F08C
:10330000ACCF0895EAE7F0E0808187758083ACE771
:10331000B0E01C928C9180648C9380818660808365
:1033200080EF80937E0008959FB7F894EAE7F0E07D
:1033300080818775808310927C008081887F808364
:103340008FEF80937E009FBF089580917A00806800
:1033500080937A0080917A00806480937A008091D3
:103360007A0086FDFCCF80917800909179000895D5
:10337000FC0180917C00807E80937C0080917C00A9
:1033800080937C0080917A00806480937A008091A1
:103390007A0086FDFCCF80917800909179000097AB
:1033A00011F422E005C08F3F23E0920718F021E0DE
:1033B00020830895108208958F929F92AF92BF92BA
:1033C000CF92DF92EF92FF92CF935C01C4E0C12CC9
:1033D000D12C7601C5010E94B819C80ED91EE11C76
:1033E000F11CC150B9F7C701B6010E947D1C20E055
:1033F00030E040E859E30E94D01D20E030E040EA90
:1034000050E40E94D01D6B017C0120E030E543ECCC
:1034100057E40E94D01D4B015C01A701960160E0BA
:1034200070E080EA90E40E94251B9B01AC01C5017D
:10343000B4010E94971BCF91FF90EF90DF90CF9047
:10344000BF90AF909F908F9008958F929F92AF9270
:10345000BF92CF92DF92EF92FF920E94DC190E94FE
:10346000881D6B017C012BE037ED4BE055EB0E9492
:10347000D01DA70196010E94D01DA70196010E94B0
:10348000D01D4B015C0120EA30E642EF59E3C70151
:10349000B6010E94D01D25E539EF46E95AE30E94A6
:1034A000251B9B01AC01C501B4010E94261B9B0199
:1034B000AC0160E070E080E89FE30E94971B23E38B
:1034C00033E948E853E40E94251BFF90EF90DF901A
:1034D000CF90BF90AF909F908F900895FC01809106
:1034E0007C00807E80937C0080917C008160809352
:1034F0007C0080917A00806480937A0080917A00C9
:1035000086FDFCCF8091780090917900009711F4AE
:1035100022E005C08F3F23E0920718F021E02083CE
:103520000895108208958F929F92AF92BF92CF928A
:10353000DF92EF92FF92CF935C01C4E0C12CD12CBB
:103540007601C5010E946E1AC80ED91EE11CF11C3D
:10355000C150B9F7C701B6010E947D1C20E030E0E0
:1035600040E859E30E94D01D20E030E040EA50E4FA
:103570000E94D01D6B017C0120E030E44CE156E458
:103580000E94D01D4B015C01A701960160E070E034
:1035900080EA90E40E94251B9B01AC01C501B401A7
:1035A0000E94971BCF91FF90EF90DF90CF90BF903C
:1035B000AF909F908F9008958F929F92AF92BF92FD
:1035C000CF92DF92EF92FF920E94931A0E94881D81
:1035D0006B017C0129E436E84CE754E30E94D01DDE
:1035E000A70196010E94D01DA70196010E94D01D3F
:1035F0004B015C0125EE31EC44E559E3C701B6010E
:103600000E94D01D21EA38EE4CEA5AE30E94261BA4
:103610009B01AC01C501B4010E94261B9B01AC01BA
:1036200060E070E080E89FE30E94971B23E333E9AA
:1036300048E853E40E94251BFF90EF90DF90CF9065
:10364000BF90AF909F908F9008955058BB27AA27A6
:103650000E943D1B0C94411D0E94331D38F00E94B6
:103660003A1D20F039F49F3F19F426F40C94201DE4
:103670000EF4E095E7FB0C941A1DE92F0E94521DF1
:1036800058F3BA17620773078407950720F079F497
:10369000A6F50C94741D0EF4E0950B2EBA2FA02DF8
:1036A0000B01B90190010C01CA01A0011124FF27EF
:1036B000591B99F0593F50F4503E68F11A16F040EA
:1036C000A22F232F342F4427585FF3CF46953795E9
:1036D0002795A795F0405395C9F77EF41F16BA0BAE
:1036E000620B730B840BBAF09150A1F0FF0FBB1F5C
:1036F000661F771F881FC2F70EC0BA0F621F731FA5
:10370000841F48F4879577956795B795F7959E3F01
:1037100008F0B0CF9395880F08F09927EE0F979592
:10372000879508950E94F61C08F481E008950E9490
:10373000AB1B0C94411D0E943A1D58F00E94331D92
:1037400040F029F45F3F29F00C941A1D51110C949C
:10375000751D0C94201D0E94521D68F39923B1F32E
:10376000552391F3951B550BBB27AA2762177307A7
:10377000840738F09F5F5F4F220F331F441FAA1F3B
:10378000A9F335D00E2E3AF0E0E832D091505040F7
:10379000E695001CCAF72BD0FE2F29D0660F771FA5
:1037A000881FBB1F261737074807AB07B0E809F08B
:1037B000BB0B802DBF01FF2793585F4F3AF09E3F10
:1037C000510578F00C941A1D0C94751D5F3FE4F3BD
:1037D000983ED4F3869577956795B795F7959F5F53
:1037E000C9F7880F911D9695879597F90895E1E09F
:1037F000660F771F881FBB1F621773078407BA07FE
:1038000020F0621B730B840BBA0BEE1F88F7E09558
:103810000895BEE304D008F490E80895BFE322279A
:103820003327A9010E945A1D60F19F5748F1B9172B
:1038300040F1BFE3B91B9927B8503AF4660F771FE0
:10384000881F991FB395D2F316C0B8504AF0232FA2
:10385000342F452F562F672F782F8827B850BAF767
:10386000B85F49F086957795679557954795379551
:103870002795BA95B9F716F40E94231D88940895E8
:10388000889460E070E0CB0108950E944C1C68941D
:10389000B1110C94751D08950E945A1D88F09F5710
:1038A00098F0B92F9927B751B0F0E1F0660F771F64
:1038B000881F991F1AF0BA95C9F714C0B13091F05A
:1038C0000E94741DB1E008950C94741D672F782F29
:1038D0008827B85F39F0B93FCCF38695779567951F
:1038E000B395D9F73EF490958095709561957F4F8B
:1038F0008F4F9F4F0895E89409C097FB3EF4909531
:103900008095709561957F4F8F4F9F4F9923A9F0B8
:10391000F92F96E9BB279395F69587957795679547
:10392000B795F111F8CFFAF4BB0F11F460FF1BC08B
:103930006F5F7F4F8F4F9F4F16C0882311F096E91E
:1039400011C0772321F09EE8872F762F05C06623CC
:1039500071F096E8862F70E060E02AF09A95660F85
:10396000771F881FDAF7880F9695879597F908953E
:10397000E894F92F96EBFF2381F012161306140634
:10398000440B9395F69587957795679557954040A5
:10399000FF23B9F71BC099270895882351F4985045
:1039A000D2F7872B762F652F542F432F322F20E00D
:1039B000B1F3121613061406440B88233AF09A95B5
:1039C000440F551F661F771F881FCAF755234AF4F7
:1039D000440F551F11F460FF04C06F5F7F4F8F4F7E
:1039E0009F4F880F9695879597F90895990F00082E
:1039F000550FAA0BE0E8FEEF16161706E807F907C1
:103A0000C0F012161306E407F50798F0621B730B5B
:103A1000840B950B39F40A2661F0232B242B252BDC
:103A200021F408950A2609F4A140A6958FEF811D7F
:103A3000811D089597F99F6780E870E060E0089520
:103A40009FEF80EC089590958095709560955095C6
:103A50004095309521953F4F4F4F5F4F6F4F7F4FB0
:103A60008F4F9F4F089500240A94161617061806C4
:103A70000906089500240A94121613061406050672
:103A80000895092E0394000C11F4882352F0BB0F03
:103A900040F4BF2B11F460FF04C06F5F7F4F8F4F66
:103AA0009F4F089557FD9058440F551F59F05F3FA1
:103AB00071F04795880F97FB991F61F09F3F79F050
:103AC00087950895121613061406551FF2CF4695D2
:103AD000F1DF08C0161617061806991FF1CF869554
:103AE0007105610508940895E894BB276627772738
:103AF000CB0197F908950E94F61C08F48FEF089502
:103B000016F00C943D1E0C94201D68940C941A1D04
:103B10000E945A1DA8F39923C1F3AEF3DF93CF930C
:103B20001F930F93FF92C92FDD2788232AF0219737
:103B3000660F771F881FDAF720E030E040E85FEB80
:103B40009FE3883920F0803E38F021968F770E94DD
:103B5000261BE8E9F0E004C00E94261BE5ECF0E03B
:103B60000E944B1E8B01BE01EC01FB2E6F577109A9
:103B70007595771F880B990B0E947D1C28E132E711
:103B800041E35FE30E94E31DAF2D9801AE01FF907A
:103B90000F911F91CF91DF910E943D1B0C94411D0D
:103BA0000E94E31D0C94411D0E94331D38F00E94B9
:103BB0003A1D20F0952311F00C941A1D0C94201D31
:103BC00011240C94751D0E94521D70F3959FC1F332
:103BD000950F50E0551F629FF001729FBB27F00DBB
:103BE000B11D639FAA27F00DB11DAA1F649F662710
:103BF000B00DA11D661F829F2227B00DA11D621F5F
:103C0000739FB00DA11D621F839FA00D611D221F18
:103C1000749F3327A00D611D231F849F600D211DFC
:103C2000822F762F6A2F11249F5750409AF0F1F07F
:103C300088234AF0EE0FFF1FBB1F661F771F881FE8
:103C400091505040A9F79E3F510580F00C941A1DE9
:103C50000C94751D5F3FE4F3983ED4F386957795F9
:103C60006795B795F795E7959F5FC1F7FE2B880F8E
:103C7000911D9695879597F908959F3F31F0915042
:103C800020F4879577956795B795880F911D969540
:103C9000879597F90895DF93CF931F930F93FF9222
:103CA000EF92DF927B018C01689406C0DA2EEF015F
:103CB0000E94E31DFE01E894A5912591359145915F
:103CC0005591A6F3EF010E943D1BFE019701A8014B
:103CD000DA9469F7DF90EF90FF900F911F91CF91E9
:103CE000DF910895AA1BBB1B51E107C0AA1FBB1F90
:103CF000A617B70710F0A61BB70B881F991F5A9578
:103D0000A9F780959095BC01CD01089597FB072EEA
:103D100016F4009407D077FD09D00E94721E07FCAC
:103D200005D03EF4909581959F4F089570956195CB
:103D30007F4F0895A1E21A2EAA1BBB1BFD010DC0E7
:103D4000AA1FBB1FEE1FFF1FA217B307E407F5074B
:103D500020F0A21BB30BE40BF50B661F771F881F27
:103D6000991F1A9469F760957095809590959B01BD
:103D7000AC01BD01CF010895EE0FFF1F0590F49136
:103D8000E02D0994A29FB001B39FC001A39F700DC5
:103D9000811D1124911DB29F700D811D1124911D53
:103DA00008952A0D3B1D4C1D5D1D6E1D7F1D801F3E
:103DB000911F08950024A7FD00942A0F301D401D77
:103DC000501D601D701D801D901D08952A193B090E
:103DD0004C095D096E097F09800B910B08952A1526
:103DE0003B054C055D056E057F058007910708952D
:103DF000DC01CB01FC01F999FECF06C0F2BDE1BDAB
:103E0000F89A319600B40D9241505040B8F7089599
:103E1000DC01A40FB51F4150504048F0CB01840F86
:103E2000951F2E910E94191F41505040D0F70895C0
:103E3000262FF999FECF92BD81BDF89A019700B463
:103E4000021639F01FBA20BD0FB6F894FA9AF99A03
:083E50000FBE0895F894FFCFA6
:0E3E580001010000065B4F666D7D077F6F0065
:00000001FF
