S016000070696465746368696E67626174682E7372656350
S11300000C947B000C9498000C9498000C94980029
S11300100C9498000C9498000C9498000C949800FC
S11300200C9498000C9498000C9498000C949800EC
S11300300C9498000C9498000C9498000C949800DC
S11300400C94BB0C0C9498000C9498000C9498009D
S11300500C9498000C9498000C9498000C949800BC
S11300600C9498000C9498000C9498000C949800AC
S11300700C9498000C9498000C94980008000000CC
S1130080BE922449123EABAAAA2ABECDCCCC4C3E89
S113009000000080BEABAAAAAA3E00000000BF0078
S11300A00000803F0000000000084178D3BB438774
S11300B0D1133D190E3CC3BD4282AD2B3E68EC8288
S11300C076BED98FE1A93E4C80EFFFBE01C4FF7F0D
S11300D03F000000000000000000000000000000DD
S11300E0000000000100000000000000000000000B
S11300F0FFFF0000000011241FBECFEFD0E1DEBFE0
S1130100CDBF11E0A0E0B1E0E4E5F8E302C0059062
S11301100D92AE30B107D9F721E0AEE0B1E001C0F5
S11301201D92A73EB207E1F70E944B0D0C94281CC8
S11301300C9400000E94751280E008950E9402163B
S113014080E008958091390190913A0118161906BA
S11301502CF48091410161E08F5F06C0892B59F036
S11301608091410161E081500E94751060E00E941D
S11301706A10809341010E94EC148091410188230C
S113018061F0813021F560917B0170917C01809157
S11301907D0190917E0141E009C0609167017091F9
S11301A068018091690190916A0140E00E94520DBA
S11301B00E94E31480913B0180FF0BC01092410127
S11301C08AE59AE09093400180933F0102C084E065
S11301D0089580E008958091390190913A01892B26
S11301E0A1F08091650191E0811190E09093650107
S11301F0811103C00E942F0D04C00E943E0D109275
S1130200640183E491E00E9440120E94EC14809106
S113021065010E94C40E0E94E31480913B0180FF9B
S113022009C081E08093410180E697E0909340010A
S113023080933F0180E008956091390170913A0103
S11302406115710549F1072E000C880B990B0E946A
S1130250811920E030E040E05FE30E94D41A20914D
S11302601F013091200140912101509122010E94EF
S11302702A1820E030E048EC52E40E94AA1020E062
S113028030E0A9010E948A1060931F01709320013D
S113029080932101909322010E94EC1460911F012C
S11302A07091200180912101909122010E945C0FA4
S11302B00E94E31480913B0180FF09C082E0809397
S11302C0410180E697E09093400180933F0180E0F4
S11302D00895CF932091390130913A0180914101E1
S11302E0121613061CF463E08F5F04C0232B49F03D
S11302F063E081500E94751060E00E946A10809350
S11303004101E0914101E43028F4F0E0E050FF4F76
S1130310C08101C0C0E00E94EC146C2F80914101A7
S11303200E94670E0E94E31480913B0180FF0FC07E
S1130330CC2369F0809141018093370183E080935D
S1130340410180E697E09093400180933F0180E073
S1130350CF9108958F929F92AF92BF92CF92DF92E6
S1130360EF92FF920F931F936091390170913A01BC
S11303706115710509F459C0072E000C880B990BFF
S11303800E9481192AE037ED43E25CE30E94D41A0B
S1130390209123013091240140912501509126019F
S11303A00E942A1820E030E04AE754E40E94AA1090
S11303B020E030E0A9010E948A10AB01BC01409307
S11303C023015093240160932501709326018090AA
S11303D02F0190903001A0903101B0903201C09073
S11303E02B01D0902C01E0902D01F0902E01009172
S11303F02701109128012091290130912A0182E4DA
S11304008F9388EC8F931F921F921F921F921F92BB
S11304101F9283E491E00E940E118DB79EB7089657
S11304200FB6F8949EBF0FBE8DBF0E94EC1460916E
S113043023017091240180912501909126010E944D
S1130440E00E0E94E31480913B0180FF09C081E02B
S11304508093410189EB97E09093400180933F01A1
S113046080E01F910F91FF90EF90DF90CF90BF90AD
S1130470AF909F908F9008958F929F92AF92BF926A
S1130480CF92DF92EF92FF920F931F936091390105
S113049070913A016115710509F459C0072E000CD9
S11304A0880B990B0E9481192AE037ED43E25CE343
S11304B00E94D41A209127013091280140912901EA
S11304C050912A010E942A1820E030E04AE754E4BF
S11304D00E94AA1020E030E0A9010E948A108B013A
S11304E09C016093270170932801809329019093C4
S11304F02A0180902F0190903001A0903101B0909A
S11305003201C0902B01D0902C01E0902D01F0908D
S11305102E01409123015091240160912501709195
S1130520260182E48F9388EC8F931F921F921F926F
S11305301F921F921F9283E491E00E940E118DB7C7
S11305409EB708960FB6F8949EBF0FBE8DBF0E944B
S1130550EC146091270170912801809129019091F8
S11305602A010E94F80E0E94E31480913B0180FF4F
S113057009C082E08093410189EB97E090934001A8
S113058080933F0180E01F910F91FF90EF90DF90E7
S1130590CF90BF90AF909F908F9008958F929F922D
S11305A0AF92BF92CF92DF92EF92FF920F931F937D
S11305B06091390170913A016115710509F459C0CE
S11305C0072E000C880B990B0E9481192AE037ED45
S11305D043E25CE30E94D41A20912B0130912C0158
S11305E040912D0150912E010E942A1820E030E004
S11305F04AE754E40E94AA1020E030E0A9010E94D6
S11306008A106B017C0160932B0170932C01809301
S11306102D0190932E0180902F0190903001A09095
S11306203101B090320100912701109128012091ED
S1130630290130912A0140912301509124016091B4
S113064025017091260182E48F9388EC8F931F9289
S11306501F921F921F921F921F9283E491E00E94A7
S11306600E118DB79EB708960FB6F8949EBF0FBEB5
S11306708DBF0E94EC1460912B0170912C0180912C
S11306802D0190912E010E94100F0E94E31480917D
S11306903B0180FF09C083E08093410189EB97E02F
S11306A09093400180933F0180E01F910F91FF9050
S11306B0EF90DF90CF90BF90AF909F908F90089570
S11306C08F929F92AF92BF92CF92DF92EF92FF925E
S11306D00F931F936091390170913A01611571056F
S11306E009F459C0072E000C880B990B0E9481193C
S11306F02AE037ED43E25CE30E94D41A20912F01F3
S11307003091300140913101509132010E942A18F8
S113071020E030E040E85FE30E94AA1020E030E0EF
S1130720A9010E948A104B015C0160932F01709310
S113073030018093310190933201C0902B01D0900D
S11307402C01E0902D01F0902E01009127011091D1
S113075028012091290130912A01409123015091CF
S11307602401609125017091260182E48F9388EC25
S11307708F931F921F921F921F921F921F9283E4C6
S113078091E00E940E118DB79EB708960FB6F894AB
S11307909EBF0FBE8DBF0E94EC1460912F0170911B
S11307A0300180913101909132010E94280F0E9402
S11307B0E31480913B0180FF09C084E080934101F0
S11307C089EB97E09093400180933F0180E01F9173
S11307D00F91FF90EF90DF90CF90BF90AF909F90DC
S11307E08F9008956091390170913A0161157105F6
S11307F051F1072E000C880B990B0E94811920E0FF
S113080030E040E05FE30E94D41A2091330130913C
S1130810340140913501509136010E942A1820E09C
S113082030E048E452E40E94AA1020E030E048E4BA
S113083052EC0E948A1060933301709334018093C8
S11308403501909336010E94EC146091330170914C
S1130850340180913501909136010E94440F0E9429
S1130860E31480913B0180FF09C085E0809341013E
S113087080E697E09093400180933F0180E00895E3
S11308808091390190913A01009729F120916301F7
S113089064E670E0820F911D0E947A1060E070E0BF
S11308A00E946F108093630190916601911105C0BD
S11308B0882339F00E944D1504C0811102C00E94A2
S11308C060158091630191E0811101C090E09093E3
S11308D066010E9436150E94EC14809163010E9407
S11308E05E0F0E94E31480913B0180FF09C081E008
S11308F0809341018AE098E09093400180933F0106
S113090080E008950E94EC1460916B0170916C0179
S113091080916D0190916E010E94A70F0E94E314D3
S113092080913B0180FF09C081E08093410185E40F
S113093098E09093400180933F0180E008950E94E5
S1130940EC1460917F0170918001809181019091FC
S113095082010E94A70F0E94E31480913B0180FF53
S113096009C082E08093410185E498E090934001BE
S113097080933F0180E008950E94EC140E94B60F1A
S11309800E94E31480913B0180FF09C083E08093BF
S1130990410185E498E09093400180933F0180E019
S11309A008950E94EC140E94B60F0E94E3148091F3
S11309B03B0180FF09C084E08093410185E498E015
S11309C09093400180933F0180E008954F925F929D
S11309D06F927F928F929F92AF92BF92CF92DF924B
S11309E0EF92FF920F931F93CF93DF9382E491E0F2
S11309F00E942917609367017093680180936901CD
S1130A0090936A01C0914201C11148C280913F0193
S1130A10909140018258944091F0C0906701D09029
S1130A206801E0906901F0906A0120E030E0A901DA
S1130A30C701B6010E94961887FF12C04DC082E418
S1130A4091E00E94E01660936B0170936C018093B7
S1130A506D0190936E01C0914201CC23F1F21EC24C
S1130A6020E030E048E453E4C701B6010E947F1A55
S1130A7018160CF43EC08091640181113CC0809131
S1130A80640181116DC082E491E00E94E0176093DB
S1130A907B0170937C0180937D0190937E01C091D2
S1130AA04201C111FBC180913F01909140018F59D6
S1130AB0944009F4B1C0C0907B01D0907C01E090D7
S1130AC07D01F0907E0120E030E0A901C701B6016C
S1130AD00E94961887FF02C0C6E0E0C120E030E023
S1130AE048E453E4C701B6010E947F1A18160CF0BB
S1130AF0A6C0C5E0D3C120916F013091700140912F
S1130B00710150917201C701B6010E94291820E0B9
S1130B1030E040EA50E40E94961887FFB0CF0E946C
S1130B20780CA0907301B0907401C0907501D090BE
S1130B307601E0907701F0907801009179011091AD
S1130B407A010E94E41B0E94AC0A20E030E040E7F6
S1130B5051E40E947F1A18160CF091CFC3E09EC195
S1130B6020916F0130917001409171015091720197
S1130B7060916701709168018091690190916A01A7
S1130B800E94291820E030E040EA50E40E947F1AD5
S1130B9087FD79CF0E94780CA0907301B090740106
S1130BA0C0907501D0907601E0907701F0907801C3
S1130BB00091790110917A010E94E41B0E94AC0A11
S1130BC020E030E040E751E40E94961818160CF437
S1130BD05ACF8091670190916801A0916901B09109
S1130BE06A0180936F0190937001A0937101B09397
S1130BF072010E94780C2093730130937401409326
S1130C007501509376016093770170937801809316
S1130C10790190937A0137CF82E491E00E9497178B
S1130C2060937F017093800180938101909382018E
S1130C3080914201882309F43ECFC82F2FC18091AF
S1130C403701813009F097C080916401811105C09A
S1130C5080916401811135C08EC02091830130914F
S1130C6084014091850150918601C701B6010E941B
S1130C70291820E030E040E450E40E94961887FFF1
S1130C80E7CF0E94780CA0908701B0908801C090B3
S1130C908901D0908A01E0908B01F0908C01009141
S1130CA08D0110918E010E94E41B0E94AC0A20E089
S1130CB030E046E953E40E947F1A18160CF44ECF34
S1130CC0C7CF2091830130918401409185015091D7
S1130CD0860160917B0170917C0180917D019091EE
S1130CE07E010E94291820E030E040E450E40E9494
S1130CF07F1A87FD40C00E94780CA0908701B090B5
S1130D008801C0908901D0908A01E0908B01F09015
S1130D108C0100918D0110918E010E94E41B0E94B0
S1130D20AC0A20E030E046E953E40E949618181615
S1130D3014F180917B0190917C01A0917D01B0918F
S1130D407E018093830190938401A0938501B093E5
S1130D5086010E94780C2093870130938801409388
S1130D60890150938A0160938B0170938C01809365
S1130D708D0190938E0180916501882309F48EC0C2
S1130D8080913701882361F0813009F086C0409159
S1130D907B0150917C0160917D0170917E0108C0BE
S1130DA040916701509168016091690170916A01F5
S1130DB000911F0110912001209121013091220105
S1130DC083E491E00E9452112B013C018090670161
S1130DD090906801A0906901B0906A0120E030E031
S1130DE040EF52E4C501B4010E947F1AF0906401FF
S1130DF018160CF44AC0C301B2010E945019D62F30
S1130E00633608F443C0F11044C081E08093640168
S1130E1080926F0190927001A0927101B092720160
S1130E200E94780C209373013093740140937501F0
S1130E3050937601609377017093780180937901E0
S1130E4090937A0180917B0190917C01A0917D0126
S1130E50B0917E018093830190938401A0938501D6
S1130E60B09386010E94780C209387013093880107
S1130E704093890150938A0160938B0170938C0194
S1130E8080938D0190938E0104C0D0E0F1101092F4
S1130E9064018D2F0E941E0D01C0C4E08C2FDF91D0
S1130EA0CF911F910F91FF90EF90DF90CF90BF9063
S1130EB0AF909F908F907F906F905F904F90089528
S1130EC08091390190913A01181619062CF48091F9
S1130ED0410165E08F5F06C0892B59F08091410183
S1130EE065E081500E94751060E00E946A10809352
S1130EF041010E94EC14809141010E94E70D0E947F
S1130F00E31480913B0180FF32C080914101823023
S1130F10D1F04CF4882389F0813049F510924101D5
S1130F208BEE90E020C08430D1F094F08530F9F459
S1130F301092410182EF93E016C081E08093410159
S1130F408AE59AE010C0109241018CE191E00BC057
S1130F50809137018093410189E691E004C01092A9
S1130F60410189EB97E09093400180933F0180E039
S1130F7008958091390190913A01181619062CF4BC
S1130F808091410164E08F5F06C0892B59F0809104
S1130F90410164E081500E94751060E00E946A1073
S1130FA0809341010E94EC14809141010E94910EB2
S1130FB00E94E31480913B0180FF2AC0809141018B
S1130FC08230C9F04CF4882381F0813009F5109205
S1130FD041018AEA91E018C0833091F08430C1F471
S1130FE01092410180E693E00FC084E080934101B8
S1130FF080E697E009C0109241018CE392E004C0BE
S1131000109241018EEC92E09093400180933F0155
S113101080E008958091390190913A0118161906DB
S11310202CF48091410161E08F5F06C0892B59F057
S11310308091410161E081500E94751060E00E943E
S11310406A10809341010E94EC14809141010E9436
S1131050470E0E94E31480913B0180FF14C08091ED
S11310604101882339F0813071F41092410180E408
S113107094E005C082E0809341018AE59AE0909370
S1131080400180933F0180E008958091390190915F
S11310903A01181619062CF48091410164E08F5F1F
S11310A006C0892B59F08091410164E081500E946F
S11310B0751060E00E946A10809341010E94EC1454
S11310C0809141010E947A0F0E94E31480913B01B8
S11310D080FF2AC0809141018230C9F04CF48823FA
S11310E081F0813009F51092410182E894E018C042
S11310F0833091F08430C1F41092410181ED94E089
S11311000FC083E0809341018AE59AE009C0109200
S113111041018FE994E004C0109241018CEB94E00A
S11311209093400180933F0180E00895EFE1F1E066
S1131130138E128E148E158E168E178E0895CF93DD
S1131140DF930E9496080E946912CFE1D1E09B8F41
S11311508A8F80E00E94F6159F8D892B8F8F80E007
S11311600E949C159C8D892B8C8F80E00E94D81541
S11311709D8D892B8D8F80E00E94BA159E8D892BC1
S11311808E8FE8A1F9A1DF91CF910994809142015A
S1131190882341F00E94EC14809142010E94BE0F0A
S11311A00C94E3140895EFE1F1E080E090E0A8EC02
S11311B0B1E480839183A283B38380E090E0A0E8CC
S11311C0BFE384839583A683B78310861186128632
S11311D01386148615861686178680E090E0A0E8AC
S11311E0BEE3808B918BA28BB38B148A158A168AEB
S11311F0178A108E0895CF93DF93CDB7DEB76A9721
S11312000FB6F894DEBF0FBECDBF8CE0898389E1B1
S1131210EFE1F1E0DE01129601900D928A95E1F77B
S11312204AE150E060E070E0CE0101960E94061CA5
S11312306A960FB6F894DEBF0FBECDBFDF91CF9193
S11312400895CF93DF93CDB7DEB76A970FB6F894BE
S1131250DEBF0FBECDBF4AE150E060E070E0CE01DA
S113126001960E94F61B89818C3029F00E94D308D4
S11312700E94FB0809C089E1FE013296AFE1B1E0AA
S113128001900D928A95E1F76A960FB6F894DEBF45
S11312900FBECDBFDF91CF9108958F929F92AF92F1
S11312A0BF92CF92DF92EF92FF920F931F93CF934F
S11312B0109242010E94B50A0E94F5140E946F1513
S11312C00E944A120E942109109263011092650142
S11312D010926601109264010E94FB140E94601532
S11312E00E94FA0C0E943E0D80902F0190903001D4
S11312F0A0903101B0903201C0902B01D0902C010C
S1131300E0902D01F0902E01009127011091280109
S11313102091290130912A01409123015091240107
S1131320609125017091260182E48F9388EC8F935C
S11313301F921F921F921F921F921F9283E491E0AB
S11313400E94CA100E94861620E046EE54E06AE02D
S113135077ED83EA9CE30E94890C21E04FE958E091
S11313606AE077ED83E29DE30E94890C22E04AE97A
S113137050E06FE672E183E89AE30E94890C23E06F
S11313804EE950E06AE077ED83EA9BE30E94890C22
S11313900E94960882EA90E09093400180933F0176
S11313A00E94A91682E491E00E94291760936701C4
S11313B0709368018093690190936A018DB79EB719
S11313C008960FB6F8949EBF0FBE8DBF8091420160
S11313D0811146C082E491E00E94E01660936B01A3
S11313E070936C0180936D0190936E018091420122
S11313F0811136C082E491E00E94E01760937B0182
S113140070937C0180937D0190937E0180914201D1
S1131410811126C082E491E00E94971760937F01B6
S113142070938001809381019093820180914201A5
S1131430811116C00E94020B10923801C1E0809104
S11314403801811109C00E94710B809342018823E5
S1131450B1F3C0933801F3CFC0914201CC2379F0AA
S11314600E940D0D0E941A150E9498160E94611286
S11314700E9487150E94C608C09142010EC00E94B6
S11314802B0B0E941A150E940D0D0E9498160E94A3
S113149061120E9487150E946C138C2FCF911F91AB
S11314A00F91FF90EF90DF90CF90BF90AF909F90FF
S11314B08F9008958091390190913A011816190678
S11314C02CF48091410165E08F5F06C0892B59F0AF
S11314D08091410165E081500E94751060E00E9496
S11314E06A10809341010E94EC14809141010E9492
S11314F0770D0E94E31480913B0180FF2BC0809103
S113150041018230B9F04CF4882379F0813011F52F
S11315101092410180E697E016C08430C9F07CF057
S11315208530C1F40E94FB0815C01092410182EA83
S113153090E009C0109241018AE098E004C0109242
S1131540410185E498E09093400180933F0102C0FB
S11315500E94210980E008950E94BC1928E33EE915
S11315604FEC58E30E94D41A08951092DF011092B0
S1131570E0011092E1011092E2011092E301109255
S1131580E4011092E5011092E6011092D701109245
S1131590D8011092D9011092DA011092DB01109255
S11315A0DC011092DD011092DE01EFE8F1E010821F
S11315B01182128213821482158216821782108677
S11315C01186128613861486158616861786118A46
S11315D0108A729681E0E73DF80749F780916E0022
S11315E08C7F80936E0085B5887F85BD84B58260CD
S11315F084BD82E687BD80916E00826080936E0018
S1131600789408951092DF011092E0011092E101A4
S11316101092E2011092E3011092E4011092E501AC
S11316201092E6011092D7011092D8011092D901BC
S11316301092DA011092DB011092DC011092DD01AC
S11316401092DE0116BC85B5826085BD089585B50E
S1131650887F85BD08950E94270B80916E008D7F41
S113166080936E0084B58D7B84BD16BC17BC10922C
S1131670DF011092E0011092E1011092E201109258
S1131680E3011092E4011092E5011092E601109238
S1131690D7011092D8011092D9011092DA01109258
S11316A0DB011092DC011092DD011092DE01EFE803
S11316B0F1E0108211821282138214821582168242
S11316C0178210861186128613861486158616864E
S11316D01786118A108A729681E0E73DF80749F768
S11316E008952F923F924F925F926F927F928F92C2
S11316F09F92AF92BF92CF92DF92EF92FF920F939D
S11317001F93CF93DF93CDB7DEB762970FB6F894EC
S1131710DEBF0FBECDBFEFB7F8942091DF0130914B
S1131720E0014091E1015091E2016091E301709187
S1131730E4018091E5019091E601A090D701B09079
S1131740D801C090D901D090DA01E090DB01F0908B
S1131750DC010091DD011091DE010E94E41B2F8366
S1131760388749875A876B877C878D879E877091D6
S1131770DF016091E0015091E1014091E20130917B
S1131780E3012091E4019091E5018091E6017093D9
S1131790D7016093D8015093D9014093DA01309373
S11317A0DB012093DC019093DD018093DE01EFBF28
S11317B08FE891E0988B8F87EF85F8890088F1890D
S11317C0E02DFE83ED83EF2B51F48F8598894296AB
S11317D0988B8F87875D914079F780E070C02F8167
S11317E0388549855A856B857C858D859E85EF85F1
S11317F0F889A084B184C284D384E484F584068502
S113180017850E94CF1B19012A013B014C01208737
S11318103186428753866487758686879786B0812A
S1131820A181F281F98BEF85F889F381FA8BEF8539
S1131830F889F481F983EF85F889F581FA83EF85D6
S1131840F889F681FB83EF85F889F781FC83AB2E59
S1131850BA2EC988DA88E980FA800B811F2F0E948A
S1131860ED1B08F4B2CF0E94E41B19012A013B01CD
S11318704C012B2F3A2FA601B701C8015101620177
S113188073018401EF85F8890E94ED1B51F048F043
S11318902086318642865386648675868686978638
S11318A008C010861186128613861486158616863D
S11318B01786ED81FE810995882309F486CF629607
S11318C00FB6F894DEBF0FBECDBFDF91CF911F914D
S11318D00F91FF90EF90DF90CF90BF90AF909F90CB
S11318E08F907F906F905F904F903F902F900895CE
S11318F02091D7013091D8014091D9015091DA015A
S11319006091DB017091DC018091DD019091DE0139
S113191008950F931F93CF93DF938A0132E1239F9E
S1131920E0011124C157DE4F28E33EE94FEC58E3B0
S11319300E949B1820E030E040E05FE30E942A18F8
S11319400E941219288339834A835B836C837D83C5
S11319508E839F83FE013896188611821282138229
S11319601482158216821782198B088BDF91CF910E
S11319701F910F9108951F920F920FB60F92112489
S11319802F933F934F935F936F937F938F939F9383
S1131990AF932091DF013091E0014091E10150913A
S11319A0E2016091E3017091E4018091E50190917D
S11319B0E601A1E00E94D81B2093DF013093E001EF
S11319C04093E1015093E2016093E3017093E401D9
S11319D08093E5019093E601AF919F918F917F9160
S11319E06F915F914F913F912F910F900FBE0F9088
S11319F01F90189510927000E1EBF0E08081897FD0
S1131A008083E0EBF0E08081816080831092B300FA
S1131A101092B200579A5F980895E1EBF0E080814C
S1131A20897F80831092B2001092B300E0EBF0E063
S1131A3080818E77808357985F98089564E60E942A
S1131A40851060E00E9480102FEF829FC001112456
S1131A5064E670E00E94761B6093B30008951092D0
S1131A60B2001092B300E0EBF0E0808180688083E4
S1131A70E1EBF0E08081866080830895E0EBF0E0A4
S1131A8080818F778083E1EBF0E08081897F8083A0
S1131A901092B20008950E944D098111FFCF80E099
S1131AA090E00895CF92DF92EF92FF920F936B0133
S1131AB07C01413049F030F0423041F0433051F480
S1131AC06FEC05C06FEB03C066E801C06BED80E00E
S1131AD00E946E1305E021E041E0C701B6010E94B7
S1131AE079130F91FF90EF90DF90CF90089582309B
S1131AF0F1F028F4882351F0813059F008958430AE
S1131B00D9F120F1853009F44AC0089560E480E0F9
S1131B105CC064E780E00E946E1369E781E00E9484
S1131B206E1367E782E00E946E1368E70DC06DE6EE
S1131B3080E00E946E1368E781E00E946E1366E005
S1131B4082E00E946E1360E583E03FC068EF80E0AE
S1131B500E946E1369E381E00E946E1367E782E0DE
S1131B600E946E1368E383E00E946E1366E084E0D3
S1131B700E946E136CE728C068E380E00E946E1335
S1131B806CE581E00E946E1367E782E00E946E13A9
S1131B906EED83E00E946E136DEE84E016C06DE678
S1131BA080E00E946E1368E781E00E946E136CE58A
S1131BB082E00E946E1360E583E00E946E1369EF79
S1131BC084E00E946E136DEE85E00C946E138230F7
S1131BD039F128F4882351F0813079F00895843064
S1131BE0D9F160F1853009F442C0089560E480E0E1
S1131BF00E946E1360E481E048C06CE580E00E94BE
S1131C006E1364E581E00E946E136CE582E00E942D
S1131C106E1361E783E00E946E1361E784E035C0D0
S1131C2068E780E00E946E136FEE81E00E946E13FD
S1131C3068E782E00E946E1363E726C068EF80E0E5
S1131C400E946E136DE681E00E946E1369E782E0E4
S1131C500E946E1368E318C063E780E00E946E136D
S1131C6066E081E00E946E136EE582E00EC06CE5D2
S1131C7080E00E946E1361E781E00E946E1361E7C9
S1131C8082E00E946E136DE683E00C946E13882349
S1131C9019F0813041F0089560E480E00E946E13F1
S1131CA060E481E012C06DE680E00E946E1363E799
S1131CB081E00E946E1369E782E00E946E1369E777
S1131CC083E00E946E136EE584E00C946E13662329
S1131CD001F1813089F050F08230A1F08330C9F4F1
S1131CE068E784E00E946E136FE411C068E784E043
S1131CF00E946E136FE30BC068E784E00E946E13CA
S1131D0066E005C068E784E00E946E136BE585E039
S1131D1006C064E580E00E946E1369E381E00C94E0
S1131D206E138230C1F028F4882341F0813089F0A9
S1131D300895833099F0843099F0089560E480E048
S1131D400E946E1360E481E00E946E1360E482E0FE
S1131D5019C063E701C066E080E014C06EE5FCCF03
S1131D6066E080E00E946E1360E481E00E946E13DE
S1131D7069E382E00E946E1368E383E00E946E13BD
S1131D8063E784E00C946E1360E3882351F080E0F1
S1131D900E946E136CE581E00E946E1364E582E09C
S1131DA00DC080E00E946E136CE581E00E946E130A
S1131DB061E782E00E946E1361E783E00C946E1386
S1131DC0CF92DF92EF92FF920F936B017C0163E756
S1131DD080E00E946E1305E022E041E0C701B601F5
S1131DE00E9479130F91FF90EF90DF90CF900895A8
S1131DF0CF92DF92EF92FF920F936B017C0166E02A
S1131E0080E00E946E1305E022E041E0C701B601C4
S1131E100E9479130F91FF90EF90DF90CF90089577
S1131E20CF92DF92EF92FF920F936B017C016EE5EC
S1131E3080E00E946E1305E022E041E0C701B60194
S1131E400E9479130F91FF90EF90DF90CF90089547
S1131E50CF92DF92EF92FF920F936B017C0166E8C1
S1131E6080E00E946E1369EB81E00E946E1304E02F
S1131E7022E042E0C701B6010E9479130F91FF905E
S1131E80EF90DF90CF900895CF92DF92EF92FF9280
S1131E900F936B017C0160E380E00E946E1305E008
S1131EA021E041E0C701B6010E9479130F91FF9030
S1131EB0EF90DF90CF9008950C94440FCF93C82FE8
S1131EC060E380E00E946E13CC2339F045E061E0CA
S1131ED08C2F90E0CF910C946C146CE581E00E94FF
S1131EE06E1361E782E00E946E1361E783E0CF9195
S1131EF00C946E138230B9F028F4882341F08130B9
S1131F0061F008958330A9F08430C9F0089560E445
S1131F1080E00E946E1360E417C068E780E00E94CE
S1131F206E136FE311C068E780E00E946E1366E0F1
S1131F300BC068E780E00E946E136BE505C068E79C
S1131F4080E00E946E136FE481E00C946E130F9393
S1131F509F7720E030E04AE754E40E949B1806E0B3
S1131F6023E040E00E9479130F91089564E580E036
S1131F700E946E1369E381E00C946E13833009F4BC
S1131F8043C0D8F4813051F1823009F07CC068E755
S1131F9080E00E946E1364EF81E00E946E136DE690
S1131FA082E00E946E1364E783E00E946E1360E592
S1131FB084E00E946E1368E752C0853009F451C072
S1131FC0C8F1863009F05FC068E780E00E946E13B4
S1131FD064EF81E00E946E1368E34CC068E780E020
S1131FE00E946E1364EF81E00E946E136CE582E040
S1131FF00E946E1363E783E00E946E1369E784E036
S11320000E946E1364E52BC068E780E00E946E13A3
S113201064EF81E00E946E1364E582E00E946E1317
S113202060E583E00E946E1369E784E00E946E130A
S11320306DE615C068E780E00E946E1364EF81E0EE
S11320400E946E1364E582E00E946E136CE583E0E7
S11320500E946E1363E784E00E946E1369E785E0D3
S113206024C068E780E00E946E1364EF81E00E9460
S11320706E1364E782E00E946E1368E783E00E94B7
S11320806E1363E711C069E780E00E946E1360E598
S113209081E00E946E1360E582E00E946E136CE59D
S11320A083E00E946E1360E584E00C946E13AC012F
S11320B020E081E090E03AE0622F70E06417750759
S11320C044F4BC01369FC001379F900D11242F5F4B
S11320D0F3CF089568170CF4682F862F08956817B6
S11320E079070CF4BC01CB01089586170CF4682F12
S11320F0862F0895861797070CF4BC01CB01089529
S1132100681708F4682F862F0895861708F4682F37
S1132110862F0895CF92DF92EF92FF920F931F9331
S1132120CF93DF938B01D82FC92F69017A010E94C5
S11321307F1A18161CF08601DE2DCF2DB8018D2FC5
S11321409C2FDF91CF911F910F91FF90EF90DF9023
S1132150CF900895CF92DF92EF92FF920F931F9347
S1132160CF93DF938B01D82FC92F69017A010E9485
S1132170961887FD03C08601DE2DCF2DB8018D2F63
S11321809C2FDF91CF911F910F91FF90EF90DF90E3
S1132190CF9008958F929F92AF92BF92CF92DF9289
S11321A0EF92FF920F931F93CF93DF93CDB7DEB7D8
S11321B0FC014087518762877387048715872687C8
S11321C03787C08AD18AE28AF38A848A958AA68A62
S11321D0B78A8B899C89AD89BE89848F958FA68F98
S11321E0B78F8F859889A989BA89808F918FA28F9B
S11321F0B38F108211821282138214821582168286
S11322001782DF91CF911F910F91FF90EF90DF9094
S1132210CF90BF90AF909F908F9008958F929F9290
S1132220AF92BF92CF92DF92EF92FF920F931F93E0
S1132230CF93DF93CDB7DEB7FC0140875187628728
S113224073870487158726873787C08AD18AE28AED
S1132250F38A848A958AA68AB78A8B899C89AD89F0
S1132260BE89848F958FA68FB78F8F859889A9890A
S1132270BA89808F918FA28FB38F108211821282BC
S113228013821482158216821782DF91CF911F91D7
S11322900F91FF90EF90DF90CF90BF90AF909F9001
S11322A08F9008954F925F926F927F928F929F9238
S11322B0AF92BF92CF92DF92EF92FF920F931F9350
S11322C0CF93DF93CDB7DEB762970FB6F894DEBF36
S11322D00FBECDBF9A8B898B6A017B01C901B801FE
S11322E0A70196010E9429186B017C01A989BA896A
S11322F018962D913D914D915C911B970E94D41A93
S11323004B015C01E989FA89208131814281538141
S1132310C701B6010E942918A989BA8950962D913E
S11323203D914D915C9153970E94D41AA50194015B
S11323300E942A184B015C01E989FA89C082D18282
S1132340E282F382848D958DA68DB78D89839A83DD
S1132350AB83BC83A5019401BC01CD010E94291863
S113236020E030E0A9010E948A102B013C01A989D8
S1132370BA8954968D919D910D90BC91A02D8D8319
S11323809E83AF83B887A989BA8958968D919D9108
S11323900D90BC91A02D89879A87AB87BC87A50136
S11323A09401BC01CD010E94291820E030E0A9016C
S11323B00E94AA106D877E878F87988B2D813E811E
S11323C04F815885C301B2010E94D41A2B013C01EC
S11323D0E989FA892485358546855785C701B6017B
S11323E00E94D41AA989BA8914962D913D914D91D0
S11323F05C9117970E942A18A30192010E94AA10C7
S11324006B017C012D853E854F8558896D817E81C8
S11324108F8198850E94D41A9B01AC01C701B60133
S11324200E948A109B01AC01E989FA89648375834F
S113243086839783C501B4010E942A1829813A81B1
S11324404B815C810E94AA1029853A854B855C8565
S113245062960FB6F894DEBF0FBECDBFDF91CF9169
S11324601F910F91FF90EF90DF90CF90BF90AF90AE
S11324709F908F907F906F905F904F900C948A10F4
S1132480FC01108211821282138214821582168238
S11324901782089584B1837F84B985B18C6085B92E
S11324A010920F0110920E011A9903C082E08093DA
S11324B010011B9905C08091100181608093100167
S11324C0089510920F0110920E0185B1837F85B992
S11324D008952FB7F89480910E0190910F011092F6
S11324E00F0110920E012FBF08958091100124E076
S11324F0829FC00111248F70809310011A9905C026
S1132500809110018260809310011B9905C0809115
S11325101001816080931001E0911001F0E0EE0F52
S1132520FF1FEA52FF4F2591349180910E01909143
S11325300F01820F931F90930F0180930E016091FE
S11325400E0170910F0188EE93E00E947A10BC0195
S113255088E19CEF0E946F1090930F0180930E010D
S113256008952C982C9A08952D9A2D98089580FDFD
S11325702F9A80FF2F980C94B4120F931F93CF932C
S1132580DF93C0E0D0E0082F10E0C8010C2E02C099
S1132590959587950A94E2F781700E94B712219667
S11325A0C830D10591F7DF91CF911F910F91089514
S11325B00F931F93CF93DF938C01C62FD0E0C80FE6
S11325C0D91FC017D10729F0219788810E94BD1215
S11325D0F8CFDF91CF911F910F9108952E9A2E98E5
S11325E0089584B1806F84B985B18F7185B92C9AAF
S11325F00E94B1120C94EE120E94B1120C94EE12CD
S11326009F92AF92BF92CF92DF92EF92FF920F937D
S11326101F93CF93DF93EC01962E8A01662319F062
S1132620D195C195D109209759F030E0E22EF12CD3
S1132630570161E0A61AB1088AE0C82ED12C2EC039
S1132640F801E20FF11D31978FE3808331E02CC054
S1132650832F90E041E050E0911002C040E050E050
S1132660B701641B750B86179707F4F43F5FF501F8
S1132670E81BF90BE00FF11FCE01B6010E948A1B83
S11326808150893078F4A82FB0E0AC5FBE4F8C91B4
S11326908083CE01B6010E948A1BEB011C161D0625
S11326A0BCF202C08FE3F4CF992049F0E22FF0E0AE
S11326B03197E31BF109E00FF11F80E4808381E08F
S11326C0DF91CF911F910F91FF90EF90DF90CF900A
S11326D0BF90AF909F9008950C94FC12863038F40C
S11326E0E82FF0E0EF5EFE4F608381E0089580E024
S11326F008952F923F924F925F926F927F928F92A2
S11327009F92AF92BF92CF92DF92EF92FF920F937C
S11327101F93CF93DF93CDB7DEB728970FB6F89406
S1132720DEBF0FBECDBFE42FF0E0FA83E98310E0F3
S1132730AF01400F511F4730510514F080E0B3C082
S11327402C836B017C0120E030E0A9010E949618E3
S1132750881F8827881F8B83C701B6010E944919E7
S11327604B015C017E836D835C81452F50E058876B
S11327704F83CA010E9457101C01B401092C000C9C
S1132780880B990B0E9481199B01AC01C701B6010A
S11327900E9429182B013C01E89477F8B101330C0D
S11327A0880B990B0E9481199B01AC01C301B201F2
S11327B00E94D41A0E944919562E772E862F972DDF
S11327C01C018D819E81892B69F420E030E0A901F0
S11327D0C701B6010E949618682E661C6624661C02
S11327E063940BC06B80C4012AE030E0B9010E94FD
S11327F08A1BCB0163940097C9F7232881F0472CE7
S1132800441C4424441C852D972D2AE030E0B90152
S11328100E948A1BCB0143940097C9F702C0442449
S11328204394262C312C8F819885820D931D081793
S113283019070CF483CFE981FA81EF5EFE4F6F0133
S11328404F815885041B150B7F01E00EF11E2C816E
S1132850A70160E0852D972D0E940013F7018F8159
S11328609885841991099A8389832FE3CF018E195E
S11328709F0949815A818417950714F42193F6CF4F
S1132880A801421953094C0D5D1D262D6B81C4010D
S11328900E94001301501109F601E00FF11F80811D
S11328A08068808381E028960FB6F894DEBF0FBE5F
S11328B0CDBFDF91CF911F910F91FF90EF90DF90EB
S11328C0CF90BF90AF909F908F907F906F905F90CC
S11328D04F903F902F9008958F929F92AF92BF9206
S11328E0CF92DF92EF92FF920F931F93CF93DF93D8
S11328F0EC01E62FF0E0242F30E0CF01820F931F8C
S113290007970CF050C0EF5EFE4FD7FF05C00027BD
S113291011270C1B1D0B03C0209789F08E0140E08A
S11329208D2F881F8827881F5901A81AB1084901CB
S113293081E0881A91088AE0C82ED12C20C0E20FC9
S1132940F31F31978FE32DC04F5F7401E81AF90A22
S1132950EE0EFF1EC801B6010E948A1B8150893009
S1132960A0F4A82FB0E0AC5FBE4F8C91D7018C933C
S1132970C801B6010E948A1B8B01672B41F0842F8A
S113298090E08A159B0504F302C08FE3EFCFD7FFD5
S11329900CC0B90161507109641B7109E60FF71F7E
S11329A080E4808302C080E001C081E0DF91CF91A8
S11329B01F910F91FF90EF90DF90CF90BF90AF9059
S11329C09F908F9008950E94B11266E081E191E09A
S11329D00E94D8120C94EE12E1E1F1E0108211820F
S11329E0128213821482158208950E94F1120E94A9
S11329F0EC140C94E31410926F00E1E8F0E0808191
S1132A008E7F8083A0E8B0E08C918C93808180617C
S1132A10808380EA90E090938700809386001092F0
S1132A208900109288001092850010928400559AB3
S1132A305D980895E1E8F0E080818E7F80831092B4
S1132A4087001092860010928500109284001092E4
S1132A50890010928800A0E8B0E08C918F778C9365
S1132A6080818F7E808355985D98089564E60E94E6
S1132A70851060E00E948010282F30E0A0EAB0E0CA
S1132A800E94C01B24E630E040E050E00E949E1B00
S1132A903093890020938800089510928500109245
S1132AA084001092890010928800E0E8F0E08081B0
S1132AB080688083E1E8F0E080818160808308950C
S1132AC0E0E8F0E080818F778083E1E8F0E08081C6
S1132AD08E7F80831092850010928400089584B1C3
S1132AE08C7F84B985B1836085B910921E011092E0
S1132AF01D0110921C0110921901EAE1F1E010820B
S1132B00118283E08093180180931701089585B1A1
S1132B108C7F85B910921E0110921D0110921C0128
S1132B2010921901EAE1F1E01082118283E08093AE
S1132B30180180931701089520911E0130E0082E9A
S1132B4002C0359527950A94E2F720FF11C0409101
S1132B501E0121E030E0B90102C0660F771F8A959B
S1132B60E2F7CB018095842380931E0181E00895D0
S1132B7080E0089520911D0130E0082E02C03595B3
S1132B8027950A94E2F720FF11C040911D0121E02E
S1132B9030E0B90102C0660F771F8A95E2F7CB01D6
S1132BA08095842380931D0181E0089580E0089539
S1132BB020911C0130E0082E02C0359527950A9417
S1132BC0E2F720FF11C040911C0121E030E0B9017F
S1132BD002C0660F771F8A95E2F7CB0180958423A4
S1132BE080931C0181E0089580E0089520911901EB
S1132BF030E0A90102C0559547958A95E2F7CA01CC
S1132C008170089593B1309119019095292F23274C
S1132C108091180182238095809318018091170177
S1132C2090911801822389278093170190911801AC
S1132C308091170198239370922380911901892719
S1132C4080931901409119014923809119018095BC
S1132C50892320E030E050E0082E000C990BE1E0DD
S1132C60F0E0BA01022E02C0759567950A94E2F766
S1132C7060FF10C0A0911E01BF01022E01C0660FAB
S1132C800A94EAF76A2B60931E01D901A65EBE4F2F
S1132C901C9214C0BC01022E02C0759567950A945B
S1132CA0E2F760FF0BC0A0911D01BF01022E01C01D
S1132CB0660F0A94EAF76A2B60931D01609119016B
S1132CC070E0022E02C0759567950A94E2F760FFE2
S1132CD016C0D901A65EBE4F6C91643680F46C9127
S1132CE06F5F6C93643659F4A0911C01BF01022EEE
S1132CF001C0660F0A94EAF76A2B60931C012F5FE8
S1132D003F4F2230310509F0ACCF0895EAE7F0E0F7
S1132D10808187758083ACE7B0E01C928C918064DD
S1132D208C9380818660808380EF80937E000895F9
S1132D309FB7F894EAE7F0E080818775808310926A
S1132D407C008081887F80838FEF80937E009FBF8B
S1132D50089580917A00806880937A0080917A0047
S1132D60806480937A0080917A0086FDFCCF809104
S1132D707800909179000895FC0180917C00807E18
S1132D8080937C0080917C0080937C0080917A0009
S1132D90806480937A0080917A0086FDFCCF8091D4
S1132DA0780090917900009711F422E005C08F3FDC
S1132DB023E0920718F021E02083089510820895FB
S1132DC08F929F92AF92BF92CF92DF92EF92FF9237
S1132DD0CF935C01C4E0C12CD12C7601C5010E94C3
S1132DE0BC16C80ED91EE11CF11CC150B9F7C701AD
S1132DF0B6010E94811920E030E040E859E30E94C6
S1132E00D41A20E030E040EA50E40E94D41A6B0166
S1132E107C0120E030E543EC57E40E94D41A4B01D6
S1132E205C01A701960160E070E080EA90E40E94F2
S1132E3029189B01AC01C501B4010E949B18CF91D4
S1132E40FF90EF90DF90CF90BF90AF909F908F90C6
S1132E5008958F929F92AF92BF92CF92DF92EF929A
S1132E60FF920E94E0160E948C1A6B017C012BE0F9
S1132E7037ED4BE055EB0E94D41AA70196010E944E
S1132E80D41AA70196010E94D41A4B015C0120EACE
S1132E9030E642EF59E3C701B6010E94D41A25E592
S1132EA039EF46E95AE30E9429189B01AC01C50198
S1132EB0B4010E942A189B01AC0160E070E080E834
S1132EC09FE30E949B1823E333E948E853E40E94FC
S1132ED02918FF90EF90DF90CF90BF90AF909F9014
S1132EE08F900895FC0180917C00807E80937C000B
S1132EF080917C00816080937C0080917A00806462
S1132F0080937A0080917A0086FDFCCF80917800CE
S1132F1090917900009711F422E005C08F3F23E0DF
S1132F20920718F021E020830895108208958F926B
S1132F309F92AF92BF92CF92DF92EF92FF92CF9384
S1132F405C01C4E0C12CD12C7601C5010E9472172A
S1132F50C80ED91EE11CF11CC150B9F7C701B60156
S1132F600E94811920E030E040E859E30E94D41A1D
S1132F7020E030E040EA50E40E94D41A6B017C0166
S1132F8020E030E44CE156E40E94D41A4B015C0189
S1132F90A701960160E070E080EA90E40E9429189D
S1132FA09B01AC01C501B4010E949B18CF91FF9015
S1132FB0EF90DF90CF90BF90AF909F908F90089547
S1132FC08F929F92AF92BF92CF92DF92EF92FF9235
S1132FD00E9497170E948C1A6B017C0129E436E841
S1132FE04CE754E30E94D41AA70196010E94D41A14
S1132FF0A70196010E94D41A4B015C0125EE31EC25
S113300044E559E3C701B6010E94D41A21EA38EE17
S11330104CEA5AE30E942A189B01AC01C501B40191
S11330200E942A189B01AC0160E070E080E89FE3F5
S11330300E949B1823E333E948E853E40E942918CB
S1133040FF90EF90DF90CF90BF90AF909F908F90C4
S113305008955058BB27AA270E9441180C94451A7A
S11330600E94371A38F00E943E1A20F039F49F3F2C
S113307019F426F40C94241A0EF4E095E7FB0C944E
S11330801E1AE92F0E94561A58F3BA1762077307DB
S11330908407950720F079F4A6F50C94781A0EF4B9
S11330A0E0950B2EBA2FA02D0B01B90190010C0154
S11330B0CA01A0011124FF27591B99F0593F50F46C
S11330C0503E68F11A16F040A22F232F342F4427C4
S11330D0585FF3CF469537952795A795F0405395BC
S11330E0C9F77EF41F16BA0B620B730B840BBAF08C
S11330F09150A1F0FF0FBB1F661F771F881FC2F7F7
S11331000EC0BA0F621F731F841F48F4879577950A
S11331106795B795F7959E3F08F0B0CF9395880FC4
S113312008F09927EE0F9795879508950E94FA194C
S113313008F481E008950E94AF180C94451A0E9487
S11331403E1A58F00E94371A40F029F45F3F29F0E4
S11331500C941E1A51110C94791A0C94241A0E947E
S1133160561A68F39923B1F3552391F3951B550B24
S1133170BB27AA2762177307840738F09F5F5F4F46
S1133180220F331F441FAA1FA9F335D00E2E3AF085
S1133190E0E832D091505040E695001CCAF72BD09D
S11331A0FE2F29D0660F771F881FBB1F26173707EE
S11331B04807AB07B0E809F0BB0B802DBF01FF2720
S11331C093585F4F3AF09E3F510578F00C941E1AC5
S11331D00C94791A5F3FE4F3983ED4F3869577957F
S11331E06795B795F7959F5FC9F7880F911D9695D9
S11331F0879597F90895E1E0660F771F881FBB1F35
S1133200621773078407BA0720F0621B730B840BE1
S1133210BA0BEE1F88F7E0950895BEE304D008F4D6
S113322090E80895BFE322273327A9010E945E1A7C
S113323060F19F5748F1B91740F1BFE3B91B9927D3
S1133240B8503AF4660F771F881F991FB395D2F3CD
S113325016C0B8504AF0232F342F452F562F672F0E
S1133260782F8827B850BAF7B85F49F086957795D4
S113327067955795479537952795BA95B9F716F4F5
S11332800E94271A88940895889460E070E0CB0126
S113329008950E9450196894B1110C94791A0895F4
S11332A00E945E1A88F09F5798F0B92F9927B7515A
S11332B0B0F0E1F0660F771F881F991F1AF0BA95D6
S11332C0C9F714C0B13091F00E94781AB1E00895A2
S11332D00C94781A672F782F8827B85F39F0B93F94
S11332E0CCF3869577956795B395D9F73EF4909589
S11332F08095709561957F4F8F4F9F4F0895E89407
S113330009C097FB3EF490958095709561957F4F29
S11333108F4F9F4F9923A9F0F92F96E9BB279395D7
S1133320F695879577956795B795F111F8CFFAF4E7
S1133330BB0F11F460FF1BC06F5F7F4F8F4F9F4F18
S113334016C0882311F096E911C0772321F09EE876
S1133350872F762F05C0662371F096E8862F70E0DC
S113336060E02AF09A95660F771F881FDAF7880FB6
S11333709695879597F90895E894F92F96EBFF238E
S113338081F0121613061406440B9395F69587954F
S11333907795679557954040FF23B9F71BC0992748
S11333A00895882351F49850D2F7872B762F652FF0
S11333B0542F432F322F20E0B1F3121613061406B4
S11333C0440B88233AF09A95440F551F661F771FC4
S11333D0881FCAF755234AF4440F551F11F460FFA0
S11333E004C06F5F7F4F8F4F9F4F880F96958795CF
S11333F097F90895990F0008550FAA0BE0E8FEEF1E
S113340016161706E807F907C0F012161306E407A4
S1133410F50798F0621B730B840B950B39F40A269D
S113342061F0232B242B252B21F408950A2609F47B
S1133430A140A6958FEF811D811D089597F99F677F
S113344080E870E060E008959FEF80EC0895909527
S113345080957095609550954095309521953F4F96
S11334604F4F5F4F6F4F7F4F8F4F9F4F08950024F3
S11334700A941616170618060906089500240A94D5
S113348012161306140605060895092E0394000C5B
S113349011F4882352F0BB0F40F4BF2B11F460FFEA
S11334A004C06F5F7F4F8F4F9F4F089557FD905813
S11334B0440F551F59F05F3F71F04795880F97FBF4
S11334C0991F61F09F3F79F08795089512161306AE
S11334D01406551FF2CF4695F1DF08C016161706DD
S11334E01806991FF1CF8695710561050894089512
S11334F0E894BB2766277727CB0197F908950E94A4
S1133500FA1908F48FEF089516F00C94411B0C94EB
S1133510241A68940C941E1A0E945E1AA8F3992324
S1133520C1F3AEF3DF93CF931F930F93FF92C92F91
S1133530DD2788232AF02197660F771F881FDAF783
S113354020E030E040E85FEB9FE3883920F0803EE4
S113355038F021968F770E942A18ECE7F0E004C037
S11335600E942A18E9EAF0E00E944F1B8B01BE0179
S1133570EC01FB2E6F5771097595771F880B990B1A
S11335800E94811928E132E741E35FE30E94E71AD0
S1133590AF2D9801AE01FF900F911F91CF91DF9154
S11335A00E9441180C94451A0E94E71A0C94451A7B
S11335B00E94371A38F00E943E1A20F0952311F029
S11335C00C941E1A0C94241A11240C94791A0E9437
S11335D0561A70F3959FC1F3950F50E0551F629FE3
S11335E0F001729FBB27F00DB11D639FAA27F00D58
S11335F0B11DAA1F649F6627B00DA11D661F829F7F
S11336002227B00DA11D621F739FB00DA11D621F63
S1133610839FA00D611D221F749F3327A00D611D80
S1133620231F849F600D211D822F762F6A2F112462
S11336309F5750409AF0F1F088234AF0EE0FFF1F95
S1133640BB1F661F771F881F91505040A9F79E3FEC
S1133650510580F00C941E1A0C94791A5F3FE4F320
S1133660983ED4F3869577956795B795F795E79542
S11336709F5FC1F7FE2B880F911D9695879597F94B
S113368008959F3F31F0915020F487957795679581
S1133690B795880F911D9695879597F90895DF93AF
S11336A0CF931F930F93FF92EF92DF927B018C01D4
S11336B0689406C0DA2EEF010E94E71AFE01E8942E
S11336C0A5912591359145915591A6F3EF010E945D
S11336D04118FE019701A801DA9469F7DF90EF9091
S11336E0FF900F911F91CF91DF910895AA1BBB1BEF
S11336F051E107C0AA1FBB1FA617B70710F0A61BEE
S1133700B70B881F991F5A95A9F780959095BC010E
S1133710CD01089597FB072E16F4009407D077FD8A
S113372009D00E94761B07FC05D03EF49095819544
S11337309F4F0895709561957F4F0895A1E21A2EC9
S1133740AA1BBB1BFD010DC0AA1FBB1FEE1FFF1F41
S1133750A217B307E407F50720F0A21BB30BE40B91
S1133760F50B661F771F881F991F1A9469F76095D8
S11337707095809590959B01AC01BD01CF01089592
S1133780A29FB001B39FC001A39F700D811D11249E
S1133790911DB29F700D811D1124911D08952A0D54
S11337A03B1D4C1D5D1D6E1D7F1D801F911F0895C7
S11337B00024A7FD00942A0F301D401D501D601DDC
S11337C0701D801D901D08952A193B094C095D093F
S11337D06E097F09800B910B08952A153B054C0552
S11337E05D056E057F05800791070895DC01CB0117
S11337F0FC01F999FECF06C0F2BDE1BDF89A3196FD
S113380000B40D9241505040B8F70895DC01A40F64
S1133810B51F4150504048F0CB01840F951F2E91A5
S11338200E94171C41505040D0F70895262FF99953
S1133830FECF92BD81BDF89A019700B4021639F00B
S11338401FBA20BD0FB6F894FA9AF99A0FBE0895DC
S1073850F894FFCF16
S111385401010000065B4F666D7D077F6F006B
S9030000FC
