:100000000C947B000C9498000C9498000C9498002D
:100010000C9498000C9498000C9498000C94980000
:100020000C9498000C9498000C9498000C949800F0
:100030000C9498000C9498000C9498000C949800E0
:100040000C94060D0C9498000C9498000C94980055
:100050000C9498000C9498000C9498000C949800C0
:100060000C9498000C9498000C9498000C949800B0
:100070000C9498000C9498000C94980008000000D0
:10008000BE922449123EABAAAA2ABECDCCCC4C3E8D
:1000900000000080BEABAAAAAA3E00000000BF007C
:1000A0000000803F0000000000084178D3BB438778
:1000B000D1133D190E3CC3BD4282AD2B3E68EC828C
:1000C00076BED98FE1A93E4C80EFFFBE01C4FF7F11
:1000D0003F000000000000000000000000000000E1
:1000E000000000000100000000000000000000000F
:1000F000FFFF0000000011241FBECFEFD0E1DEBFE4
:10010000CDBF11E0A0E0B1E0E4E6F9E302C0059064
:100110000D92AE30B107D9F721E0AEE0B1E001C0F9
:100120001D92AB3EB207E1F70E94960D0C94B01CF5
:100130000C9400000E94FD1280E008950E948A162F
:1001400080E008958091390190913A0118161906BE
:100150002CF48091410161E08F5F06C0892B59F03A
:100160008091410161E081500E94CC1060E00E94CA
:10017000C110809341010E94741580914101882330
:1001800061F0813021F560917F0170918001809153
:1001900081019091820141E009C060916B017091F1
:1001A0006C0180916D0190916E0140E00E949D0D67
:1001B0000E946B1580913B0180FF0BC010924101A2
:1001C00085EA9AE09093400180933F0102C084E069
:1001D000089580E008958091390190913A01892B2A
:1001E000A1F08091690191E0811190E09093690103
:1001F000811103C00E947A0D04C00E94890D1092E3
:10020000680183E491E00E94C8120E9474158091F5
:1002100069010E941B0F0E946B1580913B0180FFBA
:1002200009C081E08093410180E697E0909340010E
:1002300080933F0180E008956091390170913A0107
:100240006115710549F1072E000C880B990B0E946E
:10025000091A20E030E040E05FE30E945C1B20913F
:100260001F013091200140912101509122010E94F3
:10027000B21820E030E048EC52E40E94011120E086
:1002800030E0A9010E94E11060931F0170932001EA
:1002900080932101909322010E94741560911F01A7
:1002A0007091200180912101909122010E94B30F51
:1002B0000E946B1580913B0180FF09C082E0809312
:1002C000410180E697E09093400180933F0180E0F8
:1002D0000895CF932091390130913A0180914101E5
:1002E000121613061CF463E08F5F04C0232B49F041
:1002F00063E081500E94CC1060E00E94C1108093A6
:100300004101E0914101E43028F4F0E0E050FF4F7A
:10031000C08101C0C0E00E9474156C2F8091410122
:100320000E94B20E0E946B1580913B0180FF0FC0AE
:10033000CC2369F0809141018093370183E0809361
:10034000410180E697E09093400180933F0180E077
:10035000CF9108958F929F92AF92BF92CF92DF92EA
:10036000EF92FF920F931F936091390170913A01C0
:100370006115710509F459C0072E000C880B990B03
:100380000E94091A2DEC3CEC4CE45DE30E945C1BDE
:1003900020912301309124014091250150912601A3
:1003A0000E94B2182CE53FEF49E754E40E94011186
:1003B00020E030E0A9010E94E110AB01BC014093B4
:1003C00023015093240160932501709326018090AE
:1003D0002F0190903001A0903101B0903201C09077
:1003E0002B01D0902C01E0902D01F0902E01009176
:1003F0002701109128012091290130912A0182E4DE
:100400008F9388EC8F931F921F921F921F921F92BF
:100410001F9283E491E00E9469118DB79EB7089600
:100420000FB6F8949EBF0FBE8DBF0E9474156091E9
:1004300023017091240180912501909126010E9451
:10044000370F0E946B1580913B0180FF09C081E04E
:100450008093410189EB97E09093400180933F01A5
:1004600080E01F910F91FF90EF90DF90CF90BF90B1
:10047000AF909F908F9008958F929F92AF92BF926E
:10048000CF92DF92EF92FF920F931F936091390109
:1004900070913A016115710509F459C0072E000CDD
:1004A000880B990B0E94091A2DEC3CEC4CE45DE39F
:1004B0000E945C1B20912701309128014091290165
:1004C00050912A010E94B2182CE53FEF49E754E40D
:1004D0000E94011120E030E0A9010E94E1108B018F
:1004E0009C016093270170932801809329019093C8
:1004F0002A0180902F0190903001A0903101B0909E
:100500003201C0902B01D0902C01E0902D01F09091
:100510002E01409123015091240160912501709199
:10052000260182E48F9388EC8F931F921F921F9273
:100530001F921F921F9283E491E00E9469118DB770
:100540009EB708960FB6F8949EBF0FBE8DBF0E944F
:100550007415609127017091280180912901909173
:100560002A010E944F0F0E946B1580913B0180FF72
:1005700009C082E08093410189EB97E090934001AC
:1005800080933F0180E01F910F91FF90EF90DF90EB
:10059000CF90BF90AF909F908F9008958F929F9231
:1005A000AF92BF92CF92DF92EF92FF920F931F9381
:1005B0006091390170913A016115710509F459C0D2
:1005C000072E000C880B990B0E94091A2DEC3CECAD
:1005D0004CE45DE30E945C1B20912B0130912C01C7
:1005E00040912D0150912E010E94B2182CE53FEF51
:1005F00049E754E40E94011120E030E0A9010E9483
:10060000E1106B017C0160932B0170932C018093AE
:100610002D0190932E0180902F0190903001A09099
:100620003101B090320100912701109128012091F1
:10063000290130912A0140912301509124016091B8
:1006400025017091260182E48F9388EC8F931F928D
:100650001F921F921F921F921F9283E491E00E94AB
:1006600069118DB79EB708960FB6F8949EBF0FBE5E
:100670008DBF0E94741560912B0170912C018091A7
:100680002D0190912E010E94670F0E946B158091A1
:100690003B0180FF09C083E08093410189EB97E033
:1006A0009093400180933F0180E01F910F91FF9054
:1006B000EF90DF90CF90BF90AF909F908F90089574
:1006C0008F929F92AF92BF92CF92DF92EF92FF9262
:1006D0000F931F936091390170913A016115710573
:1006E00009F459C0072E000C880B990B0E94091AB7
:1006F0002DEC3CEC4CE45DE30E945C1B20912F014F
:100700003091300140913101509132010E94B21874
:1007100020E030E040E85FE30E94011120E030E09B
:10072000A9010E94E1104B015C0160932F017093BD
:1007300030018093310190933201C0902B01D09011
:100740002C01E0902D01F0902E01009127011091D5
:1007500028012091290130912A01409123015091D3
:100760002401609125017091260182E48F9388EC29
:100770008F931F921F921F921F921F921F9283E4CA
:1007800091E00E9469118DB79EB708960FB6F89454
:100790009EBF0FBE8DBF0E94741560912F01709196
:1007A000300180913101909132010E947F0F0E94AF
:1007B0006B1580913B0180FF09C084E0809341016B
:1007C00089EB97E09093400180933F0180E01F9177
:1007D0000F91FF90EF90DF90CF90BF90AF909F90E0
:1007E0008F9008956091390170913A0161157105FA
:1007F00051F1072E000C880B990B0E94091A20E07A
:1008000030E040E05FE30E945C1B209133013091B7
:10081000340140913501509136010E94B21820E018
:1008200030E048E452E40E94011120E030E048E466
:1008300052EC0E94E1106093330170933401809375
:100840003501909336010E947415609133017091C7
:10085000340180913501909136010E949B0F0E94D6
:100860006B1580913B0180FF09C085E080934101B9
:1008700080E697E09093400180933F0180E00895E7
:100880008091390190913A01009729F120916701F7
:1008900064E670E0820F911D0E94D11060E070E06C
:1008A0000E94C6108093670190916A01911105C062
:1008B000882339F00E94D51504C0811102C00E941E
:1008C000E8158091670191E0811101C090E090935B
:1008D0006A010E94BE150E947415809167010E94F2
:1008E000B50F0E946B1580913B0180FF09C081E02C
:1008F000809341018AE098E09093400180933F010A
:1009000080E008950E94741560916F0170917001EC
:1009100080917101909172010E94FE0F0E946B15EF
:1009200080913B0180FF09C081E08093410185E413
:1009300098E09093400180933F0180E008950E94E9
:10094000741560918301709184018091850190916B
:1009500086010E94FE0F0E946B1580913B0180FF73
:1009600009C082E08093410185E498E090934001C2
:1009700080933F0180E008950E9474150E940D103D
:100980000E946B1580913B0180FF09C083E080933A
:10099000410185E498E09093400180933F0180E01D
:1009A00008950E9474150E940D100E946B1580918D
:1009B0003B0180FF09C084E08093410185E498E019
:1009C0009093400180933F0180E008954F925F92A1
:1009D0006F927F928F929F92AF92BF92CF92DF924F
:1009E000EF92FF920F931F93CF93DF9382E491E0F6
:1009F0000E94B11760936B0170936C0180936D013D
:100A000090936E01C0914201C11148C280913F0193
:100A1000909140018258944091F0C0906B01D09029
:100A20006C01E0906D01F0906E0120E030E0A901D2
:100A3000C701B6010E941E1987FF12C04DC082E493
:100A400091E00E94681760936F017093700180932A
:100A5000710190937201C0914201CC23F1F21EC248
:100A600020E030E048E453E4C701B6010E94071BD0
:100A700018160CF43EC08091680181113CC0809131
:100A8000680181116DC082E491E00E946818609352
:100A90007F01709380018093810190938201C091C6
:100AA0004201C111FBC180913F01909140018F59DA
:100AB000944009F4B1C0C0907F01D0908001E090D3
:100AC0008101F090820120E030E0A901C701B60168
:100AD0000E941E1987FF02C0C6E0E0C120E030E09E
:100AE00048E453E4C701B6010E94071B18160CF036
:100AF000A6C0C5E0D3C1209173013091740140912B
:100B0000750150917601C701B6010E94B11820E02D
:100B100030E040EA50E40E941E1987FFB0CF0E94E7
:100B2000C30CA0907701B0907801C0907901D0906B
:100B30007A01E0907B01F0907C0100917D011091A1
:100B40007E010E946C1C0E94F70A20E030E040E722
:100B500051E40E94071B18160CF091CFC3E09EC110
:100B6000209173013091740140917501509176018B
:100B700060916B0170916C0180916D0190916E019B
:100B80000E94B11820E030E040EA50E40E94071BC8
:100B900087FD79CF0E94C30CA0907701B0907801B7
:100BA000C0907901D0907A01E0907B01F0907C01B7
:100BB00000917D0110917E010E946C1C0E94F70A39
:100BC00020E030E040E751E40E941E1918160CF4B2
:100BD0005ACF80916B0190916C01A0916D01B09101
:100BE0006E018093730190937401A0937501B0938B
:100BF00076010E94C30C20937701309378014093D3
:100C0000790150937A0160937B0170937C0180930A
:100C10007D0190937E0137CF82E491E00E941F18FE
:100C20006093830170938401809385019093860182
:100C300080914201882309F43ECFC82F2FC18091B3
:100C40003701813009F097C080916801811105C09A
:100C500080916801811135C08EC02091870130914B
:100C600088014091890150918A01C701B6010E9413
:100C7000B11820E030E040E450E40E941E1987FFE4
:100C8000E7CF0E94C30CA0908B01B0908C01C09064
:100C90008D01D0908E01E0908F01F0909001009135
:100CA0009101109192010E946C1C0E94F70A20E0B1
:100CB00030E046E953E40E94071B18160CF44ECFAF
:100CC000C7CF2091870130918801409189015091CF
:100CD0008A0160917F0170918001809181019091E2
:100CE00082010E94B11820E030E040E450E40E940C
:100CF000071B87FD40C00E94C30CA0908B01B090E1
:100D00008C01C0908D01D0908E01E0908F01F09009
:100D1000900100919101109192010E946C1C0E941F
:100D2000F70A20E030E046E953E40E941E19181645
:100D300014F180917F0190918001A0918101B09187
:100D400082018093870190938801A0938901B093D9
:100D50008A010E94C30C20938B0130938C01409335
:100D60008D0150938E0160938F0170939001809359
:100D700091019093920180916901882309F48EC0BA
:100D800080913701882361F0813009F086C040915D
:100D90007F0150918001609181017091820108C0B2
:100DA00040916B0150916C0160916D0170916E01E9
:100DB00000911F0110912001209121013091220109
:100DC00083E491E00E94A9112B013C0180906B010A
:100DD00090906C01A0906D01B0906E0120E030E029
:100DE00040EF52E4C501B4010E94071BF090680176
:100DF00018160CF44AC0C301B2010E94D819D62FAC
:100E0000633608F443C0F11044C081E08093680168
:100E10008092730190927401A0927501B092760154
:100E20000E94C30C2093770130937801409379019D
:100E300050937A0160937B0170937C0180937D01D4
:100E400090937E0180917F0190918001A09181011A
:100E5000B09182018093870190938801A0938901CA
:100E6000B0938A010E94C30C20938B0130938C01B4
:100E700040938D0150938E0160938F017093900188
:100E8000809391019093920104C0D0E0F1101092F0
:100E900068018D2F0E94690D01C0C4E08C2FDF9185
:100EA000CF911F910F91FF90EF90DF90CF90BF9067
:100EB000AF909F908F907F906F905F904F9008952C
:100EC0008091390190913A01181619062CF48091FD
:100ED000410165E08F5F06C0892B59F08091410187
:100EE00065E081500E94CC1060E00E94C1108093A8
:100EF00041010E947415809141010E94320E0E94AE
:100F00006B1580913B0180FF32C08091410182309E
:100F1000D1F04CF4882389F0813049F510924101D9
:100F20008BEE90E020C08430D1F094F08530F9F45D
:100F30001092410182EF93E016C081E0809341015D
:100F400085EA9AE010C0109241018CE191E00BC05B
:100F5000809137018093410189E691E004C01092AD
:100F6000410189EB97E09093400180933F0180E03D
:100F700008958091390190913A01181619062CF4C0
:100F80008091410164E08F5F06C0892B59F0809108
:100F9000410164E081500E94CC1060E00E94C110C9
:100FA000809341010E947415809141010E94DC0EE2
:100FB0000E946B1580913B0180FF2AC08091410106
:100FC0008230C9F04CF4882381F0813009F5109209
:100FD00041018AEA91E018C0833091F08430C1F475
:100FE0001092410180E693E00FC084E080934101BC
:100FF00080E697E009C0109241018CE392E004C0C2
:10100000109241018EEC92E09093400180933F0159
:1010100080E008958091390190913A0118161906DF
:101020002CF48091410161E08F5F06C0892B59F05B
:101030008091410161E081500E94CC1060E00E94EB
:10104000C110809341010E947415809141010E945A
:10105000920E0E946B1580913B0180FF14C080911D
:101060004101882339F0813071F41092410180E40C
:1010700094E005C082E08093410185EA9AE0909374
:10108000400180933F0180E0089580913901909163
:101090003A01181619062CF48091410164E08F5F23
:1010A00006C0892B59F08091410164E081500E9473
:1010B000CC1060E00E94C110809341010E94741521
:1010C000809141010E94D10F0E946B1580913B01DC
:1010D00080FF2AC0809141018230C9F04CF48823FE
:1010E00081F0813009F51092410182E894E018C046
:1010F000833091F08430C1F41092410181ED94E08D
:101100000FC083E08093410185EA9AE009C0109204
:1011100041018FE994E004C0109241018CEB94E00E
:101120009093400180933F0180E00895EFE1F1E06A
:10113000138E128E148E158E168E178E0895CF93E1
:10114000DF930E9496080E94F112CFE1D1E09B8FBD
:101150008A8F80E00E947E169F8D892B8F8F80E082
:101160000E9424169C8D892B8C8F80E00E94601633
:101170009D8D892B8D8F80E00E9442169E8D892B3C
:101180008E8FE8A1F9A1DF91CF910994809142015E
:10119000882341F00E947415809142010E9415102D
:1011A0000C946B150895EFE1F1E080E090E0A8EC7D
:1011B000B1E480839183A283B38380E090E0A0E8D0
:1011C000BFE384839583A683B78380E090E0A6E99C
:1011D000B3E480879187A287B38714861586168625
:1011E000178680E090E0A0E8BEE3808B918BA28B15
:1011F000B38B148A158A168A178A108E0895CF9396
:10120000DF93CDB7DEB76A970FB6F894DEBF0FBE97
:10121000CDBF8CE0898389E1EFE1F1E0DE01129638
:1012200001900D928A95E1F74AE150E060E070E0AC
:10123000CE0101960E948E1C6A960FB6F894DEBF0E
:101240000FBECDBFDF91CF9108958F929F92AF9245
:10125000BF92CF92DF92EF92FF920F931F93CF93A3
:10126000DF93CDB7DEB76A970FB6F894DEBF0FBE37
:10127000CDBF4AE150E060E070E0CE0101960E94EF
:101280007E1C89818C3029F00E94D3080E94FF08BF
:1012900009C089E1FE013296AFE1B1E001900D9203
:1012A0008A95E1F780902F0190903001A090310154
:1012B000B0903201C0902B01D0902C01E0902D0114
:1012C000F0902E0100912701109128012091290111
:1012D00030912A0140912301509124016091250110
:1012E0007091260182E48F9388EC8F931F921F9256
:1012F0001F921F921F921F9283E491E00E94691136
:101300000FB6F894DEBF0FBECDBF6A960FB6F89445
:10131000DEBF0FBECDBFDF91CF911F910F91FF9028
:10132000EF90DF90CF90BF90AF909F908F900895F7
:101330008F929F92AF92BF92CF92DF92EF92FF92E5
:101340000F931F93CF93109242010E94000B0E94B3
:101350007D150E94F7150E94D2120E942509109255
:1013600067011092690110926A01109268010E944F
:1013700083150E94E8150E94450D0E94890D8090FA
:101380002F0190903001A0903101B0903201C090B7
:101390002B01D0902C01E0902D01F0902E010091B6
:1013A0002701109128012091290130912A014091B3
:1013B000230150912401609125017091260182E45E
:1013C0008F9388EC8F931F921F921F921F921F92F0
:1013D0001F9283E491E00E9421110E940E1720E0E9
:1013E00046EE54E06AE077ED83EA9CE30E94D40C79
:1013F00021E04FE958E06AE077ED83E29DE30E9447
:10140000D40C22E04AE950E06FE672E183E89AE307
:101410000E94D40C23E04EE950E06AE077ED83EAC5
:101420009BE30E94D40C0E94960882EA90E090937D
:10143000400180933F010E94311782E491E00E94B5
:10144000B11760936B0170936C0180936D01909361
:101450006E018DB79EB708960FB6F8949EBF0FBE6B
:101460008DBF80914201811146C082E491E00E94CB
:10147000681760936F01709370018093710190936E
:10148000720180914201811136C082E491E00E9494
:10149000681860937F01709380018093810190931D
:1014A000820180914201811126C082E491E00E9474
:1014B0001F1860938301709384018093850190933A
:1014C000860180914201811116C00E944D0B10923D
:1014D0003801C1E080913801811109C00E94BC0B24
:1014E000809342018823B1F3C0933801F3CFC091B8
:1014F0004201CC2379F00E94580D0E94A2150E944F
:1015000020170E94E9120E940F160E94C608C0917F
:1015100042010EC00E94760B0E94A2150E94580D37
:101520000E9420170E94E9120E940F160E94F413D5
:101530008C2FCF911F910F91FF90EF90DF90CF9064
:10154000BF90AF909F908F900895809139019091B6
:101550003A01181619062CF48091410165E08F5F5D
:1015600006C0892B59F08091410165E081500E94AD
:10157000CC1060E00E94C110809341010E9474155C
:10158000809141010E94C20D0E946B1580913B0128
:1015900080FF2BC0809141018230B9F04CF4882348
:1015A00079F0813011F51092410180E697E016C084
:1015B0008430C9F07CF08530C1F40E94FF0815C06A
:1015C0001092410182EA90E009C0109241018AE044
:1015D00098E004C01092410185E498E090934001A6
:1015E00080933F0102C00E94250980E008950E9477
:1015F000441A28E33EE94FEC58E30E945C1B08952F
:101600001092E3011092E4011092E5011092E601BC
:101610001092E7011092E8011092E9011092EA019C
:101620001092DB011092DC011092DD011092DE01BC
:101630001092DF011092E0011092E1011092E2019C
:10164000E3E9F1E010821182128213821482158282
:1016500016821782108611861286138614861586C6
:1016600016861786118A108A729681E0EB3DF8077C
:1016700049F780916E008C7F80936E0085B5887FDE
:1016800085BD84B5826084BD82E687BD80916E0091
:10169000826080936E00789408951092E301109216
:1016A000E4011092E5011092E6011092E701109218
:1016B000E8011092E9011092EA011092DB01109208
:1016C000DC011092DD011092DE011092DF01109218
:1016D000E0011092E1011092E20116BC85B5826032
:1016E00085BD089585B5887F85BD08950E94720BDC
:1016F00080916E008D7F80936E0084B58D7B84BD5C
:1017000016BC17BC1092E3011092E4011092E5019F
:101710001092E6011092E7011092E8011092E9019F
:101720001092EA011092DB011092DC011092DD01AF
:101730001092DE011092DF011092E0011092E1019F
:101740001092E201E3E9F1E0108211821282138229
:1017500014821582168217821086118612861386CD
:101760001486158616861786118A108A729681E06D
:10177000EB3DF80749F708952F923F924F925F9201
:101780006F927F928F929F92AF92BF92CF92DF9291
:10179000EF92FF920F931F93CF93DF93CDB7DEB7F6
:1017A00062970FB6F894DEBF0FBECDBFEFB7F894C7
:1017B0002091E3013091E4014091E5015091E6016F
:1017C0006091E7017091E8018091E9019091EA014F
:1017D000A090DB01B090DC01C090DD01D090DE0173
:1017E000E090DF01F090E0010091E1011091E20151
:1017F0000E946C1C2F83388749875A876B877C87A8
:101800008D879E877091E3016091E4015091E5011D
:101810004091E6013091E7012091E8019091E901C2
:101820008091EA017093DB016093DC015093DD014C
:101830004093DE013093DF012093E0019093E101BA
:101840008093E201EFBF83E991E0988B8F87EF856A
:10185000F8890088F189E02DFE83ED83EF2B51F4A8
:101860008F8598894296988B8F878B5D914079F709
:1018700080E070C02F81388549855A856B857C85CD
:101880008D859E85EF85F889A084B184C284D38438
:10189000E484F584068517850E94571C19012A01E6
:1018A0003B014C01208731864287538664877586C9
:1018B00086879786B081A181F281F98BEF85F889BF
:1018C000F381FA8BEF85F889F481F983EF85F88944
:1018D000F581FA83EF85F889F681FB83EF85F88936
:1018E000F781FC83AB2EBA2EC988DA88E980FA80AA
:1018F0000B811F2F0E94751C08F4B2CF0E946C1C34
:1019000019012A013B014C012B2F3A2FA601B701E7
:10191000C8015101620173018401EF85F8890E94B9
:10192000751C51F048F020863186428653866486C5
:1019300075868686978608C010861186128613865D
:101940001486158616861786ED81FE8109958823F3
:1019500009F486CF62960FB6F894DEBF0FBECDBFF6
:10196000DF91CF911F910F91FF90EF90DF90CF907B
:10197000BF90AF909F908F907F906F905F904F90AF
:101980003F902F9008952091DB013091DC01409130
:10199000DD015091DE016091DF017091E0018091E5
:1019A000E1019091E20108950F931F93CF93DF938C
:1019B0008A0132E1239FE0011124CD56DE4F28E356
:1019C0003EE94FEC58E30E94231920E030E040E06C
:1019D0005FE30E94B2180E949A19288339834A83D0
:1019E0005B836C837D838E839F83FE01389618868C
:1019F0001182128213821482158216821782198B29
:101A0000088BDF91CF911F910F9108951F920F9234
:101A10000FB60F9211242F933F934F935F936F93C1
:101A20007F938F939F93AF932091E3013091E401D3
:101A30004091E5015091E6016091E7017091E80164
:101A40008091E9019091EA01A1E00E94601C20933D
:101A5000E3013093E4014093E5015093E601609384
:101A6000E7017093E8018093E9019093EA01AF9157
:101A70009F918F917F916F915F914F913F912F91A6
:101A80000F900FBE0F901F90189510927000E1EB11
:101A9000F0E08081897F8083E0EBF0E080818160ED
:101AA00080831092B3001092B200579A5F98089505
:101AB000E1EBF0E08081897F80831092B200109288
:101AC000B300E0EBF0E080818E77808357985F98D9
:101AD000089564E60E94DC1060E00E94D7102FEFAA
:101AE000829FC001112464E670E00E94FE1B609397
:101AF000B30008951092B2001092B300E0EBF0E052
:101B0000808180688083E1EBF0E080818660808363
:101B10000895E0EBF0E080818F778083E1EBF0E0E7
:101B20008081897F80831092B20008950E94980975
:101B30008111FFCF80E090E00895CF92DF92EF9285
:101B4000FF920F936B017C01413049F030F042303D
:101B500041F0433051F46FEC05C06FEB03C066E811
:101B600001C06BED80E00E94F61305E021E041E04A
:101B7000C701B6010E9401140F91FF90EF90DF9012
:101B8000CF9008958230F1F028F4882351F081300D
:101B900059F008958430D9F120F1853009F44AC014
:101BA000089560E480E05CC064E780E00E94F61382
:101BB00069E781E00E94F61367E782E00E94F6136E
:101BC00068E70DC06DE680E00E94F61368E781E0EB
:101BD0000E94F61366E082E00E94F61360E583E05F
:101BE0003FC068EF80E00E94F61369E381E00E9445
:101BF000F61367E782E00E94F61368E383E00E9431
:101C0000F61366E084E00E94F6136CE728C068E3F0
:101C100080E00E94F6136CE581E00E94F61367E70E
:101C200082E00E94F6136EED83E00E94F6136DEEE3
:101C300084E016C06DE680E00E94F61368E781E05C
:101C40000E94F6136CE582E00E94F61360E583E0E3
:101C50000E94F61369EF84E00E94F6136DEE85E0B2
:101C60000C94F613823039F128F4882351F0813036
:101C700079F008958430D9F160F1853009F442C0DB
:101C8000089560E480E00E94F61360E481E048C0BB
:101C90006CE580E00E94F61364E581E00E94F61393
:101CA0006CE582E00E94F61361E783E00E94F61380
:101CB00061E784E035C068E780E00E94F6136FEECC
:101CC00081E00E94F61368E782E00E94F61363E762
:101CD00026C068EF80E00E94F6136DE681E00E9466
:101CE000F61369E782E00E94F61368E318C063E721
:101CF00080E00E94F61366E081E00E94F6136EE534
:101D000082E00EC06CE580E00E94F61361E781E09E
:101D10000E94F61361E782E00E94F6136DE683E00D
:101D20000C94F613882319F0813041F0089560E493
:101D300080E00E94F61360E481E012C06DE680E06E
:101D40000E94F61363E781E00E94F61369E782E0E0
:101D50000E94F61369E783E00E94F6136EE584E0C3
:101D60000C94F613662301F1813089F050F0823033
:101D7000A1F08330C9F468E784E00E94F6136FE4B1
:101D800011C068E784E00E94F6136FE30BC068E7B8
:101D900084E00E94F61366E005C068E784E00E94D4
:101DA000F6136BE585E006C064E580E00E94F6135B
:101DB00069E381E00C94F6138230E1F028F4882383
:101DC00041F0813089F008958330D9F08430F9F002
:101DD000089560E480E00E94F61360E481E00E94D0
:101DE000F61360E482E025C066E780E00E94F61307
:101DF00063E705C068E780E00E94F61366E081E0D3
:101E000018C068E780E00E94F6136EE5F8CF66E040
:101E100080E00E94F61360E481E00E94F61369E31B
:101E200082E00E94F61368E383E00E94F61363E702
:101E300084E00C94F61360E3882351F080E00E9464
:101E4000F6136CE581E00E94F61364E582E00DC0B4
:101E500080E00E94F6136CE581E00E94F61361E7D2
:101E600082E00E94F61361E783E00C94F613CF92B0
:101E7000DF92EF92FF920F936B017C0163E780E0AA
:101E80000E94F61305E022E041E0C701B6010E947E
:101E900001140F91FF90EF90DF90CF900895CF92B3
:101EA000DF92EF92FF920F936B017C0166E080E07E
:101EB0000E94F61305E022E041E0C701B6010E944E
:101EC00001140F91FF90EF90DF90CF900895CF9283
:101ED000DF92EF92FF920F936B017C016EE580E041
:101EE0000E94F61305E022E041E0C701B6010E941E
:101EF00001140F91FF90EF90DF90CF900895CF9253
:101F0000DF92EF92FF920F936B017C0166E880E015
:101F10000E94F61369EB81E00E94F61304E022E0D0
:101F200042E0C701B6010E9401140F91FF90EF90AB
:101F3000DF90CF900895CF92DF92EF92FF920F93B0
:101F40006B017C0160E380E00E94F61305E021E074
:101F500041E0C701B6010E9401140F91FF90EF907C
:101F6000DF90CF9008950C949B0FCF93C82F60E320
:101F700080E00E94F613CC2339F045E061E08C2F1D
:101F800090E0CF910C94F4146CE581E00E94F6137C
:101F900061E782E00E94F61361E783E0CF910C9441
:101FA000F6138230B9F028F4882341F0813061F0D3
:101FB00008958330A9F08430C9F0089560E480E08A
:101FC0000E94F61360E417C068E780E00E94F613F1
:101FD0006FE311C068E780E00E94F61366E00BC073
:101FE00068E780E00E94F6136BE505C068E780E0D3
:101FF0000E94F6136FE481E00C94F6130F939F7721
:1020000020E030E04AE754E40E94231906E023E090
:1020100040E00E9401140F91089564E580E00E9461
:10202000F61369E381E00C94F613833009F443C09E
:10203000D8F4813051F1823009F07CC068E780E04B
:102040000E94F61364EF81E00E94F6136DE682E0D1
:102050000E94F61364E783E00E94F61360E584E0D3
:102060000E94F61368E752C0853009F451C0C8F1E8
:10207000863009F05FC068E780E00E94F61364EFE5
:1020800081E00E94F61368E34CC068E780E00E949C
:10209000F61364EF81E00E94F6136CE582E00E9483
:1020A000F61363E783E00E94F61369E784E00E9479
:1020B000F61364E52BC068E780E00E94F61364EF36
:1020C00081E00E94F61364E582E00E94F61360E569
:1020D00083E00E94F61369E784E00E94F6136DE640
:1020E00015C068E780E00E94F61364EF81E00E946B
:1020F000F61364E582E00E94F6136CE583E00E942B
:10210000F61363E784E00E94F61369E785E024C0D4
:1021100068E780E00E94F61364EF81E00E94F61306
:1021200064E782E00E94F61368E783E00E94F613FA
:1021300063E711C069E780E00E94F61360E581E083
:102140000E94F61360E582E00E94F6136CE583E0DE
:102150000E94F61360E584E00C94F613AC0120E0D5
:1021600081E090E03AE0622F70E06417750744F474
:10217000BC01369FC001379F900D11242F5FF3CF14
:10218000089568170CF4682F862F0895681779074B
:102190000CF4BC01CB01089586170CF4682F862F30
:1021A0000895861797070CF4BC01CB0108956817B2
:1021B00008F4682F862F0895861708F4682F862F55
:1021C0000895CF92DF92EF92FF920F931F93CF93D8
:1021D000DF938B01D82FC92F69017A010E94071B59
:1021E00018161CF08601DE2DCF2DB8018D2F9C2FE7
:1021F000DF91CF911F910F91FF90EF90DF90CF90E3
:102200000895CF92DF92EF92FF920F931F93CF9397
:10221000DF938B01D82FC92F69017A010E941E1903
:1022200087FD03C08601DE2DCF2DB8018D2F9C2F99
:10223000DF91CF911F910F91FF90EF90DF90CF90A2
:1022400008958F929F92AF92BF92CF92DF92EF92BA
:10225000FF920F931F93CF93DF93CDB7DEB7FC01AF
:10226000408751876287738704871587268737875A
:10227000C08AD18AE28AF38A848A958AA68AB78A32
:102280008B899C89AD89BE8980A391A3A2A3B3A3A6
:102290008F859889A989BA89848F958FA68FB78FE2
:1022A000108E118E128E138E108211821282138262
:1022B0001482158216821782DF91CF911F910F91A0
:1022C000FF90EF90DF90CF90BF90AF909F908F9056
:1022D00008958F929F92AF92BF92CF92DF92EF922A
:1022E000FF920F931F93CF93DF93CDB7DEB7FC011F
:1022F00040875187628773870487158726873787CA
:10230000C08AD18AE28AF38A848A958AA68AB78AA1
:102310008B899C89AD89BE8980A391A3A2A3B3A315
:102320008F859889A989BA89848F958FA68FB78F51
:10233000108E118E128E138EDF91CF911F910F91FF
:10234000FF90EF90DF90CF90BF90AF909F908F90D5
:1023500008954F925F926F927F928F929F92AF9269
:10236000BF92CF92DF92EF92FF920F931F93CF9382
:10237000DF93CDB7DEB766970FB6F894DEBF0FBE1A
:10238000CDBF9E8B8D8B6A017B01C901B801A7016E
:1023900096010E94B1186D877E878F87988BAD89D3
:1023A000BE8918968D919D910D90BC91A02D898329
:1023B0009A83AB83BC839C01AD016D857E858F853F
:1023C00098890E945C1BED89FE89208D318D428D9C
:1023D000538D0E94B2184B015C01AD89BE892D91CD
:1023E0003D914D915C91C701B6010E94B1182AE060
:1023F00037ED43EA5CE30E9423192B013C01ED8990
:10240000FE89208931894289538969817A818B814A
:102410009C810E945C1B9B01AC01C301B2010E9424
:102420005C1B9B01AC01C501B4010E94B1184B01BA
:102430005C01AD89BE89CD92DD92ED92FC9213973D
:1024400090968D919D910D90BC91A02D8D839E8332
:10245000AF83B887A5019401BC01CD010E94B118DA
:1024600020E030E0A9010E94E1106B017C01AD8900
:10247000BE8954968D919D910D90BC91A02D898718
:102480009A87AB87BC87ED89FE89448C558C668C16
:10249000778CA5019401C301B2010E94B11820E01C
:1024A00030E0A9010E940111698B7A8B8B8B9C8B88
:1024B00029853A854B855C85C701B6010E945C1B66
:1024C0006B017C01AD89BE891C962D913D914D918A
:1024D0005C911F9769817A818B819C810E9423196D
:1024E0002D853E854F8558890E945C1B2AE037ED7B
:1024F00043EA5CE30E945C1BED89FE8924813581FF
:10250000468157810E94B218A70196010E940111CD
:102510006B017C0129893A894B895C8969857A85B7
:102520008B859C850E945C1B9B01AC01C701B60199
:102530000E94E1109B01AC01AD89BE8914966D9398
:102540007D938D939C931797C501B4010E94B21897
:102550002D813E814F8158850E940111A301920176
:1025600066960FB6F894DEBF0FBECDBFDF91CF9158
:102570001F910F91FF90EF90DF90CF90BF90AF90A1
:102580009F908F907F906F905F904F900C94E11090
:10259000FC0110821182128213821482158216822B
:1025A0001782089584B1837F84B985B18C6085B921
:1025B00010920F0110920E011A9903C082E08093CD
:1025C00010011B9905C0809110018160809310015A
:1025D000089510920F0110920E0185B1837F85B985
:1025E00008952FB7F89480910E0190910F011092E9
:1025F0000F0110920E012FBF08958091100124E069
:10260000829FC00111248F70809310011A9905C018
:10261000809110018260809310011B9905C0809108
:102620001001816080931001E0911001F0E0EE0F45
:10263000FF1FEA52FF4F2591349180910E01909136
:102640000F01820F931F90930F0180930E016091F1
:102650000E0170910F0188EE93E00E94D110BC0131
:1026600088E19CEF0E94C61090930F0180930E01A9
:1026700008952C982C9A08952D9A2D98089580FDF0
:102680002F9A80FF2F980C943C130F931F93CF9396
:10269000DF93C0E0D0E0082F10E0C8010C2E02C08C
:1026A000959587950A94E2F781700E943F132196D1
:1026B000C830D10591F7DF91CF911F910F91089507
:1026C0000F931F93CF93DF938C01C62FD0E0C80FD9
:1026D000D91FC017D10729F0219788810E9445137F
:1026E000F8CFDF91CF911F910F9108952E9A2E98D8
:1026F000089584B1806F84B985B18F7185B92C9AA2
:102700000E9439130C9476130E9439130C9476139B
:102710009F92AF92BF92CF92DF92EF92FF920F9370
:102720001F93CF93DF93EC01962E8A01662319F055
:10273000D195C195D109209759F030E0E22EF12CC6
:10274000570161E0A61AB1088AE0C82ED12C2EC02C
:10275000F801E20FF11D31978FE3808331E02CC047
:10276000832F90E041E050E0911002C040E050E043
:10277000B701641B750B86179707F4F43F5FF501EB
:10278000E81BF90BE00FF11FCE01B6010E94121CED
:102790008150893078F4A82FB0E0AC5FBE4F8C91A7
:1027A0008083CE01B6010E94121CEB011C161D068F
:1027B000BCF202C08FE3F4CF992049F0E22FF0E0A1
:1027C0003197E31BF109E00FF11F80E4808381E082
:1027D000DF91CF911F910F91FF90EF90DF90CF90FD
:1027E000BF90AF909F9008950C948413863038F476
:1027F000E82FF0E0EF5EFE4F608381E0089580E017
:1028000008952F923F924F925F926F927F928F9294
:102810009F92AF92BF92CF92DF92EF92FF920F936F
:102820001F93CF93DF93CDB7DEB728970FB6F894F9
:10283000DEBF0FBECDBFE42FF0E0FA83E98310E0E6
:10284000AF01400F511F4730510514F080E0B3C075
:102850002C836B017C0120E030E0A9010E941E194D
:10286000881F8827881F8B83C701B6010E94D11952
:102870004B015C017E836D835C81452F50E058875E
:102880004F83CA010E94AE101C01B401092C000C38
:10289000880B990B0E94091A9B01AC01C701B60174
:1028A0000E94B1182B013C01E89477F8B101330C78
:1028B000880B990B0E94091A9B01AC01C301B2015C
:1028C0000E945C1B0E94D119562E772E862F972DC1
:1028D0001C018D819E81892B69F420E030E0A901E3
:1028E000C701B6010E941E19682E661C6624661C6C
:1028F00063940BC06B80C4012AE030E0B9010E94F0
:10290000121CCB0163940097C9F7232881F0472C50
:10291000441C4424441C852D972D2AE030E0B90145
:102920000E94121CCB0143940097C9F702C04424B3
:102930004394262C312C8F819885820D931D081786
:1029400019070CF483CFE981FA81EF5EFE4F6F0126
:102950004F815885041B150B7F01E00EF11E2C8161
:10296000A70160E0852D972D0E948813F7018F81C4
:102970009885841991099A8389832FE3CF018E1951
:102980009F0949815A818417950714F42193F6CF42
:10299000A801421953094C0D5D1D262D6B81C40100
:1029A0000E94881301501109F601E00FF11F808188
:1029B0008068808381E028960FB6F894DEBF0FBE52
:1029C000CDBFDF91CF911F910F91FF90EF90DF90DE
:1029D000CF90BF90AF909F908F907F906F905F90BF
:1029E0004F903F902F9008958F929F92AF92BF92F9
:1029F000CF92DF92EF92FF920F931F93CF93DF93CB
:102A0000EC01E62FF0E0242F30E0CF01820F931F7E
:102A100007970CF050C0EF5EFE4FD7FF05C00027B0
:102A200011270C1B1D0B03C0209789F08E0140E07D
:102A30008D2F881F8827881F5901A81AB1084901BE
:102A400081E0881A91088AE0C82ED12C20C0E20FBC
:102A5000F31F31978FE32DC04F5F7401E81AF90A15
:102A6000EE0EFF1EC801B6010E94121C8150893073
:102A7000A0F4A82FB0E0AC5FBE4F8C91D7018C932F
:102A8000C801B6010E94121C8B01672B41F0842FF4
:102A900090E08A159B0504F302C08FE3EFCFD7FFC8
:102AA0000CC0B90161507109641B7109E60FF71F71
:102AB00080E4808302C080E001C081E0DF91CF919B
:102AC0001F910F91FF90EF90DF90CF90BF90AF904C
:102AD0009F908F9008950E94391366E081E191E004
:102AE0000E9460130C947613E1E1F1E010821182F0
:102AF000128213821482158208950E9479130E9413
:102B000074150C946B1510926F00E1E8F0E0808171
:102B10008E7F8083A0E8B0E08C918C93808180616F
:102B2000808380EA90E090938700809386001092E3
:102B30008900109288001092850010928400559AA6
:102B40005D980895E1E8F0E080818E7F80831092A7
:102B500087001092860010928500109284001092D7
:102B6000890010928800A0E8B0E08C918F778C9358
:102B700080818F7E808355985D98089564E60E94D9
:102B8000DC1060E00E94D710282F30E0A0EAB0E00F
:102B90000E94481C24E630E040E050E00E94261CE1
:102BA0003093890020938800089510928500109238
:102BB00084001092890010928800E0E8F0E08081A3
:102BC00080688083E1E8F0E08081816080830895FF
:102BD000E0E8F0E080818F778083E1E8F0E08081B9
:102BE0008E7F80831092850010928400089584B1B6
:102BF0008C7F84B985B1836085B910921E011092D3
:102C00001D0110921C0110921901EAE1F1E01082FD
:102C1000118283E08093180180931701089585B194
:102C20008C7F85B910921E0110921D0110921C011B
:102C300010921901EAE1F1E01082118283E08093A1
:102C4000180180931701089520911E0130E0082E8D
:102C500002C0359527950A94E2F720FF11C04091F4
:102C60001E0121E030E0B90102C0660F771F8A958E
:102C7000E2F7CB018095842380931E0181E00895C3
:102C800080E0089520911D0130E0082E02C03595A6
:102C900027950A94E2F720FF11C040911D0121E021
:102CA00030E0B90102C0660F771F8A95E2F7CB01C9
:102CB0008095842380931D0181E0089580E008952C
:102CC00020911C0130E0082E02C0359527950A940A
:102CD000E2F720FF11C040911C0121E030E0B90172
:102CE00002C0660F771F8A95E2F7CB018095842397
:102CF00080931C0181E0089580E0089520911901DE
:102D000030E0A90102C0559547958A95E2F7CA01BE
:102D10008170089593B1309119019095292F23273F
:102D2000809118018223809580931801809117016A
:102D3000909118018223892780931701909118019F
:102D4000809117019823937092238091190189270C
:102D500080931901409119014923809119018095AF
:102D6000892320E030E050E0082E000C990BE1E0D0
:102D7000F0E0BA01022E02C0759567950A94E2F759
:102D800060FF10C0A0911E01BF01022E01C0660F9E
:102D90000A94EAF76A2B60931E01D901A65EBE4F22
:102DA0001C9214C0BC01022E02C0759567950A944E
:102DB000E2F760FF0BC0A0911D01BF01022E01C010
:102DC000660F0A94EAF76A2B60931D01609119015E
:102DD00070E0022E02C0759567950A94E2F760FFD5
:102DE00016C0D901A65EBE4F6C91643680F46C911A
:102DF0006F5F6C93643659F4A0911C01BF01022EE1
:102E000001C0660F0A94EAF76A2B60931C012F5FDA
:102E10003F4F2230310509F0ACCF0895EAE7F0E0EA
:102E2000808187758083ACE7B0E01C928C918064D0
:102E30008C9380818660808380EF80937E000895EC
:102E40009FB7F894EAE7F0E080818775808310925D
:102E50007C008081887F80838FEF80937E009FBF7E
:102E6000089580917A00806880937A0080917A003A
:102E7000806480937A0080917A0086FDFCCF8091F7
:102E80007800909179000895FC0180917C00807E0B
:102E900080937C0080917C0080937C0080917A00FC
:102EA000806480937A0080917A0086FDFCCF8091C7
:102EB000780090917900009711F422E005C08F3FCF
:102EC00023E0920718F021E02083089510820895EE
:102ED0008F929F92AF92BF92CF92DF92EF92FF922A
:102EE000CF935C01C4E0C12CD12C7601C5010E94B6
:102EF0004417C80ED91EE11CF11CC150B9F7C70117
:102F0000B6010E94091A20E030E040E859E30E942F
:102F10005C1B20E030E040EA50E40E945C1B6B0147
:102F20007C0120E030E543EC57E40E945C1B4B0140
:102F30005C01A701960160E070E080EA90E40E94E5
:102F4000B1189B01AC01C501B4010E942319CF91B6
:102F5000FF90EF90DF90CF90BF90AF909F908F90B9
:102F600008958F929F92AF92BF92CF92DF92EF928D
:102F7000FF920E9468170E94141B6B017C012BE0DA
:102F800037ED4BE055EB0E945C1BA70196010E94B8
:102F90005C1BA70196010E945C1B4B015C0120EAAF
:102FA00030E642EF59E3C701B6010E945C1B25E5FC
:102FB00039EF46E95AE30E94B1189B01AC01C50103
:102FC000B4010E94B2189B01AC0160E070E080E89F
:102FD0009FE30E94231923E333E948E853E40E9466
:102FE000B118FF90EF90DF90CF90BF90AF909F907F
:102FF0008F900895FC0180917C00807E80937C00FE
:1030000080917C00816080937C0080917A00806454
:1030100080937A0080917A0086FDFCCF80917800C1
:1030200090917900009711F422E005C08F3F23E0D2
:10303000920718F021E020830895108208958F925E
:103040009F92AF92BF92CF92DF92EF92FF92CF9377
:103050005C01C4E0C12CD12C7601C5010E94FA1795
:10306000C80ED91EE11CF11CC150B9F7C701B60149
:103070000E94091A20E030E040E859E30E945C1BFE
:1030800020E030E040EA50E40E945C1B6B017C01D0
:1030900020E030E44CE156E40E945C1B4B015C01F3
:1030A000A701960160E070E080EA90E40E94B11808
:1030B0009B01AC01C501B4010E942319CF91FF907F
:1030C000EF90DF90CF90BF90AF909F908F9008953A
:1030D0008F929F92AF92BF92CF92DF92EF92FF9228
:1030E0000E941F180E94141B6B017C0129E436E822
:1030F0004CE754E30E945C1BA70196010E945C1BF5
:10310000A70196010E945C1B4B015C0125EE31EC8E
:1031100044E559E3C701B6010E945C1B21EA38EE81
:103120004CEA5AE30E94B2189B01AC01C501B401FC
:103130000E94B2189B01AC0160E070E080E89FE360
:103140000E94231923E333E948E853E40E94B118AD
:10315000FF90EF90DF90CF90BF90AF909F908F90B7
:1031600008955058BB27AA270E94C9180C94CD1A5D
:103170000E94BF1A38F00E94C61A20F039F49F3F0F
:1031800019F426F40C94AC1A0EF4E095E7FB0C94B9
:10319000A61AE92F0E94DE1A58F3BA1762077307BE
:1031A0008407950720F079F4A6F50C94001B0EF423
:1031B000E0950B2EBA2FA02D0B01B90190010C0147
:1031C000CA01A0011124FF27591B99F0593F50F45F
:1031D000503E68F11A16F040A22F232F342F4427B7
:1031E000585FF3CF469537952795A795F0405395AF
:1031F000C9F77EF41F16BA0B620B730B840BBAF07F
:103200009150A1F0FF0FBB1F661F771F881FC2F7E9
:103210000EC0BA0F621F731F841F48F487957795FD
:103220006795B795F7959E3F08F0B0CF9395880FB7
:1032300008F09927EE0F9795879508950E94821AB6
:1032400008F481E008950E9437190C94CD1A0E9469
:10325000C61A58F00E94BF1A40F029F45F3F29F0C7
:103260000C94A61A51110C94011B0C94AC1A0E94D8
:10327000DE1A68F39923B1F3552391F3951B550B8F
:10328000BB27AA2762177307840738F09F5F5F4F39
:10329000220F331F441FAA1FA9F335D00E2E3AF078
:1032A000E0E832D091505040E695001CCAF72BD090
:1032B000FE2F29D0660F771F881FBB1F26173707E1
:1032C0004807AB07B0E809F0BB0B802DBF01FF2713
:1032D00093585F4F3AF09E3F510578F00C94A61A30
:1032E0000C94011B5F3FE4F3983ED4F386957795E9
:1032F0006795B795F7959F5FC9F7880F911D9695CC
:10330000879597F90895E1E0660F771F881FBB1F27
:10331000621773078407BA0720F0621B730B840BD4
:10332000BA0BEE1F88F7E0950895BEE304D008F4C9
:1033300090E80895BFE322273327A9010E94E61AE7
:1033400060F19F5748F1B91740F1BFE3B91B9927C6
:10335000B8503AF4660F771F881F991FB395D2F3C0
:1033600016C0B8504AF0232F342F452F562F672F01
:10337000782F8827B850BAF7B85F49F086957795C7
:1033800067955795479537952795BA95B9F716F4E8
:103390000E94AF1A88940895889460E070E0CB0191
:1033A00008950E94D8196894B1110C94011B0895D6
:1033B0000E94E61A88F09F5798F0B92F9927B751C5
:1033C000B0F0E1F0660F771F881F991F1AF0BA95C9
:1033D000C9F714C0B13091F00E94001BB1E008950C
:1033E0000C94001B672F782F8827B85F39F0B93FFE
:1033F000CCF3869577956795B395D9F73EF490957C
:103400008095709561957F4F8F4F9F4F0895E894F9
:1034100009C097FB3EF490958095709561957F4F1C
:103420008F4F9F4F9923A9F0F92F96E9BB279395CA
:10343000F695879577956795B795F111F8CFFAF4DA
:10344000BB0F11F460FF1BC06F5F7F4F8F4F9F4F0B
:1034500016C0882311F096E911C0772321F09EE869
:10346000872F762F05C0662371F096E8862F70E0CF
:1034700060E02AF09A95660F771F881FDAF7880FA9
:103480009695879597F90895E894F92F96EBFF2381
:1034900081F0121613061406440B9395F695879542
:1034A0007795679557954040FF23B9F71BC099273B
:1034B0000895882351F49850D2F7872B762F652FE3
:1034C000542F432F322F20E0B1F3121613061406A7
:1034D000440B88233AF09A95440F551F661F771FB7
:1034E000881FCAF755234AF4440F551F11F460FF93
:1034F00004C06F5F7F4F8F4F9F4F880F96958795C2
:1035000097F90895990F0008550FAA0BE0E8FEEF10
:1035100016161706E807F907C0F012161306E40797
:10352000F50798F0621B730B840B950B39F40A2690
:1035300061F0232B242B252B21F408950A2609F46E
:10354000A140A6958FEF811D811D089597F99F6772
:1035500080E870E060E008959FEF80EC089590951A
:1035600080957095609550954095309521953F4F89
:103570004F4F5F4F6F4F7F4F8F4F9F4F08950024E6
:103580000A941616170618060906089500240A94C8
:1035900012161306140605060895092E0394000C4E
:1035A00011F4882352F0BB0F40F4BF2B11F460FFDD
:1035B00004C06F5F7F4F8F4F9F4F089557FD905806
:1035C000440F551F59F05F3F71F04795880F97FBE7
:1035D000991F61F09F3F79F08795089512161306A1
:1035E0001406551FF2CF4695F1DF08C016161706D0
:1035F0001806991FF1CF8695710561050894089505
:10360000E894BB2766277727CB0197F908950E9496
:10361000821A08F48FEF089516F00C94C91B0C94CD
:10362000AC1A68940C94A61A0E94E61AA8F399237F
:10363000C1F3AEF3DF93CF931F930F93FF92C92F84
:10364000DD2788232AF02197660F771F881FDAF776
:1036500020E030E040E85FEB9FE3883920F0803ED7
:1036600038F021968F770E94B218ECE7F0E004C0A2
:103670000E94B218E9EAF0E00E94D71B8B01BE015C
:10368000EC01FB2E6F5771097595771F880B990B0D
:103690000E94091A28E132E741E35FE30E946F1BB1
:1036A000AF2D9801AE01FF900F911F91CF91DF9147
:1036B0000E94C9180C94CD1A0E946F1B0C94CD1A4D
:1036C0000E94BF1A38F00E94C61A20F0952311F00C
:1036D0000C94A61A0C94AC1A11240C94011B0E9491
:1036E000DE1A70F3959FC1F3950F50E0551F629F4E
:1036F000F001729FBB27F00DB11D639FAA27F00D4B
:10370000B11DAA1F649F6627B00DA11D661F829F71
:103710002227B00DA11D621F739FB00DA11D621F56
:10372000839FA00D611D221F749F3327A00D611D73
:10373000231F849F600D211D822F762F6A2F112455
:103740009F5750409AF0F1F088234AF0EE0FFF1F88
:10375000BB1F661F771F881F91505040A9F79E3FDF
:10376000510580F00C94A61A0C94011B5F3FE4F302
:10377000983ED4F3869577956795B795F795E79535
:103780009F5FC1F7FE2B880F911D9695879597F93E
:1037900008959F3F31F0915020F487957795679574
:1037A000B795880F911D9695879597F90895DF93A2
:1037B000CF931F930F93FF92EF92DF927B018C01C7
:1037C000689406C0DA2EEF010E946F1BFE01E89498
:1037D000A5912591359145915591A6F3EF010E9450
:1037E000C918FE019701A801DA9469F7DF90EF90FC
:1037F000FF900F911F91CF91DF910895AA1BBB1BE2
:1038000051E107C0AA1FBB1FA617B70710F0A61BE0
:10381000B70B881F991F5A95A9F780959095BC0101
:10382000CD01089597FB072E16F4009407D077FD7D
:1038300009D00E94FE1B07FC05D03EF490958195AF
:103840009F4F0895709561957F4F0895A1E21A2EBC
:10385000AA1BBB1BFD010DC0AA1FBB1FEE1FFF1F34
:10386000A217B307E407F50720F0A21BB30BE40B84
:10387000F50B661F771F881F991F1A9469F76095CB
:103880007095809590959B01AC01BD01CF01089585
:10389000A29FB001B39FC001A39F700D811D112491
:1038A000911DB29F700D811D1124911D08952A0D47
:1038B0003B1D4C1D5D1D6E1D7F1D801F911F0895BA
:1038C0000024A7FD00942A0F301D401D501D601DCF
:1038D000701D801D901D08952A193B094C095D0932
:1038E0006E097F09800B910B08952A153B054C0545
:1038F0005D056E057F05800791070895DC01CB010A
:10390000FC01F999FECF06C0F2BDE1BDF89A3196EF
:1039100000B40D9241505040B8F70895DC01A40F57
:10392000B51F4150504048F0CB01840F951F2E9198
:103930000E949F1C41505040D0F70895262FF999BE
:10394000FECF92BD81BDF89A019700B4021639F0FE
:103950001FBA20BD0FB6F894FA9AF99A0FBE0895CF
:04396000F894FFCF09
:0E39640001010000065B4F666D7D077F6F005E
:00000001FF
