:100000000C947B000C9498000C9498000C9498002D
:100010000C9498000C9498000C9498000C94980000
:100020000C9498000C9498000C9498000C949800F0
:100030000C9498000C9498000C9498000C949800E0
:100040000C94A90D0C9498000C9498000C949800B2
:100050000C9498000C9498000C9498000C949800C0
:100060000C9498000C9498000C9498000C949800B0
:100070000C9498000C9498000C94980008000000D0
:10008000BE922449123EABAAAA2ABECDCCCC4C3E8D
:1000900000000080BEABAAAAAA3E00000000BF007C
:1000A0000000803F0000000000084178D3BB438778
:1000B000D1133D190E3CC3BD4282AD2B3E68EC828C
:1000C00076BED98FE1A93E4C80EFFFBE01C4FF7F11
:1000D0003F000000000000000000000000000000E1
:1000E000000000000100000000000000000000000F
:1000F000FFFF0000000011241FBECFEFD0E1DEBFE4
:10010000CDBF11E0A0E0B1E0EAEEFAE302C0059055
:100110000D92AE30B107D9F721E0AEE0B1E001C0F9
:100120001D92AB3EB207E1F70E94390E0C94731D8D
:100130000C9400000E94881380E008950E944D17DF
:1001400080E008958091390190913A0118161906BE
:100150002CF48091410161E08F5F06C0892B59F03A
:100160008091410161E081500E94411160E00E9454
:100170003611809341010E943716809141018823F6
:1001800061F0813021F560917F0170918001809153
:1001900081019091820141E009C060916B017091F1
:1001A0006C0180916D0190916E0140E00E94400EC3
:1001B0000E942E1680913B0180FF0BC010924101DE
:1001C00088E49BE09093400180933F0102C084E06B
:1001D000089580E008958091390190913A01892B2A
:1001E000A1F08091690191E0811190E09093690103
:1001F000811103C00E941D0E04C00E942C0E10929B
:10020000680183E491E00E9453130E9437168091A5
:1002100069010E94D60F0E942E1680913B0180FF3B
:1002200009C081E0809341018BEE97E090934001FB
:1002300080933F0180E008956091390170913A0107
:100240006115710549F1072E000C880B990B0E946E
:10025000CC1A20E030E040E05FE30E941F1C2091B8
:100260001F013091200140912101509122010E94F3
:10027000751920E030E048EC52E40E94761120E04D
:1002800030E0A9010E94561160931F017093200174
:1002900080932101909322010E94371660911F01E3
:1002A0007091200180912101909122010E94F20F12
:1002B0000E942E1680913B0180FF09C082E080934E
:1002C00041018BEE97E09093400180933F0180E0E5
:1002D0000895CF932091390130913A0180914101E5
:1002E000121613061CF463E08F5F04C0232B49F041
:1002F00063E081500E94411160E00E9436118093BA
:100300004101E0914101E43028F4F0E0E050FF4F7A
:10031000C08101C0C0E00E9437166C2F809141015E
:100320000E94550F0E942E1680913B0180FF0FC046
:10033000CC2369F0809141018093370183E0809361
:1003400041018BEE97E09093400180933F0180E064
:10035000CF9108958F929F92AF92BF92CF92DF92EA
:10036000EF92FF920F931F936091390170913A01C0
:100370006115710509F465C0072E000C880B990BF7
:100380000E94CC1A2DEC3CEC4CEC5DE30E941F1C4F
:1003900020912301309124014091250150912601A3
:1003A0000E9475192CE53FEF49E754E40E9476114D
:1003B00020E030E0A9010E945611AB01BC0140933E
:1003C00023015093240160932501709326018090AE
:1003D0002F0190903001A0903101B0903201C09077
:1003E0002B01D0902C01E0902D01F0902E01009176
:1003F0002701109128012091290130912A0182E4DE
:100400008F9388EC8F931F921F921F921F921F92BF
:100410001F92809136018F93809135018F93809147
:1004200034018F93809133018F9383E491E00E9494
:10043000E2118DB79EB70C960FB6F8949EBF0FBE13
:100440008DBF0E9437166091230170912401809125
:100450002501909126010E9428100E942E1680915D
:100460003B0180FF09C081E0809341018EE398E069
:100470009093400180933F0180E01F910F91FF9086
:10048000EF90DF90CF90BF90AF909F908F900895A6
:100490008F929F92AF92BF92CF92DF92EF92FF9294
:1004A0000F931F936091390170913A0161157105A5
:1004B00009F465C0072E000C880B990B0E94CC1A1A
:1004C0002DEC3CEC4CEC5DE30E941F1C20912701BD
:1004D000309128014091290150912A010E947519FB
:1004E0002CE53FEF49E754E40E94761120E030E02C
:1004F000A9010E9456118B019C0160932701709302
:1005000028018093290190932A0180902F019090D7
:100510003001A0903101B0903201C0902B01D090F9
:100520002C01E0902D01F0902E014091230150917B
:100530002401609125017091260182E48F9388EC5B
:100540008F931F921F921F921F921F921F92809152
:1005500036018F93809135018F93809134018F9371
:10056000809133018F9383E491E00E94E2118DB773
:100570009EB70C960FB6F8949EBF0FBE8DBF0E941B
:10058000371660912701709128018091290190917F
:100590002A010E9426100E942E1680913B0180FFA6
:1005A00009C082E0809341018EE398E0909340017E
:1005B00080933F0180E01F910F91FF90EF90DF90BB
:1005C000CF90BF90AF909F908F9008958F929F9201
:1005D000AF92BF92CF92DF92EF92FF920F931F9351
:1005E0006091390170913A016115710509F465C096
:1005F000072E000C880B990B0E94CC1A2DEC3CECBA
:100600004CEC5DE30E941F1C20912B0130912C01CA
:1006100040912D0150912E010E9475192CE53FEF5C
:1006200049E754E40E94761120E030E0A9010E94DD
:1006300056116B017C0160932B0170932C01809308
:100640002D0190932E0180902F0190903001A09069
:100650003101B090320100912701109128012091C1
:10066000290130912A014091230150912401609188
:1006700025017091260182E48F9388EC8F931F925D
:100680001F921F921F921F921F92809136018F938B
:10069000809135018F93809134018F938091330144
:1006A0008F9383E491E00E94E2118DB79EB70C9680
:1006B0000FB6F8949EBF0FBE8DBF0E943716609193
:1006C0002B0170912C0180912D0190912E010E949F
:1006D00024100E942E1680913B0180FF09C083E008
:1006E000809341018EE398E09093400180933F0115
:1006F00080E01F910F91FF90EF90DF90CF90BF901F
:10070000AF909F908F9008958F929F92AF92BF92DB
:10071000CF92DF92EF92FF920F931F936091390176
:1007200070913A016115710509F465C0072E000C3E
:10073000880B990B0E94CC1A2DEC3CEC4CEC5DE341
:100740000E941F1C20912F013091300140913101F6
:10075000509132010E94751920E030E040E85FE3DB
:100760000E94761120E030E0A9010E9456114B0151
:100770005C0160932F01709330018093310190935D
:100780003201C0902B01D0902C01E0902D01F0900F
:100790002E0100912701109128012091290130910B
:1007A0002A0140912301509124016091250170910B
:1007B000260182E48F9388EC8F931F921F921F92E1
:1007C0001F921F921F92809136018F938091350165
:1007D0008F93809134018F93809133018F9383E4C1
:1007E00091E00E94E2118DB79EB70C960FB6F89477
:1007F0009EBF0FBE8DBF0E94371660912F01709172
:10080000300180913101909132010E9422100E94AA
:100810002E1680913B0180FF09C084E08093410146
:100820008EE398E09093400180933F0180E01F9118
:100830000F91FF90EF90DF90CF90BF90AF909F907F
:100840008F9008956F927F928F929F92AF92BF92F6
:10085000CF92DF92EF92FF920F931F936091390135
:1008600070913A016115710509F46CC0072E000CF6
:10087000880B990B0E94CC1A20E030E040E05FE347
:100880000E941F1C209133013091340140913501A9
:10089000509136010E94751920E030E048E452E49E
:1008A0000E94761120E030E048E452EC0E9456119C
:1008B000F62F772E682EE92F862F972DA62DBE2F87
:1008C0008093330190933401A0933501B0933601A6
:1008D00080902F0190903001A0903101B0903201B2
:1008E000C0902B01D0902C01E0902D01F0902E01B2
:1008F00000912701109128012091290130912A01AE
:1009000040912301509124016091250170912601AD
:1009100082E48F9388EC8F931F921F921F921F92F5
:100920001F921F92EF936F927F92FF9383E491E067
:100930000E94E2118DB79EB70C960FB6F8949EBF39
:100940000FBE8DBF0E943716609133017091340144
:1009500080913501909136010E940A100E942E1656
:1009600080913B0180FF09C085E0809341018EE3C7
:1009700098E09093400180933F0180E01F910F9198
:10098000FF90EF90DF90CF90BF90AF909F908F90AF
:100990007F906F9008958091390190913A0100976E
:1009A00029F12091670164E670E0820F911D0E9499
:1009B000461160E070E00E943B11809367019091C6
:1009C0006A01911105C0882339F00E94981604C06D
:1009D000811102C00E94AB168091670191E08111E4
:1009E00001C090E090936A010E9481160E94371620
:1009F000809167010E942A100E942E1680913B016F
:100A000080FF09C081E08093410185E998E09093DF
:100A1000400180933F0180E008950E943716609165
:100A20006F017091700180917101909172010E942B
:100A300073100E942E1680913B0180FF09C081E057
:100A40008093410180ED98E09093400180933F01B5
:100A500080E008950E9437166091830170918401AF
:100A600080918501909186010E9473100E942E163C
:100A700080913B0180FF09C082E08093410180EDBD
:100A800098E09093400180933F0180E008950E9498
:100A900037160E9482100E942E1680913B0180FF23
:100AA00009C083E08093410180ED98E0909340017C
:100AB00080933F0180E008950E9437160E948210C3
:100AC0000E942E1680913B0180FF09C084E0809334
:100AD000410180ED98E09093400180933F0180E0D8
:100AE00008954F925F926F927F928F929F92AF92F2
:100AF000BF92CF92DF92EF92FF920F931F93CF930B
:100B0000DF9382E491E00E94741860936B0170930C
:100B10006C0180936D0190936E01C0914201C111EF
:100B200048C280913F01909140018D50954091F0D5
:100B3000C0906B01D0906C01E0906D01F0906E015F
:100B400020E030E0A901C701B6010E94E11987FF4A
:100B500012C04DC082E491E00E942B1860936F0197
:100B6000709370018093710190937201C091420162
:100B7000CC23F1F21EC220E030E048E453E4C70188
:100B8000B6010E94CA1B18160CF43EC08091680181
:100B900081113CC08091680181116DC082E491E0B7
:100BA0000E942B1960937F017093800180938101D3
:100BB00090938201C0914201C111FBC180913F011C
:100BC000909140018A52954009F4B1C0C0907F01D4
:100BD000D0908001E0908101F090820120E030E02F
:100BE000A901C701B6010E94E11987FF02C0C6E052
:100BF000E0C120E030E048E453E4C701B6010E94C0
:100C0000CA1B18160CF0A6C0C5E0D3C12091730111
:100C1000309174014091750150917601C701B60180
:100C20000E94741920E030E040EA50E40E94E1198B
:100C300087FFB0CF0E94660DA0907701B090780139
:100C4000C0907901D0907A01E0907B01F0907C0116
:100C500000917D0110917E010E942F1D0E949A0B30
:100C600020E030E040E751E40E94CA1B18160CF067
:100C700091CFC3E09EC120917301309174014091E6
:100C800075015091760160916B0170916C018091BA
:100C90006D0190916E010E94741920E030E040EAED
:100CA00050E40E94CA1B87FD79CF0E94660DA09078
:100CB0007701B0907801C0907901D0907A01E090EE
:100CC0007B01F0907C0100917D0110917E010E94DA
:100CD0002F1D0E949A0B20E030E040E751E40E9473
:100CE000E11918160CF45ACF80916B0190916C01A8
:100CF000A0916D01B0916E01809373019093740186
:100D0000A0937501B09376010E94660D2093770140
:100D1000309378014093790150937A0160937B017D
:100D200070937C0180937D0190937E0137CF82E4A4
:100D300091E00E94E2186093830170938401809394
:100D400085019093860180914201882309F43ECF6A
:100D5000C82F2FC180913701813009F097C0809151
:100D60006801811105C080916801811135C08EC074
:100D700020918701309188014091890150918A0129
:100D8000C701B6010E94741920E030E040E450E44D
:100D90000E94E11987FFE7CF0E94660DA0908B01AA
:100DA000B0908C01C0908D01D0908E01E0908F01A9
:100DB000F090900100919101109192010E942F1DDD
:100DC0000E949A0B20E030E046E953E40E94CA1BDF
:100DD00018160CF44ECFC7CF2091870130918801AF
:100DE0004091890150918A0160917F017091800149
:100DF00080918101909182010E94741920E030E07D
:100E000040E450E40E94CA1B87FD40C00E94660D6A
:100E1000A0908B01B0908C01C0908D01D0908E017C
:100E2000E0908F01F090900100919101109192015A
:100E30000E942F1D0E949A0B20E030E046E953E407
:100E40000E94E119181614F180917F0190918001A0
:100E5000A0918101B09182018093870190938801D4
:100E6000A0938901B0938A010E94660D20938B01A3
:100E700030938C0140938D0150938E0160938F01CC
:100E800070939001809391019093920180916901F8
:100E9000882309F48EC080913701882361F0813066
:100EA00009F086C040917F015091800160918101DD
:100EB0007091820108C040916B0150916C0160916A
:100EC0006D0170916E0100911F0110912001209120
:100ED00021013091220183E491E00E9426122B012E
:100EE0003C0180906B0190906C01A0906D01B090DE
:100EF0006E0120E030E040EF52E4C501B4010E94F1
:100F0000CA1BF090680118160CF44AC0C301B20164
:100F10000E949B1AD62F633608F443C0F11044C0D8
:100F200081E0809368018092730190927401A09295
:100F30007501B09276010E94660D2093770130937F
:100F400078014093790150937A0160937B0170930B
:100F50007C0180937D0190937E0180917F0190912F
:100F60008001A0918101B0918201809387019093CB
:100F70008801A0938901B0938A010E94660D209395
:100F80008B0130938C0140938D0150938E016093BF
:100F90008F0170939001809391019093920104C00E
:100FA000D0E0F110109268018D2F0E940C0E01C04C
:100FB000C4E08C2FDF91CF911F910F91FF90EF90A4
:100FC000DF90CF90BF90AF909F908F907F906F9069
:100FD0005F904F9008958091390190913A011816D1
:100FE00019062CF48091410164E08F5F06C0892BC3
:100FF00059F08091410164E081500E94411160E00C
:101000000E943611809341010E9437168091410160
:101010000E94D50E0E942E1680913B0180FF2CC0AD
:10102000809141018230C9F04CF4882381F08130F5
:1010300019F5109241018BEE90E01AC0833091F0C7
:101040008430D1F4109241018EE398E011C081E028
:101050008093410188E49BE00BC0109241018CE138
:1010600091E006C0809137018093410189E691E0CB
:101070009093400180933F0180E008958091390171
:1010800090913A01181619062CF48091410165E0FF
:101090008F5F06C0892B59F08091410165E0815036
:1010A0000E94411160E00E943611809341010E942C
:1010B0003716809141010E947F0F0E942E16809169
:1010C0003B0180FF30C0809141018230D1F04CF46F
:1010D000882389F0813039F5109241018AEA91E044
:1010E0001EC08430C1F094F08530E9F410924101C3
:1010F00082E294E014C084E0809341018BEE97E09B
:101100000EC01092410188E492E009C010924101A2
:1011100086EE92E004C01092410184E893E090933F
:10112000400180933F0180E00895809139019091C2
:101130003A01181619062CF48091410161E08F5F85
:1011400006C0892B59F08091410161E081500E94D5
:10115000411160E00E943611809341010E943716D0
:10116000809141010E94350F0E942E1680913B0113
:1011700080FF14C080914101882339F0813071F4DF
:10118000109241018BEC94E005C082E08093410114
:1011900088E49BE09093400180933F0180E00895B4
:1011A0008091390190913A01181619062CF480911A
:1011B000410164E08F5F06C0892B59F080914101A5
:1011C00064E081500E94411160E00E9436118093DA
:1011D00041010E943716809141010E9446100E94F1
:1011E0002E1680913B0180FF2AC080914101823000
:1011F000C9F04CF4882381F0813009F51092410147
:101200008DE095E018C0833091F08430C1F41092E5
:1012100041018CE595E00FC083E08093410188E4B3
:101220009BE009C0109241018AE295E004C010924F
:10123000410187E495E09093400180933F0180E075
:101240000895EFE1F1E0138E128E148E158E168E36
:10125000178E0895CF93DF930E9421090E947C137B
:10126000CFE1D1E09B8F8A8F80E00E9441179F8D54
:10127000892B8F8F80E00E94E7169C8D892B8C8FA5
:1012800080E00E9423179D8D892B8D8F80E00E9426
:1012900005179E8D892B8E8FE8A1F9A1DF91CF9143
:1012A000099480914201882341F00E943716809171
:1012B00042010E948A100C942E160895EFE1F1E08D
:1012C00080E090E0A8ECB1E480839183A283B383B3
:1012D00080E090E0A0E8BFE384839583A683B78392
:1012E00080E090E0A0E7B2E480879187A287B3878F
:1012F000148615861686178680E090E0A0E8BEE387
:10130000808B918BA28BB38B148A158A168A178ACD
:10131000108E0895CF93DF93CDB7DEB76A970FB6DF
:10132000F894DEBF0FBECDBF87E0898389E1EFE18E
:10133000F1E0DE01129601900D928A95E1F74AE103
:1013400050E060E070E0CE0101960E94511D6A9667
:101350000FB6F894DEBF0FBECDBFDF91CF910895D9
:101360008F929F92AF92BF92CF92DF92EF92FF92B5
:101370000F931F93CF93DF93CDB7DEB76A970FB666
:10138000F894DEBF0FBECDBF4AE150E060E070E0F0
:10139000CE0101960E94411D8981873029F00E946B
:1013A0005E090E948A0909C089E1FE013296AFE117
:1013B000B1E001900D928A95E1F780902F01909015
:1013C0003001A0903101B0903201C0902B01D0903B
:1013D0002C01E0902D01F0902E0100912701109139
:1013E00028012091290130912A0140912301509137
:1013F0002401609125017091260182E48F9388EC8D
:101400008F931F921F921F921F921F921F92809183
:1014100036018F93809135018F93809134018F93A2
:10142000809133018F9383E491E00E94E2110FB623
:10143000F894DEBF0FBECDBF6A960FB6F894DEBF3C
:101440000FBECDBFDF91CF911F910F91FF90EF9015
:10145000DF90CF90BF90AF909F908F9008958F9224
:101460009F92AF92BF92CF92DF92EF92FF920F9333
:101470001F93CF93109242010E94A30B0E9440162B
:101480000E94BA160E945D130E94B0091092670173
:101490001092690110926A01109268010E9446162A
:1014A0000E94AB160E94E80D0E942C0E80902F0126
:1014B00090903001A0903101B0903201C0902B018A
:1014C000D0902C01E0902D01F0902E010091270189
:1014D000109128012091290130912A014091230186
:1014E00050912401609125017091260182E48F932F
:1014F00088EC8F931F921F921F921F921F921F9230
:10150000809136018F93809135018F9380913401C2
:101510008F93809133018F9383E491E00E94961121
:101520000E94D11720E041E755E06AE077ED83EAB9
:101530009CE30E94770D21E04AE259E06AE077EDF2
:1015400083E29DE30E94770D22E04AE950E06FE6D6
:1015500072E183E89AE30E94770D23E04EE950E0C0
:101560006AE077ED83EA9BE30E94770D0E942109F0
:1015700082EA90E09093400180933F010E94F4172B
:1015800082E491E00E94741860936B0170936C0187
:1015900080936D0190936E018DB79EB70C960FB638
:1015A000F8949EBF0FBE8DBF80914201811146C04D
:1015B00082E491E00E942B1860936F017093700198
:1015C000809371019093720180914201811136C024
:1015D00082E491E00E942B1960937F017093800157
:1015E000809381019093820180914201811126C0F4
:1015F00082E491E00E94E218609383017093840179
:10160000809385019093860180914201811116C0DB
:101610000E94F00B10923801C1E0809138018111D5
:1016200009C00E945F0C809342018823B1F3C093EC
:101630003801F3CFC0914201CC2379F00E94FB0D19
:101640000E9465160E94E3170E9474130E94D2162E
:101650000E945109C09142010EC00E94190C0E94C3
:1016600065160E94FB0D0E94E3170E9474130E94EE
:10167000D2160E947F148C2FCF911F910F91FF9053
:10168000EF90DF90CF90BF90AF909F908F90089594
:101690008091390190913A01181619062CF4809125
:1016A000410165E08F5F06C0892B59F080914101AF
:1016B00065E081500E94411160E00E9436118093E4
:1016C00041010E943716809141010E94650E0E94DF
:1016D0002E1680913B0180FF2BC08091410182300A
:1016E000B9F04CF4882379F0813011F51092410162
:1016F0008BEE97E016C08430C9F07CF08530C1F4E1
:101700000E948A0915C01092410182EA90E009C046
:101710001092410185E998E004C01092410180EDEA
:1017200098E09093400180933F0102C00E94B0096D
:1017300080E008950E94071B28E33EE94FEC58E340
:101740000E941F1C08951092E3011092E401109270
:10175000E5011092E6011092E7011092E801109263
:10176000E9011092EA011092DB011092DC01109263
:10177000DD011092DE011092DF011092E001109263
:10178000E1011092E201E3E9F1E01082118212829C
:101790001382148215821682178210861186128691
:1017A00013861486158616861786118A108A7296F5
:1017B00081E0EB3DF80749F780916E008C7F8093C4
:1017C0006E0085B5887F85BD84B5826084BD82E664
:1017D00087BD80916E00826080936E00789408953A
:1017E0001092E3011092E4011092E5011092E601DB
:1017F0001092E7011092E8011092E9011092EA01BB
:101800001092DB011092DC011092DD011092DE01DA
:101810001092DF011092E0011092E1011092E201BA
:1018200016BC85B5826085BD089585B5887F85BD68
:1018300008950E94150C80916E008D7F80936E003C
:1018400084B58D7B84BD16BC17BC1092E301109249
:10185000E4011092E5011092E6011092E701109266
:10186000E8011092E9011092EA011092DB01109256
:10187000DC011092DD011092DE011092DF01109266
:10188000E0011092E1011092E201E3E9F1E010823F
:101890001182128213821482158216821782108698
:1018A0001186128613861486158616861786118A67
:1018B000108A729681E0EB3DF80749F708952F9260
:1018C0003F924F925F926F927F928F929F92AF92D0
:1018D000BF92CF92DF92EF92FF920F931F93CF931D
:1018E000DF93CDB7DEB762970FB6F894DEBF0FBEB9
:1018F000CDBFEFB7F8942091E3013091E40140911E
:10190000E5015091E6016091E7017091E801809155
:10191000E9019091EA01A090DB01B090DC01C09058
:10192000DD01D090DE01E090DF01F090E001009158
:10193000E1011091E2010E942F1D2F833887498712
:101940005A876B877C878D879E877091E3016091B2
:10195000E4015091E5014091E6013091E7012091C9
:10196000E8019091E9018091EA017093DB016093B5
:10197000DC015093DD014093DE013093DF012093C1
:10198000E0019093E1018093E201EFBF83E991E0F0
:10199000988B8F87EF85F8890088F189E02DFE8389
:1019A000ED83EF2B51F48F8598894296988B8F8722
:1019B0008B5D914079F780E070C02F813885498533
:1019C0005A856B857C858D859E85EF85F889A084F9
:1019D000B184C284D384E484F584068517850E948B
:1019E0001A1D19012A013B014C01208731864287CB
:1019F00053866487758686879786B081A181F28138
:101A0000F98BEF85F889F381FA8BEF85F889F481FA
:101A1000F983EF85F889F581FA83EF85F889F681F6
:101A2000FB83EF85F889F781FC83AB2EBA2EC9883A
:101A3000DA88E980FA800B811F2F0E94381D08F494
:101A4000B2CF0E942F1D19012A013B014C012B2FFF
:101A50003A2FA601B701C801510162017301840147
:101A6000EF85F8890E94381D51F048F020863186B4
:101A700042865386648675868686978608C0108659
:101A80001186128613861486158616861786ED81B2
:101A9000FE810995882309F486CF62960FB6F894E3
:101AA000DEBF0FBECDBFDF91CF911F910F91FF9091
:101AB000EF90DF90CF90BF90AF909F908F907F90EE
:101AC0006F905F904F903F902F9008952091DB0191
:101AD0003091DC014091DD015091DE016091DF0128
:101AE0007091E0018091E1019091E20108950F93DE
:101AF0001F93CF93DF938A0132E1239FE0011124EA
:101B0000CD56DE4F28E33EE94FEC58E30E94E6193C
:101B100020E030E040E05FE30E9475190E945D1A0A
:101B2000288339834A835B836C837D838E839F8381
:101B3000FE01389618861182128213821482158251
:101B400016821782198B088BDF91CF911F910F910D
:101B500008951F920F920FB60F9211242F933F9367
:101B60004F935F936F937F938F939F93AF93209146
:101B7000E3013091E4014091E5015091E60160916B
:101B8000E7017091E8018091E9019091EA01A1E0FB
:101B90000E94231D2093E3013093E4014093E5016B
:101BA0005093E6016093E7017093E8018093E901A7
:101BB0009093EA01AF919F918F917F916F915F9187
:101BC0004F913F912F910F900FBE0F901F9018953E
:101BD00010927000E1EBF0E08081897F8083E0EB80
:101BE000F0E08081816080831092B3001092B20097
:101BF000579A5F980895E1EBF0E08081897F8083B8
:101C00001092B2001092B300E0EBF0E080818E778A
:101C1000808357985F98089564E60E94511160E0B0
:101C20000E944C112FEF829FC001112464E670E0E6
:101C30000E94C11C6093B30008951092B2001092EC
:101C4000B300E0EBF0E0808180688083E1EBF0E0BE
:101C50008081866080830895E0EBF0E080818F775B
:101C60008083E1EBF0E08081897F80831092B20075
:101C700008950E942F0A8111FFCF80E090E008951F
:101C8000CF92DF92EF92FF920F936B017C01413074
:101C900049F030F0423041F0433051F46FEC05C070
:101CA0006FEB03C066E801C06BED80E00E94811419
:101CB00005E021E041E0C701B6010E948C140F91BC
:101CC000FF90EF90DF90CF9008958230F1F028F4EC
:101CD000882351F0813059F008958430D9F120F1F2
:101CE000853009F44AC0089560E480E05CC064E790
:101CF00080E00E94811469E781E00E94811467E717
:101D000082E00E94811468E70DC06DE680E00E94C9
:101D1000811468E781E00E94811466E082E00E94FD
:101D2000811460E583E03FC068EF80E00E94811489
:101D300069E381E00E94811467E782E00E948114D8
:101D400068E383E00E94811466E084E00E948114CD
:101D50006CE728C068E380E00E9481146CE581E0B4
:101D60000E94811467E782E00E9481146EED83E097
:101D70000E9481146DEE84E016C06DE680E00E9442
:101D8000811468E781E00E9481146CE582E00E9482
:101D9000811460E583E00E94811469EF84E00E9471
:101DA00081146DEE85E00C948114823039F128F4B1
:101DB000882351F0813079F008958430D9F160F1B1
:101DC000853009F442C0089560E480E00E948114E7
:101DD00060E481E048C06CE580E00E94811464E525
:101DE00081E00E9481146CE582E00E94811461E729
:101DF00083E00E94811461E784E035C068E780E0F9
:101E00000E9481146FEE81E00E94811468E782E0F5
:101E10000E94811463E726C068EF80E00E9481146D
:101E20006DE681E00E94811469E782E00E948114DE
:101E300068E318C063E780E00E94811466E081E0F7
:101E40000E9481146EE582E00EC06CE580E00E9485
:101E5000811461E781E00E94811461E782E00E94C1
:101E600081146DE683E00C948114882319F081308D
:101E700041F0089560E480E00E94811460E481E014
:101E800012C06DE680E00E94811463E781E00E9449
:101E9000811469E782E00E94811469E783E00E946F
:101EA00081146EE584E00C948114662301F1813085
:101EB00089F050F08230A1F08330C9F468E784E003
:101EC0000E9481146FE411C068E784E00E948114CD
:101ED0006FE30BC068E784E00E94811466E005C0F0
:101EE00068E784E00E9481146BE585E006C064E544
:101EF00080E00E94811469E381E00C9481148230B7
:101F0000E9F028F4882349F0813091F00895843075
:101F100011F1D8F0853091F1089560E480E00E94DD
:101F2000811460E481E00E94811460E482E03CC09E
:101F300066E780E00E94811463E705C068E780E0FF
:101F40000E94811466E081E02FC068E780E00E9473
:101F500081146EE5F8CF66E080E00E94811460E4B1
:101F600081E00E94811469E382E00E94811468E3A9
:101F700083E00E94811463E784E016C06CE580E092
:101F80000E94811461E781E00E94811461E782E090
:101F90000E9481146DE683E00E94811469E784E069
:101FA0000E94811468E785E00C94811460E3882323
:101FB00051F080E00E9481146CE581E00E94811460
:101FC00064E582E00DC080E00E9481146CE581E050
:101FD0000E94811461E782E00E94811461E783E03E
:101FE0000C948114CF92DF92EF92FF920F936B01CA
:101FF0007C0160E380E00E94811405E021E041E083
:10200000C701B6010E948C140F91FF90EF90DF90F2
:10201000CF900895CF92DF92EF92FF920F936B01D2
:102020007C0160E380E00E94811405E022E041E051
:10203000C701B6010E948C140F91FF90EF90DF90C2
:10204000CF9008950C940A100C940A100C940A1066
:102050000C940A10CF93C82F60E380E00E94811493
:10206000CC2339F045E061E08C2F90E0CF910C94C7
:10207000B7156CE581E00E94811461E782E00E945F
:10208000811461E783E0CF910C9481148230B9F020
:1020900028F4882341F0813061F008958330A9F05D
:1020A0008430C9F0089560E480E00E94811460E407
:1020B00017C068E780E00E9481146FE311C068E7F1
:1020C00080E00E94811466E00BC068E780E00E9417
:1020D00081146BE505C068E780E00E9481146FE41D
:1020E00081E00C9481140F939F7720E030E04AE761
:1020F00054E40E94E61906E023E040E00E948C14BC
:102100000F91089564E580E00E94811469E381E005
:102110000C948114833009F443C0D8F4813051F118
:10212000823009F07CC068E780E00E94811464EF8F
:1021300081E00E9481146DE682E00E94811464E7D0
:1021400083E00E94811460E584E00E94811468E7C6
:1021500052C0853009F451C0C8F1863009F05FC023
:1021600068E780E00E94811464EF81E00E9481149E
:1021700068E34CC068E780E00E94811464EF81E06E
:102180000E9481146CE582E00E94811463E783E081
:102190000E94811469E784E00E94811464E52BC0E9
:1021A00068E780E00E94811464EF81E00E9481145E
:1021B00064E582E00E94811460E583E00E9481145E
:1021C00069E784E00E9481146DE615C068E780E04D
:1021D0000E94811464EF81E00E94811464E582E032
:1021E0000E9481146CE583E00E94811463E784E01F
:1021F0000E94811469E785E024C068E780E00E94BE
:10220000811464EF81E00E94811464E782E00E94FF
:10221000811468E783E00E94811463E711C069E7D5
:1022200080E00E94811460E581E00E94811460E5F5
:1022300082E00E9481146CE583E00E94811460E5D5
:1022400084E00C948114AC0120E081E090E03AE05D
:10225000622F70E06417750744F4BC01369FC0011B
:10226000379F900D11242F5FF3CF089568170CF45A
:10227000682F862F0895681779070CF4BC01CB01ED
:10228000089586170CF4682F862F089586179707F0
:102290000CF4BC01CB010895681708F4682F862F51
:1022A0000895861708F4682F862F0895CF92DF923D
:1022B000EF92FF920F931F93CF93DF938B01D82F51
:1022C000C92F69017A010E94CA1B18161CF08601E9
:1022D000DE2DCF2DB8018D2F9C2FDF91CF911F9137
:1022E0000F91FF90EF90DF90CF900895CF92DF9203
:1022F000EF92FF920F931F93CF93DF938B01D82F11
:10230000C92F69017A010E94E11987FD03C0860186
:10231000DE2DCF2DB8018D2F9C2FDF91CF911F91F6
:102320000F91FF90EF90DF90CF9008958F929F9242
:10233000AF92BF92CF92DF92EF92FF920F931F93D3
:10234000CF93DF93CDB7DEB7FC014087518762871B
:1023500073870487158726873787C08AD18AE28AE0
:10236000F38A848A958AA68AB78A8F89988DA98DDF
:10237000BA8D80A391A3A2A3B3A38B899C89AD89B5
:10238000BE89848F958FA68FB78F8F859889A989ED
:10239000BA89808F918FA28FB38F1082118212829F
:1023A00013821482158216821782DF91CF911F91BA
:1023B0000F91FF90EF90DF90CF90BF90AF909F90E4
:1023C0008F9008958F929F92AF92BF92CF92DF929B
:1023D000EF92FF920F931F93CF93DF93CDB7DEB7AA
:1023E000FC0140875187628773870487158726879A
:1023F0003787C08AD18AE28AF38A848A958AA68A34
:10240000B78A8F89988DA98DBA8D80A391A3A2A335
:10241000B3A38B899C89AD89BE89848F958FA68F44
:10242000B78F8F859889A989BA89808F918FA28F5C
:10243000B38FDF91CF911F910F91FF90EF90DF90BD
:10244000CF90BF90AF909F908F9008954F925F92E2
:102450006F927F928F929F92AF92BF92CF92DF92B4
:10246000EF92FF920F931F93CF93DF93CDB7DEB719
:102470006A970FB6F894DEBF0FBECDBF9A8F898FD3
:102480006A017B01C901B801A70196010E94741974
:102490006D877E878F87988BA98DBA8D18968D91C1
:1024A0009D910D90BC91A02D89839A83AB83BC83B1
:1024B0009C01AD016D857E858F8598890E941F1CCA
:1024C000E98DFA8D208D318D428D538D0E947519C5
:1024D0004B015C01A98DBA8D2D913D914D915C917F
:1024E000C701B6010E9474192AE037ED43EA5CE3A4
:1024F0000E94E6192B013C01E98DFA8D2089318972
:102500004289538969817A818B819C810E941F1C39
:102510009B01AC01C301B2010E941F1C9B01AC01D5
:10252000C501B4010E9474192B013C01A98DBA8D1B
:10253000CD92DD92ED92FC92139790968D919D91A4
:102540000D90BC91A02D8D839E83AF83B887A3018E
:102550009201BC01CD010E94741920E030E0A90174
:102560000E9456116B017C01A98DBA8D54968D91F4
:102570009D910D90BC91A02D89879A87AB87BC87D0
:10258000E98DFA8D848C958CA68CB78CA301920171
:10259000C501B4010E94741920E030E0A9010E9435
:1025A0007611698B7A8B8B8B9C8BA98DBA8D1C963F
:1025B0006D917D918D919C911F972DEB37E346E0B6
:1025C00054E30E9456116D8B7E8B8F8B988F2985DB
:1025D0003A854B855C85C701B6010E941F1C6B01C3
:1025E0007C012D893E894F89588D69817A818B8143
:1025F0009C810E94E6192D853E854F8558890E9451
:102600001F1C2AE037ED43EA5CE30E941F1CE98DA2
:10261000FA8D24813581468157810E947519A70161
:1026200096010E9476116B017C0129893A894B89B8
:102630005C8969857A858B859C850E941F1C9B011E
:10264000AC01C701B6010E9456119B01AC01A98DD6
:10265000BA8D14966D937D938D939C931797C301B8
:10266000B2010E9475192D813E814F8158850E94CB
:102670007611A50194016A960FB6F894DEBF0FBEDD
:10268000CDBFDF91CF911F910F91FF90EF90DF9021
:10269000CF90BF90AF909F908F907F906F905F9002
:1026A0004F900C945611FC011082118212821382F9
:1026B0001482158216821782089584B1837F84B9AB
:1026C00085B18C6085B910920F0110920E011A9994
:1026D00003C082E0809310011B9905C08091100116
:1026E000816080931001089510920F0110920E01E5
:1026F00085B1837F85B908952FB7F89480910E0135
:1027000090910F0110920F0110920E012FBF0895AA
:102710008091100124E0829FC00111248F7080936A
:1027200010011A9905C080911001826080931001F8
:102730001B9905C080911001816080931001E09188
:102740001001F0E0EE0FFF1FEA52FF4F2591349188
:1027500080910E0190910F01820F931F90930F01B2
:1027600080930E0160910E0170910F0188EE93E04D
:102770000E944611BC0188E19CEF0E943B1190939E
:102780000F0180930E0108952C982C9A08952D9A8C
:102790002D98089580FD2F9A80FF2F980C94C713D1
:1027A0000F931F93CF93DF93C0E0D0E0082F10E08A
:1027B000C8010C2E02C0959587950A94E2F78170A6
:1027C0000E94CA132196C830D10591F7DF91CF91AD
:1027D0001F910F9108950F931F93CF93DF938C0157
:1027E000C62FD0E0C80FD91FC017D10729F02197F5
:1027F00088810E94D013F8CFDF91CF911F910F9164
:1028000008952E9A2E98089584B1806F84B985B169
:102810008F7185B92C9A0E94C4130C9401140E94E4
:10282000C4130C9401149F92AF92BF92CF92DF9287
:10283000EF92FF920F931F93CF93DF93EC01962EAD
:102840008A01662319F0D195C195D109209759F0D5
:1028500030E0E22EF12C570161E0A61AB1088AE0BF
:10286000C82ED12C2EC0F801E20FF11D31978FE355
:10287000808331E02CC0832F90E041E050E0911044
:1028800002C040E050E0B701641B750B8617970744
:10289000F4F43F5FF501E81BF90BE00FF11FCE01E7
:1028A000B6010E94D51C8150893078F4A82FB0E081
:1028B000AC5FBE4F8C918083CE01B6010E94D51CC7
:1028C000EB011C161D06BCF202C08FE3F4CF992069
:1028D00049F0E22FF0E03197E31BF109E00FF11F1F
:1028E00080E4808381E0DF91CF911F910F91FF9071
:1028F000EF90DF90CF90BF90AF909F9008950C9491
:102900000F14863038F4E82FF0E0EF5EFE4F60835E
:1029100081E0089580E008952F923F924F925F9258
:102920006F927F928F929F92AF92BF92CF92DF92DF
:10293000EF92FF920F931F93CF93DF93CDB7DEB744
:102940002A970FB6F894DEBF0FBECDBFE42FF0E09C
:10295000FE83ED8310E0AF01400F511F473051055A
:1029600014F080E0EBC0B22E6B017C0120E030E07F
:10297000A9010E94E1198987A82EAA1CAA24AA1CD1
:10298000C701B6010E94941A2B013C014B012B2C6C
:10299000312CC1010E94231198878F83B201052C2D
:1029A000000C880B990B0E94CC1A9B01AC01C7014B
:1029B000B6010E94741969837A838B839C832F816B
:1029C0003885B901330F880B990B0E94CC1A9B01F3
:1029D000AC0169817A818B819C810E941F1C3985A1
:1029E00037FF05C020E030E040E05FEB04C020E0AE
:1029F00030E040E05FE30E9475190E94941A6983F9
:102A00007A838B839C8320E030E0A901C701B60163
:102A10000E94E11987FF03C08FEF9FEF02C081E0A2
:102A200090E0E981FA818E9FA0018F9F500D9E9FBB
:102A3000500D11245A8749872F813885241735076F
:102A400099F420E030E0A901C701B6010E94E11924
:102A500087FF03C08FEF9FEF02C081E090E04C0141
:102A6000840C951C1A8619868114910469F420E05F
:102A700030E0A901C701B6010E94E119582E551C8A
:102A80005524551C53940BC05A2CC4012AE030E045
:102A9000B9010E94D51CCB0153940097C9F7498511
:102AA0005A854115510579F0452E441C4424441C97
:102AB000CA012AE030E0B9010E94D51CCB01439441
:102AC0000097C9F702C044244394652C712CC101BE
:102AD000860D971D081719070CF443CF8D819E8131
:102AE0008F5E9E4F7C01021913096C01C00ED11E2E
:102AF0002B2DA60160E089859A850E941314F601AA
:102B0000241831082FE3CF018C199D0982159305F4
:102B100014F42193F8CFA801461957094E0D5F1DF3
:102B2000252D6A2DC4010E94131401501109F701CB
:102B3000E00FF11F80818068808381E02A960FB6C4
:102B4000F894DEBF0FBECDBFDF91CF911F910F91E3
:102B5000FF90EF90DF90CF90BF90AF909F908F90BD
:102B60007F906F905F904F903F902F9008958F923D
:102B70009F92AF92BF92CF92DF92EF92FF920F930C
:102B80001F93CF93DF93EC01E62FF0E0242F30E08A
:102B9000CF01820F931F07970CF050C0EF5EFE4FDE
:102BA000D7FF05C0002711270C1B1D0B03C0209762
:102BB00089F08E0140E08D2F881F8827881F5901DA
:102BC000A81AB108490181E0881A91088AE0C82E44
:102BD000D12C20C0E20FF31F31978FE32DC04F5F40
:102BE0007401E81AF90AEE0EFF1EC801B6010E9430
:102BF000D51C81508930A0F4A82FB0E0AC5FBE4F47
:102C00008C91D7018C93C801B6010E94D51C8B0111
:102C1000672B41F0842F90E08A159B0504F302C0D6
:102C20008FE3EFCFD7FF0CC0B90161507109641B6E
:102C30007109E60FF71F80E4808302C080E001C0C5
:102C400081E0DF91CF911F910F91FF90EF90DF9086
:102C5000CF90BF90AF909F908F9008950E94C41323
:102C600066E081E191E00E94EB130C940114E1E134
:102C7000F1E010821182128213821482158208956B
:102C80000E9404140E9437160C942E1610926F00A6
:102C9000E1E8F0E080818E7F8083A0E8B0E08C9155
:102CA0008C9380818061808380EA90E0909387009C
:102CB00080938600109289001092880010928500FF
:102CC00010928400559A5D980895E1E8F0E08081C3
:102CD0008E7F80831092870010928600109285006C
:102CE000109284001092890010928800A0E8B0E051
:102CF0008C918F778C9380818F7E808355985D989F
:102D0000089564E60E94511160E00E944C11282F42
:102D100030E0A0EAB0E00E940B1D24E630E040E085
:102D200050E00E94E91C30938900209388000895A8
:102D300010928500109284001092890010928800F1
:102D4000E0E8F0E0808180688083E1E8F0E0808165
:102D5000816080830895E0E8F0E080818F77808350
:102D6000E1E8F0E080818E7F8083109285001092F0
:102D70008400089584B18C7F84B985B1836085B95E
:102D800010921E0110921D0110921C011092190147
:102D9000EAE1F1E01082118283E0809318018093D0
:102DA0001701089585B18C7F85B910921E0110928C
:102DB0001D0110921C0110921901EAE1F1E010824C
:102DC000118283E080931801809317010895209168
:102DD0001E0130E0082E02C0359527950A94E2F7CF
:102DE00020FF11C040911E0121E030E0B90102C076
:102DF000660F771F8A95E2F7CB0180958423809335
:102E00001E0181E0089580E0089520911D0130E0C9
:102E1000082E02C0359527950A94E2F720FF11C0CD
:102E200040911D0121E030E0B90102C0660F771F1B
:102E30008A95E2F7CB018095842380931D0181E080
:102E4000089580E0089520911C0130E0082E02C012
:102E5000359527950A94E2F720FF11C040911C0197
:102E600021E030E0B90102C0660F771F8A95E2F7D2
:102E7000CB018095842380931C0181E0089580E03C
:102E800008952091190130E0A90102C05595479598
:102E90008A95E2F7CA018170089593B130911901C2
:102EA0009095292F23278091180182238095809364
:102EB000180180911701909118018223892780932E
:102EC0001701909118018091170198239370922314
:102ED0008091190189278093190140911901492393
:102EE000809119018095892320E030E050E0082E80
:102EF000000C990BE1E0F0E0BA01022E02C07595DA
:102F000067950A94E2F760FF10C0A0911E01BF010F
:102F1000022E01C0660F0A94EAF76A2B60931E0125
:102F2000D901A65EBE4F1C9214C0BC01022E02C085
:102F3000759567950A94E2F760FF0BC0A0911D019B
:102F4000BF01022E01C0660F0A94EAF76A2B609354
:102F50001D016091190170E0022E02C07595679500
:102F60000A94E2F760FF16C0D901A65EBE4F6C91CD
:102F7000643680F46C916F5F6C93643659F4A09161
:102F80001C01BF01022E01C0660F0A94EAF76A2BEA
:102F900060931C012F5F3F4F2230310509F0ACCF09
:102FA0000895EAE7F0E0808187758083ACE7B0E0C0
:102FB0001C928C9180648C9380818660808380EFEA
:102FC00080937E0008959FB7F894EAE7F0E080814F
:102FD0008775808310927C008081887F80838FEF4B
:102FE00080937E009FBF089580917A0080688093CF
:102FF0007A0080917A00806480937A0080917A00D0
:1030000086FDFCCF80917800909179000895FC01B5
:1030100080917C00807E80937C0080917C008093F6
:103020007C0080917A00806480937A0080917A009D
:1030300086FDFCCF8091780090917900009711F483
:1030400022E005C08F3F23E0920718F021E02083A3
:103050000895108208958F929F92AF92BF92CF925F
:10306000DF92EF92FF92CF935C01C4E0C12CD12C90
:103070007601C5010E940718C80ED91EE11CF11C7B
:10308000C150B9F7C701B6010E94CC1A20E030E068
:1030900040E859E30E941F1C20E030E040EA50E481
:1030A0000E941F1C6B017C0120E030E543EC57E4DB
:1030B0000E941F1C4B015C01A701960160E070E0BB
:1030C00080EA90E40E9474199B01AC01C501B4012F
:1030D0000E94E619CF91FF90EF90DF90CF90BF90C4
:1030E000AF909F908F9008958F929F92AF92BF92D2
:1030F000CF92DF92EF92FF920E942B180E94D71B73
:103100006B017C012BE037ED4BE055EB0E941F1C5F
:10311000A70196010E941F1CA70196010E941F1C77
:103120004B015C0120EA30E642EF59E3C701B601EA
:103130000E941F1C25E539EF46E95AE30E947419E5
:103140009B01AC01C501B4010E9475199B01AC0142
:1031500060E070E080E89FE30E94E61923E333E932
:1031600048E853E40E947419FF90EF90DF90CF90ED
:10317000BF90AF909F908F900895FC0180917C004C
:10318000807E80937C0080917C00816080937C00B5
:1031900080917A00806480937A0080917A0086FD25
:1031A000FCCF8091780090917900009711F422E093
:1031B00005C08F3F23E0920718F021E02083089597
:1031C000108208958F929F92AF92BF92CF92DF921A
:1031D000EF92FF92CF935C01C4E0C12CD12C760119
:1031E000C5010E94BD18C80ED91EE11CF11CC150BA
:1031F000B9F7C701B6010E94CC1A20E030E040E8E0
:1032000059E30E941F1C20E030E040EA50E40E9495
:103210001F1C6B017C0120E030E44CE156E40E946D
:103220001F1C4B015C01A701960160E070E080EA81
:1032300090E40E9474199B01AC01C501B4010E9485
:10324000E619CF91FF90EF90DF90CF90BF90AF90B5
:103250009F908F9008958F929F92AF92BF92CF923E
:10326000DF92EF92FF920E94E2180E94D71B6B013F
:103270007C0129E436E84CE754E30E941F1CA701B7
:1032800096010E941F1CA70196010E941F1C4B0162
:103290005C0125EE31EC44E559E3C701B6010E941B
:1032A0001F1C21EA38EE4CEA5AE30E9475199B0173
:1032B000AC01C501B4010E9475199B01AC0160E02D
:1032C00070E080E89FE30E94E61923E333E948E8D1
:1032D00053E40E947419FF90EF90DF90CF90BF905D
:1032E000AF909F908F9008955058BB27AA270E94B7
:1032F0008C190C94901B0E94821B38F00E94891B31
:1033000020F039F49F3F19F426F40C946F1B0EF44F
:10331000E095E7FB0C94691BE92F0E94A11B58F371
:10332000BA17620773078407950720F079F4A6F5AA
:103330000C94C31B0EF4E0950B2EBA2FA02D0B019D
:10334000B90190010C01CA01A0011124FF27591BEA
:1033500099F0593F50F4503E68F11A16F040A22FF0
:10336000232F342F4427585FF3CF46953795279561
:10337000A795F0405395C9F77EF41F16BA0B620B60
:10338000730B840BBAF09150A1F0FF0FBB1F661FA7
:10339000771F881FC2F70EC0BA0F621F731F841FEA
:1033A00048F4879577956795B795F7959E3F08F010
:1033B000B0CF9395880F08F09927EE0F97958795D2
:1033C00008950E94451B08F481E008950E94FA19AF
:1033D0000C94901B0E94891B58F00E94821B40F0A5
:1033E00029F45F3F29F00C94691B51110C94C41B04
:1033F0000C946F1B0E94A11B68F39923B1F3552312
:1034000091F3951B550BBB27AA27621773078407F7
:1034100038F09F5F5F4F220F331F441FAA1FA9F38D
:1034200035D00E2E3AF0E0E832D091505040E6957B
:10343000001CCAF72BD0FE2F29D0660F771F881FDC
:10344000BB1F261737074807AB07B0E809F0BB0BCF
:10345000802DBF01FF2793585F4F3AF09E3F5105E3
:1034600078F00C94691B0C94C41B5F3FE4F3983E06
:10347000D4F3869577956795B795F7959F5FC9F7CC
:10348000880F911D9695879597F90895E1E0660F4D
:10349000771F881FBB1F621773078407BA0720F0C6
:1034A000621B730B840BBA0BEE1F88F7E09508952F
:1034B000BEE304D008F490E80895BFE32227332741
:1034C000A9010E94A91B60F19F5748F1B91740F16B
:1034D000BFE3B91B9927B8503AF4660F771F881FCE
:1034E000991FB395D2F316C0B8504AF0232F342F4A
:1034F000452F562F672F782F8827B850BAF7B85F17
:1035000049F086957795679557954795379527950F
:10351000BA95B9F716F40E94721B8894089588949E
:1035200060E070E0CB0108950E949B1A6894B1118D
:103530000C94C41B08950E94A91B88F09F5798F013
:10354000B92F9927B751B0F0E1F0660F771F881FA8
:10355000991F1AF0BA95C9F714C0B13091F00E94C2
:10356000C31BB1E008950C94C31B672F782F8827E5
:10357000B85F39F0B93FCCF3869577956795B395E9
:10358000D9F73EF490958095709561957F4F8F4F58
:103590009F4F0895E89409C097FB3EF4909580955D
:1035A000709561957F4F8F4F9F4F9923A9F0F92F09
:1035B00096E9BB279395F695879577956795B79587
:1035C000F111F8CFFAF4BB0F11F460FF1BC06F5F6D
:1035D0007F4F8F4F9F4F16C0882311F096E911C07F
:1035E000772321F09EE8872F762F05C0662371F0A0
:1035F00096E8862F70E060E02AF09A95660F771FB4
:10360000881FDAF7880F9695879597F90895E894BB
:10361000F92F96EBFF2381F0121613061406440BC4
:103620009395F69587957795679557954040FF2335
:10363000B9F71BC099270895882351F49850D2F701
:10364000872B762F652F542F432F322F20E0B1F395
:10365000121613061406440B88233AF09A95440F69
:10366000551F661F771F881FCAF755234AF4440F5A
:10367000551F11F460FF04C06F5F7F4F8F4F9F4F46
:10368000880F9695879597F90895990F0008550F1B
:10369000AA0BE0E8FEEF16161706E807F907C0F0D8
:1036A00012161306E407F50798F0621B730B840BE0
:1036B000950B39F40A2661F0232B242B252B21F4BA
:1036C00008950A2609F4A140A6958FEF811D811D5A
:1036D000089597F99F6780E870E060E008959FEF94
:1036E00080EC0895909580957095609550954095E3
:1036F000309521953F4F4F4F5F4F6F4F7F4F8F4F0B
:103700009F4F089500240A941616170618060906F6
:10371000089500240A941216130614060506089547
:10372000092E0394000C11F4882352F0BB0F40F4CF
:10373000BF2B11F460FF04C06F5F7F4F8F4F9F4F0F
:10374000089557FD9058440F551F59F05F3F71F091
:103750004795880F97FB991F61F09F3F79F08795F8
:103760000895121613061406551FF2CF4695F1DF81
:1037700008C0161617061806991FF1CF8695710511
:10378000610508940895E894BB2766277727CB0145
:1037900097F908950E94451B08F48FEF089516F0DD
:1037A0000C948C1C0C946F1B68940C94691B0E94E5
:1037B000A91BA8F39923C1F3AEF3DF93CF931F9313
:1037C0000F93FF92C92FDD2788232AF02197660FD8
:1037D000771F881FDAF720E030E040E85FEB9FE3D7
:1037E000883920F0803E38F021968F770E94751935
:1037F000ECE7F0E004C00E947519E9EAF0E00E94ED
:103800009A1C8B01BE01EC01FB2E6F577109759557
:10381000771F880B990B0E94CC1A28E132E741E30D
:103820005FE30E94321CAF2D9801AE01FF900F9113
:103830001F91CF91DF910E948C190C94901B0E94D4
:10384000321C0C94901B0E94821B38F00E94891B32
:1038500020F0952311F00C94691B0C946F1B11241C
:103860000C94C41B0E94A11B70F3959FC1F3950F8C
:1038700050E0551F629FF001729FBB27F00DB11DF4
:10388000639FAA27F00DB11DAA1F649F6627B00D84
:10389000A11D661F829F2227B00DA11D621F739F6D
:1038A000B00DA11D621F839FA00D611D221F749F7B
:1038B0003327A00D611D231F849F600D211D822FC2
:1038C000762F6A2F11249F5750409AF0F1F08823E9
:1038D0004AF0EE0FFF1FBB1F661F771F881F915016
:1038E0005040A9F79E3F510580F00C94691B0C9441
:1038F000C41B5F3FE4F3983ED4F3869577956795B4
:10390000B795F795E7959F5FC1F7FE2B880F911D3F
:103910009695879597F908959F3F31F0915020F43F
:10392000879577956795B795880F911D969587959B
:1039300097F90895DF93CF931F930F93FF92EF9220
:10394000DF927B018C01689406C0DA2EEF010E94A1
:10395000321CFE01E894A591259135914591559130
:10396000A6F3EF010E948C19FE019701A801DA94D9
:1039700069F7DF90EF90FF900F911F91CF91DF914A
:103980000895AA1BBB1B51E107C0AA1FBB1FA617A6
:10399000B70710F0A61BB70B881F991F5A95A9F7F8
:1039A00080959095BC01CD01089597FB072E16F4E4
:1039B000009407D077FD09D00E94C11C07FC05D0F8
:1039C0003EF4909581959F4F0895709561957F4F36
:1039D0000895A1E21A2EAA1BBB1BFD010DC0AA1F50
:1039E000BB1FEE1FFF1FA217B307E407F50720F068
:1039F000A21BB30BE40BF50B661F771F881F991FE3
:103A00001A9469F760957095809590959B01AC012B
:103A1000BD01CF010895A29FB001B39FC001A39F34
:103A2000700D811D1124911DB29F700D811D1124F7
:103A3000911D08952A0D3B1D4C1D5D1D6E1D7F1DA2
:103A4000801F911F08950024A7FD00942A0F301DA8
:103A5000401D501D601D701D801D901D08952A1968
:103A60003B094C095D096E097F09800B910B089594
:103A70002A153B054C055D056E057F0580079107FE
:103A80000895DC01CB01FC01F999FECF06C0F2BD1F
:103A9000E1BDF89A319600B40D9241505040B8F70C
:103AA0000895DC01A40FB51F4150504048F0CB01F0
:103AB000840F951F2E910E94621D41505040D0F7F7
:103AC0000895262FF999FECF92BD81BDF89A0197EE
:103AD00000B4021639F01FBA20BD0FB6F894FA9A56
:0A3AE000F99A0FBE0895F894FFCF85
:0E3AEA0001010000065B4F666D7D077F6F00D7
:00000001FF
