S016000070696465746368696E67626174682E7372656350
S11300000C947B000C9498000C9498000C94980029
S11300100C9498000C9498000C9498000C949800FC
S11300200C9498000C9498000C9498000C949800EC
S11300300C9498000C9498000C9498000C949800DC
S11300400C94FD090C9498000C9498000C9498005E
S11300500C9498000C9498000C9498000C949800BC
S11300600C9498000C9498000C9498000C949800AC
S11300700C9498000C9498000C94980008000000CC
S1130080BE922449123EABAAAA2ABECDCCCC4C3E89
S113009000000080BEABAAAAAA3E00000000BF0078
S11300A00000803F0000000000084178D3BB438774
S11300B0D1133D190E3CC3BD4282AD2B3E68EC8288
S11300C076BED98FE1A93E4C80EFFFBE01C4FF7F0D
S11300D03F000000000000000000000000000000DD
S11300E0000000000100000000000000000000000B
S11300F0FFFF0000000011241FBECFEFD0E1DEBFE0
S1130100CDBF11E0A0E0B1E0E0E6F1E302C005906C
S11301100D92AE30B107D9F721E0AEE0B1E001C0F5
S11301201D92A63CB207E1F70E948D0A0C94AE180A
S11301300C9400000E94390F80E008950E94C612BA
S113014080E00895809135019091360118161906C2
S11301502CF480913D0161E08F5F06C0892B59F03A
S113016080913D0161E081500E943B0D60E00E945E
S1130170300D80933D010E94B01180913D01882390
S113018061F0813021F56091660170916701809181
S113019068019091690141E009C060915E0170912C
S11301A05F01809160019091610140E00E94940A96
S11301B00E94A7118091370180FF0BC010923D016E
S11301C086EB97E090933C0180933B0102C084E06E
S11301D0089580E008958091350190913601892B2E
S11301E091F080915C0191E0811190E090935C0129
S11301F0811103C00E94710A02C00E94800A8EE32A
S113020091E00E94040F0E94B01180915C010E9451
S1130210EE0B0E94A7118091370180FF09C081E095
S113022080933D0182ED94E090933C0180933B01E7
S113023080E0089560913501709136016115710572
S113024049F1072E000C880B990B0E94451620E0FB
S113025030E040E05FE30E945A1720911F01309183
S1130260200140912101509122010E94EE1420E0CE
S113027030E048EC52E40E94700D20E030E0A90127
S11302800E94500D60931F017093200180932101FF
S1130290909322010E94B01160911F01709120017E
S11302A080912101909122010E946A0C0E94A71161
S11302B08091370180FF09C082E080933D0182ED87
S11302C094E090933C0180933B0180E00895CF93A8
S11302D0209135013091360180913D0112161306AB
S11302E01CF463E08F5F04C0232B49F063E081506A
S11302F00E943B0D60E00E94300D80933D01E0912F
S11303003D01E43028F4F0E0E050FF4FC08101C02B
S1130310C0E00E94B0116C2F80913D010E94A90B96
S11303200E94A7118091370180FF0FC0CC2369F090
S113033080913D018093330183E080933D0182ED00
S113034094E090933C0180933B0180E0CF91089529
S11303508F929F92AF92BF92CF92DF92EF92FF92D1
S11303600F931F93609135017091360161157105EA
S113037009F44CC0072E000C880B990B0E944516FB
S11303802AE037ED43E25CE30E945A1720912301EF
S11303903091240140912501509126010E94EE14D0
S11303A020E030E04AE754E40E94700D20E030E0A1
S11303B0A9010E94500DAB01BC014093230150934D
S11303C024016093250170932601C0902B01D090E5
S11303D02C01E0902D01F0902E0100912701109145
S11303E028012091290130912A0182E48F9388EC1D
S11303F08F931F921F92812C912C54018EE391E0D4
S11304000E94CC0D0F900F900F900F900E94B0118E
S1130410609123017091240180912501909126011E
S11304200E940A0C0E94A7118091370180FF09C025
S113043081E080933D018BE295E090933C018093B1
S11304403B0180E01F910F91FF90EF90DF90CF90E0
S1130450BF90AF909F908F9008958F929F92AF928C
S1130460BF92CF92DF92EF92FF920F931F9360910E
S11304703501709136016115710509F44CC0072EE0
S1130480000C880B990B0E9445162AE037ED43E2D5
S11304905CE30E945A172091270130912801409172
S11304A0290150912A010E94EE1420E030E04AE72D
S11304B054E40E94700D20E030E0A9010E94500D28
S11304C08B019C016093270170932801809329017B
S11304D090932A01C0902B01D0902C01E0902D0123
S11304E0F0902E0140912301509124016091250147
S11304F07091260182E48F9388EC8F931F921F9250
S1130500812C912C54018EE391E00E94CC0D0F902C
S11305100F900F900F900E94B0116091270170917D
S113052028018091290190912A010E94220C0E94A5
S1130530A7118091370180FF09C082E080933D01BB
S11305408BE295E090933C0180933B0180E01F9106
S11305500F91FF90EF90DF90CF90BF90AF909F905E
S11305608F9008958F929F92AF92BF92CF92DF9215
S1130570EF92FF920F931F936091350170913601B2
S11305806115710509F44CC0072E000C880B990BFA
S11305900E9445162AE037ED43E25CE30E945A17B5
S11305A020912B0130912C0140912D0150912E016D
S11305B00E94EE1420E030E04AE754E40E94700DFB
S11305C020E030E0A9010E94500D6B017C01609392
S11305D02B0170932C0180932D0190932E01009197
S11305E02701109128012091290130912A0140917D
S11305F0230150912401609125017091260182E428
S11306008F9388EC8F931F921F92812C912C54010D
S11306108EE391E00E94CC0D0F900F900F900F90FD
S11306200E94B01160912B0170912C0180912D01D9
S113063090912E010E943A0C0E94A71180913701DB
S113064080FF09C083E080933D018BE295E09093A5
S11306503C0180933B0180E01F910F91FF90EF904C
S1130660DF90CF90BF90AF909F908F90089560914E
S11306703501709136016115710551F1072E000C99
S1130680880B990B0E94451620E030E040E05FE3C0
S11306900E945A1720912F0130913001409131016D
S11306A0509132010E94EE1420E030E048E452E41C
S11306B00E94700D20E030E048E452EC0E94500D9E
S11306C060932F0170933001809331019093320134
S11306D00E94B01160912F0170913001809131011D
S11306E0909132010E94520C0E94A711809137010F
S11306F080FF09C085E080933D0182ED94E09093F2
S11307003C0180933B0180E00895809135019091F4
S11307103601009729F120915B0164E670E0820FB5
S1130720911D0E94400D60E070E00E94350D8093A1
S11307305B0190915D01911105C0882339F00E94FD
S1130740111204C0811102C00E94241280915B0125
S113075091E0811101C090E090935D010E94FA1133
S11307600E94B01180915B010E946C0C0E94A71141
S11307708091370180FF09C081E080933D0185E7C6
S113078095E090933C0180933B0180E008950E94A2
S1130790B011609162017091630180916401909144
S11307A065010E94B50C0E94A7118091370180FF5A
S11307B009C081E080933D0180EB95E090933C017A
S11307C080933B0180E008950E94B01160916A011A
S11307D070916B0180916C0190916D010E94B50C38
S11307E00E94A7118091370180FF09C082E08093A5
S11307F03D0180EB95E090933C0180933B0180E0C8
S113080008950E94B0110E94C40C0E94A711809107
S1130810370180FF09C083E080933D0180EB95E0C0
S113082090933C0180933B0180E008950E94B011B5
S11308300E94C40C0E94A7118091370180FF09C057
S113084084E080933D0180EB95E090933C0180939C
S11308503B0180E00895CF92DF92EF92FF920F93D5
S11308601F93CF938AE591E00E94ED1360935E019C
S113087070935F018093600190936101C0915A016C
S1130880C11187C080913B0190913C01875C9340EA
S113089089F08AE591E00E94A41460936601709344
S11308A067018093680190936901C0915A01CC2338
S11308B091F06FC08AE591E00E94A41360936201F5
S11308C0709363018093640190936501C0915A0110
S11308D0CC23F9F25EC080913B0190913C01845E8F
S11308E0934029F080915C01811113C052C08AE5C4
S11308F091E00E945B1460936A0170936B01809392
S11309006C0190936D0180915A01882359F3C82F8B
S113091040C080913301882359F08130C9F540915A
S1130920660150916701609168017091690108C086
S113093040915E0150915F0160916001709161018D
S113094000911F0110912001209121013091220179
S11309508EE391E00E94080E6B017C0120E030E000
S113096048EC52E460915E0170915F0180916001F6
S1130970909161010E940517181614F480E005C0D7
S1130980C701B6010E941416862F0E94600A01C096
S1130990C4E08C2FCF911F910F91FF90EF90DF90C7
S11309A0CF9008958091350190913601181619065B
S11309B02CF480913D0165E08F5F06C0892B59F0CE
S11309C080913D0165E081500E943B0D60E00E94F2
S11309D0300D80933D010E94B01180913D010E9431
S11309E0290B0E94A7118091370180FF32C08091AA
S11309F03D018230D1F04CF4882389F0813049F5EF
S1130A0010923D018BEE90E020C08430D1F094F040
S1130A108530F9F410923D0187E393E016C081E03C
S1130A2080933D0186EB97E010C010923D018AE16E
S1130A3091E00BC08091330180933D0187E691E002
S1130A4004C010923D018BE295E090933C018093A9
S1130A503B0180E00895809135019091360118168C
S1130A6019062CF480913D0163E08F5F06C0892B49
S1130A7059F080913D0163E081500E943B0D60E09C
S1130A800E94300D80933D010E94B01180913D0180
S1130A900E94D30B0E94A7118091370180FF23C0CD
S1130AA080913D01813091F044F481111CC084E0B7
S1130AB080933D0182ED94E012C0823061F0833076
S1130AC091F410923D0182EB92E009C010923D0135
S1130AD088EA91E004C010923D018DE292E0909387
S1130AE03C0180933B0180E0089580913501909111
S1130AF03601181619062CF480913D0161E08F5FD0
S1130B0006C0892B59F080913D0161E081500E941B
S1130B103B0D60E00E94300D80933D010E94B011B6
S1130B2080913D010E94890B0E94A7118091370199
S1130B3080FF14C080913D01882339F0813071F425
S1130B4010923D0185E893E005C082E080933D0169
S1130B5086EB97E090933C0180933B0180E00895FD
S1130B608091350190913601181619062CF4809164
S1130B703D0164E08F5F06C0892B59F080913D01EF
S1130B8064E081500E943B0D60E00E94300D809330
S1130B903D010E94B01180913D010E94880C0E9489
S1130BA0A7118091370180FF2AC080913D018230D6
S1130BB0C9F04CF4882381F0813009F510923D018D
S1130BC087EC93E018C0833091F08430C1F4109224
S1130BD03D0186E194E00FC083E080933D0186EB04
S1130BE097E009C010923D0184EE93E004C0109296
S1130BF03D0181E094E090933C0180933B0180E0CF
S1130C000895EFE1F1E0178A168A108E118E128E84
S1130C10138E0895CF93DF930E9401060E942D0F37
S1130C20CFE1D1E09F8B8E8B80E00E94BA129B8D26
S1130C30892B8B8F80E00E946012988D892B888F7E
S1130C4080E00E949C12998D892B898F80E00E94FC
S1130C507E129A8D892B8A8FEC8DFD8DDF91CF9139
S1130C60099480915A01823049F018F4813031F0AE
S1130C700895833019F0843009F008950E94B0116A
S1130C8080915A010E94CC0C0C94A711EFE1F1E081
S1130C9080E090E0A8ECB1E480839183A283B383E5
S1130CA080E090E0A0E8BFE384839583A683B783C4
S1130CB01086118612861386148615861686178664
S1130CC0108A118A128A138A148A0895CF93DF93A3
S1130CD0CDB7DEB766970FB6F894DEBF0FBECDBFB3
S1130CE08AE2898385E1EFE1F1E0DE011296019069
S1130CF00D928A95E1F746E150E060E070E0CE01A4
S1130D0001960E948C1866960FB6F894DEBF0FBE4B
S1130D10CDBFDF91CF910895CF93DF93CDB7DEB7E9
S1130D2066970FB6F894DEBF0FBECDBF46E150E024
S1130D3060E070E0CE0101960E947C1889818A32BD
S1130D4029F00E9446060E94660609C085E1FE015C
S1130D503296AFE1B1E001900D928A95E1F7669683
S1130D600FB6F894DEBF0FBECDBFDF91CF910895CB
S1130D708F929F92AF92BF92CF92DF92EF92FF92A7
S1130D800F931F93CF9310925A010E9408080E9458
S1130D90B9110E9433120E940E0F0E948C06109209
S1130DA05B0110925C0110925D010E94BF110E94D0
S1130DB024120E943C0A0E94800AC0902B01D09009
S1130DC02C01E0902D01F0902E010091270110914B
S1130DD028012091290130912A0140912301509149
S1130DE02401609125017091260182E48F9388EC9F
S1130DF08F931F921F92812C912C54018EE391E0CA
S1130E000E94900D0E944A1320E04BE254E06AE0F5
S1130E1077ED83EA9CE30E94CB0921E04AE056E0A7
S1130E206AE077ED83E29DE30E94CB0922E04AE980
S1130E3050E06FE672E183E89AE30E94CB0923E075
S1130E404EE950E06AE077ED83EA9BE30E94CB0928
S1130E500E94010682EA90E090933C0180933B015A
S1130E600E946D138AE591E00E94ED1360935E0188
S1130E7070935F0180936001909361010F900F90D4
S1130E800F900F9080915A01811146C08AE591E03C
S1130E900E94A413609362017093630180936401C0
S1130EA09093650180915A01811136C08AE591E0E1
S1130EB00E94A41460936601709367018093680193
S1130EC09093690180915A01811126C08AE591E0CD
S1130ED00E945B1460936A0170936B0180936C01B0
S1130EE090936D0180915A01811116C00E9455089A
S1130EF010923401C1E080913401811109C00E9433
S1130F00C40880935A018823B1F3C0933401F3CF0A
S1130F10C0915A01CC2379F00E944F0A0E94DE113D
S1130F200E945C130E94250F0E944B120E943106FE
S1130F30C0915A010EC00E947E080E94DE110E94D8
S1130F404F0A0E945C130E94250F0E944B120E94BC
S1130F5030108C2FCF911F910F91FF90EF90DF9065
S1130F60CF90BF90AF909F908F900895809135015E
S1130F7090913601181619062CF480913D0165E014
S1130F808F5F06C0892B59F080913D0165E0815047
S1130F900E943B0D60E00E94300D80933D010E9451
S1130FA0B01180913D010E94B90A0E94A71180915D
S1130FB0370180FF2BC080913D018230B9F04CF4A1
S1130FC0882379F0813011F510923D0182ED94E08F
S1130FD016C08430C9F07CF08530C1F40E946606E6
S1130FE015C010923D0182EA90E009C010923D01C3
S1130FF085E795E004C010923D0180EB95E0909365
S11310003C0180933B0102C00E948C0680E008955D
S11310101092BE011092BF011092C0011092C10142
S11310201092C2011092C3011092C4011092C50122
S11310301092B6011092B7011092B8011092B90142
S11310401092BA011092BB011092BC011092BD0122
S1131050EEE6F1E01082118212821382148215826C
S113106016821782108611861286138614861586B8
S113107016861786118A108A729681E0E63BF80775
S113108049F780916E008C7F80936E0085B5887FD0
S113109085BD84B5826084BD82E687BD80916E0083
S11310A0826080936E00789408951092BE0110922D
S11310B0BF011092C0011092C1011092C20110929E
S11310C0C3011092C4011092C5011092B60110928E
S11310D0B7011092B8011092B9011092BA0110929E
S11310E0BB011092BC011092BD0116BC85B5826093
S11310F085BD089585B5887F85BD08950E947A08C9
S113110080916E008D7F80936E0084B58D7B84BD4D
S113111016BC17BC1092BE011092BF011092C00100
S11311201092C1011092C2011092C3011092C40125
S11311301092C5011092B6011092B7011092B80135
S11311401092B9011092BA011092BB011092BC0125
S11311501092BD01EEE6F1E0108211821282138238
S113116014821582168217821086118612861386BF
S11311701486158616861786118A108A729681E05F
S1131180E63BF80749F708952F923F924F925F92FA
S11311906F927F928F929F92AF92BF92CF92DF9283
S11311A0EF92FF920F931F93CF93DF93CDB7DEB7E8
S11311B062970FB6F894DEBF0FBECDBFEFB7F894B9
S11311C02091BE013091BF014091C0015091C101F5
S11311D06091C2017091C3018091C4019091C501D5
S11311E0A090B601B090B701C090B801D090B901F9
S11311F0E090BA01F090BB010091BC011091BD01D7
S11312000E946A182F83388749875A876B877C879F
S11312108D879E877091BE016091BF015091C0017E
S11312204091C1013091C2012091C3019091C40148
S11312308091C5017093B6016093B7015093B801D2
S11312404093B9013093BA012093BB019093BC0140
S11312508093BD01EFBF8EE691E0988B8F87EF8579
S1131260F8890088F189E02DFE83ED83EF2B51F49A
S11312708F8598894296988B8F87865B914079F702
S113128080E070C02F81388549855A856B857C85BF
S11312908D859E85EF85F889A084B184C284D3842A
S11312A0E484F584068517850E94551819012A01DE
S11312B03B014C01208731864287538664877586BB
S11312C086879786B081A181F281F98BEF85F889B1
S11312D0F381FA8BEF85F889F481F983EF85F88936
S11312E0F581FA83EF85F889F681FB83EF85F88928
S11312F0F781FC83AB2EBA2EC988DA88E980FA809C
S11313000B811F2F0E94731808F4B2CF0E946A1831
S113131019012A013B014C012B2F3A2FA601B701D9
S1131320C8015101620173018401EF85F8890E94AB
S1131330731851F048F020863186428653866486BD
S113134075868686978608C010861186128613864F
S11313501486158616861786ED81FE8109958823E5
S113136009F486CF62960FB6F894DEBF0FBECDBFE8
S1131370DF91CF911F910F91FF90EF90DF90CF906D
S1131380BF90AF909F908F907F906F905F904F90A1
S11313903F902F9008950F931F93CF93DF938A016B
S11313A032E1239FE0011124C259DE4F28E33EE9D4
S11313B04FEC58E30E945F1520E030E040E05FE32B
S11313C00E94EE140E94D615288339834A835B83D6
S11313D06C837D838E839F83FE01389618861182E9
S11313E0128213821482158216821782198B088B3B
S11313F0DF91CF911F910F9108951F920F920FB615
S11314000F9211242F933F934F935F936F937F9386
S11314108F939F93AF932091BE013091BF01409170
S1131420C0015091C1016091C2017091C3018091CA
S1131430C4019091C501A1E00E945E182093BE01F1
S11314403093BF014093C0015093C1016093C20126
S11314507093C3018093C4019093C501AF919F9190
S11314608F917F916F915F914F913F912F910F9049
S11314700FBE0F901F90189510927000E1EBF0E0F2
S11314808081897F8083E0EBF0E0808181608083CC
S11314901092B3001092B200579A5F980895E1EB4E
S11314A0F0E08081897F80831092B2001092B300B3
S11314B0E0EBF0E080818E77808357985F98089501
S11314C064E60E944B0D60E00E94460D2FEF829F60
S11314D0C001112464E670E00E94FC176093B3001D
S11314E008951092B2001092B300E0EBF0E0808116
S11314F080688083E1EBF0E08081866080830895DA
S1131500E0EBF0E080818F778083E1EBF0E0808195
S1131510897F80831092B20008950E94B8068111D9
S1131520FFCF80E090E00895CF92DF92EF92FF9298
S11315300F936B017C01413049F030F0423041F0AF
S1131540433051F46FEC05C06FEB03C066E801C093
S11315506BED80E00E94321005E021E041E0C7011C
S1131560B6010E943D100F91FF90EF90DF90CF9055
S113157008958230F1F028F4882351F0813059F035
S113158008958430D9F120F1853009F44AC00895D2
S113159060E480E05CC064E780E00E94321069E7A8
S11315A081E00E94321067E782E00E94321068E70F
S11315B00DC06DE680E00E94321068E781E00E9471
S11315C0321066E082E00E94321060E583E03FC0A2
S11315D068EF80E00E94321069E381E00E943210DB
S11315E067E782E00E94321068E383E00E943210D1
S11315F066E084E00E9432106CE728C068E380E073
S11316000E9432106CE581E00E94321067E782E0AC
S11316100E9432106EED83E00E9432106DEE84E081
S113162016C06DE680E00E94321068E781E00E94F7
S113163032106CE582E00E94321060E583E00E9483
S1131640321069EF84E00E9432106DEE85E00C9454
S11316503210823039F128F4882351F0813079F046
S113166008958430D9F160F1853009F442C00895B9
S113167060E480E00E94321060E481E048C06CE5E0
S113168080E00E94321064E581E00E9432106CE533
S113169082E00E94321061E783E00E94321061E729
S11316A084E035C068E780E00E9432106FEE81E08C
S11316B00E94321068E782E00E94321063E726C07D
S11316C068EF80E00E9432106DE681E00E943210E3
S11316D069E782E00E94321068E318C063E780E0A3
S11316E00E94321066E081E00E9432106EE582E0D2
S11316F00EC06CE580E00E94321061E781E00E9438
S1131700321061E782E00E9432106DE683E00C94AF
S11317103210882319F0813041F0089560E480E0AC
S11317200E94321060E481E012C06DE680E00E9405
S1131730321063E781E00E94321069E782E00E9480
S1131740321069E783E00E9432106EE584E00C9465
S11317503210662301F1813089F050F08230A1F01B
S11317608330C9F468E784E00E9432106FE411C04A
S113177068E784E00E9432106FE30BC068E784E0FE
S11317800E94321066E005C068E784E00E943210CF
S11317906BE585E006C064E580E00E94321069E3F1
S11317A081E00C943210813089F028F0823081F08D
S11317B0833081F0089560E480E00E94321060E498
S11317C081E00E94321060E482E006C063E703C057
S11317D066E001C06EE580E00C94321060E388237B
S11317E051F080E00E9432106CE581E00E943210DA
S11317F064E582E00DC080E00E9432106CE581E077
S11318000E94321061E782E00E94321061E783E0B7
S11318100C943210CF92DF92EF92FF920F936B01F0
S11318207C0163E780E00E94321005E022E041E0A1
S1131830C701B6010E943D100F91FF90EF90DF9019
S1131840CF900895CF92DF92EF92FF920F936B01A6
S11318507C0166E080E00E94321005E022E041E075
S1131860C701B6010E943D100F91FF90EF90DF90E9
S1131870CF900895CF92DF92EF92FF920F936B0176
S11318807C016EE580E00E94321005E022E041E038
S1131890C701B6010E943D100F91FF90EF90DF90B9
S11318A0CF900895CF92DF92EF92FF920F936B0146
S11318B07C0160E380E00E94321005E021E041E019
S11318C0C701B6010E943D100F91FF90EF90DF9089
S11318D0CF9008950C94520CCF93C82F60E380E00E
S11318E00E943210CC2339F045E061E08C2F90E067
S11318F0CF910C9430116CE581E00E94321061E7C5
S113190082E00E94321061E783E0CF910C943210A0
S11319108230B9F028F4882341F0813061F00895D1
S11319208330A9F08430C9F0089560E480E00E9417
S1131930321060E417C068E780E00E9432106FE361
S113194011C068E780E00E94321066E00BC068E7CF
S113195080E00E9432106BE505C068E780E00E94D9
S113196032106FE481E00C9432100F939F7720E0E3
S113197030E04AE754E40E945F1506E023E040E0CB
S11319800E943D100F91089564E580E00E9432109A
S113199069E381E00C943210CF93C82F68E780E0AC
S11319A00E94321064EF81E00E943210C23021F1B3
S11319B088F4C13009F03FC06CE582E00E94321027
S11319C063E783E00E94321069E784E00E943210EA
S11319D064E52DC0C330F1F0C43069F564E582E0FC
S11319E00E9432106CE583E00E94321063E784E0C9
S11319F00E94321069E71BC06DE682E00E9432103B
S1131A0064E783E00E94321060E584E00E943210B3
S1131A1068E70DC064E582E00E94321060E583E06F
S1131A200E94321069E784E00E9432106DE685E07E
S1131A30CF910C943210CF910895AC0120E081E055
S1131A4090E03AE0622F70E06417750744F4BC013B
S1131A50369FC001379F900D11242F5FF3CF089557
S1131A6068170CF4682F862F0895681779070CF40B
S1131A70BC01CB01089586170CF4682F862F0895B6
S1131A80861797070CF4BC01CB010895681708F476
S1131A90682F862F0895861708F4682F862F0895D7
S1131AA0CF92DF92EF92FF920F931F93CF93DF9326
S1131AB08B01D82FC92F69017A010E9405171816C6
S1131AC01CF08601DE2DCF2DB8018D2F9C2FDF91C8
S1131AD0CF911F910F91FF90EF90DF90CF900895D9
S1131AE0CF92DF92EF92FF920F931F93CF93DF93E6
S1131AF08B01D82FC92F69017A010E945A1587FDDD
S1131B0003C08601DE2DCF2DB8018D2F9C2FDF91D0
S1131B10CF911F910F91FF90EF90DF90CF90089598
S1131B208F929F92AF92BF92CF92DF92EF92FF92E9
S1131B300F931F93CF93DF93CDB7DEB7FC0140879C
S1131B405187628773870487158726873787C08AFA
S1131B50D18AE28AF38A8F859889A989BA89808F84
S1131B60918FA28FB38F848A958AA68AB78A1082AE
S1131B701182128213821482158216821782DF91D7
S1131B80CF911F910F91FF90EF90DF90CF90BF9076
S1131B90AF909F908F9008958F929F92AF92BF9233
S1131BA0CF92DF92EF92FF920F931F93CF93DF9325
S1131BB0CDB7DEB7FC0140875187628773870487FE
S1131BC0158726873787C08AD18AE28AF38A8F8568
S1131BD09889A989BA89808F918FA28FB38F848ABB
S1131BE0958AA68AB78A108211821282138214827D
S1131BF0158216821782DF91CF911F910F91FF906A
S1131C00EF90DF90CF90BF90AF909F908F9008950A
S1131C104F925F926F927F928F929F92AF92BF92F8
S1131C20CF92DF92EF92FF920F931F93CF93DF93A4
S1131C30CDB7DEB762970FB6F894DEBF0FBECDBF47
S1131C409A8B898B6A017B01C901B801A7019601AE
S1131C500E94ED142B013C01A989BA8918962D9193
S1131C603D914D915C911B970E945A1769877A8721
S1131C708B879C87A989BA891C968D919D910D901B
S1131C80BC91A02D89839A83AB83BC83E989FA89AB
S1131C9084809580A680B780A5019401C301B20118
S1131CA00E94EE146D877E878F87988BA989BA89E5
S1131CB02D913D914D915C91C701B6010E94ED14A7
S1131CC0E989FA8920893189428953890E945A17FE
S1131CD02B013C01A989BA89CD92DD92ED92FC9247
S1131CE013972D853E854F85588969817A818B812B
S1131CF09C810E945A1729853A854B855C850E94F0
S1131D00EE14A30192010E94EE146B017C01A989D7
S1131D10BA8954968D919D910D90BC91A02D8D837F
S1131D209E83AF83B8879C01AD01C701B6010E94B1
S1131D30051787FD0CC0E989FA89208D318D428D04
S1131D40538DC701B6010E945A151816D4F5A989F6
S1131D50BA895896CD90DD90ED90FC905B97A501E3
S1131D60940169817A818B819C810E945A1729850B
S1131D703A854B855C850E94EE14A30192010E9472
S1131D80EE14A70196010E94700D2D813E814F81B2
S1131D90588562960FB6F894DEBF0FBECDBFDF91B3
S1131DA0CF911F910F91FF90EF90DF90CF90BF9054
S1131DB0AF909F908F907F906F905F904F900C9416
S1131DC0500D8D859E85AF85B889E989FA8984830C
S1131DD09583A683B783C701B60162960FB6F894BC
S1131DE0DEBF0FBECDBFDF91CF911F910F91FF904A
S1131DF0EF90DF90CF90BF90AF909F908F907F90A7
S1131E006F905F904F900895FC01108211821282AE
S1131E1013821482158216821782089584B1837FF7
S1131E2084B985B18C6085B910920F0110920E01AE
S1131E301A9903C082E0809310011B9905C0809118
S1131E401001816080931001089510920F01109287
S1131E500E0185B1837F85B908952FB7F8948091D9
S1131E600E0190910F0110920F0110920E012FBFDD
S1131E7008958091100124E0829FC00111248F7085
S1131E80809310011A9905C080911001826080939B
S1131E9010011B9905C0809110018160809310018D
S1131EA0E0911001F0E0EE0FFF1FEA52FF4F259181
S1131EB0349180910E0190910F01820F931F9093A2
S1131EC00F0180930E0160910E0170910F0188EE55
S1131ED093E00E94400DBC0188E19CEF0E94350D07
S1131EE090930F0180930E0108952C982C9A0895D5
S1131EF02D9A2D98089580FD2F9A80FF2F980C9489
S1131F00780F0F931F93CF93DF93C0E0D0E0082F97
S1131F1010E0C8010C2E02C0959587950A94E2F74B
S1131F2081700E947B0F2196C830D10591F7DF9113
S1131F30CF911F910F9108950F931F93CF93DF9328
S1131F408C01C62FD0E0C80FD91FC017D10729F0C4
S1131F50219788810E94810FF8CFDF91CF911F9143
S1131F600F9108952E9A2E98089584B1806F84B9A4
S1131F7085B18F7185B92C9A0E94750F0C94B20F9C
S1131F800E94750F0C94B20F9F92AF92BF92CF92A2
S1131F90DF92EF92FF920F931F93CF93DF93EC01A5
S1131FA0962E8A01662319F0D195C195D1092097FF
S1131FB059F030E0E22EF12C570161E0A61AB10885
S1131FC08AE0C82ED12C2EC0F801E20FF11D319702
S1131FD08FE3808331E02CC0832F90E041E050E018
S1131FE0911002C040E050E0B701641B750B8617E6
S1131FF09707F4F43F5FF501E81BF90BE00FF11FBD
S1132000CE01B6010E9410188150893078F4A82FAF
S1132010B0E0AC5FBE4F8C918083CE01B6010E94CC
S11320201018EB011C161D06BCF202C08FE3F4CF9E
S1132030992049F0E22FF0E03197E31BF109E00F1A
S1132040F11F80E4808381E0DF91CF911F910F9194
S1132050FF90EF90DF90CF90BF90AF909F90089546
S11320600C94C00F863038F4E82FF0E0EF5EFE4F9A
S1132070608381E0089580E008952F923F924F920B
S11320805F926F927F928F929F92AF92BF92CF9204
S1132090DF92EF92FF920F931F93CF93DF93CDB70D
S11320A0DEB728970FB6F894DEBF0FBECDBFE42F7E
S11320B0F0E0FA83E98310E0AF01400F511F47308D
S11320C0510514F080E0B3C02C836B017C0120E047
S11320D030E0A9010E945A15881F8827881F8B8326
S11320E0C701B6010E940D164B015C017E836D830E
S11320F05C81452F50E058874F83CA010E941D0D13
S11321001C01B401092C000C880B990B0E94451684
S11321109B01AC01C701B6010E94ED142B013C01E7
S1132120E89477F8B101330C880B990B0E9445169B
S11321309B01AC01C301B2010E945A170E940D1603
S1132140562E772E862F972D1C018D819E81892BEB
S113215069F420E030E0A901C701B6010E945A15D4
S1132160682E661C6624661C63940BC06B80C401D5
S11321702AE030E0B9010E941018CB016394009763
S1132180C9F7232881F0472C441C4424441C852D82
S1132190972D2AE030E0B9010E941018CB01439436
S11321A00097C9F702C044244394262C312C8F8114
S11321B09885820D931D081719070CF483CFE981C4
S11321C0FA81EF5EFE4F6F014F815885041B150B9A
S11321D07F01E00EF11E2C81A70160E0852D972D73
S11321E00E94C40FF7018F819885841991099A83FD
S11321F089832FE3CF018E199F0949815A8184175E
S1132200950714F42193F6CFA801421953094C0DF4
S11322105D1D262D6B81C4010E94C40F015011095C
S1132220F601E00FF11F80818068808381E02896A9
S11322300FB6F894DEBF0FBECDBFDF91CF911F91D3
S11322400F91FF90EF90DF90CF90BF90AF909F9051
S11322508F907F906F905F904F903F902F90089554
S11322608F929F92AF92BF92CF92DF92EF92FF92A2
S11322700F931F93CF93DF93EC01E62FF0E0242F0D
S113228030E0CF01820F931F07970CF050C0EF5E30
S1132290FE4FD7FF05C0002711270C1B1D0B03C0E1
S11322A0209789F08E0140E08D2F881F8827881F92
S11322B05901A81AB108490181E0881A91088AE0F5
S11322C0C82ED12C20C0E20FF31F31978FE32DC00D
S11322D04F5F7401E81AF90AEE0EFF1EC801B60139
S11322E00E94101881508930A0F4A82FB0E0AC5F90
S11322F0BE4F8C91D7018C93C801B6010E9410186F
S11323008B01672B41F0842F90E08A159B0504F321
S113231002C08FE3EFCFD7FF0CC0B9016150710940
S1132320641B7109E60FF71F80E4808302C080E01C
S113233001C081E0DF91CF911F910F91FF90EF9049
S1132340DF90CF90BF90AF909F908F9008950E94A0
S1132350750F66E081E191E00E949C0F0C94B20F2E
S1132360E1E1F1E01082118212821382148215825B
S113237008950E94B50F0E94B0110C94A7111092F9
S11323806F00E1E8F0E080818E7F8083A0E8B0E018
S11323908C918C9380818061808380EA90E090931B
S11323A08700809386001092890010928800109212
S11323B0850010928400559A5D980895E1E8F0E054
S11323C080818E7F80831092870010928600109205
S11323D08500109284001092890010928800A0E871
S11323E0B0E08C918F778C9380818F7E8083559819
S11323F05D98089564E60E944B0D60E00E94460DCE
S1132400282F30E0A0EAB0E00E94461824E630E02D
S113241040E050E00E942418309389002093880003
S113242008951092850010928400109289001092F1
S11324308800E0E8F0E0808180688083E1E8F0E0F3
S11324408081816080830895E0E8F0E080818F7767
S11324508083E1E8F0E080818E7F808310928500A4
S113246010928400089584B18C7F84B985B183600F
S113247085B910921E0110921D0110921C01109238
S11324801901EAE1F1E01082118283E080931801DE
S113249080931701089585B18C7F85B910921E0130
S11324A010921D0110921C0110921901EAE1F1E051
S11324B01082118283E0809318018093170108959C
S11324C020911E0130E0082E02C0359527950A940C
S11324D0E2F720FF11C040911E0121E030E0B90174
S11324E002C0660F771F8A95E2F7CB01809584239B
S11324F080931E0181E0089580E0089520911D01DC
S113250030E0082E02C0359527950A94E2F720FFA3
S113251011C040911D0121E030E0B90102C0660FF5
S1132520771F8A95E2F7CB018095842380931D0160
S113253081E0089580E0089520911C0130E0082E88
S113254002C0359527950A94E2F720FF11C0409107
S11325501C0121E030E0B90102C0660F771F8A95A3
S1132560E2F7CB018095842380931C0181E00895D8
S113257080E008952091190130E0A90102C0559529
S113258047958A95E2F7CA018170089593B1309115
S113259019019095292F2327809118018223809572
S11325A08093180180911701909118018223892743
S11325B080931701909118018091170198239370CB
S11325C0922380911901892780931901409119015F
S11325D04923809119018095892320E030E050E05F
S11325E0082E000C990BE1E0F0E0BA01022E02C0C3
S11325F0759567950A94E2F760FF10C0A0911E01DB
S1132600BF01022E01C0660F0A94EAF76A2B609399
S11326101E01D901A65EBE4F1C9214C0BC01022E3D
S113262002C0759567950A94E2F760FF0BC0A0910C
S11326301D01BF01022E01C0660F0A94EAF76A2B3E
S113264060931D016091190170E0022E02C075951E
S113265067950A94E2F760FF16C0D901A65EBE4FE3
S11326606C91643680F46C916F5F6C93643659F4AA
S1132670A0911C01BF01022E01C0660F0A94EAF763
S11326806A2B60931C012F5F3F4F2230310509F004
S1132690ACCF0895EAE7F0E0808187758083ACE7EA
S11326A0B0E01C928C9180648C93808186608083DE
S11326B080EF80937E0008959FB7F894EAE7F0E0F6
S11326C080818775808310927C008081887F8083DD
S11326D08FEF80937E009FBF089580917A00806879
S11326E080937A0080917A00806480937A0080914C
S11326F07A0086FDFCCF809178009091790008954E
S1132700FC0180917C00807E80937C0080917C0021
S113271080937C0080917A00806480937A00809119
S11327207A0086FDFCCF8091780090917900009723
S113273011F422E005C08F3F23E0920718F021E056
S113274020830895108208958F929F92AF92BF9232
S1132750CF92DF92EF92FF92CF935C01C4E0C12C41
S1132760D12C7601C5010E948013C80ED91EE11C2C
S1132770F11CC150B9F7C701B6010E94451620E00B
S113278030E040E859E30E945A1720E030E040EA84
S113279050E40E945A176B017C0120E030E543ECC1
S11327A057E40E945A174B015C01A701960160E0AF
S11327B070E080EA90E40E94ED149B01AC01C50135
S11327C0B4010E945F15CF91FF90EF90DF90CF90FE
S11327D0BF90AF909F908F9008958F929F92AF92E9
S11327E0BF92CF92DF92EF92FF920E94A4130E94B5
S11327F012176B017C012BE037ED4BE055EB0E9487
S11328005A17A70196010E945A17A70196010E9420
S11328105A174B015C0120EA30E642EF59E3C70145
S1132820B6010E945A1725E539EF46E95AE30E949A
S1132830ED149B01AC01C501B4010E94EE149B018F
S1132840AC0160E070E080E89FE30E945F1523E341
S113285033E948E853E40E94ED14FF90EF90DF90D1
S1132860CF90BF90AF909F908F900895FC0180917E
S11328707C00807E80937C0080917C0081608093CA
S11328807C0080917A00806480937A0080917A0041
S113289086FDFCCF8091780090917900009711F427
S11328A022E005C08F3F23E0920718F021E0208347
S11328B00895108208958F929F92AF92BF92CF9203
S11328C0DF92EF92FF92CF935C01C4E0C12CD12C34
S11328D07601C5010E943614C80ED91EE11CF11CF4
S11328E0C150B9F7C701B6010E94451620E030E097
S11328F040E859E30E945A1720E030E040EA50E4EF
S11329000E945A176B017C0120E030E44CE156E44C
S11329100E945A174B015C01A701960160E070E028
S113292080EA90E40E94ED149B01AC01C501B4015E
S11329300E945F15CF91FF90EF90DF90CF90BF90F2
S1132940AF909F908F9008958F929F92AF92BF9275
S1132950CF92DF92EF92FF920E945B140E941217B3
S11329606B017C0129E436E84CE754E30E945A17D2
S1132970A70196010E945A17A70196010E945A17AF
S11329804B015C0125EE31EC44E559E3C701B60186
S11329900E945A1721EA38EE4CEA5AE30E94EE14D8
S11329A09B01AC01C501B4010E94EE149B01AC0172
S11329B060E070E080E89FE30E945F1523E333E961
S11329C048E853E40E94ED14FF90EF90DF90CF901D
S11329D0BF90AF909F908F9008955058BB27AA271F
S11329E00E9405150C94CB160E94BD1638F00E9467
S11329F0C41620F039F49F3F19F426F40C94AA1657
S1132A000EF4E095E7FB0C94A416E92F0E94DC1663
S1132A1058F3BA17620773078407950720F079F40F
S1132A20A6F50C94FE160EF4E0950B2EBA2FA02DED
S1132A300B01B90190010C01CA01A0011124FF2767
S1132A40591B99F0593F50F4503E68F11A16F04062
S1132A50A22F232F342F4427585FF3CF4695379561
S1132A602795A795F0405395C9F77EF41F16BA0B26
S1132A70620B730B840BBAF09150A1F0FF0FBB1FD4
S1132A80661F771F881FC2F70EC0BA0F621F731F1D
S1132A90841F48F4879577956795B795F7959E3F7A
S1132AA008F0B0CF9395880F08F09927EE0F97950B
S1132AB0879508950E94801608F481E008950E9485
S1132AC073150C94CB160E94C41658F00E94BD16C0
S1132AD040F029F45F3F29F00C94A41651110C9492
S1132AE0FF160C94AA160E94DC1668F39923B1F31E
S1132AF0552391F3951B550BBB27AA276217730720
S1132B00840738F09F5F5F4F220F331F441FAA1FB3
S1132B10A9F335D00E2E3AF0E0E832D0915050406F
S1132B20E695001CCAF72BD0FE2F29D0660F771F1D
S1132B30881FBB1F261737074807AB07B0E809F003
S1132B40BB0B802DBF01FF2793585F4F3AF09E3F88
S1132B50510578F00C94A4160C94FF165F3FE4F32F
S1132B60983ED4F3869577956795B795F7959F5FCB
S1132B70C9F7880F911D9695879597F90895E1E017
S1132B80660F771F881FBB1F621773078407BA0776
S1132B9020F0621B730B840BBA0BEE1F88F7E095D1
S1132BA00895BEE304D008F490E80895BFE3222713
S1132BB03327A9010E94E41660F19F5748F1B91721
S1132BC040F1BFE3B91B9927B8503AF4660F771F59
S1132BD0881F991FB395D2F316C0B8504AF0232F1B
S1132BE0342F452F562F672F782F8827B850BAF7E0
S1132BF0B85F49F0869577956795579547953795CA
S1132C002795BA95B9F716F40E94AD1688940895DD
S1132C10889460E070E0CB0108950E9414166894D3
S1132C20B1110C94FF1608950E94E41688F09F5782
S1132C3098F0B92F9927B751B0F0E1F0660F771FDC
S1132C40881F991F1AF0BA95C9F714C0B13091F0D2
S1132C500E94FE16B1E008950C94FE16672F782F9B
S1132C608827B85F39F0B93FCCF386957795679597
S1132C70B395D9F73EF490958095709561957F4F03
S1132C808F4F9F4F0895E89409C097FB3EF49095A9
S1132C908095709561957F4F8F4F9F4F9923A9F031
S1132CA0F92F96E9BB279395F695879577956795C0
S1132CB0B795F111F8CFFAF4BB0F11F460FF1BC004
S1132CC06F5F7F4F8F4F9F4F16C0882311F096E997
S1132CD011C0772321F09EE8872F762F05C0662345
S1132CE071F096E8862F70E060E02AF09A95660FFE
S1132CF0771F881FDAF7880F9695879597F90895B7
S1132D00990F0008550FAA0BE0E8FEEF16161706F8
S1132D10E807F907C0F012161306E407F50798F060
S1132D20621B730B840B950B39F40A2661F0232B79
S1132D30242B252B21F408950A2609F4A140A695F5
S1132D408FEF811D811D089597F99F6780E870E0DA
S1132D5060E008959FEF80EC0895909580957095BC
S1132D60609550954095309521953F4F4F4F5F4F5B
S1132D706F4F7F4F8F4F9F4F089500240A9416166C
S1132D80170618060906089500240A941216130655
S1132D90140605060895092E0394000C11F48823E3
S1132DA052F0BB0F40F4BF2B11F460FF04C06F5FFF
S1132DB07F4F8F4F9F4F089557FD9058440F551FD5
S1132DC059F05F3F71F04795880F97FB991F61F0A9
S1132DD09F3F79F087950895121613061406551F20
S1132DE0F2CF4695F1DF08C0161617061806991F8C
S1132DF0F1CF86957105610508940895E894BB2781
S1132E0066277727CB0197F908950E94801608F466
S1132E108FEF089516F00C94C7170C94AA166894B3
S1132E200C94A4160E94E416A8F39923C1F3AEF3FC
S1132E30DF93CF931F930F93FF92C92FDD2788232E
S1132E402AF02197660F771F881FDAF720E030E019
S1132E5040E85FEB9FE3883920F0803E38F021960C
S1132E608F770E94EE14ECE7F0E004C00E94EE14A9
S1132E70E9EAF0E00E94D5178B01BE01EC01FB2EBC
S1132E806F5771097595771F880B990B0E9445162A
S1132E9028E132E741E35FE30E946D17AF2D98010B
S1132EA0AE01FF900F911F91CF91DF910E94051504
S1132EB00C94CB160E946D170C94CB160E94BD1671
S1132EC038F00E94C41620F0952311F00C94A41637
S1132ED00C94AA1611240C94FF160E94DC1670F3AD
S1132EE0959FC1F3950F50E0551F629FF001729FAB
S1132EF0BB27F00DB11D639FAA27F00DB11DAA1FBA
S1132F00649F6627B00DA11D661F829F2227B00D06
S1132F10A11D621F739FB00DA11D621F839FA00D91
S1132F20611D221F749F3327A00D611D231F849FE1
S1132F30600D211D822F762F6A2F11249F57504038
S1132F409AF0F1F088234AF0EE0FFF1FBB1F661FB3
S1132F50771F881F91505040A9F79E3F510580F07C
S1132F600C94A4160C94FF165F3FE4F3983ED4F33C
S1132F70869577956795B795F795E7959F5FC1F720
S1132F80FE2B880F911D9695879597F908959F3F7D
S1132F9031F0915020F4879577956795B795880F10
S1132FA0911D9695879597F90895DF93CF931F9375
S1132FB00F93FF92EF92DF927B018C01689406C01D
S1132FC0DA2EEF010E946D17FE01E894A591259178
S1132FD0359145915591A6F3EF010E940515FE0127
S1132FE09701A801DA9469F7DF90EF90FF900F91B1
S1132FF01F91CF91DF910895AA1BBB1B51E107C01C
S1133000AA1FBB1FA617B70710F0A61BB70B881F74
S1133010991F5A95A9F780959095BC01CD01089503
S113302097FB072E16F4009407D077FD09D00E9471
S1133030FC1707FC05D03EF4909581959F4F0895A9
S1133040709561957F4F0895A1E21A2EAA1BBB1BB0
S1133050FD010DC0AA1FBB1FEE1FFF1FA217B30760
S1133060E407F50720F0A21BB30BE40BF50B661F76
S1133070771F881F991F1A9469F76095709580953A
S113308090959B01AC01BD01CF010895A29FB001B1
S1133090B39FC001A39F700D811D1124911DB29F88
S11330A0700D811D1124911D08952A0D3B1D4C1D89
S11330B05D1D6E1D7F1D801F911F08950024A7FDB7
S11330C000942A0F301D401D501D601D701D801D71
S11330D0901D08952A193B094C095D096E097F0961
S11330E0800B910B08952A153B054C055D056E0573
S11330F07F05800791070895DC01CB01FC01F99954
S1133100FECF06C0F2BDE1BDF89A319600B40D922F
S113311041505040B8F70895DC01A40FB51F415049
S1133120504048F0CB01840F951F2E910E949D18AA
S113313041505040D0F70895262FF999FECF92BD03
S113314081BDF89A019700B4021639F01FBA20BD68
S11331500FB6F894FA9AF99A0FBE0895F894FFCF2F
S111316001010000065B4F666D7D077F6F0066
S9030000FC
