:100000000C9497000C94B4000C94B4000C94B400BD
:100010000C94B4000C94B4000C94B4000C94B40090
:100020000C94B4000C94B4000C94B4000C94B40080
:100030000C94B4000C94B4000C94B4000C94B40070
:100040000C947D0F0C94B4000C94B4000C94B40088
:100050000C94B4000C94B4000C94B4000C94B40050
:100060000C94B4000C94B4000C94B4000C94B40040
:100070000C94B4000C94B4000C94B400C209C809E8
:10008000CD09D209D709DC09E1094A0D4F0D540DFC
:10009000590D5E0D670D6A0D431046105410631024
:1000A0006E10841097106611701173117911801100
:1000B0009311AA1108000000BE922449123EABAA77
:1000C000AA2ABECDCCCC4C3E00000080BEABAAAA72
:1000D000AA3E00000000BF000000803F00000000BA
:1000E00000084178D3BB4387D1133D190E3CC3BDF3
:1000F0004282AD2B3E68EC8276BED98FE1A93E4CA0
:1001000080EFFFBE01C4FF7F3F0000000000000041
:1001100000000000000000000000000001000000DE
:100120000000000000000000FFFF0000000011249C
:100130001FBECFEFD0E1DEBFCDBF11E0A0E0B1E048
:10014000EAE4F0E402C005900D92AE30B107D9F7B1
:1001500021E0AEE0B1E001C01D92AE3FB207E1F791
:100160000E940D100C9423200C9400000E94FC159A
:1001700080E008950E94F71980E0089580913E0183
:1001800090913F01181619062CF48091460161E008
:100190008F5F06C0892B59F08091460161E0815044
:1001A0000E943C1360E00E943113809346010E943C
:1001B000AB1880914601882361F0813021F5609170
:1001C000920170919301809194019091950141E089
:1001D00009C060917E0170917F01809180019091B2
:1001E000810140E00E9414100E94A21880914001F9
:1001F00080FF0BC01092460186E19DE0909345017F
:100200008093440102C084E0089580E008958091C5
:100210003E0190913F01892BA1F080917B0191E0FB
:10022000811190E090937B01811103C00E94F10F36
:1002300004C00E94001010927A0188E491E00E94AC
:10024000BF150E94AB1880917B010E94B7110E94DC
:10025000A2188091400180FF09C081E0809346018F
:100260008BE399E0909345018093440180E00895E9
:1002700060913E0170913F016115710549F1072EB2
:10028000000C880B990B0E94761D20E030E040E0C6
:100290005FE30E94C91E20911F013091200140910F
:1002A0002101509122010E941F1C20E030E048EC07
:1002B00052E40E94711320E030E0A9010E94511322
:1002C00060931F017093200180932101909322017C
:1002D0000E94AB1860911F01709120018091210153
:1002E000909122010E94D3110E94A2188091400196
:1002F00080FF09C082E0809346018BE399E09093F0
:1003000045018093440180E00895CF9320913E0100
:1003100030913F0180914601121613061CF463E0F0
:100320008F5F04C0232B49F063E081500E943C138F
:1003300060E00E94311380934601E0914601E43071
:1003400028F4F0E0E050FF4FC08101C0C0E00E94FF
:10035000AB186C2F809146010E9432110E94A218A6
:100360008091400180FF0FC0CC2369F0809146014D
:1003700080933B0183E0809346018BE399E0909367
:1003800045018093440180E0CF9108958F929F9220
:10039000AF92BF92CF92DF92EF92FF920F931F9393
:1003A00060913E0170913F016115710509F471C0C2
:1003B000072E000C880B990B0E94761D2DEC3CEC4F
:1003C0004CEC5DE30E94C91E209123013091240171
:1003D00040912501509126010E941F1C2CE53FEF02
:1003E00049E754E40E94711320E030E0A9010E9423
:1003F0005113AB01BC01409323015093240160933E
:1004000025017093260180902F0190903001A090DB
:100410003101B0903201C0902B01D0902C01E090BE
:100420002D01F0902E0100912701109128012091BB
:10043000290130912A0182E48F9388EC8F931F92D7
:100440001F921F921F921F921F9280913A018F93C9
:10045000809139018F93809138018F93809137017A
:100460008F93809136018F93809135018F93809186
:1004700034018F93809133018F9388E491E00E943F
:10048000ED138DB79EB740960FB6F8949EBF0FBE82
:100490008DBF0E94AB18609123017091240180915F
:1004A0002501909126010E9409120E94A2188091B4
:1004B000400180FF09C081E0809346018EE899E009
:1004C000909345018093440180E01F910F91FF902C
:1004D000EF90DF90CF90BF90AF909F908F90089556
:1004E0008F929F92AF92BF92CF92DF92EF92FF9244
:1004F0000F931F9360913E0170913F01611571054B
:1005000009F471C0072E000C880B990B0E94761D10
:100510002DEC3CEC4CEC5DE30E94C91E20912701C0
:10052000309128014091290150912A010E941F1CFD
:100530002CE53FEF49E754E40E94711320E030E0DE
:10054000A9010E9451138B019C01609327017093B4
:1005500028018093290190932A0180902F01909087
:100560003001A0903101B0903201C0902B01D090A9
:100570002C01E0902D01F0902E014091230150912B
:100580002401609125017091260182E48F9388EC0B
:100590008F931F921F921F921F921F921F92809102
:1005A0003A018F93809139018F93809138018F9315
:1005B000809137018F93809136018F93809135011F
:1005C0008F93809134018F93809133018F9388E4CE
:1005D00091E00E94ED138DB79EB740960FB6F89448
:1005E0009EBF0FBE8DBF0E94AB1860912701709116
:1005F00028018091290190912A010E9407120E94EE
:10060000A2188091400180FF09C082E080934601DA
:100610008EE899E0909345018093440180E01F911A
:100620000F91FF90EF90DF90CF90BF90AF909F9091
:100630008F9008958F929F92AF92BF92CF92DF9248
:10064000EF92FF920F931F9360913E0170913F01D3
:100650006115710509F471C0072E000C880B990B08
:100660000E94761D2DEC3CEC4CEC5DE30E94C91E13
:1006700020912B0130912C0140912D0150912E01A0
:100680000E941F1C2CE53FEF49E754E40E947113C0
:1006900020E030E0A9010E9451136B017C016093BE
:1006A0002B0170932C0180932D0190932E0180904B
:1006B0002F0190903001A0903101B0903201009153
:1006C0002701109128012091290130912A014091A0
:1006D000230150912401609125017091260182E44B
:1006E0008F9388EC8F931F921F921F921F921F92DD
:1006F0001F9280913A018F93809139018F9380915D
:1007000038018F93809137018F93809136018F93B9
:10071000809135018F93809134018F9380913301C3
:100720008F9388E491E00E94ED138DB79EB74096B9
:100730000FB6F8949EBF0FBE8DBF0E94AB1860919C
:100740002B0170912C0180912D0190912E010E941E
:1007500005120E94A2188091400180FF09C083E029
:10076000809346018EE899E090934501809344017F
:1007700080E01F910F91FF90EF90DF90CF90BF909E
:10078000AF909F908F9008958F929F92AF92BF925B
:10079000CF92DF92EF92FF920F931F9360913E01F1
:1007A00070913F016115710509F471C0072E000CAD
:1007B000880B990B0E94761D2DEC3CEC4CEC5DE314
:1007C0000E94C91E20912F013091300140913101CA
:1007D000509132010E941F1C20E030E040E85FE3AE
:1007E0000E94711320E030E0A9010E9451134B01D7
:1007F0005C0160932F0170933001809331019093DD
:100800003201C0902B01D0902C01E0902D01F0908E
:100810002E0100912701109128012091290130918A
:100820002A0140912301509124016091250170918A
:10083000260182E48F9388EC8F931F921F921F9260
:100840001F921F921F9280913A018F9380913901DC
:100850008F93809138018F93809137018F9380918E
:1008600036018F93809135018F93809134018F935E
:10087000809133018F9388E491E00E94ED138DB74E
:100880009EB740960FB6F8949EBF0FBE8DBF0E94D4
:10089000AB1860912F0170913001809131019091DE
:1008A00032010E9403120E94A2188091400180FF31
:1008B00009C084E0809346018EE899E09093450159
:1008C0008093440180E01F910F91FF90EF90DF90A3
:1008D000CF90BF90AF909F908F9008956F927F922E
:1008E0008F929F92AF92BF92CF92DF92EF92FF9240
:1008F0000F931F9360913E0170913F016115710547
:1009000009F478C0072E000C880B990B0E94761D05
:1009100020E030E040E05FE30E94C91E20913301F7
:100920003091340140913501509136010E941F1CD5
:1009300020E030E048E452E40E94711320E030E00F
:1009400048E452EC0E945113F62F772E682EE92FBF
:10095000862F972DA62DBE2F8093330190933401BF
:10096000A0933501B093360180902F019090300113
:10097000A0903101B0903201C0902B01D0902C0199
:10098000E0902D01F0902E01009127011091280197
:100990002091290130912A01409123015091240195
:1009A000609125017091260182E48F9388EC8F93EA
:1009B0001F921F921F921F921F921F9280913A01C5
:1009C0008F93809139018F93809138018F9380911B
:1009D00037018F93EF936F927F92FF9388E491E0BA
:1009E0000E94ED138DB79EB740960FB6F8949EBF48
:1009F0000FBE8DBF0E94AB1860913301709134011E
:100A000080913501909136010E94EB110E94A2184D
:100A10008091400180FF09C085E0809346018EE807
:100A200099E0909345018093440180E01F910F91DC
:100A3000FF90EF90DF90CF90BF90AF909F908F90FE
:100A40007F906F9008956F927F928F929F92AF9256
:100A5000BF92CF92DF92EF92FF920F931F9360911C
:100A60003E0170913F016115710509F477C0072EB1
:100A7000000C880B990B0E94761D2AE037ED43EAA3
:100A80005BE30E94C91E20913701309138014091EB
:100A9000390150913A010E941F1C20E030E040E8EB
:100AA0005FE30E94711320E030E0A9010E9451131E
:100AB000F62F772E682EE92F862F972DA62DBE2F85
:100AC0008093370190933801A0933901B0933A0194
:100AD00080902F0190903001A0903101B0903201B0
:100AE000C0902B01D0902C01E0902D01F0902E01B0
:100AF00000912701109128012091290130912A01AC
:100B000040912301509124016091250170912601AB
:100B100082E48F9388EC8F931F921F921F921F92F3
:100B20001F921F92EF936F927F92FF9380913601F5
:100B30008F93809135018F93809134018F938091B1
:100B400033018F9388E491E00E94ED138DB79EB737
:100B500040960FB6F8949EBF0FBE8DBF0E94AB1893
:100B600060913701709138018091390190913A017B
:100B70000E940B120E94A2188091400180FF09C0C0
:100B800086E0809346018EE899E09093450180933A
:100B9000440180E01F910F91FF90EF90DF90CF9084
:100BA000BF90AF909F908F907F906F9008958091AD
:100BB0003E0190913F01009729F12091780164E670
:100BC00070E0820F911D0E94411360E070E00E946E
:100BD00036138093780190917C01911105C0882390
:100BE00039F00E94251904C0811102C00E942F19FA
:100BF0008091780191E0811101C090E090937C0197
:100C00000E940E190E94AB18809178010E943F1239
:100C10000E94A2188091400180FF09C081E080936A
:100C200046018BEE99E0909345018093440180E06A
:100C3000089580913E0190913F01009739F12091F4
:100C4000790164E670E0820F911D0E94411360E01B
:100C500070E00E9436138093790180933C0190915B
:100C60007D01911105C0882339F00E94501904C0FC
:100C7000811102C00E945A198091790191E081117D
:100C800001C090E090937D010E9439190E94AB1839
:100C9000809179010E9423120E94A2188091400144
:100CA00080FF09C081E08093460186E29AE090933C
:100CB00045018093440180E008950E94AB18609143
:100CC00082017091830180918401909185010E943D
:100CD0006E120E94A2188091400180FF09C081E03D
:100CE0008093460181E69AE0909345018093440108
:100CF00080E008950E94AB18609196017091970171
:100D000080919801909199010E946E120E94A21800
:100D10008091400180FF09C082E08093460181E616
:100D20009AE0909345018093440180E008950E94E9
:100D3000AB180E947D120E94A2188091400180FF92
:100D400009C083E08093460181E69AE090934501D3
:100D50008093440180E008950E94AB180E947D12A8
:100D60000E94A2188091400180FF09C084E0809316
:100D7000460181E69AE0909345018093440180E02A
:100D800008954F925F926F927F928F929F92AF924F
:100D9000BF92CF92DF92EF92FF920F931F93CF9368
:100DA000DF9387E491E00E941E1B60937E017093A5
:100DB0007F018093800190938101C0914701C1110F
:100DC00048C280914401909145018D55964091F023
:100DD000C0907E01D0907F01E0908001F090810171
:100DE00020E030E0A901C701B6010E948B1C87FFFB
:100DF00012C04DC087E491E00E94D51A6093820131
:100E0000709383018093840190938501C091470181
:100E1000CC23F1F21EC220E030E048E453E4C701E5
:100E2000B6010E94741E18160CF43EC080917A011F
:100E300081113CC080917A0181116DC087E491E0FD
:100E40000E94D51B6093920170939301809394014B
:100E500090939501C0914701C111FBC1809144015C
:100E6000909145018A57964009F4B1C0C090920113
:100E7000D0909301E0909401F090950120E030E053
:100E8000A901C701B6010E948B1C87FF02C0C6E002
:100E9000E0C120E030E048E453E4C701B6010E941D
:100EA000741E18160CF0A6C0C5E0D3C120918601AF
:100EB000309187014091880150918901C701B601A5
:100EC0000E941E1C20E030E040E85FE30E948B1C83
:100ED00087FFB0CF0E943A0FA0908A01B0908B019B
:100EE000C0908C01D0908D01E0908E01F0908F0128
:100EF00000919001109191010E94DF1F0E946E0DE0
:100F000020E030E040E752E40E94741E18160CF016
:100F100091CFC3E09EC1209186013091870140911D
:100F200088015091890160917E0170917F018091CB
:100F30008001909181010E941E1C20E030E040E879
:100F40005FE30E94741E87FD79CF0E943A0FA09044
:100F50008A01B0908B01C0908C01D0908D01E090FF
:100F60008E01F0908F0100919001109191010E94EB
:100F7000DF1F0E946E0D20E030E040E752E40E9447
:100F80008B1C18160CF45ACF80917E0190917F0132
:100F9000A0918001B0918101809386019093870197
:100FA000A0938801B09389010E943A0F20938A018F
:100FB00030938B0140938C0150938D0160938E018F
:100FC00070938F01809390019093910137CF87E4C4
:100FD00091E00E948C1B609396017093970180931F
:100FE00098019093990180914701882309F43ECF9D
:100FF000C82F2FC180913B01813009F097C08091AB
:101000007A01811105C080917A01811135C08EC0AD
:1010100020919A0130919B0140919C0150919D013A
:10102000C701B6010E941E1C20E030E040E85FE3EB
:101030000E948B1C87FFE7CF0E943A0FA0909E0171
:10104000B0909F01C090A001D090A101E090A201BA
:10105000F090A3010091A4011091A5010E94DF1F4F
:101060000E946E0D20E030E046E953E40E94741EB9
:1010700018160CF44ECFC7CF20919A0130919B01E6
:1010800040919C0150919D0160919201709193015A
:1010900080919401909195010E941E1C20E030E007
:1010A00040E85FE30E94741E87FD40C00E943A0F33
:1010B000A0909E01B0909F01C090A001D090A1018E
:1010C000E090A201F090A3010091A4011091A5016C
:1010D0000E94DF1F0E946E0D20E030E046E953E4DD
:1010E0000E948B1C181614F180919201909193012B
:1010F000A0919401B091950180939A0190939B01E6
:10110000A0939C01B0939D010E943A0F20939E01F1
:1011100030939F014093A0015093A1016093A201DD
:101120007093A3018093A4019093A50180917B010A
:10113000882309F48EC080913B01882361F08130BF
:1011400009F086C040919201509193016091940101
:101150007091950108C040917E0150917F0160918E
:1011600080017091810100911F0110912001209157
:1011700021013091220188E491E00E9439142B0171
:101180003C0180907E0190907F01A0908001B09002
:10119000810120E030E04CE053E4C501B4010E943D
:1011A000741EF0907A0118160CF44AC0C301B20103
:1011B0000E94451DD62F633608F443C0F11044C089
:1011C00081E080937A018092860190928701A092BB
:1011D0008801B09289010E943A0F20938A013093CE
:1011E0008B0140938C0150938D0160938E0170931D
:1011F0008F01809390019093910180919201909141
:101200009301A0919401B091950180939A019093DC
:101210009B01A0939C01B0939D010E943A0F2093E3
:101220009E0130939F014093A0015093A1016093D0
:10123000A2017093A3018093A4019093A50104C01F
:10124000D0E0F11010927A018D2F0E94E00F01C0C2
:10125000C4E08C2FDF91CF911F910F91FF90EF9001
:10126000DF90CF90BF90AF909F908F907F906F90C6
:101270005F904F90089580913E0190913F01181624
:1012800019062CF48091460164E08F5F06C0892B1B
:1012900059F08091460164E081500E943C1360E067
:1012A0000E943113809346010E94AB188091460141
:1012B0000E94B0100E94A2188091400180FF2CC0B3
:1012C000809146018230C9F04CF4882381F081304E
:1012D00019F51092460187E091E01AC0833091F031
:1012E0008430D1F4109246018EE899E011C081E07B
:1012F0008093460186E19DE00BC01092460188E391
:1013000091E006C080913B018093460185E891E021
:10131000909345018093440180E0089580913E01BF
:1013200090913F01181619062CF48091460166E051
:101330008F5F06C0892B59F08091460166E081508D
:101340000E943C1360E00E943113809346010E948A
:10135000AB18809146010E945C110E94A2188091F6
:10136000400180FF36C0E09146018E2FEE0F990BB1
:10137000AA0BBB0B8730910560F5FC01E25CFF4FC7
:101380000C94B51F84E0809346018BE399E01DC067
:101390001092460186EC91E018C01092460180E759
:1013A00092E013C0109246018AE193E00EC01092C1
:1013B000460184EC93E009C0109246018EE694E069
:1013C00004C01092460183E295E09093450180931A
:1013D000440180E0089580913E0190913F011816EC
:1013E00019062CF48091460161E08F5F06C0892BBD
:1013F00059F08091460161E081500E943C1360E009
:101400000E943113809346010E94AB1880914601DF
:101410000E9430110E94A2188091400180FF14C0E8
:1014200080914601882339F0813071F41092460191
:1014300087ED95E005C082E08093460186E19DE05E
:10144000909345018093440180E0089580913E018E
:1014500090913F01181619062CF48091460161E025
:101460008F5F06C0892B59F08091460161E0815061
:101470000E943C1360E00E943113809346010E9459
:10148000AB18809146010E9410110E94A218809111
:10149000400180FF14C080914601882339F08130DB
:1014A00071F41092460189E196E005C083E08093D3
:1014B000460186E19DE0909345018093440180E0E0
:1014C000089580913E0190913F01181619062CF461
:1014D0008091460164E08F5F06C0892B59F08091AE
:1014E000460164E081500E943C1360E00E94311389
:1014F000809346010E94AB18809146010E944112E0
:101500000E94A2188091400180FF2AC0809146016C
:101510008230C9F04CF4882381F0813009F51092B3
:1015200046018DE596E018C0833091F08430C1F417
:10153000109246018CEA96E00FC084E08093460149
:1015400086E19DE009C0109246018AE796E004C05A
:101550001092460187E996E09093450180934401FB
:1015600080E00895EFE1F1E010A2178E11A212A21F
:1015700013A214A20895CF93DF930E94B20A0E948F
:10158000F015CFE1D1E098A38F8F80E00E94EB1996
:101590009CA1892B8CA380E00E94911999A1892B91
:1015A00089A380E00E94CD199AA1892B8AA380E0AB
:1015B0000E94AF199BA1892B8BA3EDA1FEA1DF9106
:1015C000CF91099480914701882341F00E94AB1884
:1015D000809147010E9485120C94A2180895EFE1B2
:1015E000F1E080E090E0A8ECB1E480839183A283F5
:1015F000B38380E090E0A0E7B1E484839583A68381
:10160000B78380E090E0A0E7B2E480879187A2876B
:10161000B38780E090E0A0EAB0E484879587A6874E
:10162000B78780E090E0A0E8BFE3808B918BA28B2E
:10163000B38B148A158A168A178A86E696E6A6E67A
:10164000BFE3808F918FA28FB38F148E82E3858F3B
:101650000895CF93DF93CDB7DEB76F970FB6F894A9
:10166000DEBF0FBECDBF8AE289838EE1EFE1F1E0FC
:10167000DE01129601900D928A95E1F74FE150E05C
:1016800060E070E0CE0101960E9401206F960FB6D7
:10169000F894DEBF0FBECDBFDF91CF9108958F923A
:1016A0009F92AF92BF92CF92DF92EF92FF920F93F1
:1016B0001F93CF93DF93CDB7DEB76F970FB6F89434
:1016C000DEBF0FBECDBF4FE150E060E070E0CE0165
:1016D00001960E94F11F89818A3229F00E94EF0A47
:1016E0000E94290B09C08EE1FE013296AFE1B1E004
:1016F00001900D928A95E1F780902F019090300132
:10170000A0903101B0903201C0902B01D0902C01FB
:10171000E0902D01F0902E010091270110912801F9
:101720002091290130912A014091230150912401F7
:10173000609125017091260182E48F9388EC8F934C
:101740001F921F921F921F921F921F9280913A0127
:101750008F93809139018F93809138018F9380917D
:1017600037018F93809136018F93809135018F934C
:10177000809134018F93809133018F9388E491E0BD
:101780000E94ED130FB6F894DEBF0FBECDBF6F966B
:101790000FB6F894DEBF0FBECDBFDF91CF911F9182
:1017A0000F91FF90EF90DF90CF90BF90AF909F9000
:1017B0008F9008958F929F92AF92BF92CF92DF92B7
:1017C000EF92FF920F931F93CF93109247010E94C5
:1017D000770D0E94B4180E9464190E94D1150E94CE
:1017E0004F0B1092780190913C01909379011092E7
:1017F0007B0110927C0181E0911101C080E0809317
:101800007D0110927A010E94BA180E942F198091CE
:1018100079010E94391980917D01882319F00E9475
:10182000501902C00E945A190E94BC0F0E94001059
:1018300080902F0190903001A0903101B090320142
:10184000C0902B01D0902C01E0902D01F0902E0142
:1018500000912701109128012091290130912A013E
:10186000409123015091240160912501709126013E
:1018700082E48F9388EC8F931F921F921F921F9286
:101880001F921F9280913A018F93809139018F931B
:10189000809138018F93809137018F938091360129
:1018A0008F93809135018F93809134018F93809134
:1018B00033018F9388E491E00E9491130E947B1A78
:1018C00020E041EC56E06AE077ED83EA9CE30E9479
:1018D0004B0F21E04BEB5AE06AE077ED83E29DE3AA
:1018E0000E944B0F22E046EB50E06FE672E183E886
:1018F0009AE30E944B0F23E04AEB50E06AE077ED59
:1019000083EA9BE30E944B0F0E94B20A8EEB90E0A9
:1019100090934501809344010E949E1A87E491E0D0
:101920000E941E1B60937E0170937F018093800153
:10193000909381018DB79EB740960FB6F8949EBFE5
:101940000FBE8DBF80914701811146C087E491E0B1
:101950000E94D51A60938201709383018093840161
:101960009093850180914701811136C087E491E011
:101970000E94D51B60939201709393018093940110
:101980009093950180914701811126C087E491E0F1
:101990000E948C1B6093960170939701809398012D
:1019A0009093990180914701811116C00E94C40D46
:1019B00010923D01C1E080913D01811109C00E945A
:1019C000330E809347018823B1F3C0933D01F3CFD9
:1019D000C0914701CC2379F00E94CF0F0E94EC18F0
:1019E0000E948D1A0E94E8150E947C190E94E20A4A
:1019F000C09147010EC00E94ED0D0E94EC180E949C
:101A0000CF0F0E948D1A0E94E8150E947C190E9437
:101A1000F3168C2FCF911F910F91FF90EF90DF90D5
:101A2000CF90BF90AF909F908F90089580913E018E
:101A300090913F01181619062CF48091460166E03A
:101A40008F5F06C0892B59F08091460166E0815076
:101A50000E943C1360E00E943113809346010E9473
:101A6000AB18809146010E9439100E94A218809103
:101A7000400180FF31C0E09146018E2FEE0F990B9F
:101A8000AA0BBB0B8730910538F5FC01EB5BFF4FD0
:101A90000C94B51F109246018EEB90E013C010928B
:101AA00046018BE399E00EC0109246018BEE99E05F
:101AB00009C01092460186E29AE004C010924601E5
:101AC00081E69AE0909345018093440105C00E940D
:101AD0004F0B02C00E94290B80E008950E94B11DA7
:101AE00028E33EE94FEC58E30E94C91E0895109286
:101AF000F6011092F7011092F8011092F90110927C
:101B0000FA011092FB011092FC011092FD0110925B
:101B1000EE011092EF011092F0011092F10110927B
:101B2000F2011092F3011092F4011092F501E6EA2D
:101B3000F1E01082118212821382148215821682C1
:101B400017821086118612861386148615861686CD
:101B50001786118A108A729681E0EE3EF80749F7DF
:101B600080916E008C7F80936E0085B5887F85BDE7
:101B700084B5826084BD82E687BD80916E008260FC
:101B800080936E00789408951092F6011092F701F8
:101B90001092F8011092F9011092FA011092FB01D3
:101BA0001092FC011092FD011092EE011092EF01D3
:101BB0001092F0011092F1011092F2011092F301D3
:101BC0001092F4011092F50116BC85B5826085BDB6
:101BD000089585B5887F85BD08950E94E90D80919F
:101BE0006E008D7F80936E0084B58D7B84BD16BCA6
:101BF00017BC1092F6011092F7011092F8011092A2
:101C0000F9011092FA011092FB011092FC0110925E
:101C1000FD011092EE011092EF011092F00110926E
:101C2000F1011092F2011092F3011092F40110925E
:101C3000F501E6EAF1E01082118212821382148229
:101C400015821682178210861186128613861486D4
:101C5000158616861786118A108A729681E0EE3EE6
:101C6000F80749F708952F923F924F925F926F9233
:101C70007F928F929F92AF92BF92CF92DF92EF921C
:101C8000FF920F931F93CF93DF93CDB7DEB7629789
:101C90000FB6F894DEBF0FBECDBFEFB7F89420911A
:101CA000F6013091F7014091F8015091F9016091EE
:101CB000FA017091FB018091FC019091FD01A090CF
:101CC000EE01B090EF01C090F001D090F101E090F2
:101CD000F201F090F3010091F4011091F5010E94DE
:101CE000DF1F2F83388749875A876B877C878D87CB
:101CF0009E877091F6016091F7015091F801409133
:101D0000F9013091FA012091FB019091FC01809141
:101D1000FD017093EE016093EF015093F001409349
:101D2000F1013093F2012093F3019093F401809339
:101D3000F501EFBF86EA91E0988B8F87EF85F889F0
:101D40000088F189E02DFE83ED83EF2B51F48F8520
:101D500098894296988B8F878E5E914079F780E0C4
:101D600070C02F81388549855A856B857C858D8526
:101D70009E85EF85F889A084B184C284D384E484ED
:101D8000F584068517850E94CA1F19012A013B01A7
:101D90004C01208731864287538664877586868703
:101DA0009786B081A181F281F98BEF85F889F38163
:101DB000FA8BEF85F889F481F983EF85F889F5814D
:101DC000FA83EF85F889F681FB83EF85F889F7813F
:101DD000FC83AB2EBA2EC988DA88E980FA800B81A1
:101DE0001F2F0E94E81F08F4B2CF0E94DF1F1901C5
:101DF0002A013B014C012B2F3A2FA601B701C80144
:101E00005101620173018401EF85F8890E94E81F86
:101E100051F048F020863186428653866486758666
:101E20008686978608C010861186128613861486C9
:101E3000158616861786ED81FE810995882309F49B
:101E400086CF62960FB6F894DEBF0FBECDBFDF918E
:101E5000CF911F910F91FF90EF90DF90CF90BF90A7
:101E6000AF909F908F907F906F905F904F903F903A
:101E70002F9008952091EE013091EF014091F001F3
:101E80005091F1016091F2017091F3018091F401A0
:101E90009091F50108950F931F93CF93DF938A01DB
:101EA00032E1239FE0011124CA55DE4F28E33EE9C9
:101EB0004FEC58E30E94901C20E030E040E05FE3EC
:101EC0000E941F1C0E94071D288339834A835B835D
:101ED0006C837D838E839F83FE01389618861182E2
:101EE000128213821482158216821782198B088B34
:101EF000DF91CF911F910F9108951F920F920FB60E
:101F00000F9211242F933F934F935F936F937F937F
:101F10008F939F93AF932091F6013091F7014091F9
:101F2000F8015091F9016091FA017091FB018091E3
:101F3000FC019091FD01A1E00E94D31F2093F601C6
:101F40003093F7014093F8015093F9016093FA013F
:101F50007093FB018093FC019093FD01AF919F91E1
:101F60008F917F916F915F914F913F912F910F9042
:101F70000FBE0F901F90189510927000E1EBF0E0EB
:101F80008081887F8083E0EBF0E0808181608083C6
:101F90001092B3001092B200579A5F980895E1EB47
:101FA000F0E08081887F80831092B2001092B300AD
:101FB000E0EBF0E080818E77808357985F980895FA
:101FC00064E60E944C1360E00E9447132FEF829F4B
:101FD000C001112464E670E00E946B1F6093B3009F
:101FE00008951092B2001092B300E0EBF0E080810F
:101FF00080688083E1EBF0E08081876080830895D2
:10200000E0EBF0E080818F778083E1EBF0E080818E
:10201000887F80831092B20008950E94DA0B8111AC
:10202000FFCF80E090E00895CF92DF92EF92FF9291
:102030000F936B017C01413049F030F0423041F0A8
:10204000433051F46FEC05C06FEB03C066E801C08C
:102050006BED80E00E94F51605E021E041E0C7014C
:10206000B6010E9400170F91FF90EF90DF90CF9084
:10207000089590E08730910508F071C0FC01E45BA1
:10208000FF4F0C94B51F60E480E067C064E780E018
:102090000E94F51669E781E00E94F51667E782E085
:1020A0000E94F51668E70DC06DE680E00E94F51607
:1020B00068E781E00E94F51666E082E00E94F5166E
:1020C00060E583E04AC061E780E00E94F51667E7BB
:1020D00081E00E94F51664E582E03FC068EF80E091
:1020E0000E94F51669E381E00E94F51667E782E039
:1020F0000E94F51668E383E00E94F51666E084E02E
:102100000E94F5166CE728C068E380E00E94F5168F
:102110006CE581E00E94F51667E782E00E94F51603
:102120006EED83E00E94F5166DEE84E016C06DE65C
:1021300080E00E94F51668E781E00E94F5166CE5E4
:1021400082E00E94F51660E583E00E94F51669EFD3
:1021500084E00E94F5166DEE85E00C94F516089566
:10216000823039F128F4882351F0813079F00895D4
:102170008430D9F160F1853009F442C0089560E4FB
:1021800080E00E94F51660E481E048C06CE580E0E4
:102190000E94F51664E581E00E94F5166CE582E088
:1021A0000E94F51661E783E00E94F51661E784E07E
:1021B00035C068E780E00E94F5166FEE81E00E946E
:1021C000F51668E782E00E94F51663E726C068EF1F
:1021D00080E00E94F5166DE681E00E94F51669E741
:1021E00082E00E94F51668E318C063E780E00E9471
:1021F000F51666E081E00E94F5166EE582E00EC0FD
:102200006CE580E00E94F51661E781E00E94F5161A
:1022100061E782E00E94F5166DE683E00C94F51606
:10222000882319F0813041F0089560E480E00E9435
:10223000F51660E481E012C06DE680E00E94F516BC
:1022400063E781E00E94F51669E782E00E94F516D7
:1022500069E783E00E94F5166EE584E00C94F516BC
:102260000C941011662301F1813089F050F0823016
:10227000A1F08330C9F468E784E00E94F5166FE4AA
:1022800011C068E784E00E94F5166FE30BC068E7B1
:1022900084E00E94F51666E005C068E784E00E94CD
:1022A000F5166BE585E006C064E580E00E94F51652
:1022B00069E381E00C94F51690E08730910508F011
:1022C00055C0FC01ED5AFF4F0C94B51F60E480E04F
:1022D0000E94F51660E481E00E94F51660E443C0B8
:1022E00063E780E041C068E780E00E94F51666E0A1
:1022F00005C068E780E00E94F5166EE581E034C015
:1023000066E080E00E94F51660E481E00E94F51628
:1023100069E382E00E94F51668E383E00E94F51607
:1023200063E784E021C06CE580E00E94F51661E778
:1023300081E00E94F51661E782E00E94F5166DE6E5
:1023400083E00E94F51669E784E00E94F51668E7CD
:1023500085E00AC06EE580E00E94F5166DE681E03A
:102360000E94F51661E782E00C94F516089560E38B
:10237000882351F080E00E94F5166CE581E00E9410
:10238000F51664E582E00DC080E00E94F5166CE56C
:1023900081E00E94F51661E782E00E94F51661E790
:1023A00083E00C94F516CF92DF92EF92FF920F9399
:1023B0006B017C0160E380E00E94F51605E021E0FE
:1023C00041E0C701B6010E9400170F91FF90EF9006
:1023D000DF90CF900895CF92DF92EF92FF920F930C
:1023E0006B017C0160E380E00E94F51605E022E0CD
:1023F00041E0C701B6010E9400170F91FF90EF90D6
:10240000DF90CF9008950C94EB110C94EB110C9489
:10241000EB110C94EB11CF92DF92EF92FF920F939E
:102420006B017C0160E380E00E94F51605E023E08B
:1024300041E0C701B6010E9400170F91FF90EF9095
:10244000DF90CF900895CF93C82F60E380E00E9483
:10245000F516CC2339F045E061E08C2F90E0CF9168
:102460000C942B186CE581E00E94F51661E782E080
:102470000E94F51661E783E0CF910C94F5160C9459
:1024800023128230B9F028F4882341F0813061F0C2
:1024900008958330A9F08430C9F0089560E480E0A5
:1024A0000E94F51660E417C068E780E00E94F51608
:1024B0006FE311C068E780E00E94F51666E00BC08C
:1024C00068E780E00E94F5166BE505C068E780E0EC
:1024D0000E94F5166FE481E00C94F5160F939F7738
:1024E00020E030E04AE754E40E94901C06E023E03C
:1024F00040E00E9400170F91089564E580E00E947B
:10250000F51669E381E00C94F516833009F443C0B5
:10251000D8F4813051F1823009F07CC068E780E066
:102520000E94F51664EF81E00E94F5166DE682E0E8
:102530000E94F51664E783E00E94F51660E584E0EA
:102540000E94F51668E752C0853009F451C0C8F101
:10255000863009F05FC068E780E00E94F51664EFFE
:1025600081E00E94F51668E34CC068E780E00E94B5
:10257000F51664EF81E00E94F5166CE582E00E949A
:10258000F51663E783E00E94F51669E784E00E9490
:10259000F51664E52BC068E780E00E94F51664EF4D
:1025A00081E00E94F51664E582E00E94F51660E580
:1025B00083E00E94F51669E784E00E94F5166DE657
:1025C00015C068E780E00E94F51664EF81E00E9484
:1025D000F51664E582E00E94F5166CE583E00E9442
:1025E000F51663E784E00E94F51669E785E024C0EC
:1025F00068E780E00E94F51664EF81E00E94F5161E
:1026000064E782E00E94F51668E783E00E94F51611
:1026100063E711C069E780E00E94F51660E581E09C
:102620000E94F51660E582E00E94F5166CE583E0F5
:102630000E94F51660E584E00C94F516AC0120E0EC
:1026400081E090E03AE0622F70E06417750744F48F
:10265000BC01369FC001379F900D11242F5FF3CF2F
:10266000089568170CF4682F862F08956817790766
:102670000CF4BC01CB01089586170CF4682F862F4B
:102680000895861797070CF4BC01CB0108956817CD
:1026900008F4682F862F0895861708F4682F862F70
:1026A0000895CF92DF92EF92FF920F931F93CF93F3
:1026B000DF938B01D82FC92F69017A010E94741E04
:1026C00018161CF08601DE2DCF2DB8018D2F9C2F02
:1026D000DF91CF911F910F91FF90EF90DF90CF90FE
:1026E0000895CF92DF92EF92FF920F931F93CF93B3
:1026F000DF938B01D82FC92F69017A010E948B1CAF
:1027000087FD03C08601DE2DCF2DB8018D2F9C2FB4
:10271000DF91CF911F910F91FF90EF90DF90CF90BD
:1027200008958F929F92AF92BF92CF92DF92EF92D5
:10273000FF920F931F93CF93DF93CDB7DEB7FC01CA
:10274000408B518B628B738B048B158B268B378B55
:10275000C08ED18EE28EF38E848E958EA68EB78E2D
:102760008B8D9C8DAD8DBE8D84A795A7A6A7B7A791
:102770008F89988DA98DBA8D80A791A7A2A7B3A79D
:102780008F859889A989BA8980A391A3A2A3B3A3AD
:102790008B899C89AD89BE8984A395A3A6A3B7A381
:1027A000108211821282138214821582168217827D
:1027B000108611861286138614861586168617864D
:1027C000DF91CF911F910F91FF90EF90DF90CF900D
:1027D000BF90AF909F908F9008958F929F92AF92ED
:1027E000BF92CF92DF92EF92FF920F931F93CF93FE
:1027F000DF93CDB7DEB7FC01408B518B628B738BBF
:10280000048B158B268B378BC08ED18EE28EF38E88
:10281000848E958EA68EB78E8B8D9C8DAD8DBE8D44
:1028200084A795A7A6A7B7A78F89988DA98DBA8DDC
:1028300080A791A7A2A7B3A78F859889A989BA89EC
:1028400080A391A3A2A3B3A38B899C89AD89BE89E0
:1028500084A395A3A6A3B7A3DF91CF911F910F9156
:10286000FF90EF90DF90CF90BF90AF909F908F90B0
:1028700008954F925F926F927F928F929F92AF9244
:10288000BF92CF92DF92EF92FF920F931F93CF935D
:10289000DF93CDB7DEB76A970FB6F894DEBF0FBEF1
:1028A000CDBF9A8F898F49835A836B837C83C901FB
:1028B000B80129813A814B815C810E941E1C6D8781
:1028C0007E878F87988BA98DBA8D50968D919D911B
:1028D0000D90BC91A02D89879A87AB87BC879C01FE
:1028E000AD016D857E858F8598890E94C91EE98D11
:1028F000FA8D20A131A142A153A10E941F1C6D831A
:102900007E838F839887A98DBA8D94964D905D9024
:102910006D907C909797A301920160E070E080E851
:102920009FE30E941E1C6B017C01E98DFA8D2081C2
:1029300031814281538169817A818B819C810E949E
:102940001E1C2AE037ED43EA5CE30E94901CA701BD
:1029500096010E94C91E4B015C01A98DBA8D189683
:102960002D913D914D915C911B97C301B2010E9445
:10297000C91E9B01AC01C501B4010E941F1C4B0183
:102980005C01E98DFA8D6087718782879387248542
:10299000358546855785C701B6010E94C91E2B01A2
:1029A0003C01A5019401C701B6010E94C91E9B010B
:1029B000AC01C301B2010E941F1C6B017C01A98DF7
:1029C000BA8D1C966D937D938D939C931F9758960B
:1029D0002D913D914D915C915B9769857A858B85B1
:1029E0009C850E94C91EA70196010E94C91E9B01D9
:1029F000AC016D817E818F8198850E941E1C6B01C8
:102A00007C0189819A81AB81BC81E98DFA8D8083BB
:102A10009183A283B38384A595A5A6A5B7A5898331
:102A20009A83AB83BC83A7019601BC01CD010E94B0
:102A30001E1C20E030E0A9010E9451134B015C01F3
:102A4000A98DBA8D5C968D919D910D90BC91A02D14
:102A50008D839E83AF83B887E98DFA8D40A451A4FE
:102A600062A473A4A7019601C301B2010E941E1CB7
:102A700020E030E0A9010E947113698B7A8B8B8B67
:102A80009C8BA98DBA8D54966D917D918D919C9161
:102A900057972DEB37E346E054E30E9451136D8BBB
:102AA0007E8B8F8B988F2D813E814F815885C501FC
:102AB000B4010E94C91E4B015C012D893E894F89DA
:102AC000588D69857A858B859C850E94901C2D8503
:102AD0003E854F8558890E94C91E2AE037ED43EA9A
:102AE0005CE30E94C91EE98DFA8D248135814681FF
:102AF00057810E941F1CA50194010E9471134B0174
:102B00005C0129893A894B895C896D817E818F813D
:102B100098850E94C91E9B01AC01C501B4010E94A9
:102B200051139B01AC01A98DBA8D14966D937D93C1
:102B30008D939C931797C701B6010E941F1C298192
:102B40003A814B815C810E947113A30192016A96C4
:102B50000FB6F894DEBF0FBECDBFDF91CF911F91AE
:102B60000F91FF90EF90DF90CF90BF90AF909F902C
:102B70008F907F906F905F904F900C945113FC0159
:102B80001082118212821382148215821682178299
:102B90001086118612861386148615861686178669
:102BA000089584B1837F84B985B18C6085B9109212
:102BB0000F0110920E011A9903C082E08093100158
:102BC0001B9905C0809110018160809310010895C8
:102BD00010920F0110920E0185B1837F85B908957F
:102BE0002FB7F89480910E0190910F0110920F0170
:102BF00010920E012FBF08958091100124E0829F52
:102C0000C00111248F70809310011A9905C0809122
:102C100010018260809310011B9905C08091100102
:102C2000816080931001E0911001F0E0EE0FFF1F32
:102C3000E25FFE4F2591349180910E0190910F013A
:102C4000820F931F90930F0180930E0160910E01EC
:102C500070910F0188EE93E00E944113BC0188E15E
:102C60009CEF0E94361390930F0180930E010895FC
:102C70002C982C9A08952D9A2D98089580FD2F9ABE
:102C800080FF2F980C943B160F931F93CF93DF93E5
:102C9000C0E0D0E0082F10E0C8010C2E02C09595CE
:102CA00087950A94E2F781700E943E162196C830FB
:102CB000D10591F7DF91CF911F910F9108950F9357
:102CC0001F93CF93DF938C01C62FD0E0C80FD91F7D
:102CD000C017D10729F0219788810E944416F8CFA8
:102CE000DF91CF911F910F9108952E9A2E980895FC
:102CF00084B1806F84B985B18F7185B92C9A0E9497
:102D000038160C9475160E9438160C9475169F92FE
:102D1000AF92BF92CF92DF92EF92FF920F931F93E9
:102D2000CF93DF93EC01962E8A01662319F0D1959B
:102D3000C195D109209759F030E0E22EF12C5701CE
:102D400061E0A61AB1088AE0C82ED12C2EC0F80185
:102D5000E20FF11D31978FE3808331E02CC0832F88
:102D600090E041E050E0911002C040E050E0B70137
:102D7000641B750B86179707F4F43F5FF501E81B9A
:102D8000F90BE00FF11FCE01B6010E947F1F8150A9
:102D9000893078F4A82FB0E0AC5FBE4F8C9180836F
:102DA000CE01B6010E947F1FEB011C161D06BCF26E
:102DB00002C08FE3F4CF992049F0E22FF0E0319781
:102DC000E31BF109E00FF11F80E4808381E0DF91D4
:102DD000CF911F910F91FF90EF90DF90CF90BF9018
:102DE000AF909F9008950C948316863038F4E82FA6
:102DF000F0E0EF5EFE4F608381E0089580E008958B
:102E00002F923F924F925F926F927F928F929F92FA
:102E1000AF92BF92CF92DF92EF92FF920F931F93E8
:102E2000CF93DF93CDB7DEB72A970FB6F894DEBF06
:102E30000FBECDBFE42FF0E0FE83ED8310E0AF01C5
:102E4000400F511F4730510514F080E0EBC0B22E07
:102E50006B017C0120E030E0A9010E948B1C898776
:102E6000A82EAA1CAA24AA1CC701B6010E943E1DB6
:102E70002B013C014B012B2C312CC1010E941E1354
:102E800098878F83B201052C000C880B990B0E9448
:102E9000761D9B01AC01C701B6010E941E1C69830F
:102EA0007A838B839C832F813885B901330F880BFC
:102EB000990B0E94761D9B01AC0169817A818B81FF
:102EC0009C810E94C91E398537FF05C020E030E093
:102ED00040E05FEB04C020E030E040E05FE30E94B0
:102EE0001F1C0E943E1D69837A838B839C8320E094
:102EF00030E0A901C701B6010E948B1C87FF03C007
:102F00008FEF9FEF02C081E090E0E981FA818E9F10
:102F1000A0018F9F500D9E9F500D11245A87498705
:102F20002F8138852417350799F420E030E0A90176
:102F3000C701B6010E948B1C87FF03C08FEF9FEF74
:102F400002C081E090E04C01840C951C1A86198621
:102F50008114910469F420E030E0A901C701B601B1
:102F60000E948B1C582E551C5524551C53940BC085
:102F70005A2CC4012AE030E0B9010E947F1FCB0126
:102F800053940097C9F749855A854115510579F041
:102F9000452E441C4424441CCA012AE030E0B901F7
:102FA0000E947F1FCB0143940097C9F702C04424BD
:102FB0004394652C712CC101860D971D08171907C4
:102FC0000CF443CF8D819E818F5E9E4F7C01021950
:102FD00013096C01C00ED11E2B2DA60160E089855E
:102FE0009A850E948716F601241831082FE3CF0135
:102FF0008C199D098215930514F42193F8CFA8012B
:10300000461957094E0D5F1D252D6A2DC4010E94DA
:10301000871601501109F701E00FF11F80818068C8
:10302000808381E02A960FB6F894DEBF0FBECDBF35
:10303000DF91CF911F910F91FF90EF90DF90CF9094
:10304000BF90AF909F908F907F906F905F904F90C8
:103050003F902F9008958F929F92AF92BF92CF9200
:10306000DF92EF92FF920F931F93CF93DF93EC01C8
:10307000E62FF0E0242F30E0CF01820F931F079757
:103080000CF050C0EF5EFE4FD7FF05C000271127A0
:103090000C1B1D0B03C0209789F08E0140E08D2F83
:1030A000881F8827881F5901A81AB108490181E0A3
:1030B000881A91088AE0C82ED12C20C0E20FF31F95
:1030C00031978FE32DC04F5F7401E81AF90AEE0EB5
:1030D000FF1EC801B6010E947F1F81508930A0F4F5
:1030E000A82FB0E0AC5FBE4F8C91D7018C93C80184
:1030F000B6010E947F1F8B01672B41F0842F90E067
:103100008A159B0504F302C08FE3EFCFD7FF0CC0F5
:10311000B90161507109641B7109E60FF71F80E462
:10312000808302C080E001C081E0DF91CF911F91D8
:103130000F91FF90EF90DF90CF90BF90AF909F9056
:103140008F9008950E94381666E081E191E00E9418
:103150005F160C947516E1E1F1E010821182128283
:1031600013821482158208950E9478160E94AB186B
:103170000C94A218CF93DF9310926F00E1E8F0E077
:1031800080818E7F8083A0E8B0E08C918C938081D9
:103190008061808380EA90E090938700809386002E
:1031A000C8E8D0E019821882AAE8B0E011961C9213
:1031B0001E921092850010928400559A5D98198293
:1031C0001882549A5C9811961C921E92808181609C
:1031D0008083DF91CF910895E1E8F0E080818E7FD8
:1031E00080831092870010928600109285001092C2
:1031F0008400109289001092880010928B00109227
:103200008A00A0E8B0E08C918F758C9380818F7ECE
:10321000808355985D9854985C98089564E60E9460
:103220004C1360E00E944713282F30E0A0EAB0E082
:103230000E94BB1F24E630E040E050E00E94931F54
:103240003093890020938800089510928500109291
:103250008400E0E8F0E08081806880830895E0E801
:10326000F0E080818F778083109285001092840037
:10327000089564E60E944C1360E00E944713282FD3
:1032800030E0A0EAB0E00E94BB1F24E630E040E05E
:1032900050E00E94931F30938B0020938A00089582
:1032A0001092850010928400E0E8F0E08081806256
:1032B00080830895E0E8F0E080818F7D8083109224
:1032C000850010928400089584B18C7F84B985B103
:1032D000836085B910921E0110921D0110921C018D
:1032E00010921901EAE1F1E01082118283E08093EB
:1032F000180180931701089585B18C7F85B91092CC
:103300001E0110921D0110921C0110921901EAE198
:10331000F1E01082118283E08093180180931701FD
:10332000089520911E0130E0082E02C035952795A2
:103330000A94E2F720FF11C040911E0121E030E025
:10334000B90102C0660F771F8A95E2F7CB0180951D
:10335000842380931E0181E0089580E008952091E8
:103360001D0130E0082E02C0359527950A94E2F73A
:1033700020FF11C040911D0121E030E0B90102C0E1
:10338000660F771F8A95E2F7CB018095842380939F
:103390001D0181E0089580E0089520911C0130E036
:1033A000082E02C0359527950A94E2F720FF11C038
:1033B00040911C0121E030E0B90102C0660F771F87
:1033C0008A95E2F7CB018095842380931C0181E0EC
:1033D000089580E008952091190130E0A90102C00C
:1033E000559547958A95E2F7CA018170089593B182
:1033F000309119019095292F23278091180182235C
:103400008095809318018091170190911801822373
:1034100089278093170190911801809117019823B3
:10342000937092238091190189278093190140910B
:1034300019014923809119018095892320E030E00A
:1034400050E0082E000C990BE1E0F0E0BA01022EEA
:1034500002C0759567950A94E2F760FF10C0A091CD
:103460001E01BF01022E01C0660F0A94EAF76A2B03
:1034700060931E01D901A65EBE4F1C9214C0BC0110
:10348000022E02C0759567950A94E2F760FF0BC0A3
:10349000A0911D01BF01022E01C0660F0A94EAF738
:1034A0006A2B60931D016091190170E0022E02C029
:1034B000759567950A94E2F760FF16C0D901A65E7C
:1034C000BE4F6C91643680F46C916F5F6C93643680
:1034D00059F4A0911C01BF01022E01C0660F0A948D
:1034E000EAF76A2B60931C012F5F3F4F22303105B2
:1034F00009F0ACCF0895EAE7F0E08081877580831A
:10350000ACE7B0E01C928C9180648C9380818660E3
:10351000808380EF80937E0008959FB7F894EAE758
:10352000F0E080818775808310927C008081887FA5
:1035300080838FEF80937E009FBF089580917A00F3
:10354000806880937A0080917A00806480937A000A
:1035500080917A0086FDFCCF80917800909179006F
:103560000895FC0180917C00807E80937C00809196
:103570007C0080937C0080917A00806480937A0044
:1035800080917A0086FDFCCF80917800909179003F
:10359000009711F422E005C08F3F23E0920718F056
:1035A00021E020830895108208958F929F92AF9218
:1035B000BF92CF92DF92EF92FF92CF935C01C4E073
:1035C000C12CD12C7601C5010E94B11AC80ED91E9A
:1035D000E11CF11CC150B9F7C701B6010E94761D6C
:1035E00020E030E040E859E30E94C91E20E030E0CE
:1035F00040EA50E40E94C91E6B017C0120E030E5E6
:1036000043EC57E40E94C91E4B015C01A7019601DF
:1036100060E070E080EA90E40E941E1C9B01AC0117
:10362000C501B4010E94901CCF91FF90EF90DF90F4
:10363000CF90BF90AF909F908F9008958F929F9260
:10364000AF92BF92CF92DF92EF92FF920E94D51A73
:103650000E94811E6B017C012BE037ED4BE055EBA6
:103660000E94C91EA70196010E94C91EA7019601CA
:103670000E94C91E4B015C0120EA30E642EF59E38B
:10368000C701B6010E94C91E25E539EF46E95AE394
:103690000E941E1C9B01AC01C501B4010E941F1CAD
:1036A0009B01AC0160E070E080E89FE30E94901C09
:1036B00023E333E948E853E40E941E1CFF90EF9097
:1036C000DF90CF90BF90AF909F908F900895FC01B6
:1036D00080917C00807E80937C0080917C00816062
:1036E00080937C0080917A00806480937A0080913E
:1036F0007A0086FDFCCF8091780090917900009748
:1037000011F422E005C08F3F23E0920718F021E07A
:1037100020830895108208958F929F92AF92BF9256
:10372000CF92DF92EF92FF92CF935C01C4E0C12C65
:10373000D12C7601C5010E94671BC80ED91EE11C61
:10374000F11CC150B9F7C701B6010E94761D20E0F7
:1037500030E040E859E30E94C91E20E030E040EA32
:1037600050E40E94C91E6B017C0120E030E44CE172
:1037700056E40E94C91E4B015C01A701960160E05E
:1037800070E080EA90E40E941E1C9B01AC01C50120
:10379000B4010E94901CCF91FF90EF90DF90CF90EA
:1037A000BF90AF909F908F9008958F929F92AF920D
:1037B000BF92CF92DF92EF92FF920E948C1B0E94E9
:1037C000811E6B017C0129E436E84CE754E30E943A
:1037D000C91EA70196010E94C91EA70196010E9459
:1037E000C91E4B015C0125EE31EC44E559E3C701EC
:1037F000B6010E94C91E21EA38EE4CEA5AE30E9443
:103800001F1C9B01AC01C501B4010E941F1C9B0140
:10381000AC0160E070E080E89FE30E94901C23E32D
:1038200033E948E853E40E941E1CFF90EF90DF90BC
:10383000CF90BF90AF909F908F9008955058BB2726
:10384000AA270E94361C0C943A1E0E942C1E38F0A7
:103850000E94331E20F039F49F3F19F426F40C9493
:10386000191E0EF4E095E7FB0C94131EE92F0E943D
:103870004B1E58F3BA17620773078407950720F0A9
:1038800079F4A6F50C946D1E0EF4E0950B2EBA2F6C
:10389000A02D0B01B90190010C01CA01A001112456
:1038A000FF27591B99F0593F50F4503E68F11A1602
:1038B000F040A22F232F342F4427585FF3CF469593
:1038C00037952795A795F0405395C9F77EF41F16B5
:1038D000BA0B620B730B840BBAF09150A1F0FF0F7F
:1038E000BB1F661F771F881FC2F70EC0BA0F621F6B
:1038F000731F841F48F4879577956795B795F7955B
:103900009E3F08F0B0CF9395880F08F09927EE0FEF
:103910009795879508950E94EF1D08F481E008951A
:103920000E94A41C0C943A1E0E94331E58F00E9460
:103930002C1E40F029F45F3F29F00C94131E511106
:103940000C946E1E0C94191E0E944B1E68F3992352
:10395000B1F3552391F3951B550BBB27AA2762178B
:103960007307840738F09F5F5F4F220F331F441F98
:10397000AA1FA9F335D00E2E3AF0E0E832D09150CC
:103980005040E695001CCAF72BD0FE2F29D0660FB9
:10399000771F881FBB1F261737074807AB07B0E8FC
:1039A00009F0BB0B802DBF01FF2793585F4F3AF002
:1039B0009E3F510578F00C94131E0C946E1E5F3FD1
:1039C000E4F3983ED4F3869577956795B795F79588
:1039D0009F5FC9F7880F911D9695879597F9089570
:1039E000E1E0660F771F881FBB1F6217730784070C
:1039F000BA0720F0621B730B840BBA0BEE1F88F71B
:103A0000E0950895BEE304D008F490E80895BFE37C
:103A100022273327A9010E94531E60F19F5748F1C6
:103A2000B91740F1BFE3B91B9927B8503AF4660FB4
:103A3000771F881F991FB395D2F316C0B8504AF06C
:103A4000232F342F452F562F672F782F8827B850D4
:103A5000BAF7B85F49F0869577956795579547957A
:103A600037952795BA95B9F716F40E941C1E8894CD
:103A70000895889460E070E0CB0108950E94451D90
:103A80006894B1110C946E1E08950E94531E88F024
:103A90009F5798F0B92F9927B751B0F0E1F0660F12
:103AA000771F881F991F1AF0BA95C9F714C0B13053
:103AB00091F00E946D1EB1E008950C946D1E672F69
:103AC000782F8827B85F39F0B93FCCF38695779582
:103AD0006795B395D9F73EF490958095709561956B
:103AE0007F4F8F4F9F4F0895E89409C097FB3EF496
:103AF00090958095709561957F4F8F4F9F4F99233B
:103B0000A9F0F92F96E9BB279395F69587957795B8
:103B10006795B795F111F8CFFAF4BB0F11F460FF78
:103B20001BC06F5F7F4F8F4F9F4F16C0882311F0D0
:103B300096E911C0772321F09EE8872F762F05C0E4
:103B4000662371F096E8862F70E060E02AF09A957F
:103B5000660F771F881FDAF7880F9695879597F974
:103B60000895E894F92F96EBFF2381F012161306BF
:103B70001406440B9395F695879577956795579519
:103B80004040FF23B9F71BC099270895882351F4BB
:103B90009850D2F7872B762F652F542F432F322F33
:103BA00020E0B1F3121613061406440B88233AF0F2
:103BB0009A95440F551F661F771F881FCAF7552314
:103BC0004AF4440F551F11F460FF04C06F5F7F4F2C
:103BD0008F4F9F4F880F9695879597F90895990F66
:103BE0000008550FAA0BE0E8FEEF16161706E807C7
:103BF000F907C0F012161306E407F50798F0621BE8
:103C0000730B840B950B39F40A2661F0232B242BBC
:103C1000252B21F408950A2609F4A140A6958FEFDB
:103C2000811D811D089597F99F6780E870E060E02D
:103C300008959FEF80EC089590958095709560951C
:103C400050954095309521953F4F4F4F5F4F6F4FA7
:103C50007F4F8F4F9F4F089500240A941616170622
:103C600018060906089500240A941216130614066D
:103C700005060895092E0394000C11F4882352F0D0
:103C8000BB0F40F4BF2B11F460FF04C06F5F7F4F88
:103C90008F4F9F4F089557FD9058440F551F59F06F
:103CA0005F3F71F04795880F97FB991F61F09F3F29
:103CB00079F087950895121613061406551FF2CF52
:103CC0004695F1DF08C0161617061806991FF1CFA2
:103CD00086957105610508940895E894BB276627C9
:103CE0007727CB0197F908950E94EF1D08F48FEF15
:103CF000089516F00C94361F0C94191E68940C94B9
:103D0000131E0E94531EA8F39923C1F3AEF3DF9351
:103D1000CF931F930F93FF92C92FDD2788232AF09B
:103D20002197660F771F881FDAF720E030E040E820
:103D30005FEB9FE3883920F0803E38F021968F7743
:103D40000E941F1CE4EBF0E004C00E941F1CE1EE87
:103D5000F0E00E94441F8B01BE01EC01FB2E6F5767
:103D600071097595771F880B990B0E94761D28E1C4
:103D700032E741E35FE30E94DC1EAF2D9801AE0104
:103D8000FF900F911F91CF91DF910E94361C0C94F0
:103D90003A1E0E94DC1E0C943A1E0E942C1E38F023
:103DA0000E94331E20F0952311F00C94131E0C94E6
:103DB000191E11240C946E1E0E944B1E70F3959FC9
:103DC000C1F3950F50E0551F629FF001729FBB2712
:103DD000F00DB11D639FAA27F00DB11DAA1F649FAE
:103DE0006627B00DA11D661F829F2227B00DA11D61
:103DF000621F739FB00DA11D621F839FA00D611DE7
:103E0000221F749F3327A00D611D231F849F600D07
:103E1000211D822F762F6A2F11249F5750409AF030
:103E2000F1F088234AF0EE0FFF1FBB1F661F771FBC
:103E3000881F91505040A9F79E3F510580F00C9487
:103E4000131E0C946E1E5F3FE4F3983ED4F38695E8
:103E500077956795B795F795E7959F5FC1F7FE2B27
:103E6000880F911D9695879597F908959F3F31F09A
:103E7000915020F4879577956795B795880F911D98
:103E80009695879597F90895DF93CF931F930F9396
:103E9000FF92EF92DF927B018C01689406C0DA2ECC
:103EA000EF010E94DC1EFE01E894A5912591359159
:103EB00045915591A6F3EF010E94361CFE01970132
:103EC000A801DA9469F7DF90EF90FF900F911F91AE
:103ED000CF91DF910895AA1BBB1B51E107C0AA1F18
:103EE000BB1FA617B70710F0A61BB70B881F991F9B
:103EF0005A95A9F780959095BC01CD01089597FB3F
:103F0000072E16F4009407D077FD09D00E946B1F8E
:103F100007FC05D03EF4909581959F4F08957095CC
:103F200061957F4F0895A1E21A2EAA1BBB1BFD01CC
:103F30000DC0AA1FBB1FEE1FFF1FA217B307E40788
:103F4000F50720F0A21BB30BE40BF50B661F771FE0
:103F5000881F991F1A9469F76095709580959095C0
:103F60009B01AC01BD01CF010895EE0FFF1F05902D
:103F7000F491E02D0994A29FB001B39FC001A39FCB
:103F8000700D811D1124911DB29F700D811D112492
:103F9000911D08952A0D3B1D4C1D5D1D6E1D7F1D3D
:103FA000801F911F08950024A7FD00942A0F301D43
:103FB000401D501D601D701D801D901D08952A1903
:103FC0003B094C095D096E097F09800B910B08952F
:103FD0002A153B054C055D056E057F058007910799
:103FE0000895DC01CB01FC01F999FECF06C0F2BDBA
:103FF000E1BDF89A319600B40D9241505040B8F7A7
:104000000895DC01A40FB51F4150504048F0CB018A
:10401000840F951F2E910E94122041505040D0F7DE
:104020000895262FF999FECF92BD81BDF89A019788
:1040300000B4021639F01FBA20BD0FB6F894FA9AF0
:0A404000F99A0FBE0895F894FFCF1F
:0E404A0001010000065B4F666D7D077F6F0071
:00000001FF
