:100000000C9485000C9497000C9497000C94970026
:100010000C9497000C9497000C9497000C94970004
:100020000C9497000C9497000C9497000C949700F4
:100030000C9497000C9497000C9497000C949700E4
:100040000C94F6130C9497000C9497000C94970062
:100050000C9497000C9497000C9497000C949700C4
:100060000C9497000C9497000C9497000C949700B4
:100070000C9497000C9497000C9497003D1F3F1F21
:10008000411F431F451F471F491F4B1F4D1F4F1F38
:1000900008000000BE922449123EABAAAA2ABECD97
:1000A000CCCC4C3E00000080BEABAAAAAA3E000009
:1000B0000000BF000000803F000000000008417801
:1000C000D3BB4387D1133D190E3CC3BD4282AD2B38
:1000D0003E68EC8276BED98FE1A93E4C80EFFFBE30
:1000E00001C4FF7F3F00000000000000000000008E
:1000F00000000000000000000100000000000000FF
:1001000000000000FFFF0000000011241FBECFEF21
:10011000D0E1DEBFCDBF21E0A0E0B1E001C01D9283
:10012000A13DB207E1F70E9439150C940E2D0C94F5
:1001300000008F929F92AF92BF92CF92DF92EF9288
:10014000FF920F931F93CF93DF93CDB7DEB710923B
:1001500030010E94EF0E0E9402220E94C7230E94DB
:100160004C1D0E94E70D10924D0110924F0110920C
:10017000500110924E010E94BF220E94A8230E94AB
:100180005E140E941B15E0901D01F0901E0100916D
:100190001F01109120012091190130911A01409105
:1001A0001B0150911C018091150190911601A091A5
:1001B0001701B091180162E46F9368EC6F931F927E
:1001C0001F92812C912C54016701780189019A01B9
:1001D000AC01BD0181E391E00E94CB1A0F900F901A
:1001E0000F900F900E94BF2520E046E252E06AE0A7
:1001F00077ED83EA9CE30E94601321E049EE51E031
:100200006AE077ED83E29DE30E94601322E045EF10
:1002100055E06FE672E183E89AE30E94601323E001
:100220004FEF55E06AE077ED83EA9BE30E946013AD
:100230000E94810D89E096E090932E0180932D011C
:100240000E94222680E391E00E942227DC01CB015C
:100250008093510190935201A0935301B0935401A4
:1002600080913001882379F00E9496140E9408231F
:100270000E94EB250E94861D0E9400240E94950D7D
:100280008091300199C080E391E00E94A226DC01B8
:10029000CB018093550190935601A0935701B093E1
:1002A000580180913001882379F00E9496140E94B1
:1002B00008230E94EB250E94861D0E9400240E94B4
:1002C000950D8091300178C080E391E00E947928FB
:1002D000DC01CB018093650190936601A0936701D7
:1002E000B093680180913001882379F00E949614C0
:1002F0000E9408230E94EB250E94861D0E94002474
:100300000E94950D8091300157C080E391E00E94DA
:10031000F927DC01CB018093690190936A01A093D6
:100320006B01B0936C0180913001882379F00E94B9
:1003300096140E9408230E94EB250E94861D0E94AD
:1003400000240E94950D8091300136C00E943B1020
:10035000109226010BC00E94811080933001809181
:100360003001882319F081E08093260180912601D5
:10037000882389F380913001882379F00E949614B4
:100380000E9408230E94EB250E94861D0E940024E3
:100390000E94950D809130010FC00E949C0F0E9419
:1003A00008230E9496140E94EB250E94861D0E943D
:1003B00000240E94102280E0DF91CF911F910F91C5
:1003C000FF90EF90DF90CF90BF90AF909F908F9075
:1003D0000895CF93DF93CDB7DEB70E94810D0E94C1
:1003E0009B1D909328018093270180E00E94B724F1
:1003F000882F90E020912C01822B80932C0180E0AB
:100400000E943024882F90E020912901822B809334
:10041000290180E00E948A24882F90E020912A01FF
:10042000822B80932A0180E00E945D24882F90E037
:1004300020912B01822B80932B0180912D01909193
:100440002E01FC010995DF91CF9108952F923F92E3
:100450004F925F926F927F928F929F92AF92BF92D4
:10046000CF92DF92EF92FF920F931F93CF93DF9380
:10047000CDB7DEB729970FB6F894DEBF0FBECDBF5C
:1004800080E391E00E942227DC01CB01809351019F
:1004900090935201A0935301B09354018091300185
:1004A000882319F08091300187C380912D019091AC
:1004B0002E01815F9C40A9F480E391E00E94A22676
:1004C000DC01CB018093550190935601A093570115
:1004D000B093580180913001882319F08091300148
:1004E0006BC38091510190915201A0915301B09141
:1004F000540120E030E0A901BC01CD010E94662931
:10050000882314F486E058C38091510190915201E0
:10051000A0915301B091540120E030E048E453E44D
:10052000BC01CD010E944F2B181614F485E044C382
:1005300080914E01882309F46DC080915101909102
:100540005201A0915301B091540120915901309171
:100550005A0140915B0150915C01BC01CD010E94A8
:10056000F928DC01CB0120E030E040EA50E4BC0196
:10057000CD010E94662988230CF04CC00E942913EB
:10058000A22EB32EC42ED52EE62EF72E082F192F0D
:1005900020905D0130905E0140905F0150906001BD
:1005A000609061017090620180906301909064019D
:1005B0002A2D3B2D4C2D5D2D6E2D7F2D802F912FC3
:1005C000A22CB32CC42CD52CE62CF72C082D192DDD
:1005D0000E94B12CA22EB32EC42ED52EE62EF72EBD
:1005E000082F192F2A2D3B2D4C2D5D2D6E2D7F2D83
:1005F000802F912F0E94BC0EDC01CB0120E030E067
:1006000040E751E4BC01CD010E944F2B181614F4B1
:1006100083E0D2C280914E01882309F495C0809175
:10062000510190915201A0915301B0915401209138
:10063000590130915A0140915B0150915C01BC011C
:10064000CD010E94F928DC01CB0120E030E040EA36
:1006500050E4BC01CD010E944F2B88230CF474C0E0
:100660000E942913A22EB32EC42ED52EE62EF72ECD
:10067000082F192F20905D0130905E0140905F019E
:100680005090600160906101709062018090630100
:10069000909064012A2D3B2D4C2D5D2D6E2D7F2DCC
:1006A000802F912FA22CB32CC42CD52CE62CF72C08
:1006B000082D192D0E94B12CA22EB32EC42ED52E9A
:1006C000E62EF72E082F192F2A2D3B2D4C2D5D2DB0
:1006D0006E2D7F2D802F912F0E94BC0EDC01CB014F
:1006E00020E030E040E751E4BC01CD010E946629E2
:1006F000181654F18091510190915201A09153012B
:10070000B09154018093590190935A01A0935B01D9
:10071000B0935C010E942913A22EB32EC42ED52EB5
:10072000E62EF72E082F192FA0925D01B0925E01E0
:10073000C0925F01D0926001E0926101F09262018B
:10074000009363011093640180E391E00E94792893
:10075000DC01CB018093650190936601A093670152
:10076000B093680180913001882319F080913001A5
:1007700023C280912D0190912E018A519D40A9F4B0
:1007800080E391E00E94F927DC01CB0180936901AD
:1007900090936A01A0936B01B0936C01809130013A
:1007A000882319F08091300107C2809165019091F2
:1007B0006601A0916701B091680120E030E0A901D5
:1007C000BC01CD010E946629882314F486E0F4C19F
:1007D0008091650190916601A0916701B0916801D7
:1007E00020E030E048E453E4BC01CD010E944F2BEF
:1007F000181614F485E0E0C180912501813009F0DC
:100800000CC180914E01882309F46DC0809165016F
:1008100090916601A0916701B091680120916D01EE
:1008200030916E0140916F0150917001BC01CD017A
:100830000E94F928DC01CB0120E030E040EA50E4DE
:10084000BC01CD010E94662988230CF04CC00E9497
:100850002913A22EB32EC42ED52EE62EF72E082F46
:10086000192F2090710130907201409073015090C7
:10087000740160907501709076018090770190907E
:1008800078012A2D3B2D4C2D5D2D6E2D7F2D802F37
:10089000912FA22CB32CC42CD52CE62CF72C082D90
:1008A000192D0E94B12CA22EB32EC42ED52EE62EC9
:1008B000F72E082F192F2A2D3B2D4C2D5D2D6E2D37
:1008C0007F2D802F912F0E94BC0EDC01CB0120E0F8
:1008D00030E040E751E4BC01CD010E944F2B1816D7
:1008E00014F483E069C180914E01882309F495C016
:1008F0008091650190916601A0916701B0916801B6
:1009000020916D0130916E0140916F015091700105
:10091000BC01CD010E94F928DC01CB0120E030E0D0
:1009200040EA50E4BC01CD010E944F2B88230CF417
:1009300074C00E942913A22EB32EC42ED52EE62EEB
:10094000F72E082F192F20907101309072014090DE
:1009500073015090740160907501709076018090E1
:100960007701909078012A2D3B2D4C2D5D2D6E2D19
:100970007F2D802F912FA22CB32CC42CD52CE62CAC
:10098000F72C082D192D0E94B12CA22EB32EC42EA7
:10099000D52EE62EF72E082F192F2A2D3B2D4C2D64
:1009A0005D2D6E2D7F2D802F912F0E94BC0EDC01BE
:1009B000CB0120E030E040E751E4BC01CD010E94D2
:1009C0006629181654F18091650190916601A091F5
:1009D0006701B091680180936D0190936E01A093BF
:1009E0006F01B09370010E942913A22EB32EC42E62
:1009F000D52EE62EF72E082F192FA0927101B09256
:100A00007201C0927301D0927401E0927501F0926C
:100A10007601009377011093780180914F0188232C
:100A200009F4C9C080912501882F90E0009719F042
:100A3000019771F01AC08091510190915201A091DB
:100A40005301B091540189839A83AB83BC830FC057
:100A50008091650190916601A0916701B091680154
:100A600089839A83AB83BC8302C084E0A5C02091B4
:100A700011013091120140911301509114018981AB
:100A80009A81AB81BC8189019A01AC01BD0181E3EE
:100A900091E00E94C91BDC01CB018E839F83A88754
:100AA000B9878091510190915201A0915301B09169
:100AB000540120E030E048EC52E4BC01CD010E943A
:100AC0004F2B181614F41D8209C06E817F81888512
:100AD00099850E94202ADC01CB018D838D8183368C
:100AE00008F45DC080914E01882309F058C081E070
:100AF00080934E018091510190915201A091530138
:100B0000B09154018093590190935A01A0935B01D5
:100B1000B0935C010E942913A22EB32EC42ED52EB1
:100B2000E62EF72E082F192FA0925D01B0925E01DC
:100B3000C0925F01D0926001E0926101F092620187
:100B400000936301109364018091650190916601A7
:100B5000A0916701B091680180936D0190936E013F
:100B6000A0936F01B09370010E942913A22EB32E9F
:100B7000C42ED52EE62EF72E082F192FA092710124
:100B8000B0927201C0927301D0927401E09275012B
:100B9000F0927601009377011093780109C08D815E
:100BA000833630F480914E01882311F010924E016B
:100BB0008D810E94CA1480E029960FB6F894DEBF9A
:100BC0000FBECDBFDF91CF911F910F91FF90EF909E
:100BD000DF90CF90BF90AF909F908F907F906F905D
:100BE0005F904F903F902F900895CF93DF93CDB7B4
:100BF000DEB70E94C51D80E0DF91CF910895CF93AD
:100C0000DF93CDB7DEB70E94D42480E0DF91CF918F
:100C10000895CF93DF93CDB7DEB7809127019091F0
:100C200028011816190664F480912F018F5F61E086
:100C30000E941B1A60E00E94F11980932F0111C0DD
:100C4000809127019091280199235CF480912F01D4
:100C5000815061E00E941B1A60E00E94F1198093AC
:100C60002F010E94A62280912F01082E000C990BC3
:100C7000009719F0019779F01CC080915101909173
:100C80005201A0915301B091540140E0BC01CD014B
:100C90000E944B1510C08091650190916601A09152
:100CA0006701B091680141E0BC01CD010E944B1584
:100CB00002C084E013C00E94952280912901882FF0
:100CC00090E081709927892B41F010922F0181E7E4
:100CD00096E090932E0180932D0180E0DF91CF91DB
:100CE0000895CF93DF93CDB7DEB780912701909120
:100CF00028011816190664F480912F018F5F65E0B2
:100D00000E941B1A60E00E94F11980932F0111C00C
:100D1000809127019091280199235CF480912F0103
:100D2000815065E00E941B1A60E00E94F1198093D7
:100D30002F010E94A62280912F010E9493150E94EC
:100D4000952280912901882F90E081709927892B25
:100D500009F443C080912F01082E000C990B8230BA
:100D6000910519F1833091052CF4009761F00197FA
:100D700099F033C08430910551F184309105F4F03D
:100D8000059741F12AC010922F0189E096E09093D7
:100D90002E0180932D0121C010922F0181EF96E04A
:100DA00090932E0180932D0118C010922F018BEB90
:100DB0009BE090932E0180932D010FC010922F0184
:100DC00080E79CE090932E0180932D0106C00E9445
:100DD000E70D03C00E94140E000080E0DF91CF9168
:100DE0000895CF93DF93CDB7DEB78091270190911F
:100DF00028011816190664F480912F018F5F65E0B1
:100E00000E941B1A60E00E94F11980932F0111C00B
:100E1000809127019091280199235CF480912F0102
:100E2000815065E00E941B1A60E00E94F1198093D6
:100E30002F010E94A62280912F010E9425160E9458
:100E4000952280912901882F90E081709927892B24
:100E500009F452C080912F01082E000C990B8230AA
:100E6000910521F1833091052CF4009761F00197F1
:100E7000A1F042C08430910569F184309105FCF005
:100E8000059789F139C081E080932F0181E796E0D1
:100E900090932E0180932D012FC010922F0180E896
:100EA00097E090932E0180932D0126C010922F0180
:100EB0008EEB97E090932E0180932D011DC08091C1
:100EC000250180932F0189E398E090932E01809370
:100ED0002D0112C010922F0188EA98E090932E0104
:100EE00080932D0109C010922F018FE39BE0909316
:100EF0002E0180932D01000080E0DF91CF910895B5
:100F0000CF93DF93CDB7DEB7809127019091280171
:100F1000892BB9F090914F0181E0992309F080E08D
:100F200080934F0180914F01882319F00E94F9149A
:100F300004C00E941B1510924E0181E391E00E94B3
:100F4000131D0E94A62280914F010E946A170E94E1
:100F5000952280912901882F90E081709927892B13
:100F600049F081E080932F0181EF96E090932E016C
:100F700080932D0180E0DF91CF910895CF92DF9291
:100F8000EF92FF92CF93DF93CDB7DEB78091270129
:100F900090912801892B09F443C0C0901101D09091
:100FA0001201E0901301F0901401809127019091BB
:100FB0002801092E000CAA0BBB0BBC01CD010E941D
:100FC000512ADC01CB0120E030E040E05FE3BC01CE
:100FD000CD010E94A42BDC01CB019C01AD01C70116
:100FE000B6010E94FA28DC01CB0120E030E048EC99
:100FF00052E4BC01CD010E94991ADC01CB0120E032
:1010000030E0A901BC01CD010E94671ADC01CB01CF
:101010008093110190931201A0931301B0931401D6
:101020000E94A6228091110190911201A0911301BA
:10103000B0911401BC01CD010E9495170E94952228
:1010400080912901882F90E081709927892B49F0A0
:1010500082E080932F0181EF96E090932E018093A0
:101060002D0180E0DF91CF91FF90EF90DF90CF9046
:101070000895CF93DF931F92CDB7DEB780912701FC
:10108000909128011816190664F480912F018F5F42
:1010900063E00E941B1A60E00E94F11980932F0107
:1010A00011C0809127019091280199235CF48091CF
:1010B0002F01815063E00E941B1A60E00E94F11929
:1010C00080932F0180912F01082E000C990B813005
:1010D000910579F0823091051CF4892B39F010C00C
:1010E0008230910549F0039749F00AC081E0898375
:1010F00009C081E0898306C0198204C0198202C038
:10110000198200000E94A62280912F0169810E940D
:10111000D8160E94952280912901882F90E0817035
:101120009927892B81F08981882369F080912F018B
:101130008093250183E080932F0181EF96E09093C7
:101140002E0180932D0180E00F90DF91CF910895C3
:10115000CF93DF93CDB7DEB780912701909128011F
:101160001816190664F480912F018F5F63E00E94C6
:101170001B1A60E00E94F11980932F0111C0809129
:1011800027019091280199235CF480912F018150CF
:1011900063E00E941B1A60E00E94F11980932F0106
:1011A0000E94A62280912F010E9431170E94952251
:1011B00080912901882F90E081709927892BC9F1AE
:1011C00080912F01082E000C990B81309105B1F010
:1011D000823091051CF4892B39F02BC082309105A7
:1011E000B1F00397E9F025C084E080932F0181EFEF
:1011F00096E090932E0180932D011BC010922F0139
:101200008DE199E090932E0180932D0112C01092F0
:101210002F0183ED99E090932E0180932D0109C059
:1012200010922F0189E89AE090932E0180932D016E
:10123000000080E0DF91CF9108958F929F92AF924E
:10124000BF92CF92DF92EF92FF920F931F93CF93B3
:10125000DF93CDB7DEB78091270190912801892BCC
:1012600009F472C0C0901501D0901601E0901701EA
:10127000F09018018091270190912801092E000C0F
:10128000AA0BBB0BBC01CD010E94512ADC01CB0192
:101290002AE037ED43E25CE3BC01CD010E94A42BC0
:1012A000DC01CB019C01AD01C701B6010E94FA2807
:1012B000DC01CB0120E030E04AE754E4BC01CD0181
:1012C0000E94991ADC01CB0120E030E0A901BC01A9
:1012D000CD010E94671ADC01CB0180931501909328
:1012E0001601A0931701B0931801E0901D01F09032
:1012F0001E0100911F0110912001209119013091D0
:101300001A0140911B0150911C018091150190918F
:101310001601A0911701B091180162E46F9368EC77
:101320006F931F921F92812C912C540167017801B9
:1013300089019A01AC01BD0181E391E00E944A1B41
:101340000F900F900F900F900E94A6228091150190
:1013500090911601A0911701B0911801BC01CD0127
:101360000E94B8170E94952280912901882F90E051
:1013700081709927892B49F081E080932F0188EAB9
:1013800098E090932E0180932D0180E0DF91CF9122
:101390001F910F91FF90EF90DF90CF90BF90AF9093
:1013A0009F908F9008958F929F92AF92BF92CF920D
:1013B000DF92EF92FF920F931F93CF93DF93CDB7FE
:1013C000DEB78091270190912801892B09F472C022
:1013D000C0901901D0901A01E0901B01F0901C01FF
:1013E0008091270190912801092E000CAA0BBB0BBC
:1013F000BC01CD010E94512ADC01CB012AE037ED6E
:1014000043E25CE3BC01CD010E94A42BDC01CB01D3
:101410009C01AD01C701B6010E94FA28DC01CB0195
:1014200020E030E04AE754E4BC01CD010E94991A63
:10143000DC01CB0120E030E0A901BC01CD010E941C
:10144000671ADC01CB018093190190931A01A093D4
:101450001B01B0931C01E0901D01F0901E01009152
:101460001F01109120012091190130911A01409122
:101470001B0150911C018091150190911601A091C2
:101480001701B091180162E46F9368EC6F931F929B
:101490001F92812C912C54016701780189019A01D6
:1014A000AC01BD0181E391E00E944A1B0F900F90B7
:1014B0000F900F900E94A6228091190190911A011D
:1014C000A0911B01B0911C01BC01CD010E94DB1752
:1014D0000E94952280912901882F90E081709927A0
:1014E000892B49F082E080932F0188EA98E090935D
:1014F0002E0180932D0180E0DF91CF911F910F91FC
:10150000FF90EF90DF90CF90BF90AF909F908F9023
:1015100008958F929F92AF92BF92CF92DF92EF92F7
:10152000FF920F931F93CF93DF93CDB7DEB78091D8
:10153000270190912801892B09F472C0C0901D01E8
:10154000D0901E01E0901F01F090200180912701B2
:1015500090912801092E000CAA0BBB0BBC01CD01F8
:101560000E94512ADC01CB012AE037ED43E25CE323
:10157000BC01CD010E94A42BDC01CB019C01AD017B
:10158000C701B6010E94FA28DC01CB0120E030E05F
:101590004AE754E4BC01CD010E94991ADC01CB0159
:1015A00020E030E0A901BC01CD010E94671ADC01F6
:1015B000CB0180931D0190931E01A0931F01B09356
:1015C0002001E0901D01F0901E0100911F0110917B
:1015D00020012091190130911A0140911B01509175
:1015E0001C018091150190911601A0911701B091F5
:1015F000180162E46F9368EC6F931F921F92812C25
:10160000912C54016701780189019A01AC01BD0157
:1016100081E391E00E944A1B0F900F900F900F9072
:101620000E94A62280911D0190911E01A0911F0190
:10163000B0912001BC01CD010E94FE170E949522AD
:1016400080912901882F90E081709927892B49F09A
:1016500083E080932F0188EA98E090932E01809395
:101660002D0180E0DF91CF911F910F91FF90EF90BE
:10167000DF90CF90BF90AF909F908F900895CF92C2
:10168000DF92EF92FF92CF93DF93CDB7DEB78091D9
:10169000270190912801892B09F444C0C0902101B1
:1016A000D0902201E0902301F09024018091270145
:1016B00090912801092E000CAA0BBB0BBC01CD0197
:1016C0000E94512ADC01CB0120E030E040E05FE3E2
:1016D000BC01CD010E94A42BDC01CB019C01AD011A
:1016E000C701B6010E94FA28DC01CB0120E030E0FE
:1016F00048E452E4BC01CD010E94991ADC01CB01FF
:1017000020E030E048E452ECBC01CD010E94671AB1
:10171000DC01CB018093210190932201A09323014E
:10172000B09324010E94A622809121019091220170
:10173000A0912301B0912401BC01CD010E94211888
:101740000E94952280912901882F90E0817099272D
:10175000892B49F085E080932F0181EF96E09093EB
:101760002E0180932D0180E0DF91CF91FF90EF90CB
:10177000DF90CF900895CF93DF93CDB7DEB7809100
:101780002701909128011816190664F480912F0101
:101790008F5F61E00E941B1A60E00E94F119809344
:1017A0002F0111C0809127019091280199235CF4A9
:1017B00080912F01815061E00E941B1A60E00E941D
:1017C000F11980932F010E94A62280912F010E947F
:1017D000A7160E94952280912901882F90E08170A0
:1017E0009927892BE9F080912F01082E000C990B85
:1017F000009719F0019759F013C082E080932F01F0
:1018000081E796E090932E0180932D0109C01092FC
:101810002F0184E19CE090932E0180932D01000024
:1018200080E0DF91CF910895CF93DF93CDB7DEB7FE
:101830008091270190912801892BA9F180914D0178
:10184000282F30E08091270190912801820F931F6B
:1018500064E670E00E942C1A60E070E00E94021AB8
:1018600080934D0180915001882339F480914D017E
:10187000882319F00E9484230AC080915001882394
:1018800031F080914D01882311F40E94A82390919A
:101890004D0181E0992309F480E08093500180910B
:1018A0004D010E944C230E94A62280914D010E946E
:1018B00044180E94952280912901882F90E0817020
:1018C0009927892B49F081E080932F018BEB9BE0D6
:1018D00090932E0180932D0180E0DF91CF910895A8
:1018E000CF93DF93CDB7DEB7809127019091280188
:1018F0001816190664F480912F018F5F64E00E942E
:101900001B1A60E00E94F11980932F0111C0809191
:1019100027019091280199235CF480912F01815037
:1019200064E00E941B1A60E00E94F11980932F016D
:101930000E94A62280912F010E946A180E9495227F
:1019400080912901882F90E081709927892B09F4D3
:1019500044C080912F01082E000C990B8230910514
:1019600009F1833091052CF4009749F0019789F033
:1019700034C083309105F9F0049731F12EC083E033
:1019800080932F0181E796E090932E0180932D01A3
:1019900024C010922F0181EF9CE090932E01809340
:1019A0002D011BC010922F018AE19DE090932E0122
:1019B00080932D0112C010922F0183E49DE090933B
:1019C0002E0180932D0109C010922F0182E69DE027
:1019D00090932E0180932D01000080E0DF91CF9144
:1019E0000895CF93DF93CDB7DEB70E94A6228091F2
:1019F000550190915601A0915701B0915801BC0139
:101A0000CD010E94B6180E94952280912901882F4D
:101A100090E081709927892B49F081E080932F0114
:101A200080E79CE090932E0180932D0180E0DF9170
:101A3000CF910895CF93DF93CDB7DEB70E94A62252
:101A40008091690190916A01A0916B01B0916C0144
:101A5000BC01CD010E94B6180E94952280912901F7
:101A6000882F90E081709927892B49F082E080933C
:101A70002F0180E79CE090932E0180932D0180E060
:101A8000DF91CF910895CF93DF93CDB7DEB70E945A
:101A9000A6220E94E0180E94952280912901882F99
:101AA00090E081709927892B49F083E080932F0182
:101AB00080E79CE090932E0180932D0180E0DF91E0
:101AC000CF910895CF93DF93CDB7DEB70E94A622C2
:101AD0000E94E0180E94952280912901882F90E0B1
:101AE00081709927892B49F084E080932F0180E74A
:101AF0009CE090932E0180932D0180E0DF91CF91A7
:101B00000895CF93DF93CDB7DEB7109228011092DE
:101B100027011092290110922A0110922B01109294
:101B20002C010000DF91CF910895CF93DF93CDB7C3
:101B3000DEB780913001882F90E0892B49F00E9418
:101B4000A622809130010E94F0180E94952201C0C7
:101B500000000000DF91CF910895CF93DF93CDB7C0
:101B6000DEB780E090E0A8ECB1E48093110190939F
:101B70001201A0931301B093140180E090E0A0E85B
:101B8000BFE38093150190931601A0931701B093C2
:101B900018011092190110921A0110921B01109253
:101BA0001C0110921D0110921E0110921F01109233
:101BB0002001109221011092220110922301109213
:101BC0002401109225010000DF91CF910895CF9359
:101BD000DF93CDB7DEB766970FB6F894DEBF0FBEC2
:101BE000CDBF46E150E060E070E0CE0101960E947A
:101BF000DC2C89818A3229F00E94AD0D0E94140EDE
:101C000009C085E1FE013296A1E1B1E001900D929B
:101C10008A95E1F7000066960FB6F894DEBF0FBE16
:101C2000CDBFDF91CF910895CF93DF93CDB7DEB7CE
:101C300066970FB6F894DEBF0FBECDBF8AE28983E8
:101C400085E1E1E1F1E0DE01129601900D928A95C5
:101C5000E1F746E150E060E070E0CE0101960E94BD
:101C6000EC2C000066960FB6F894DEBF0FBECDBF19
:101C7000DF91CF910895CF93DF93CDB7DEB7F8947E
:101C800081E0DF91CF910895CF93DF9300D0CDB75E
:101C9000DEB79A8389838FE590E029813A81F90143
:101CA0002081FC01208300000F900F90DF91CF91E5
:101CB00008952F923F924F925F926F927F928F92F0
:101CC0009F92AF92BF92CF92DF92EF92FF920F93CB
:101CD0001F93CF93DF9300D000D0CDB7DEB76983D9
:101CE0007A838B839C8328E33EE94FEC58E3698138
:101CF0007A818B819C810E946B29DC01CB0120E0E1
:101D000030E040E05FE3BC01CD010E94FA28DC0135
:101D1000CB01BC01CD010E94E229222E332E442E9C
:101D2000552E662E772E882E992EA22CB32CC42CDD
:101D3000D52CE62CF72C082D192D2A2D3B2D4C2DBA
:101D40005D2D6E2D7F2D802F912F0F900F900F9076
:101D50000F90DF91CF911F910F91FF90EF90DF9047
:101D6000CF90BF90AF909F908F907F906F905F903B
:101D70004F903F902F900895CF93DF93CDB7DEB76C
:101D800028970FB6F894DEBF0FBECDBF29833A83E4
:101D90004B835C836D837E838F83988729813A810F
:101DA0004B815C816D817E818F8198850E948C2A18
:101DB000DC01CB0128E33EE94FEC58E3BC01CD0147
:101DC0000E94A42BDC01CB01BC01CD0128960FB6EB
:101DD000F894DEBF0FBECDBFDF91CF910895CF93B2
:101DE000DF931F92CDB7DEB71092C9011092CA01DE
:101DF0001092CB011092CC011092CD011092CE0125
:101E00001092CF011092D0011092C1011092C20124
:101E10001092C3011092C4011092C5011092C60124
:101E20001092C7011092C801198253C08981282FCE
:101E300030E0C901880F991FAC01440F551F440FB2
:101E4000551F440F551F840F951F87589E4FFC0147
:101E50001082FC011182FC011282FC011382FC0140
:101E60001482FC011582FC011682FC011782C90153
:101E7000880F991FAC01440F551F440F551F440F85
:101E8000551F840F951F8F579E4FFC011082FC0138
:101E90001182FC011282FC011382FC011482FC01FC
:101EA0001582FC011682FC011782C901880F991F57
:101EB0009C01220F331F220F331F220F331F820F6B
:101EC000931F87579E4FFC011182108289818F5F7B
:101ED00089838981843008F4A9CF8EE690E02EE6CC
:101EE00030E0F90120812C7FFC01208385E490E023
:101EF00025E430E0F9012081287FFC01208384E47F
:101F000090E024E430E0F90120812260FC0120838C
:101F100087E490E022E6FC0120838EE690E02EE646
:101F200030E0F90120812260FC01208378940000D8
:101F30000F90DF91CF910895CF93DF931F92CDB78C
:101F4000DEB70E9470108EE690E02EE630E0F901D8
:101F500020812D7FFC01208384E490E024E430E0A4
:101F6000F90120812D7BFC01208386E490E0FC01B7
:101F7000108287E490E0FC0110821092C901109257
:101F8000CA011092CB011092CC011092CD01109297
:101F9000CE011092CF011092D0011092C101109287
:101FA000C2011092C3011092C4011092C501109297
:101FB000C6011092C7011092C801198253C08981CD
:101FC000282F30E0C901880F991FAC01440F551F1D
:101FD000440F551F440F551F840F951F87589E4F60
:101FE000FC011082FC011182FC011282FC011382AF
:101FF000FC011482FC011582FC011682FC0117828F
:10200000C901880F991FAC01440F551F440F551F7C
:10201000440F551F840F951F8F579E4FFC01108250
:10202000FC011182FC011282FC011382FC0114826A
:10203000FC011582FC011682FC011782C901880F80
:10204000991F9C01220F331F220F331F220F331FB2
:10205000820F931F87579E4FFC0111821082898146
:102060008F5F89838981843008F4A9CF00000F90A5
:10207000DF91CF910895CF93DF93CDB7DEB7109264
:10208000C9011092CA011092CB011092CC0110929A
:10209000CD011092CE011092CF011092D00110927A
:1020A000C1011092C2011092C3011092C40110929A
:1020B000C5011092C6011092C7011092C80186E4B2
:1020C00090E0FC01108285E490E025E430E0F90125
:1020D00020812260FC0120830000DF91CF910895D0
:1020E000CF93DF93CDB7DEB785E490E025E430E011
:1020F000F9012081287FFC0120830000DF91CF912E
:1021000008952F923F924F925F926F927F928F929B
:102110009F92AF92BF92CF92DF92EF92FF920F9376
:102120001F93CF93DF93CDB7DEB72C970FB6F894FC
:10213000DEBF0FBECDBF8FE590E0DC018C918C87B8
:102140000E943B0E89875BC0A090C901B090CA0174
:10215000C090CB01D090CC01E090CD01F090CE01A9
:102160000091CF011091D0012090C1013090C201A7
:102170004090C3015090C4016090C5017090C601A9
:102180008090C7019090C8012A2D3B2D4C2D5D2DCC
:102190006E2D7F2D802F912FA22CB32CC42CD52CEB
:1021A000E62CF72C082D192D0E94B12C29833A8397
:1021B0004B835C836D837E838F8398872091C901D5
:1021C0003091CA014091CB015091CC016091CD0179
:1021D0007091CE018091CF019091D0012093C101E7
:1021E0003093C2014093C3015093C4016093C50171
:1021F0007093C6018093C7019093C80119868985A1
:10220000882309F0A1CFCE010C960E94440E1A86B5
:1022100002C28A85882F90E0880F991F9C01220FA7
:10222000331F220F331F220F331F820F931F875735
:102230009E4FFC0180819181892B09F4E9C18A8537
:10224000E82FF0E08A85882F90E0880F991F9C0185
:10225000220F331F220F331F220F331F820F931FB2
:102260008F579E4FDC01AC90DC011196BC90DC01D5
:102270001296CC90DC011396DC90DC011496EC9065
:10228000DC011596FC90DC0116960C91DC0117968A
:102290001C912A2D3B2D4C2D5D2D6E2D7F2D802FD9
:1022A000912FA980BA80CB80DC80ED80FE800F81E9
:1022B00018850E949C2CA22EB32EC42ED52EE62E5D
:1022C000F72E082F192FCF01880F991F9C01220F7D
:1022D000331F220F331F220F331F820F931F8F577D
:1022E0009E4FFC01A082DC011196BC92FC01C282CF
:1022F000DC011396DC92FC01E482DC011596FC9271
:10230000FC010683DC0117961C938A85882F90E0D8
:10231000880F991F9C01220F331F220F331F220F9A
:10232000331F820F931F8F579E4FFC01A080DC014B
:102330001196BC90FC01C280DC011396DC90FC017C
:10234000E480DC011596FC90FC010681DC01179607
:102350001C918A85882F90E0880F991F9C01220F7D
:10236000331F220F331F220F331F820F931F8758F3
:102370009E4FFC012080DC0111963C90FC014280C4
:10238000DC0113965C90FC016480DC0115967C9066
:10239000FC018680DC0117969C902A2D3B2D4C2D4C
:1023A0005D2D6E2D7F2D802F912FA22CB32CC42C50
:1023B000D52CE62CF72C082D192D0E94BA2C08F4E8
:1023C00027C18A85E82FF0E08A85882F90E0880F62
:1023D000991F9C01220F331F220F331F220F331F1F
:1023E000820F931F8F579E4FDC01AC90DC0111963A
:1023F000BC90DC011296CC90DC011396DC90DC01E1
:102400001496EC90DC011596FC90DC0116960C916C
:10241000DC0117961C918A85882F90E0880F991F00
:102420009C01220F331F220F331F220F331F820FF5
:10243000931F87589E4FDC012C90DC0111963C9035
:10244000DC0112964C90DC0113965C90DC01149632
:102450006C90DC0115967C90DC0116968C90DC016A
:1024600017969C902A2D3B2D4C2D5D2D6E2D7F2D8A
:10247000802F912FA22CB32CC42CD52CE62CF72C1A
:10248000082D192D0E94B12CA22EB32EC42ED52EAC
:10249000E62EF72E082F192FCF01880F991F9C01C8
:1024A000220F331F220F331F220F331F820F931F60
:1024B0008F579E4FFC01A082DC011196BC92FC015B
:1024C000C282DC011396DC92FC01E482DC011596E9
:1024D000FC92FC010683DC0117961C938A85882FE9
:1024E00090E0880F991F9C01220F331F220F331F8A
:1024F000220F331F820F931F8F579E4FFC01A08026
:10250000DC011196BC90FC01C280DC011396DC90CA
:10251000FC01E480DC011596FC90FC010681DC01E5
:1025200017961C918A85882F90E0880F991F9C012F
:10253000220F331F220F331F220F331F820F931FCF
:1025400087589E4FFC012080DC0111963C90FC01D5
:102550004280DC0113965C90FC016480DC011596DE
:102560007C90FC018680DC0117969C902A2D3B2DE7
:102570004C2D5D2D6E2D7F2D802F912FA22CB32CF5
:10258000C42CD52CE62CF72C082D192D0E94BA2C22
:1025900020F18A85882F90E0880F991F9C01220FD7
:1025A000331F220F331F220F331F820F931F8F57AA
:1025B0009E4FFC011082DC0111961C92FC011282DC
:1025C000DC0113961C92FC011482DC0115961C920E
:1025D000FC011682DC0117961C928A85882F90E0F8
:1025E000880F991F9C01220F331F220F331F220FC8
:1025F000331F820F931F87579E4FFC01808191816B
:10260000FC0109958B878B85882311F08B8508C089
:102610008A858F5F8A878A85843008F4FACD80E0C6
:102620002C960FB6F894DEBF0FBECDBFDF91CF91D1
:102630001F910F91FF90EF90DF90CF90BF90AF90E0
:102640009F908F907F906F905F904F903F902F90D2
:102650000895AF92BF92CF92DF92EF92FF920F93C5
:102660001F93CF93DF93CDB7DEB72091C101309197
:10267000C2014091C3015091C4016091C5017091A4
:10268000C6018091C7019091C801A22EB32EC42E1D
:10269000D52EE62EF72E082F192F2A2D3B2D4C2D47
:1026A0005D2D6E2D7F2D802F912FDF91CF911F916A
:1026B0000F91FF90EF90DF90CF90BF90AF90089573
:1026C0008F929F92AF92BF92CF92DF92EF92FF9242
:1026D0000F931F93CF93DF93CDB7DEB727970FB636
:1026E000F894DEBF0FBECDBF69837A838B839C8352
:1026F0005E834D832F838F81843010F00E94D72C0E
:102700008F81882E912C89819A81AB81BC81BC01FB
:10271000CD010E94590EA22EB32EC42ED52EE62E28
:10272000F72E082F192FC401880F991F9C01220F23
:10273000331F220F331F220F331F820F931F87581F
:102740009E4FFC01A082FC01B182FC01C282FC010F
:10275000D382FC01E482FC01F582FC010683FC01CA
:102760001783C401880F991F9C01220F331F220F6A
:10277000331F220F331F820F931F8F579E4FFC0171
:102780001082FC011182FC011282FC011382FC0107
:102790001482FC011582FC011682FC011782C4011F
:1027A000880F991F9C01220F331F220F331F220F06
:1027B000331F820F931F87579E4F2D813E81FC014F
:1027C00031832083000027960FB6F894DEBF0FBE3A
:1027D000CDBFDF91CF911F910F91FF90EF90DF90D0
:1027E000CF90BF90AF909F908F9008951F920F92BF
:1027F00000905F000F921124AF92BF92CF92DF92B0
:10280000EF92FF920F931F932F933F934F935F93FA
:102810006F937F938F939F93AF93CF93DF93CDB7B6
:10282000DEB7A090C901B090CA01C090CB01D09092
:10283000CC01E090CD01F090CE010091CF0110913C
:10284000D0012A2D3B2D4C2D5D2D6E2D7F2D802FFF
:10285000912FA1E00E94A52CA22EB32EC42ED52E1E
:10286000E62EF72E082F192FA092C901B092CA01A7
:10287000C092CB01D092CC01E092CD01F092CE017A
:102880000093CF011093D0010000DF91CF91AF9161
:102890009F918F917F916F915F914F913F912F9178
:1028A0001F910F91FF90EF90DF90CF90BF90AF906E
:1028B0000F9000925F000F901F901895CF93DF93B9
:1028C000CDB7DEB780E790E0FC01108281EB90E0AD
:1028D00021EB30E0F9012081297FFC01208380EB8E
:1028E00090E020EB30E0F90120812160FC012083A1
:1028F00083EB90E0FC01108282EB90E0FC011082FF
:102900008AE290E02AE230E0F90120812068FC01AF
:1029100020838BE290E02BE230E0F90120812F77D9
:10292000FC0120830000DF91CF910895CF93DF93C6
:10293000CDB7DEB781EB90E021EB30E0F9012081EB
:10294000297FFC01208382EB90E0FC01108283EB65
:1029500090E0FC01108280EB90E020EB30E0F90188
:1029600020812E77FC0120838AE290E02AE230E089
:10297000F90120812F77FC0120838BE290E02BE28C
:1029800030E0F90120812F77FC0120830000DF91E6
:10299000CF910895CF93DF9300D01F92CDB7DEB7CC
:1029A0008B8364E68B810E94561A60E00E94451A70
:1029B000282F30E04FEF429FC001439F900D11241C
:1029C00096958795969587959C01ABE7B4E10E9413
:1029D000822C969587959A83898383EB90E0298151
:1029E000FC01208300000F900F900F90DF91CF919A
:1029F0000895CF93DF93CDB7DEB782EB90E0FC0173
:102A0000108283EB90E0FC01108280EB90E020EBE1
:102A100030E0F90120812068FC01208381EB90E007
:102A200021EB30E0F90120812660FC0120830000C9
:102A3000DF91CF910895CF93DF93CDB7DEB780EBD1
:102A400090E020EB30E0F90120812F77FC0120831A
:102A500081EB90E021EB30E0F9012081297FFC013E
:102A6000208382EB90E0FC0110820000DF91CF9187
:102A70000895CF93DF931F92CDB7DEB70E949900E0
:102A800089838981882309F0FFCF80E090E00F904F
:102A9000DF91CF9108950F93CF93DF9300D000D0B3
:102AA0001F92CDB7DEB769837A838B839C834D8376
:102AB0008D81882F90E08130910589F082309105D9
:102AC0001CF4892B39F01AC08230910569F0039704
:102AD00081F014C06FEB80E00E941A220FC066E8FC
:102AE00080E00E941A220AC06BED80E00E941A2248
:102AF00005C06FEC80E00E941A22000089819A8153
:102B0000AB81BC8105E021E041E0BC01CD010E9428
:102B1000342200000F900F900F900F900F90DF91D4
:102B2000CF910F910895CF93DF931F92CDB7DEB76A
:102B300089838981882F90E08230910549F1833023
:102B400091052CF4009771F0019789F079C08430D9
:102B5000910509F447C0843091055CF1059709F4AB
:102B600056C06EC060E480E00E941A2269C064E72B
:102B700080E00E941A2269E781E00E941A2267E73A
:102B800082E00E941A2268E783E00E941A2258C05D
:102B90006DE680E00E941A2268E781E00E941A2216
:102BA00066E082E00E941A2260E583E00E941A2219
:102BB00047C068EF80E00E941A2269E381E00E942A
:102BC0001A2267E782E00E941A2268E383E00E94EB
:102BD0001A2266E084E00E941A226CE785E00E94D7
:102BE0001A222EC068E380E00E941A226CE581E080
:102BF0000E941A2267E782E00E941A226EED83E0AB
:102C00000E941A226DEE84E00E941A2219C06DE61D
:102C100080E00E941A2268E781E00E941A226CE597
:102C200082E00E941A2260E583E00E941A2269EF86
:102C300084E00E941A226DEE85E00E941A220000B4
:102C400000000F90DF91CF910895CF93DF931F92F3
:102C5000CDB7DEB789838981882F90E082309105D6
:102C600089F1833091052CF4009771F00197A9F058
:102C700069C08430910509F447C0843091059CF106
:102C8000059709F44EC05EC060E480E00E941A22FD
:102C900060E481E00E941A2255C06CE580E00E9449
:102CA0001A2264E581E00E941A226CE582E00E940B
:102CB0001A2261E783E00E941A2261E784E00E9401
:102CC0001A2240C068E780E00E941A226FEE81E07D
:102CD0000E941A2268E782E00E941A2263E783E0DA
:102CE0000E941A222FC068EF80E00E941A226DE62F
:102CF00081E00E941A2269E782E00E941A2268E3BA
:102D000083E00E941A221EC063E780E00E941A221C
:102D100066E081E00E941A226EE582E00E941A229B
:102D200011C06CE580E00E941A2261E781E00E94F8
:102D30001A2261E782E00E941A226DE683E00E9477
:102D40001A22000000000F90DF91CF910895CF93D9
:102D5000DF931F92CDB7DEB789838981882F90E0FA
:102D6000009719F0019751F01EC060E480E00E94C6
:102D70001A2260E481E00E941A2215C06DE680E00C
:102D80000E941A2263E781E00E941A2269E782E02A
:102D90000E941A2269E783E00E941A226EE584E00D
:102DA0000E941A22000000000F90DF91CF91089539
:102DB000CF93DF9300D0CDB7DEB789836A838A8152
:102DC000882309F43FC08981882F90E081309105E4
:102DD000A9F0823091051CF4892B39F02AC0823089
:102DE0009105A9F00397E1F024C068E784E00E9410
:102DF0001A226FE385E00E941A222DC068E784E062
:102E00000E941A2266E085E00E941A2224C068E728
:102E100084E00E941A226BE585E00E941A221BC002
:102E200068E784E00E941A226FE485E00E941A227B
:102E300012C064E580E00E941A2269E381E00E94EA
:102E40001A2209C064E580E00E941A2269E381E049
:102E50000E941A2200C000000F900F90DF91CF91C6
:102E60000895CF93DF931F92CDB7DEB78983898111
:102E7000882F90E081309105C9F0823091051CF4D3
:102E8000892B39F022C082309105A9F00397C1F057
:102E90001CC060E480E00E941A2260E481E00E948D
:102EA0001A2260E482E00E941A220FC063E780E0E9
:102EB0000E941A220AC066E080E00E941A2205C021
:102EC0006EE580E00E941A22000000000F90DF9162
:102ED000CF910895CF93DF931F92CDB7DEB789834B
:102EE0008981882369F060E380E00E941A226CE502
:102EF00081E00E941A2264E582E00E941A2210C03A
:102F000060E380E00E941A226CE581E00E941A22B0
:102F100061E782E00E941A2261E783E00E941A22A0
:102F200000000F90DF91CF9108950F93CF93DF931F
:102F300000D000D0CDB7DEB769837A838B839C83C2
:102F400060E380E00E941A2289819A81AB81BC8172
:102F500005E021E041E0BC01CD010E9434220000E7
:102F60000F900F900F900F90DF91CF910F910895D8
:102F70000F93CF93DF9300D000D0CDB7DEB7698336
:102F80007A838B839C8363E780E00E941A22898185
:102F90009A81AB81BC8105E022E041E0BC01CD011A
:102FA0000E94342200000F900F900F900F90DF913D
:102FB000CF910F9108950F93CF93DF9300D000D05E
:102FC000CDB7DEB769837A838B839C8366E080E02C
:102FD0000E941A2289819A81AB81BC8105E022E09E
:102FE00041E0BC01CD010E94342200000F900F90FF
:102FF0000F900F90DF91CF910F9108950F93CF9382
:10300000DF9300D000D0CDB7DEB769837A838B839E
:103010009C836EE580E00E941A2289819A81AB81AF
:10302000BC8105E022E041E0BC01CD010E943422D8
:1030300000000F900F900F900F90DF91CF910F91A4
:1030400008950F93CF93DF9300D000D0CDB7DEB7B4
:1030500069837A838B839C8360E380E00E941A22D9
:1030600089819A81AB81BC8105E021E041E0BC010E
:10307000CD010E94342200000F900F900F900F900E
:10308000DF91CF910F910895CF93DF931F92CDB72A
:10309000DEB7898360E380E00E941A228981882359
:1030A00041F08981882F90E045E061E00E946C2228
:1030B0000CC06CE581E00E941A2261E782E00E9468
:1030C0001A2261E783E00E941A2200000F90DF912C
:1030D000CF910895CF93DF931F92CDB7DEB7898349
:1030E0008981882F90E08230910501F1833091052C
:1030F0002CF4009749F0019781F033C0833091059B
:10310000F1F0049729F12DC060E480E00E941A22BA
:1031100060E481E00E941A2224C068E780E00E94F7
:103120001A226FE381E00E941A221BC068E780E048
:103130000E941A2266E081E00E941A2212C068E70B
:1031400080E00E941A226BE581E00E941A2209C0E9
:1031500068E780E00E941A226FE481E00E941A2250
:10316000000000000F90DF91CF9108950F93CF934F
:10317000DF9300D000D0CDB7DEB769837A838B832D
:103180009C8389819A81AB81BC81BF7720E030E04C
:103190004AE754E4BC01CD010E946B29DC01CB015C
:1031A00006E023E040E0BC01CD010E943422000093
:1031B0000F900F900F900F90DF91CF910F91089586
:1031C000CF93DF93CDB7DEB764E580E00E941A228B
:1031D00069E381E00E941A220000DF91CF910895F7
:1031E000CF93DF931F92CDB7DEB789838981882F74
:1031F00090E08330910509F447C08430910534F4A0
:103200008130910541F1029769F09AC085309105AE
:1032100009F481C0853091050CF44FC0069709F47C
:1032200065C08EC068E780E00E941A2264EF81E0EA
:103230000E941A226DE682E00E941A2264E783E06F
:103240000E941A2260E584E00E941A2268E785E065
:103250000E941A228AC068E780E00E941A2264EF66
:1032600081E00E941A226CE582E00E941A2263E744
:1032700083E00E941A2269E784E00E941A2264E532
:1032800085E00E941A2271C068E780E00E941A223D
:1032900064EF81E00E941A2264E582E00E941A2213
:1032A00060E583E00E941A2269E784E00E941A2206
:1032B0006DE685E00E941A2258C068E780E00E940F
:1032C0001A2264EF81E00E941A2264E582E00E94E3
:1032D0001A226CE583E00E941A2263E784E00E94D0
:1032E0001A2269E785E00E941A223FC068E780E061
:1032F0000E941A2264EF81E00E941A2268E382E0B1
:103300000E941A2268E783E00E941A2263E784E0A1
:103310000E941A222AC068E780E00E941A2264EF05
:1033200081E00E941A2264E782E00E941A2268E784
:1033300083E00E941A2263E784E00E941A2215C0EB
:1033400069E780E00E941A2260E581E00E941A226B
:1033500060E582E00E941A226CE583E00E941A2256
:1033600060E584E00E941A22000000000F90DF91C7
:10337000CF910895CF93DF9300D000D01F92CDB7A7
:10338000DEB79D838C838C819D81992314F40E94E8
:10339000D72C81E090E09A8389831B8210C08981B9
:1033A0009A81880F991F9C01220F331F220F331F10
:1033B000820F931F9A8389838B818F5F8B838B818D
:1033C000282F30E08C819D812817390744F38981AB
:1033D0009A810F900F900F900F900F90DF91CF91E7
:1033E0000895CF93DF9300D0CDB7DEB789836A838A
:1033F00099818A8189170CF4892F0F900F90DF91A2
:10340000CF910895CF93DF9300D000D0CDB7DEB732
:103410009A8389837C836B8329813A818B819C8108
:10342000821793070CF4C9010F900F900F900F9023
:10343000DF91CF910895CF93DF9300D0CDB7DEB762
:1034400089836A8399818A8198170CF4892F0F9058
:103450000F90DF91CF910895CF93DF9300D000D0EC
:10346000CDB7DEB79A8389837C836B8329813A81C8
:103470008B819C81281739070CF4C9010F900F909C
:103480000F900F90DF91CF910895CF93DF9300D0ED
:10349000CDB7DEB789836A8399818A81891708F459
:1034A000892F0F900F90DF91CF910895CF93DF93E5
:1034B00000D0CDB7DEB789836A8399818A81981756
:1034C00008F4892F0F900F90DF91CF910895CF933B
:1034D000DF93CDB7DEB728970FB6F894DEBF0FBEE7
:1034E000CDBF69837A838B839C832D833E834F83F7
:1034F00058872D813E814F81588569817A818B81E2
:103500009C810E944F2B18162CF489819A81AB81E3
:10351000BC8104C08D819E81AF81B885BC01CD0185
:1035200028960FB6F894DEBF0FBECDBFDF91CF91C6
:103530000895CF93DF93CDB7DEB728970FB6F894F1
:10354000DEBF0FBECDBF69837A838B839C832D83BF
:103550003E834F8358872D813E814F8158856981F5
:103560007A818B819C810E94662988232CF4898131
:103570009A81AB81BC8104C08D819E81AF81B88569
:10358000BC01CD0128960FB6F894DEBF0FBECDBFAB
:10359000DF91CF9108958F929F92AF92BF92CF9279
:1035A000DF92EF92FF920F931F93CF93DF93CDB7EC
:1035B000DEB762970FB6F894DEBF0FBECDBF9A8319
:1035C00089834B835C836D837E830F831887298770
:1035D0003A87CB86DC86ED86FE868F86988AA98A16
:1035E000BA8A29813A818B819C81AD81BE81F901A2
:1035F00080879187A287B38729813A818F819885B7
:10360000A985BA85F90184879587A687B787298117
:103610003A818B859C85AD85BE85F901808B918B28
:10362000A28BB38B29813A8189A19AA1ABA1BCA1BC
:10363000F901808F918FA28FB38F29813A818F8575
:103640009889A989BA89F901848B958BA68BB78B48
:1036500089819A81FC0110821182128213828981F0
:103660009A81FC01148215821682178200006296EC
:103670000FB6F894DEBF0FBECDBFDF91CF911F9183
:103680000F91FF90EF90DF90CF90BF90AF909F9001
:103690008F9008958F929F92AF92BF92CF92DF92B8
:1036A000EF92FF920F931F93CF93DF93CDB7DEB7C7
:1036B00062970FB6F894DEBF0FBECDBF9A838983A1
:1036C0004B835C836D837E830F83188729873A87BA
:1036D000CB86DC86ED86FE868F86988AA98ABA8A92
:1036E00029813A818B819C81AD81BE81F9018087DE
:1036F0009187A287B38729813A818F819885A9858F
:10370000BA85F90184879587A687B78729813A8189
:103710008B859C85AD85BE85F901808B918BA28BB5
:10372000B38B29813A8189A19AA1ABA1BCA1F901EE
:10373000808F918FA28FB38F29813A818F8598894D
:10374000A989BA89F901848B958BA68BB78B89815E
:103750009A81FC01108211821282138289819A81DE
:10376000FC011482158216821782000062960FB641
:10377000F894DEBF0FBECDBFDF91CF911F910F91A7
:10378000FF90EF90DF90CF90BF90AF909F908F9081
:1037900008958F929F92AF92BF92CF92DF92EF9255
:1037A000FF920F931F93CF93DF93CDB7DEB76E9742
:1037B0000FB6F894DEBF0FBECDBF9E8B8D8B4F8BA7
:1037C000588F698F7A8F0B8F1C8F2D8F3E8F2F898B
:1037D000388D498D5A8D6B8D7C8D8D8D9E8D0E947F
:1037E000F928DC01CB0189839A83AB83BC838D8963
:1037F0009E89FC0180859185A285B38529813A81C6
:103800004B815C81BC01CD010E94A42BDC01CB016A
:103810008D839E83AF83B8878D899E89FC01C48484
:10382000D584E684F7848D899E89FC018481958105
:10383000A681B78129813A814B815C81BC01CD0190
:103840000E94FA28DC01CB019C01AD01C701B60141
:103850000E94A42BDC01CB0189879A87AB87BC87A8
:103860008D899E89FC01C088D188E288F3888D8982
:103870009E89FC0180819181A281B3819C01AD016F
:103880006F89788D898D9A8D0E94F928DC01CB0192
:103890009C01AD01C701B6010E94A42BDC01CB0144
:1038A0008D879E87AF87B88B2D893E898F89988DAC
:1038B000A98DBA8DF90180839183A283B383298571
:1038C0003A854B855C856D817E818F8198850E94CC
:1038D000FA28DC01CB012D853E854F855889BC0136
:1038E000CD010E94FA28DC01CB01898B9A8BAB8B2E
:1038F000BC8B8D899E89FC0184899589A689B789AD
:1039000029893A894B895C89BC01CD010E946629CD
:10391000181674F18D899E89FC01808D918DA28D80
:10392000B38D29893A894B895C89BC01CD010E94FC
:103930004F2B8823ECF08D899E89FC018481958131
:10394000A681B78129813A814B815C81BC01CD017F
:103950000E94FA28DC01CB012D893E89F90184837C
:103960009583A683B78389899A89AB89BC8946C028
:103970008D899E89FC01C488D588E688F7888D8961
:103980009E89FC01808C918CA28CB38C8D899E8940
:10399000FC0184859585A685B7852D893E89F90129
:1039A0002481358146815781BC01CD010E94A42B21
:1039B000DC01CB012D813E814F815885BC01CD01B9
:1039C0000E94FA28DC01CB012D853E854F85588960
:1039D000BC01CD010E94FA28DC01CB01A5019401B4
:1039E000BC01CD010E94991ADC01CB01A70196010F
:1039F000BC01CD010E94671ADC01CB01BC01CD01E5
:103A00006E960FB6F894DEBF0FBECDBFDF91CF919B
:103A10001F910F91FF90EF90DF90CF90BF90AF90EC
:103A20009F908F900895CF93DF9300D0CDB7DEB7EE
:103A30009A83898389819A81FC0110821182128282
:103A4000138289819A81FC01148215821682178261
:103A500000000F900F90DF91CF910895CF93DF93E7
:103A6000CDB7DEB7F89481E0DF91CF910895CF9381
:103A7000DF9300D0CDB7DEB79A8389838FE590E0DE
:103A800029813A81F9012081FC01208300000F90F7
:103A90000F90DF91CF910895CF93DF93CDB7DEB72D
:103AA00084E290E024E230E0F9012081237FFC01F0
:103AB000208385E290E025E230E0F90120812C604E
:103AC000FC012083109202011092010183E290E038
:103AD000FC018081882F90E084709927892B19F44C
:103AE00082E08093000183E290E0FC018081882FD6
:103AF00090E088709927892B29F4809100018160DA
:103B0000809300010000DF91CF910895CF93DF9360
:103B1000CDB7DEB7109202011092010185E290E06C
:103B200025E230E0F9012081237FFC0120830000A1
:103B3000DF91CF910895CF93DF9300D000D0CDB720
:103B4000DEB78FE590E0FC0180818C830E942E1D02
:103B50008B830BC080910101909102019A8389832C
:103B600010920201109201011B828B81882391F730
:103B7000CE0104960E94371D89819A810F900F9083
:103B80000F900F90DF91CF910895CF93DF9300D0E6
:103B900000D0CDB7DEB780910001882F90E0880F6C
:103BA000991F880F991F8F708093000183E290E026
:103BB000FC018081882F90E084709927892B29F45B
:103BC0008091000182608093000183E290E0FC011B
:103BD0008081882F90E088709927892B29F4809123
:103BE000000181608093000180910001882F90E0A6
:103BF000880F991F86519F4F9A83898389819A8163
:103C0000FC0125913491CF013C832B839A838983D6
:103C10008B819C819C018091010190910201820F16
:103C2000931F909302018093010180910101909173
:103C30000201BC0188EE93E00E942C1ABC0188E1CD
:103C40009CEF0E94021A90930201809301010000F0
:103C50000F900F900F900F90DF91CF910895CF9319
:103C6000DF93CDB7DEB784E290E024E230E0F901E3
:103C70002081206FFC01208385E290E025E230E086
:103C8000F90120812F71FC01208385E290E025E27B
:103C900030E0F90120812061FC0120830E94D41EC4
:103CA0000E94081F0000DF91CF910895CF93DF930A
:103CB000CDB7DEB70E94D41E0E94081F0000DF911E
:103CC000CF910895CF93DF931F92CDB7DEB789834D
:103CD00085E290E025E230E0F9012081422F4F7724
:103CE0002981222F30E03695322F222737952795CC
:103CF000242BFC0120830E94EE1E00000F90DF9118
:103D0000CF910895CF93DF9300D0CDB7DEB78A83EC
:103D1000198211C08A81882F90E02981222F30E0FA
:103D200002C0959587952A95E2F781700E94621EE0
:103D300089818F5F89838981883060F300000F90CB
:103D40000F90DF91CF910895CF93DF9300D000D0F3
:103D5000CDB7DEB79B838A836C83198219C08C81AF
:103D6000882F90E09C01215031098981882F90E0B3
:103D7000A901481B590BCA019C018A819B81820FB2
:103D8000931FFC0180810E94821E89818F5F89833D
:103D900099818C81981718F300000F900F900F9065
:103DA0000F90DF91CF910895CF93DF93CDB7DEB71A
:103DB00085E290E025E230E0F90120812F7EFC01D0
:103DC000208385E290E025E230E0F9012081206146
:103DD000FC0120830000DF91CF910895CF93DF9302
:103DE000CDB7DEB785E290E025E230E0F901208131
:103DF0002062FC01208385E290E025E230E0F901B9
:103E000020812F7DFC0120830000DF91CF91089558
:103E1000CF93DF93CDB7DEB785E290E025E230E0C7
:103E2000F90120812064FC01208385E290E025E2F5
:103E300030E0F90120812F7BFC0120830000DF911D
:103E4000CF910895CF93DF931F92CDB7DEB78983CB
:103E50008981882F90E0092E000CAA0BBB0B40E053
:103E600050E029E030E0841B950B28173907C8F093
:103E7000825C9F4FFC010C947C2C8FE313C086E086
:103E800011C08BE50FC08FE40DC086E60BC08DE638
:103E900009C08DE707C087E005C08FE703C08FE644
:103EA00001C08FE30F90DF91CF910895CF93DF93FF
:103EB00000D01F92CDB7DEB79B838A838A819B8116
:103EC000892B11F481E01BC019828A819B8199237F
:103ED0008CF489818F5F89830DC08A819B812AE060
:103EE00030E0B9010E94462CCB019B838A838981F3
:103EF0008F5F89838A819B81892B79F789810F90D4
:103F00000F900F90DF91CF910895CF93DF9300D062
:103F100000D0CDB7DEB79B838A836C838A819B8177
:103F2000892B39F48C81882311F082E01CC081E058
:103F30001AC019828C81882389F089818F5F8983D7
:103F40000DC08A819B812AE030E0B9010E94462C95
:103F5000CB019B838A8389818F5F89838A819B813F
:103F6000892B79F789810F900F900F900F90DF9137
:103F7000CF9108950F931F93CF93DF93CDB7DEB703
:103F800027970FB6F894DEBF0FBECDBF9C838B83FF
:103F90007E836D834F8319828C81881F8827881FB9
:103FA0008A838A81882339F08B819C8191958195C0
:103FB00091099C838B838B819C81892BD1F58F8187
:103FC000882F90E001972D813E81820F931F2FE370
:103FD000FC01208389818F5F898345C08F81882F71
:103FE00090E09C0121503109898191E0980F9983DB
:103FF000882F90E0A901481B590BCA019C018D81B3
:104000009E818C01020F131F8B819C812AE030E07E
:10401000B9010E94462C0E94221FF80180838B81E7
:104020009C812AE030E0B9010E94462CCB019C83A0
:104030008B838B819C8118161906ACF48981282FFB
:1040400030E08F81482F50E081E09A81992309F474
:1040500080E0882F90E0BA01681B790BCB0128170C
:1040600039070CF4BBCF8A818823A9F08F81882F70
:1040700090E09C01215031098981882F90E0F9015D
:10408000E81BF90BCF019C018D819E81820F931F4C
:1040900020E4FC01208381E027960FB6F894DEBF70
:1040A0000FBECDBFDF91CF911F910F9108950F9358
:1040B0001F93CF93DF93CDB7DEB727970FB6F89452
:1040C000DEBF0FBECDBF9B838A836C835E834D832F
:1040D0002F8319828C81882339F08A819B81919565
:1040E000819591099B838A838A819B81892BD1F554
:1040F0008F81882F90E001972D813E81820F931F41
:104100002FE3FC01208389818F5F898345C08F81E4
:10411000882F90E09C0121503109898191E0980F0E
:104120009983882F90E0A901481B590BCA019C0173
:104130008D819E818C01020F131F8A819B812AE051
:1041400030E0B9010E94462C0E94221FF8018083B2
:104150008A819B812AE030E0B9010E94462CCB0184
:104160009B838A838A819B8118161906ACF4898106
:10417000282F30E08F81482F50E081E09C819923E7
:1041800009F480E0882F90E0BA01681B790BCB011D
:10419000281739070CF4BBCF8C818823A9F08F81B5
:1041A000882F90E09C01215031098981882F90E06F
:1041B000F901E81BF90BCF019C018D819E81820FD3
:1041C000931F20E4FC01208381E027960FB6F8942A
:1041D000DEBF0FBECDBFDF91CF911F910F9108952C
:1041E000CF92DF92EF92FF920F931F93CF93DF93C3
:1041F000CDB7DEB761970FB6F894DEBF0FBECDBF67
:104200006A877B878C879D874E87388B2F87098BA2
:1042100011E020E030E0A9016A857B858C859D85D1
:104220000E94662988230CF010E01B836A857B8539
:104230008C859D850E94192ADC01CB019D838C838E
:104240008C819D81092E000CAA0BBB0BBC01CD01FA
:104250000E94512ADC01CB019C01AD016A857B855E
:104260008C859D850E94F928DC01CB016C017D01C4
:10427000E894F7F88E85882F90E00E94BA19092EED
:10428000000CAA0BBB0BBC01CD010E94512ADC0122
:10429000CB019C01AD01C701B6010E94A42BDC013A
:1042A000CB01BC01CD010E94192ADC01CB019F8307
:1042B0008E838C819D816B810E94851F88878E8172
:1042C0009F810E94561F89878885282F30E08E8520
:1042D000882F90E0280F391F8989882F90E0821756
:1042E000930714F480E07FC08989282F30E08E8501
:1042F000882F90E0A901481B590BCA019C018F85AA
:104300009889AC01420F531F8E819F812E8560E0FA
:104310000E9457201A82198219C08989282F30E0FB
:104320008E85882F90E0281B390B89819A81820F16
:10433000931F9C018F859889820F931F2FE3FC01A7
:10434000208389819A8101969A8389838E85282F7B
:1043500030E08985882F90E0281B390B89819A816C
:1043600082179307D4F28989282F30E08E85882F11
:1043700090E0281B390B8885882F90E0A901481B05
:10438000590BCA019C018F859889AC01420F531FBC
:104390008C819D8128856B810E9457208989282FD7
:1043A00030E08E85882F90E0B901681B790BCB0136
:1043B00001972F853889820F931F2989422F50E05A
:1043C0002E85222F30E0FA01E21BF30B9F012150D2
:1043D00031094F855889240F351FF9012081206844
:1043E000FC01208381E061960FB6F894DEBF0FBE1A
:1043F000CDBFDF91CF911F910F91FF90EF90DF9094
:10440000CF900895CF93DF93CDB7DEB70E942F1ED4
:104410000E94A6220E9495220000DF91CF9108956C
:10442000CF93DF93CDB7DEB70E94561E0000DF9119
:10443000CF910895CF93DF9300D0CDB7DEB78983B6
:104440006A838981863010F080E009C08981882FD5
:1044500090E08D5F9E4F2A81FC01208381E00F90C8
:104460000F90DF91CF9108950F93CF93DF93CDB746
:10447000DEB727970FB6F894DEBF0FBECDBF6983B6
:104480007A838B839C834D832E830F838D81282F8A
:1044900030E08F81882F90E0820F931F079714F0F0
:1044A00080E010C08D81882F90E09C012D5F3E4FF1
:1044B00089819A81AB81BC810F814E81BC01CD0184
:1044C0000E94F02027960FB6F894DEBF0FBECDBF36
:1044D000DF91CF910F910895CF93DF9300D000D05B
:1044E000CDB7DEB79A8389836B834C838B81282F6A
:1044F00030E08C81882F90E0820F931F079714F093
:1045000080E00CC08B81882F90E09C012D5F3E4F96
:1045100089819A814C81B9010E94BA1F0F900F9036
:104520000F900F90DF91CF910895CF93DF93CDB788
:10453000DEB70E94D41E66E083E091E00E94A41ED4
:104540000E94081F0000DF91CF910895CF93DF9361
:104550001F92CDB7DEB719820AC08981882F90E0FB
:104560008D5F9E4FFC01108289818F5F89838981D5
:10457000863098F300000F90DF91CF910895CF938C
:10458000DF93CDB7DEB78FE690E0FC01108281E8C3
:1045900090E021E830E0F90120812E7FFC012083AA
:1045A00080E890E020E830E0F9012081FC012083E0
:1045B00081E890E021E830E0F90120812061FC01F0
:1045C000208386E890E020EA30E0FC0131832083FC
:1045D00088E890E0FC011182108284E890E0FC0100
:1045E000118210828AE290E02AE230E0F901208113
:1045F0002062FC0120838BE290E02BE230E0F901A5
:1046000020812F7DFC0120830000DF91CF91089550
:10461000CF93DF93CDB7DEB781E890E021E830E0BB
:10462000F90120812E7FFC01208386E890E0FC01C7
:104630001182108284E890E0FC011182108288E8E7
:1046400090E0FC011182108280E890E020E830E0E8
:10465000F90120812F77FC01208381E890E021E897
:1046600030E0F90120812F7EFC0120838AE290E076
:104670002AE230E0F90120812F7DFC0120838BE2CA
:1046800090E02BE230E0F90120812F7DFC012083B6
:104690000000DF91CF910895CF93DF9300D000D039
:1046A0001F92CDB7DEB78D8364E68D810E94561AC6
:1046B00060E00E94451A282F30E040E050E080EA98
:1046C00090E0DC010E94912CDC01CB0124E630E07B
:1046D00040E050E0BC01CD010E945A2CDA01C90132
:1046E00089839A83AB83BC8388E890E029813A81EF
:1046F000FC013183208300000F900F900F900F90EA
:104700000F90DF91CF910895CF93DF93CDB7DEB7B0
:1047100084E890E0FC011182108288E890E0FC01BE
:104720001182108280E890E020E830E0F9012081D9
:104730002068FC01208381E890E021E830E0F90165
:1047400020812160FC0120830000DF91CF9108953A
:10475000CF93DF93CDB7DEB780E890E020E830E07C
:10476000F90120812F77FC01208381E890E021E886
:1047700030E0F90120812E7FFC01208384E890E065
:10478000FC01118210820000DF91CF910895CF9338
:10479000DF931F92CDB7DEB784E290E024E230E0F1
:1047A000F90120812C7FFC01208385E290E025E245
:1047B00030E0F90120812360FC012083109209017F
:1047C00010920A0110920B0110920E0119820AC078
:1047D0008981882F90E0845F9E4FFC01108289813F
:1047E0008F5F89838981823098F383E080930F0102
:1047F00083E08093100100000F90DF91CF91089526
:10480000CF93DF931F92CDB7DEB785E290E025E22C
:1048100030E0F90120812C7FFC01208310920901F6
:1048200010920A0110920B0110920E0119820AC017
:104830008981882F90E0845F9E4FFC0110828981DE
:104840008F5F89838981823098F383E080930F01A1
:1048500083E08093100100000F90DF91CF910895C5
:10486000CF93DF931F92CDB7DEB789838091090183
:10487000882F90E02981222F30E002C095958795FE
:104880002A95E2F781709927892B91F08981282F49
:1048900030E081E090E002C0880F991F2A95E2F78E
:1048A00080959091090189238093090181E001C0DD
:1048B00080E00F90DF91CF910895CF93DF931F9207
:1048C000CDB7DEB7898380910A01882F90E02981D6
:1048D000222F30E002C0959587952A95E2F78170E6
:1048E0009927892B91F08981282F30E081E090E091
:1048F00002C0880F991F2A95E2F7809590910A01CE
:10490000892380930A0181E001C080E00F90DF914C
:10491000CF910895CF93DF931F92CDB7DEB78983F0
:1049200080910B01882F90E02981222F30E002C076
:10493000959587952A95E2F781709927892B91F0B3
:104940008981282F30E081E090E002C0880F991F14
:104950002A95E2F7809590910B01892380930B01B2
:1049600081E001C080E00F90DF91CF910895CF9357
:10497000DF931F92CDB7DEB7898380910E01882F18
:1049800090E02981222F30E002C0959587952A95E5
:10499000E2F781709927892B11F081E001C080E056
:1049A0000F90DF91CF910895CF93DF9300D000D087
:1049B000CDB7DEB783E290E0FC01808180959091D5
:1049C0000E0189278A8390910F018A81892380951E
:1049D00080930F01909110018A81982380910F019B
:1049E00089278093100190910F01809110018923F4
:1049F000882F90E083709927982F8A8189238A8352
:104A000090910E018A81892780930E0180910E0179
:104A10009A8189238B8380910E01982F90958A81AA
:104A200089238C83198281C08B81882F90E0298112
:104A3000222F30E002C0959587952A95E2F7817084
:104A40009927892BC1F08981282F30E081E090E0FF
:104A500002C0880F991F2A95E2F7982F80910901CB
:104A6000892B809309018981882F90E0845F9E4F74
:104A7000FC0110821FC08C81882F90E02981222F99
:104A800030E002C0959587952A95E2F781709927C5
:104A9000892B81F08981282F30E081E090E002C0ED
:104AA000880F991F2A95E2F7982F80910A01892B88
:104AB00080930A0180910E01882F90E02981222F96
:104AC00030E002C0959587952A95E2F78170992785
:104AD000892B41F18981882F90E0845F9E4FFC01F2
:104AE00080818436F8F48981882F90E09C01245FCE
:104AF0003E4FF90120812F5F845F9E4FFC01208390
:104B0000243681F48981282F30E081E090E002C0D2
:104B1000880F991F2A95E2F7982F80910B01892B16
:104B200080930B0189818F5F89838981823008F4AA
:104B30007BCF00000F900F900F900F90DF91CF91DF
:104B40000895CF93DF93CDB7DEB7F89481E0DF917E
:104B5000CF910895CF93DF9300D0CDB7DEB79A837E
:104B600089838FE590E029813A81F9012081FC0158
:104B7000208300000F900F90DF91CF910895CF9385
:104B8000DF93CDB7DEB78AE790E02AE730E0F9019E
:104B900020812775FC0120838CE790E0FC011082C6
:104BA0008CE790E02CE730E0F90120812064FC01E3
:104BB00020838AE790E02AE730E0F901208126602F
:104BC000FC0120838EE790E020EFFC0120830000B1
:104BD000DF91CF910895CF93DF9300D0CDB7DEB7AB
:104BE0008FE590E0FC0180818A830E94A125898362
:104BF0001CC08AE790E02AE730E0F90120812775A0
:104C0000FC0120838CE790E0FC0110828AE790E0B1
:104C10002AE730E0F9012081287FFC0120838EE71C
:104C200090E02FEFFC01208319828981882309F706
:104C3000CE0102960E94AA2500000F900F90DF91EE
:104C4000CF910895CF93DF93CDB7DEB78AE790E099
:104C50002AE730E0F90120812068FC0120838AE7FF
:104C600090E02AE730E0F90120812064FC012083F4
:104C700000008AE790E0FC018081882F90E080743A
:104C80009927892BB1F788E790E0FC018081918119
:104C90000000DF91CF910895CF93DF9300D000D033
:104CA000CDB7DEB79C838B838CE790E02CE730E0B8
:104CB000F9012081207EFC0120838CE790E02CE725
:104CC00030E0F9012081FC0120838AE790E02AE7A7
:104CD00030E0F90120812064FC01208300008AE794
:104CE00090E0FC018081882F90E080749927892BC7
:104CF000B1F788E790E0FC01808191819A838983F4
:104D000089819A81892B31F48B819C8122E0FC017D
:104D100020830FC089819A818F3F934030F08B812F
:104D20009C8121E0FC01208304C08B819C81FC01DB
:104D3000108289819A810F900F900F900F90DF91D0
:104D4000CF910895CF92DF92EF92FF92CF93DF93AE
:104D5000CDB7DEB72B970FB6F894DEBF0FBECDBF31
:104D60009B878A8719821A821B821C821D8216C029
:104D70008A859B850E944C26CC01A0E0B0E0298169
:104D80003A814B815C81820F931FA41FB51F8983D9
:104D90009A83AB83BC838D818F5F8D838D818430BB
:104DA00038F369817A818B819C810E94512ADC01D0
:104DB000CB0120E030E040E855E4BC01CD010E9489
:104DC0006B29DC01CB0120E030E040EA50E4BC017B
:104DD000CD010E94A42BDC01CB018E839F83A88789
:104DE000B98720E030E543EC57E46E817F81888508
:104DF00099850E94A42BDC01CB016C017D012E81E1
:104E00003F814885598560E070E080EA90E40E9427
:104E1000F928DC01CB019C01AD01C701B6010E945C
:104E20006B29DC01CB01BC01CD012B960FB6F894A8
:104E3000DEBF0FBECDBFDF91CF91FF90EF90DF902F
:104E4000CF900895CF92DF92EF92FF92CF93DF93AE
:104E500000D000D000D0CDB7DEB79E838D838D818A
:104E60009E810E94A226DC01CB01BC01CD010E94E3
:104E70005C2BDC01CB0189839A83AB83BC8320EA62
:104E800030E642EF59E369817A818B819C810E94EF
:104E9000A42BDC01CB0125E539EF46E95AE3BC013F
:104EA000CD010E94F928DC01CB016C017D012BE0D2
:104EB00037ED4BE055EB69817A818B819C810E94B3
:104EC000A42BDC01CB0129813A814B815C81BC019F
:104ED000CD010E94A42BDC01CB0129813A814B81B9
:104EE0005C81BC01CD010E94A42BDC01CB019C01A3
:104EF000AD01C701B6010E94FA28DC01CB019C017B
:104F0000AD0160E070E080E89FE30E946B29DC0166
:104F1000CB0123E333E948E853E4BC01CD010E940F
:104F2000F928DC01CB01BC01CD0126960FB6F8941F
:104F3000DEBF0FBECDBFDF91CF91FF90EF90DF902E
:104F4000CF900895CF93DF9300D000D0CDB7DEB7D8
:104F50009C838B838CE790E02CE730E0F901208183
:104F6000207EFC0120838CE790E02CE730E0F90103
:104F700020812160FC0120838AE790E02AE730E06D
:104F8000F90120812064FC01208300008AE790E081
:104F9000FC018081882F90E080749927892BB1F7DC
:104FA00088E790E0FC01808191819A8389838981DF
:104FB0009A81892B31F48B819C8122E0FC01208332
:104FC0000FC089819A818F3F934030F08B819C8103
:104FD00021E0FC01208304C08B819C81FC011082B4
:104FE00089819A810F900F900F900F90DF91CF9150
:104FF0000895CF92DF92EF92FF92CF93DF93CDB7D8
:10500000DEB72B970FB6F894DEBF0FBECDBF9B87E0
:105010008A8719821A821B821C821D8216C08A8589
:105020009B850E94A227CC01A0E0B0E029813A81B3
:105030004B815C81820F931FA41FB51F89839A83C4
:10504000AB83BC838D818F5F8D838D81843038F3FA
:1050500069817A818B819C810E94512ADC01CB017C
:1050600020E030E040E855E4BC01CD010E946B290E
:10507000DC01CB0120E030E040EA50E4BC01CD018E
:105080000E94A42BDC01CB018E839F83A887B98764
:1050900020E030E44CE156E46E817F81888599857B
:1050A0000E94A42BDC01CB016C017D012E813F818C
:1050B0004885598560E070E080EA90E40E94F92814
:1050C000DC01CB019C01AD01C701B6010E946B2937
:1050D000DC01CB01BC01CD012B960FB6F894DEBFED
:1050E0000FBECDBFDF91CF91FF90EF90DF90CF90BB
:1050F0000895CF92DF92EF92FF92CF93DF9300D08B
:1051000000D000D0CDB7DEB79E838D838D819E8188
:105110000E94F927DC01CB01BC01CD010E945C2B70
:10512000DC01CB0189839A83AB83BC8325EE31EC10
:1051300044E559E369817A818B819C810E94A42B8B
:10514000DC01CB0121EA38EE4CEA5AE3BC01CD0187
:105150000E94FA28DC01CB016C017D0129E436E8CC
:105160004CE754E369817A818B819C810E94A42B56
:10517000DC01CB0129813A814B815C81BC01CD01ED
:105180000E94A42BDC01CB0129813A814B815C81F7
:10519000BC01CD010E94A42BDC01CB019C01AD011F
:1051A000C701B6010E94FA28DC01CB019C01AD01C8
:1051B00060E070E080E89FE30E946B29DC01CB0196
:1051C00023E333E948E853E4BC01CD010E94F92808
:1051D000DC01CB01BC01CD0126960FB6F894DEBFF1
:1051E0000FBECDBFDF91CF91FF90EF90DF90CF90BA
:1051F00008955058BB27AA270E9411290C94152BFB
:105200000E94072B38F00E940E2B20F039F49F3FAC
:1052100019F426F40C94F42A0EF4E095E7FB0C94B0
:10522000EE2AE92F0E94262B58F3BA17620773075C
:105230008407950720F079F4A6F50C94482B0EF41A
:10524000E0950B2EBA2FA02D0B01B90190010C0196
:10525000CA01A0011124FF27591B99F0593F50F4AE
:10526000503E68F11A16F040A22F232F342F442706
:10527000585FF3CF469537952795A795F0405395FE
:10528000C9F77EF41F16BA0B620B730B840BBAF0CE
:105290009150A1F0FF0FBB1F661F771F881FC2F739
:1052A0000EC0BA0F621F731F841F48F4879577954D
:1052B0006795B795F7959E3F08F0B0CF9395880F07
:1052C00008F09927EE0F9795879508950E94CA2AAE
:1052D00008F481E008950E947F290C94152B0E9408
:1052E0000E2B58F00E94072B40F029F45F3F29F065
:1052F0000C94EE2A51110C94492B0C94F42A0E9420
:10530000262B68F39923B1F3552391F3951B550B85
:10531000BB27AA2762177307840738F09F5F5F4F88
:10532000220F331F441FAA1FA9F335D00E2E3AF0C7
:10533000E0E832D091505040E695001CCAF72BD0DF
:10534000FE2F29D0660F771F881FBB1F2617370730
:105350004807AB07B0E809F0BB0B802DBF01FF2762
:1053600093585F4F3AF09E3F510578F00C94EE2A27
:105370000C94492B5F3FE4F3983ED4F386957795E0
:105380006795B795F7959F5FC9F7880F911D96951B
:10539000879597F90895E1E0660F771F881FBB1F77
:1053A000621773078407BA0720F0621B730B840B24
:1053B000BA0BEE1F88F7E0950895BEE304D008F419
:1053C00090E80895BFE322273327A9010E942E2BDE
:1053D00060F19F5748F1B91740F1BFE3B91B992716
:1053E000B8503AF4660F771F881F991FB395D2F310
:1053F00016C0B8504AF0232F342F452F562F672F51
:10540000782F8827B850BAF7B85F49F08695779516
:1054100067955795479537952795BA95B9F716F437
:105420000E94F72A88940895889460E070E0CB0188
:1054300008950E94202A6894B1110C94492B089574
:105440000E942E2B88F09F5798F0B92F9927B751BB
:10545000B0F0E1F0660F771F881F991F1AF0BA9518
:10546000C9F714C0B13091F00E94482BB1E0089503
:105470000C94482B672F782F8827B85F39F0B93FF5
:10548000CCF3869577956795B395D9F73EF49095CB
:105490008095709561957F4F8F4F9F4F0895E89449
:1054A00009C097FB3EF490958095709561957F4F6C
:1054B0008F4F9F4F9923A9F0F92F96E9BB2793951A
:1054C000F695879577956795B795F111F8CFFAF42A
:1054D000BB0F11F460FF1BC06F5F7F4F8F4F9F4F5B
:1054E00016C0882311F096E911C0772321F09EE8B9
:1054F000872F762F05C0662371F096E8862F70E01F
:1055000060E02AF09A95660F771F881FDAF7880FF8
:105510009695879597F90895E894F92F96EBFF23D0
:1055200081F0121613061406440B9395F695879591
:105530007795679557954040FF23B9F71BC099278A
:105540000895882351F49850D2F7872B762F652F32
:10555000542F432F322F20E0B1F3121613061406F6
:10556000440B88233AF09A95440F551F661F771F06
:10557000881FCAF755234AF4440F551F11F460FFE2
:1055800004C06F5F7F4F8F4F9F4F880F9695879511
:1055900097F90895990F0008550FAA0BE0E8FEEF60
:1055A00016161706E807F907C0F012161306E407E7
:1055B000F50798F0621B730B840B950B39F40A26E0
:1055C00061F0232B242B252B21F408950A2609F4BE
:1055D000A140A6958FEF811D811D089597F99F67C2
:1055E00080E870E060E008959FEF80EC089590956A
:1055F00080957095609550954095309521953F4FD9
:105600004F4F5F4F6F4F7F4F8F4F9F4F0895002435
:105610000A941616170618060906089500240A9417
:1056200012161306140605060895092E0394000C9D
:1056300011F4882352F0BB0F40F4BF2B11F460FF2C
:1056400004C06F5F7F4F8F4F9F4F089557FD905855
:10565000440F551F59F05F3F71F04795880F97FB36
:10566000991F61F09F3F79F08795089512161306F0
:105670001406551FF2CF4695F1DF08C0161617061F
:105680001806991FF1CF8695710561050894089554
:10569000E894BB2766277727CB0197F908950E94E6
:1056A000CA2A08F48FEF089516F00C94112C0C946C
:1056B000F42A68940C94EE2A0E942E2BA8F39923C6
:1056C000C1F3AEF3DF93CF931F930F93FF92C92FD4
:1056D000DD2788232AF02197660F771F881FDAF7C6
:1056E00020E030E040E85FEB9FE3883920F0803E27
:1056F00038F021968F770E94FA28E0E9F0E004C0A4
:105700000E94FA28EDEBF0E00E941F2C8B01BE01F5
:10571000EC01FB2E6F5771097595771F880B990B5C
:105720000E94512A28E132E741E35FE30E94B72B50
:10573000AF2D9801AE01FF900F911F91CF91DF9196
:105740000E9411290C94152B0E94B72B0C94152B39
:105750000E94072B38F00E940E2B20F0952311F0A9
:105760000C94EE2A0C94F42A11240C94492B0E94D8
:10577000262B70F3959FC1F3950F50E0551F629F44
:10578000F001729FBB27F00DB11D639FAA27F00D9A
:10579000B11DAA1F649F6627B00DA11D661F829FC1
:1057A0002227B00DA11D621F739FB00DA11D621FA6
:1057B000839FA00D611D221F749F3327A00D611DC3
:1057C000231F849F600D211D822F762F6A2F1124A5
:1057D0009F5750409AF0F1F088234AF0EE0FFF1FD8
:1057E000BB1F661F771F881F91505040A9F79E3F2F
:1057F000510580F00C94EE2A0C94492B5F3FE4F3A2
:10580000983ED4F3869577956795B795F795E79584
:105810009F5FC1F7FE2B880F911D9695879597F98D
:1058200008959F3F31F0915020F4879577956795C3
:10583000B795880F911D9695879597F90895DF93F1
:10584000CF931F930F93FF92EF92DF927B018C0116
:10585000689406C0DA2EEF010E94B72BFE01E8948F
:10586000A5912591359145915591A6F3EF010E949F
:105870001129FE019701A801DA9469F7DF90EF90F2
:10588000FF900F911F91CF91DF91089597FB072E05
:1058900016F4009407D077FD09D00E94C32C07FCB2
:1058A00005D03EF4909581959F4F08957095619530
:1058B0007F4F0895A1E21A2EAA1BBB1BFD010DC04C
:1058C000AA1FBB1FEE1FFF1FA217B307E407F507B0
:1058D00020F0A21BB30BE40BF50B661F771F881F8C
:1058E000991F1A9469F760957095809590959B0122
:1058F000AC01BD01CF010895EE0FFF1F0590F4919B
:10590000E02D0994A29FB001B39FC001A39F700D29
:10591000811D1124911DB29F700D811D1124911DB7
:1059200008950E94822CA59F900DB49F900DA49F76
:10593000800D911D112408952A0D3B1D4C1D5D1DE8
:105940006E1D7F1D801F911F08950024A7FD0094E8
:105950002A0F301D401D501D601D701D801D901DA3
:1059600008952A193B094C095D096E097F09800BCE
:10597000910B08952A153B054C055D056E057F05C5
:10598000800791070895AA1BBB1B51E107C0AA1FFE
:10599000BB1FA617B70710F0A61BB70B881F991FD0
:1059A0005A95A9F780959095BC01CD01089581E0A5
:1059B00090E0F8940C940E2DDC01CB01FC01F999D8
:1059C000FECF06C0F2BDE1BDF89A319600B40D924B
:1059D00041505040B8F70895DC01A40FB51F415065
:1059E000504048F0CB01840F951F2E910E94FD2C52
:1059F00041505040D0F70895262FF999FECF92BD1F
:105A000081BDF89A019700B4021639F01FBA20BD83
:105A10000FB6F894FA9AF99A0FBE0895F894FFCF4A
:00000001FF
