S016000070696465746368696E67626174682E7372656350
S11300000C9485000C9497000C9497000C94970022
S11300100C9497000C9497000C9497000C94970000
S11300200C9497000C9497000C9497000C949700F0
S11300300C9497000C9497000C9497000C949700E0
S11300400C94900E0C9497000C9497000C949700C9
S11300500C9497000C9497000C9497000C949700C0
S11300600C9497000C9497000C9497000C949700B0
S11300700C9497000C9497000C94970039183B1833
S11300803D183F18411843184518471849184B188C
S113009008000000BE922449123EABAAAA2ABECD93
S11300A0CCCC4C3E00000080BEABAAAAAA3E000005
S11300B00000BF000000803F0000000000084178FD
S11300C0D3BB4387D1133D190E3CC3BD4282AD2B34
S11300D03E68EC8276BED98FE1A93E4C80EFFFBE2C
S11300E001C4FF7F3F00000000000000000000008A
S11300F000000000000000000100000000000000FB
S113010000000000FFFF0000000011241FBECFEF1D
S1130110D0E1DEBFCDBF21E0A0E0B1E001C01D927F
S1130120AA3BB207E1F70E94D30F0C943A250C9432
S113013000008F929F92AF92BF92CF92DF92EF9284
S1130140FF920F931F93CF93DF93CDB7DEB70E9437
S1130150C2090E94FE1A0E94C31C0E94481680E035
S113016090E0A8ECB1E480931A0190931B01A09352
S11301701C01B0931D0110921E0110921F011092D8
S11301802001109221011092220110922301109259
S11301902401109225011092260110922701109239
S11301A028011092290110922E0110922F01109211
S11301B030011092310110923201109233011092E9
S11301C034010E94BB1B0E94A41C0E94F80E0E94D2
S11301D0B50FE0902601F0902701009128011091BD
S11301E02901209122013091230140912401509151
S11301F0250180911E0190911F01A0912001B091D1
S1130200210162E46F9368EC6F931F921F92812C1B
S1130210912C54016701780189019A01AC01BD0157
S113022089E391E00E94C7130F900F900F900F90F5
S11302300E94BB1E20E04EED51E06DEC7CEC8CE4A2
S11302409DE30E94FA0D21E041EA51E06AE077ED76
S113025083E29CE30E94FA0D22E04CE652E06FE652
S113026072E183E89AE30E94FA0D23E046E752E044
S11302706AE077ED83EA9BE30E94FA0D0E942D0960
S113028080E892E090936101809360010E941E1FB8
S11302900E94F51FDC01CB01809335019093360158
S11302A0A0933701B09338010E94791FDC01CB0180
S11302B08093150190931601A0931701B093180130
S11302C00E941C21DC01CB0180935C0190935D01B1
S11302D0A0935E01B0935F010E94A020DC01CB01DA
S11302E08093110190931201A0931301B093140110
S11302F00E940E0B1092190104C00E94540B8093AB
S11303001901809119018823C1F30E946F0A0E9488
S1130310041C0E94300F0E94E71E0E9482160E9455
S1130320FC1C0E940C1B0000DF91CF911F910F91C8
S1130330FF90EF90DF90CF90BF90AF909F908F9001
S11303400895CF93DF93CDB7DEB70E942D090E94A5
S11303509716909356018093550180E00E94B31D37
S1130360882F90E020915A01822B80935A0180E0DB
S11303700E942C1D882F90E020915701822B80939E
S1130380570180E00E94861D882F90E0209158013B
S1130390822B8093580180E00E94591D882F90E0A1
S11303A020915901822B8093590180916001909191
S11303B06101FC010995DF91CF9108950F931F937B
S11303C0CF93DF9300D000D0CDB7DEB70E94F51FE6
S11303D0DC01CB018093350190933601A093370162
S11303E0B093380180916001909161018D599840DA
S11303F061F40E94791FDC01CB0180931501909375
S11304001601A0931701B09318010E941C21DC016E
S1130410CB0180935C0190935D01A0935E01B09346
S11304205F018091600190916101865C984061F464
S11304300E94A020DC01CB01809311019093120152
S1130440A0931301B093140120911A0130911B0160
S113045040911C0150911D0180913501909136010C
S1130460A0913701B091380189019A01AC01BD0115
S113047089E391E00E94C514DC01CB0189839A834E
S1130480AB83BC838091350190913601A0913701F3
S1130490B091380120E030E048EC52E4BC01CD01D9
S11304A00E94AD23181624F480E00E94640F0AC051
S11304B069817A818B819C810E94BC22DC01CB0101
S11304C00E94640F80E00F900F900F900F90DF91C7
S11304D0CF911F910F910895CF93DF93CDB7DEB7DE
S11304E00E94C11680E0DF91CF910895CF93DF93EE
S11304F0CDB7DEB70E94D01D80E0DF91CF91089583
S1130500CF93DF93CDB7DEB70E94A21B8091350154
S113051090913601A0913701B0913801BC01CD0111
S11305200E94DE0F0E94911B80915701882F90E05A
S113053081709927892B41F010925B0188EA92E03F
S1130540909361018093600180E0DF91CF910895E1
S1130550CF93DF93CDB7DEB78091550190915601CB
S11305601816190664F480915B018F5F63E00E94A2
S1130570171360E00E94ED1280935B0111C080911B
S113058055019091560199235CF480915B0181504F
S113059063E00E94171360E00E94ED1280935B01F8
S11305A00E94A21B80915B010E94FD0F0E94911B7F
S11305B080915701882F90E081709927892BC1F190
S11305C080915B01082E000C990B81309105A9F0F4
S11305D0823091051CF4892B39F02AC082309105B0
S11305E0A9F00397E1F024C010925B0180E892E047
S11305F090936101809360011BC010925B018CE1B8
S113060093E0909361018093600112C010925B01AA
S113061087E697E0909361018093600109C010928E
S11306205B018CE198E0909361018093600100008C
S113063080E0DF91CF910895CF93DF93CDB7DEB7FC
S113064080915501909156011816190664F4809111
S11306505B018F5F64E00E94171360E00E94ED125B
S113066080935B0111C080915501909156019923AB
S11306705CF480915B01815064E00E94171360E098
S11306800E94ED1280935B010E94A21B80915B018A
S11306900E945A100E94911B80915701882F90E06C
S11306A081709927892B09F444C080915B01082E3D
S11306B0000C990B8230910509F1833091052CF4DB
S11306C0009749F0019789F034C083309105F9F01F
S11306D0049731F12EC081E080935B0188EA92E0B7
S11306E0909361018093600124C010925B018DE9B5
S11306F093E090936101809360011BC010925B01B1
S113070089ED93E0909361018093600112C010928F
S11307105B0184E594E0909361018093600109C0DA
S113072010925B018BEE96E09093610180936001DF
S1130730000080E0DF91CF910895CF93DF93CDB790
S1130740DEB78091550190915601892BA9F09091C3
S1130750330181E0992309F080E080933301809193
S11307603301882319F00E94930F02C00E94B50F31
S113077089E391E00E940F160E94A21B809133012D
S11307800E9430110E94911B80915701882F90E0A4
S113079081709927892B49F081E080935B018CE17A
S11307A093E0909361018093600180E0DF91CF91A9
S11307B00895CF92DF92EF92FF92CF93DF93CDB75C
S11307C0DEB78091550190915601892B09F443C0FD
S11307D0C0901A01D0901B01E0901C01F0901D0103
S11307E08091550190915601092E000CAA0BBB0B68
S11307F0BC01CD010E94ED22DC01CB0120E030E000
S113080040E05FE3BC01CD010E940224DC01CB0186
S11308109C01AD01C701B6010E949621DC01CB0108
S113082020E030E048EC52E4BC01CD010E94951375
S1130830DC01CB0120E030E0A901BC01CD010E9424
S11308406313DC01CB0180931A0190931B01A093E5
S11308501C01B0931D010E94A21B80911A0190916A
S11308601B01A0911C01B0911D01BC01CD010E948E
S11308705B110E94911B80915701882F90E0817039
S11308809927892B49F082E080935B018CE193E006
S1130890909361018093600180E0DF91CF91FF909C
S11308A0EF90DF90CF900895CF93DF93CDB7DEB76D
S11308B080915501909156011816190664F480919F
S11308C05B018F5F63E00E94171360E00E94ED12EA
S11308D080935B0111C08091550190915601992339
S11308E05CF480915B01815063E00E94171360E027
S11308F00E94ED1280935B010E94A21B80915B0118
S11309000E94F7100E94911B80915701882F90E05C
S113091081709927892BC9F180915B01082E000C05
S1130920990B81309105B1F0823091051CF4892B2B
S113093039F02BC082309105B1F00397E9F025C05E
S113094083E080935B018CE193E090936101809359
S113095060011BC010925B0189EC94E090936101EB
S11309608093600112C010925B018FE795E0909331
S113097061018093600109C010925B0185E396E0F8
S11309809093610180936001000080E0DF91CF913A
S113099008958F929F92AF92BF92CF92DF92EF927F
S11309A0FF920F931F93CF93DF93CDB7DEB7809160
S11309B0550190915601892B09F472C0C0901E0113
S11309C0D0901F01E0902001F09021018091550109
S11309D090915601092E000CAA0BBB0BBC01CD0152
S11309E00E94ED22DC01CB012DEC3CEC4CE45DE3F8
S11309F0BC01CD010E940224DC01CB019C01AD01AC
S1130A00C701B6010E949621DC01CB0120E030E051
S1130A104AE754E4BC01CD010E949513DC01CB01EB
S1130A2020E030E0A901BC01CD010E946313DC0188
S1130A30CB0180931E0190931F01A0932001B093DA
S1130A402101E0902601F0902701009128011091E6
S1130A5029012091220130912301409124015091D8
S1130A60250180911E0190911F01A0912001B09158
S1130A70210162E46F9368EC6F931F921F92812CA3
S1130A80912C54016701780189019A01AC01BD01DF
S1130A9089E391E00E9446140F900F900F900F90FD
S1130AA00E94A21B80911E0190911F01A091200120
S1130AB0B0912101BC01CD010E947E110E94911BC5
S1130AC080915701882F90E081709927892B49F0F4
S1130AD081E080935B0184E594E0909361018093CD
S1130AE0600180E0DF91CF911F910F91FF90EF9013
S1130AF0DF90CF90BF90AF909F908F9008958F928A
S1130B009F92AF92BF92CF92DF92EF92FF920F9398
S1130B101F93CF93DF93CDB7DEB7809155019091AA
S1130B205601892B09F472C0C0902201D090230190
S1130B30E0902401F0902501809155019091560197
S1130B40092E000CAA0BBB0BBC01CD010E94ED22A7
S1130B50DC01CB012DEC3CEC4CE45DE3BC01CD01AC
S1130B600E940224DC01CB019C01AD01C701B60146
S1130B700E949621DC01CB0120E030E04AE754E4F6
S1130B80BC01CD010E949513DC01CB0120E030E0D3
S1130B90A901BC01CD010E946313DC01CB01809348
S1130BA0220190932301A0932401B0932501E090A6
S1130BB02601F0902701009128011091290120912C
S1130BC0220130912301409124015091250180910B
S1130BD01E0190911F01A0912001B091210162E4B6
S1130BE06F9368EC6F931F921F92812C912C540188
S1130BF06701780189019A01AC01BD0189E391E0A3
S1130C000E9446140F900F900F900F900E94A21B09
S1130C108091220190912301A0912401B09125019A
S1130C20BC01CD010E94A1110E94911B809157012A
S1130C30882F90E081709927892B49F082E0809376
S1130C405B0184E594E0909361018093600180E00E
S1130C50DF91CF911F910F91FF90EF90DF90CF9094
S1130C60BF90AF909F908F9008958F929F92AF9274
S1130C70BF92CF92DF92EF92FF920F931F93CF9385
S1130C80DF93CDB7DEB78091550190915601892B42
S1130C9009F472C0C0902601D0902701E090280189
S1130CA0F09029018091550190915601092E000C74
S1130CB0AA0BBB0BBC01CD010E94ED22DC01CB01D0
S1130CC02DEC3CEC4CE45DE3BC01CD010E9402241C
S1130CD0DC01CB019C01AD01C701B6010E94962144
S1130CE0DC01CB0120E030E04AE754E4BC01CD0153
S1130CF00E949513DC01CB0120E030E0A901BC0186
S1130D00CD010E946313DC01CB01809326019093F3
S1130D102701A0932801B0932901E0902601F090C7
S1130D20270100912801109129012091220130917D
S1130D302301409124015091250180911E0190913D
S1130D401F01A0912001B091210162E46F9368EC2E
S1130D506F931F921F92812C912C5401670178018B
S1130D6089019A01AC01BD0189E391E00E94461416
S1130D700F900F900F900F900E94A21B809126015C
S1130D8090912701A0912801B0912901BC01CD01C6
S1130D900E94C4110E94911B80915701882F90E0FA
S1130DA081709927892B49F083E080935B0184E566
S1130DB094E0909361018093600180E0DF91CF9192
S1130DC01F910F91FF90EF90DF90CF90BF90AF9065
S1130DD09F908F900895CF92DF92EF92FF92CF93DE
S1130DE0DF93CDB7DEB78091550190915601892BE1
S1130DF009F444C0C0902E01D0902F01E09030013E
S1130E00F09031018091550190915601092E000C0A
S1130E10AA0BBB0BBC01CD010E94ED22DC01CB016E
S1130E2020E030E040E05FE3BC01CD010E940224F9
S1130E30DC01CB019C01AD01C701B6010E949621E2
S1130E40DC01CB0120E030E048E452E4BC01CD01F8
S1130E500E949513DC01CB0120E030E048E452EC21
S1130E60BC01CD010E946313DC01CB0180932E01F0
S1130E7090932F01A0933001B09331010E94A21BE3
S1130E8080912E0190912F01A0913001B0913101F8
S1130E90BC01CD010E94E7110E94911B8091570172
S1130EA0882F90E081709927892B49F084E0809302
S1130EB05B018CE193E0909361018093600180E099
S1130EC0DF91CF91FF90EF90DF90CF900895CF9373
S1130ED0DF93CDB7DEB78091550190915601181676
S1130EE0190664F480915B018F5F61E00E9417131F
S1130EF060E00E94ED1280935B0111C08091550166
S1130F009091560199235CF480915B01815061E0DA
S1130F100E94171360E00E94ED1280935B010E940F
S1130F20A21B80915B010E94C6100E94911B8091BC
S1130F305701882F90E081709927892BE9F08091DF
S1130F405B01082E000C990B009719F0019759F0DA
S1130F5013C082E080935B0188EA92E09093610180
S1130F608093600109C010925B0180EC97E090933C
S1130F70610180936001000080E0DF91CF910895CA
S1130F80CF93DF93CDB7DEB7809155019091560191
S1130F90892BA9F180913201282F30E080915501ED
S1130FA090915601820F931F64E670E00E9428130B
S1130FB060E070E00E94FE1280933201809134015F
S1130FC0882339F480913201882319F00E94801C0F
S1130FD00AC080913401882331F080913201882342
S1130FE011F40E94A41C9091320181E0992309F428
S1130FF080E080933401809132010E94481C0E9459
S1131000A21B809132010E940A120E94911B8091BE
S11310105701882F90E081709927892B49F081E04E
S113102080935B0187E697E0909361018093600170
S113103080E0DF91CF910895CF93DF93CDB7DEB7F2
S113104080915501909156011816190664F4809107
S11310505B018F5F64E00E94171360E00E94ED1251
S113106080935B0111C080915501909156019923A1
S11310705CF480915B01815064E00E94171360E08E
S11310800E94ED1280935B010E94A21B80915B0180
S11310900E9430120E94911B80915701882F90E08A
S11310A081709927892B09F444C080915B01082E33
S11310B0000C990B8230910509F1833091052CF4D1
S11310C0009749F0019789F034C083309105F9F015
S11310D0049731F12EC083E080935B0188EA92E0AB
S11310E0909361018093600124C010925B018DE9AB
S11310F098E090936101809360011BC010925B01A2
S113110086EC98E0909361018093600112C0109284
S11311105B018FEE98E0909361018093600109C0B8
S113112010925B018EE099E09093610180936001DD
S1131130000080E0DF91CF910895CF93DF93CDB786
S1131140DEB70E94A21B8091150190911601A09117
S11311501701B0911801BC01CD010E947C120E94BC
S1131160911B80915701882F90E081709927892BDA
S113117049F081E080935B018CE198E090936101F8
S11311808093600180E0DF91CF910895CF93DF9346
S1131190CDB7DEB70E94A21B80911101909112017C
S11311A0A0911301B0911401BC01CD010E947C12E5
S11311B00E94911B80915701882F90E0817099279C
S11311C0892B49F082E080935B018CE198E0909355
S11311D061018093600180E0DF91CF910895CF9306
S11311E0DF93CDB7DEB70E94A21B0E94A6120E9415
S11311F0911B80915701882F90E081709927892B4A
S113120049F083E080935B018CE198E09093610165
S11312108093600180E0DF91CF910895CF93DF93B5
S1131220CDB7DEB70E94A21B0E94A6120E94911B9A
S113123080915701882F90E081709927892B49F07C
S113124084E080935B018CE198E09093610180934A
S1131250600180E0DF91CF910895CF93DF93CDB704
S1131260DEB7109256011092550110925701109258
S113127058011092590110925A010000DF91CF9148
S11312800895CF93DF93CDB7DEB7F89481E0DF9173
S1131290CF910895CF93DF9300D0CDB7DEB79A8373
S11312A089838FE590E029813A81F9012081FC014D
S11312B0208300000F900F90DF91CF9108952F921B
S11312C03F924F925F926F927F928F929F92AF92D2
S11312D0BF92CF92DF92EF92FF920F931F93CF931F
S11312E0DF9300D000D0CDB7DEB769837A838B83D8
S11312F09C8328E33EE94FEC58E369817A818B8132
S11313009C810E940722DC01CB0120E030E040E018
S11313105FE3BC01CD010E949621DC01CB01BC013D
S1131320CD010E947E22222E332E442E552E662E6F
S1131330772E882E992EA22CB32CC42CD52CE62CD7
S1131340F72C082D192D2A2D3B2D4C2D5D2D6E2D9E
S11313507F2D802F912F0F900F900F900F90DF9182
S1131360CF911F910F91FF90EF90DF90CF90BF909E
S1131370AF909F908F907F906F905F904F903F9031
S11313802F900895CF93DF931F92CDB7DEB71092BD
S1131390B2011092B3011092B4011092B5011092EF
S11313A0B6011092B7011092B8011092B9011092CF
S11313B0AA011092AB011092AC011092AD011092EF
S11313C0AE011092AF011092B0011092B1011982D6
S11313D053C08981282F30E0C901880F991FAC01BF
S11313E0440F551F440F551F440F551F840F951F5D
S11313F08E599E4FFC011082FC011182FC01128265
S1131400FC011382FC011482FC011582FC0116828A
S1131410FC011782C901880F991FAC01440F551FA5
S1131420440F551F440F551F840F951F86599E4F17
S1131430FC011082FC011182FC011282FC01138266
S1131440FC011482FC011582FC011682FC01178246
S1131450C901880F991F9C01220F331F220F331FCC
S1131460220F331F820F931F8E589E4FFC0111824F
S1131470108289818F5F89838981843008F4A9CFA0
S11314808EE690E02EE630E0F90120812C7FFC010D
S1131490208385E490E025E430E0F9012081287F71
S11314A0FC01208384E490E024E430E0F90120810D
S11314B02260FC01208387E490E022E6FC01208383
S11314C08EE690E02EE630E0F90120812260FC01F6
S11314D02083789400000F90DF91CF910895CF93EB
S11314E0DF931F92CDB7DEB70E94430B8EE690E0E8
S11314F02EE630E0F90120812D7FFC01208384E475
S113150090E024E430E0F90120812D7BFC0120836C
S113151086E490E0FC01108287E490E0FC011082F4
S11315201092B2011092B3011092B4011092B5015D
S11315301092B6011092B7011092B8011092B9013D
S11315401092AA011092AB011092AC011092AD015D
S11315501092AE011092AF011092B0011092B1013D
S1131560198253C08981282F30E0C901880F991F3F
S1131570AC01440F551F440F551F440F551F840FD2
S1131580951F8E599E4FFC011082FC011182FC01B3
S11315901282FC011382FC011482FC011582FC01FD
S11315A01682FC011782C901880F991FAC01440FF0
S11315B0551F440F551F440F551F840F951F8659FF
S11315C09E4FFC011082FC011182FC011282FC017D
S11315D01382FC011482FC011582FC011682FC01B9
S11315E01782C901880F991F9C01220F331F220FF4
S11315F0331F220F331F820F931F8E589E4FFC01FF
S11316001182108289818F5F89838981843008F4F3
S1131610A9CF00000F90DF91CF910895CF93DF936E
S1131620CDB7DEB71092B2011092B3011092B4019B
S11316301092B5011092B6011092B7011092B80140
S11316401092B9011092AA011092AB011092AC0150
S11316501092AD011092AE011092AF011092B00140
S11316601092B10186E490E0FC01108285E490E0E0
S113167025E430E0F90120812260FC012083000090
S1131680DF91CF910895CF93DF93CDB7DEB785E493
S113169090E025E430E0F9012081287FFC012083DB
S11316A00000DF91CF9108952F923F924F925F9265
S11316B06F927F928F929F92AF92BF92CF92DF925E
S11316C0EF92FF920F931F93CF93DF93CDB7DEB7C3
S11316D02B970FB6F894DEBF0FBECDBF8FE590E019
S11316E0DC018C918B870E94410989875BC0A090A3
S11316F0B201B090B301C090B401D090B501E090B4
S1131700B601F090B7010091B8011091B901209091
S1131710AA013090AB014090AC015090AD016090B3
S1131720AE017090AF018090B0019090B1012A2D6C
S11317303B2D4C2D5D2D6E2D7F2D802F912FA22CB6
S1131740B32CC42CD52CE62CF72C082D192D0E9473
S11317500F2529833A834B835C836D837E838F8338
S113176098872091B2013091B3014091B401509116
S1131770B5016091B6017091B7018091B801909163
S1131780B9012093AA013093AB014093AC0150936B
S1131790AD016093AE017093AF018093B00190935B
S11317A0B10119868985882309F0A1CFCE010B9652
S11317B00E944A091A8600C28A85882F90E0880F01
S11317C0991F9C01220F331F220F331F220F331F37
S11317D0820F931F8E589E4FFC0180819181892B2B
S11317E009F4E7C18A85E82FF0E08A85882F90E024
S11317F0880F991F9C01220F331F220F331F220FC2
S1131800331F820F931F86599E4FDC01AC90DC017D
S11318101196BC90DC011296CC90DC011396DC90FE
S1131820DC011496EC90DC011596FC90DC01169614
S11318300C91DC0117961C912A2D3B2D4C2D5D2D0E
S11318406E2D7F2D802F912FA980BA80CB80DC80D4
S1131850ED80FE800F8118850E94FA24A22EB32EFB
S1131860C42ED52EE62EF72E082F192FCF01880F60
S1131870991F9C01220F331F220F331F220F331F86
S1131880820F931F86599E4FFC01A082DC011196A2
S1131890BC92FC01C282DC011396DC92FC01E4825E
S11318A0DC011596FC92FC010683DC0117961C935F
S11318B08A85882F90E0880F991F9C01220F331F7F
S11318C0220F331F220F331F820F931F86599E4FFF
S11318D0FC01A080DC011196BC90FC01C280DC01FB
S11318E01396DC90FC01E480DC011596FC90FC016D
S11318F00681DC0117961C918A85882F90E0880F59
S1131900991F9C01220F331F220F331F220F331FF5
S1131910820F931F8E599E4FFC012080DC0111968B
S11319203C90FC014280DC0113965C90FC016480D5
S1131930DC0115967C90FC018680DC0117969C9056
S11319402A2D3B2D4C2D5D2D6E2D7F2D802F912F1B
S1131950A22CB32CC42CD52CE62CF72C082D192D35
S11319600E94182508F425C18A85E82FF0E08A85AD
S1131970882F90E0880F991F9C01220F331F220F9C
S1131980331F220F331F820F931F86599E4FDC0192
S1131990AC90DC011196BC90DC011296CC90DC0179
S11319A01396DC90DC011496EC90DC011596FC9007
S11319B0DC0116960C91DC0117961C918A85882F00
S11319C090E0880F991F9C01220F331F220F331FB1
S11319D0220F331F820F931F8E599E4FDC012C90D0
S11319E0DC0111963C90DC0112964C90DC011396BC
S11319F05C90DC0114966C90DC0115967C90DC0103
S1131A0016968C90DC0117969C902A2D3B2D4C2D1C
S1131A105D2D6E2D7F2D802F912FA22CB32CC42CE5
S1131A20D52CE62CF72C082D192D0E940F25A22E5B
S1131A30B32EC42ED52EE62EF72E082F192FCF0144
S1131A40880F991F9C01220F331F220F331F220F6F
S1131A50331F820F931F86599E4FFC01A082DC0125
S1131A601196BC92FC01C282DC011396DC92FC014B
S1131A70E482DC011596FC92FC010683DC011796D6
S1131A801C938A85882F90E0880F991F9C01220F50
S1131A90331F220F331F220F331F820F931F8659C8
S1131AA09E4FFC01A080DC011196BC90FC01C28019
S1131AB0DC011396DC90FC01E480DC011596FC90BB
S1131AC0FC010681DC0117961C918A85882F90E021
S1131AD0880F991F9C01220F331F220F331F220FDF
S1131AE0331F820F931F8E599E4FFC012080DC010F
S1131AF011963C90FC014280DC0113965C90FC0141
S1131B006480DC0115967C90FC018680DC011796CC
S1131B109C902A2D3B2D4C2D5D2D6E2D7F2D802FDD
S1131B20912FA22CB32CC42CD52CE62CF72C082DE9
S1131B30192D0E94182520F18A85882F90E0880F9E
S1131B40991F9C01220F331F220F331F220F331FB3
S1131B50820F931F86599E4FFC011082DC0111965F
S1131B601C92FC011282DC0113961C92FC0114826B
S1131B70DC0115961C92FC011682DC0117961C925E
S1131B808A85882F90E0880F991F9C01220F331FAC
S1131B90220F331F220F331F820F931F8E589E4F25
S1131BA0FC0180819181FC010995882311F081E079
S1131BB008C08A858F5F8A878A85843008F4FCCDC3
S1131BC080E02B960FB6F894DEBF0FBECDBFDF9139
S1131BD0CF911F910F91FF90EF90DF90CF90BF9026
S1131BE0AF909F908F907F906F905F904F903F90B9
S1131BF02F9008958F929F92AF92BF92CF92DF92CF
S1131C00EF92FF920F931F93CF93DF93CDB7DEB77D
S1131C1027970FB6F894DEBF0FBECDBF69837A83D2
S1131C208B839C835E834D832F838F81843010F05C
S1131C300E9435258F81882E912C89819A81AB81D0
S1131C40BC81BC01CD010E945F09A22EB32EC42E1B
S1131C50D52EE62EF72E082F192FC401880F991FB1
S1131C609C01220F331F220F331F220F331F820FB9
S1131C70931F8E599E4FFC01A082FC01B182FC018E
S1131C80C282FC01D382FC01E482FC01F582FC01E6
S1131C900683FC011783C401880F991F9C01220F3E
S1131CA0331F220F331F220F331F820F931F8659B6
S1131CB09E4FFC011082FC011182FC011282FC0186
S1131CC01382FC011482FC011582FC011682FC01C2
S1131CD01782C401880F991F9C01220F331F220F02
S1131CE0331F220F331F820F931F8E589E4F2D8157
S1131CF03E81FC0131832083000027960FB6F894BF
S1131D00DEBF0FBECDBFDF91CF911F910F91FF902A
S1131D10EF90DF90CF90BF90AF909F908F900895F9
S1131D201F920F9200905F000F921124AF92BF9206
S1131D30CF92DF92EF92FF920F931F932F933F93D3
S1131D404F935F936F937F938F939F93AF93CF93AF
S1131D50DF93CDB7DEB7A090B201B090B301C090CD
S1131D60B401D090B501E090B601F090B7010091B4
S1131D70B8011091B9012A2D3B2D4C2D5D2D6E2DEE
S1131D807F2D802F912FA1E00E940325A22EB32E38
S1131D90C42ED52EE62EF72E082F192FA092B201AD
S1131DA0B092B301C092B401D092B501E092B601F1
S1131DB0F092B7010093B8011093B9010000DF91CC
S1131DC0CF91AF919F918F917F916F915F914F913F
S1131DD03F912F911F910F91FF90EF90DF90CF9043
S1131DE0BF90AF900F9000925F000F901F901895D6
S1131DF0CF93DF93CDB7DEB780E790E0FC0110828C
S1131E0081EB90E021EB30E0F9012081297FFC0196
S1131E10208380EB90E020EB30E0F9012081216009
S1131E20FC01208383EB90E0FC01108282EB90E0C4
S1131E30FC0110828AE290E02AE230E0F90120817C
S1131E402068FC0120838BE290E02BE230E0F90172
S1131E5020812F77FC0120830000DF91CF9108952A
S1131E60CF93DF93CDB7DEB781EB90E021EB30E089
S1131E70F9012081297FFC01208382EB90E0FC01A1
S1131E80108283EB90E0FC01108280EB90E020EB69
S1131E9030E0F90120812E77FC0120838AE290E072
S1131EA02AE230E0F90120812F77FC0120838BE2C4
S1131EB090E02BE230E0F90120812F77FC012083B0
S1131EC00000DF91CF910895CF93DF9300D01F924C
S1131ED0CDB7DEB78B8364E68B810E94521360E03A
S1131EE00E944113282F30E04FEF429FC001439FCF
S1131EF0900D112496958795969587959C01ABE74F
S1131F00B4E10E94E024969587959A83898383EBB4
S1131F1090E02981FC01208300000F900F900F9026
S1131F20DF91CF910895CF93DF93CDB7DEB782EBE6
S1131F3090E0FC01108283EB90E0FC01108280EBC6
S1131F4090E020EB30E0F90120812068FC0120833F
S1131F5081EB90E021EB30E0F90120812660FC0167
S1131F6020830000DF91CF910895CF93DF93CDB705
S1131F70DEB780EB90E020EB30E0F90120812F7791
S1131F80FC01208381EB90E021EB30E0F90120811A
S1131F90297FFC01208382EB90E0FC011082000089
S1131FA0DF91CF910895CF93DF93CDB7DEB70E9431
S1131FB0990080E090E0DF91CF9108950F93CF9343
S1131FC0DF9300D000D0CDB7DEB769837A838B83EB
S1131FD09C8389819A81AB81BC8106E022E040E048
S1131FE0BC01CD010E94301B00000F900F900F9098
S1131FF00F90DF91CF910F910895CF93DF931F92AC
S1132000CDB7DEB789838981882F90E0813091052F
S113201089F0823091051CF4892B39F046C0823056
S11320209105C9F0039741F140C060E480E00E944B
S1132030161B3BC064E780E00E94161B69E781E041
S11320400E94161B67E782E00E94161B68E783E084
S11320500E94161B2AC06DE680E00E94161B68E7EA
S113206081E00E94161B66E082E00E94161B60E578
S113207083E00E94161B19C068EF80E00E94161BC3
S113208069E381E00E94161B67E782E00E94161B49
S113209068E383E00E94161B66E084E00E94161B3E
S11320A06CE785E00E94161B000000000F90DF9192
S11320B0CF910895CF93DF931F92CDB7DEB7898375
S11320C08981882F90E08230910561F183309105F8
S11320D02CF4009749F0019781F053C083309105A7
S11320E091F10497E9F14DC060E480E00E94161B71
S11320F060E481E00E94161B44C06CE580E00E940D
S1132100161B64E581E00E94161B6CE582E00E94C8
S1132110161B61E783E00E94161B61E784E00E94BE
S1132120161B2FC068E780E00E94161B6FEE81E04B
S11321300E94161B68E782E00E94161B63E783E097
S11321400E94161B1EC063E780E00E94161B66E017
S113215081E00E94161B6EE582E00E94161B11C0EE
S11321606CE580E00E94161B61E781E00E94161B6B
S113217061E782E00E94161B6DE683E00E94161B55
S1132180000000000F90DF91CF910895CF93DF936B
S11321901F92CDB7DEB789838981882F90E000979D
S11321A019F0019751F01EC060E480E00E94161BF4
S11321B060E481E00E94161B15C06DE680E00E9479
S11321C0161B63E781E00E94161B69E782E00E9408
S11321D0161B69E783E00E94161B6EE584E00E94EB
S11321E0161B000000000F90DF91CF910895CF934C
S11321F0DF931F92CDB7DEB789838981882F90E062
S113220081309105C9F0823091051CF4892B39F095
S113221022C082309105A9F00397C1F01CC060E48C
S113222080E00E94161B60E481E00E94161B60E4BB
S113223082E00E94161B0FC063E780E00E94161B19
S11322400AC066E080E00E94161B05C06EE580E0CF
S11322500E94161B000000000F90DF91CF9108959B
S1132260CF93DF931F92CDB7DEB78983898188230B
S113227069F060E380E00E94161B6CE581E00E9437
S1132280161B64E582E00E94161B10C060E380E028
S11322900E94161B6CE581E00E94161B61E782E038
S11322A00E94161B61E783E00E94161B00000F903A
S11322B0DF91CF9108950F93CF93DF9300D000D097
S11322C0CDB7DEB769837A838B839C8360E380E038
S11322D00E94161B89819A81AB81BC8105E021E0B3
S11322E041E0BC01CD010E94301B00000F900F9013
S11322F00F900F90DF91CF910F9108950F93CF938B
S1132300DF9300D000D0CDB7DEB769837A838B83A7
S11323109C8363E780E00E94161B89819A81AB81CC
S1132320BC8105E022E041E0BC01CD010E94301BEC
S113233000000F900F900F900F90DF91CF910F91AD
S113234008950F93CF93DF9300D000D0CDB7DEB7BD
S113235069837A838B839C8366E080E00E94161BEA
S113236089819A81AB81BC8105E022E041E0BC0116
S1132370CD010E94301B00000F900F900F900F9022
S1132380DF91CF910F9108950F93CF93DF9300D0F6
S113239000D0CDB7DEB769837A838B839C836EE5E7
S11323A080E00E94161B89819A81AB81BC8105E083
S11323B022E041E0BC01CD010E94301B00000F90DF
S11323C00F900F900F90DF91CF910F9108950F937D
S11323D0CF93DF9300D000D0CDB7DEB769837A8383
S11323E08B839C8360E380E00E94161B89819A8121
S11323F0AB81BC8105E021E041E0BC01CD010E943C
S1132400301B00000F900F900F900F90DF91CF9131
S11324100F910895CF93DF931F92CDB7DEB78983D1
S113242060E380E00E94161B8981882341F0898142
S1132430882F90E045E061E00E94681B0CC06CE5C9
S113244081E00E94161B61E782E00E94161B61E78F
S113245083E00E94161B00000F90DF91CF91089536
S1132460CF93DF931F92CDB7DEB789838981882FFD
S113247090E08230910501F1833091052CF40097AE
S113248049F0019781F033C083309105F1F004974E
S113249029F12DC060E480E00E94161B60E481E015
S11324A00E94161B24C068E780E00E94161B6FE39D
S11324B081E00E94161B1BC068E780E00E94161B87
S11324C066E081E00E94161B12C068E780E00E946B
S11324D0161B6BE581E00E94161B09C068E780E0CB
S11324E00E94161B6FE481E00E94161B000000008E
S11324F00F90DF91CF9108950F93CF93DF9300D086
S113250000D0CDB7DEB769837A838B839C838981BE
S11325109A81AB81BC81BF7720E030E04AE754E484
S1132520BC01CD010E940722DC01CB0106E023E0BF
S113253040E0BC01CD010E94301B00000F900F90C1
S11325400F900F90DF91CF910F910895CF93DF9368
S1132550CDB7DEB764E580E00E94161B69E381E035
S11325600E94161B0000DF91CF910895CF93DF9353
S113257000D000D01F92CDB7DEB79D838C838C81B1
S11325809D81992314F40E94352581E090E09A837B
S113259089831B8210C089819A81880F991F9C01AD
S11325A0220F331F220F331F820F931F9A838983B5
S11325B08B818F5F8B838B81282F30E08C819D8171
S11325C02817390744F389819A810F900F900F904F
S11325D00F900F90DF91CF910895CF93DF9300D0A8
S11325E0CDB7DEB789836A8399818A8189170CF410
S11325F0892F0F900F90DF91CF910895CF93DF93A0
S113260000D000D0CDB7DEB79A8389837C836B83F7
S113261029813A818B819C81821793070CF4C9012B
S11326200F900F900F900F90DF91CF910895CF935B
S1132630DF9300D0CDB7DEB789836A8399818A811D
S113264098170CF4892F0F900F90DF91CF91089574
S1132650CF93DF9300D000D0CDB7DEB79A838983C0
S11326607C836B8329813A818B819C81281739076C
S11326700CF4C9010F900F900F900F90DF91CF9140
S11326800895CF93DF9300D0CDB7DEB789836A83F3
S113269099818A81891708F4892F0F900F90DF910F
S11326A0CF910895CF93DF9300D0CDB7DEB7898360
S11326B06A8399818A81981708F4892F0F900F9063
S11326C0DF91CF910895CF93DF93CDB7DEB72897ED
S11326D00FB6F894DEBF0FBECDBF69837A838B83B8
S11326E09C832D833E834F8358872D813E814F8168
S11326F0588569817A818B819C810E94AD2318164B
S11327002CF489819A81AB81BC8104C08D819E8126
S1132710AF81B885BC01CD0128960FB6F894DEBF11
S11327200FBECDBFDF91CF910895CF93DF93CDB787
S1132730DEB728970FB6F894DEBF0FBECDBF69830E
S11327407A838B839C832D833E834F8358872D818B
S11327503E814F81588569817A818B819C810E9459
S1132760022288232CF489819A81AB81BC8104C024
S11327708D819E81AF81B885BC01CD0128960FB6AD
S1132780F894DEBF0FBECDBFDF91CF9108958F9235
S11327909F92AF92BF92CF92DF92EF92FF920F93EC
S11327A01F93CF93DF93CDB7DEB762970FB6F8943C
S11327B0DEBF0FBECDBF9A8389834B835C836D8359
S11327C07E830F83188729873A87CB86DC86ED863C
S11327D0FE868F86988AA98ABA8A29813A818B8152
S11327E09C81AD81BE81F90180879187A287B387DF
S11327F029813A818F819885A985BA85F9018487D1
S11328009587A687B78729813A818B859C85AD8575
S1132810BE85F901808B918BA28BB38B29813A8180
S113282089A19AA1ABA1BCA1F901808F918FA28F3C
S1132830B38F29813A818F859889A989BA89F90149
S1132840848B958BA68BB78B89819A81FC0110822E
S113285011821282138289819A81FC011482158269
S113286016821782000062960FB6F894DEBF0FBE80
S1132870CDBFDF91CF911F910F91FF90EF90DF902B
S1132880CF90BF90AF909F908F9008958F929F921A
S1132890AF92BF92CF92DF92EF92FF920F931F936A
S11328A0CF93DF93CDB7DEB762970FB6F894DEBF50
S11328B00FBECDBF9A8389834B835C836D837E83F4
S11328C00F83188729873A87CB86DC86ED86FE86B8
S11328D08F86988AA98ABA8A29813A818B819C81B8
S11328E0AD81BE81F90180879187A287B387298151
S11328F03A818F819885A985BA85F901848795875E
S1132900A687B78729813A818B859C85AD85BE854D
S1132910F901808B918BA28BB38B29813A8189A198
S11329209AA1ABA1BCA1F901808F918FA28FB38F23
S113293029813A818F859889A989BA89F901848B7B
S1132940958BA68BB78B89819A81FC0110821182A9
S11329501282138289819A81FC0114821582168263
S11329601782000062960FB6F894DEBF0FBECDBF8B
S1132970DF91CF911F910F91FF90EF90DF90CF9057
S1132980BF90AF909F908F9008958F929F92AF9237
S1132990BF92CF92DF92EF92FF920F931F93CF9348
S11329A0DF93CDB7DEB76E970FB6F894DEBF0FBED8
S11329B0CDBF9E8B8D8B4F8B588F698F7A8F0B8FEA
S11329C01C8F2D8F3E8F2F89388D498D5A8D6B8D9D
S11329D07C8D8D8D9E8D0E949521DC01CB01898398
S11329E09A83AB83BC838D899E89FC018085918504
S11329F0A285B38529813A814B815C81BC01CD01DB
S1132A000E940224DC01CB018D839E83AF83B887AF
S1132A108D899E89FC01C484D584E684F7848D89DC
S1132A209E89FC0184819581A681B78129813A819F
S1132A304B815C81BC01CD010E949621DC01CB015C
S1132A409C01AD01C701B6010E940224DC01CB0147
S1132A5089879A87AB87BC878D899E89FC01C0884A
S1132A60D188E288F3888D899E89FC0180819181D7
S1132A70A281B3819C01AD016F89788D898D9A8D76
S1132A800E949521DC01CB019C01AD01C701B60177
S1132A900E940224DC01CB018D879E87AF87B88B0F
S1132AA02D893E898F89988DA98DBA8DF9018083EE
S1132AB09183A283B38329853A854B855C856D8197
S1132AC07E818F8198850E949621DC01CB012D8522
S1132AD03E854F855889BC01CD010E949621DC01B9
S1132AE0CB01898B9A8BAB8BBC8B8D899E89FC0126
S1132AF084899589A689B78929893A894B895C890A
S1132B00BC01CD010E940222181674F18D899E89A0
S1132B10FC01808D918DA28DB38D29893A894B89D1
S1132B205C89BC01CD010E94AD238823ECF08D8922
S1132B309E89FC0184819581A681B78129813A818E
S1132B404B815C81BC01CD010E949621DC01CB014B
S1132B502D893E89F90184839583A683B783898966
S1132B609A89AB89BC8946C08D899E89FC01C48839
S1132B70D588E688F7888D899E89FC01808C918CA4
S1132B80A28CB38C8D899E89FC0184859585A6854C
S1132B90B7852D893E89F901248135814681578184
S1132BA0BC01CD010E940224DC01CB012D813E81B8
S1132BB04F815885BC01CD010E949621DC01CB01D7
S1132BC02D853E854F855889BC01CD010E949621F3
S1132BD0DC01CB01A5019401BC01CD010E94951338
S1132BE0DC01CB01A7019601BC01CD010E94631356
S1132BF0DC01CB01BC01CD016E960FB6F894DEBFAB
S1132C000FBECDBFDF91CF911F910F91FF90EF9039
S1132C10DF90CF90BF90AF909F908F900895CF9307
S1132C20DF9300D0CDB7DEB79A83898389819A81F7
S1132C30FC01108211821282138289819A81FC0123
S1132C40148215821682178200000F900F90DF9174
S1132C50CF910895CF93DF93CDB7DEB7F89481E099
S1132C60DF91CF910895CF93DF9300D0CDB7DEB736
S1132C709A8389838FE590E029813A81F901208143
S1132C80FC01208300000F900F90DF91CF910895F5
S1132C90CF93DF93CDB7DEB784E290E024E230E057
S1132CA0F9012081237FFC01208385E290E025E265
S1132CB030E0F90120812C60FC0120831092020194
S1132CC01092010183E290E0FC018081882F90E062
S1132CD084709927892B19F482E08093000183E2A0
S1132CE090E0FC018081882F90E088709927892BDF
S1132CF029F4809100018160809300010000DF913C
S1132D00CF910895CF93DF93CDB7DEB71092020130
S1132D101092010185E290E025E230E0F901208182
S1132D20237FFC0120830000DF91CF910895CF938E
S1132D30DF9300D000D0CDB7DEB78FE590E0FC0183
S1132D4080818C830E942A168B830BC080910101A1
S1132D50909102019A8389831092020110920101D9
S1132D601B828B81882391F7CE0104960E9433162F
S1132D7089819A810F900F900F900F90DF91CF91DE
S1132D800895CF93DF9300D000D0CDB7DEB7809104
S1132D900001882F90E0880F991F880F991F8F706A
S1132DA08093000183E290E0FC018081882F90E011
S1132DB084709927892B29F4809100018260809383
S1132DC0000183E290E0FC018081882F90E088700C
S1132DD09927892B29F48091000181608093000157
S1132DE080910001882F90E0880F991F86519F4F92
S1132DF09A83898389819A81FC0125913491CF0139
S1132E003C832B839A8389838B819C819C01809151
S1132E10010190910201820F931F9093020180930C
S1132E2001018091010190910201BC0188EE93E0BF
S1132E300E942813BC0188E19CEF0E94FE1290932B
S1132E4002018093010100000F900F900F900F90EA
S1132E50DF91CF910895CF93DF93CDB7DEB784E2AE
S1132E6090E024E230E0F9012081206FFC0120830E
S1132E7085E290E025E230E0F90120812F71FC0128
S1132E80208385E290E025E230E0F9012081206191
S1132E90FC0120830E94D0170E9404180000DF91D7
S1132EA0CF910895CF93DF93CDB7DEB70E94D017AB
S1132EB00E9404180000DF91CF910895CF93DF930F
S1132EC01F92CDB7DEB7898385E290E025E230E03A
S1132ED0F9012081422F4F772981222F30E0369546
S1132EE0322F222737952795242BFC0120830E941B
S1132EF0EA1700000F90DF91CF910895CF93DF93ED
S1132F0000D0CDB7DEB78A83198211C08A81882F99
S1132F1090E02981222F30E002C0959587952A956B
S1132F20E2F781700E945E1789818F5F89838981AE
S1132F30883060F300000F900F90DF91CF910895D7
S1132F40CF93DF9300D000D0CDB7DEB79B838A83C5
S1132F506C83198219C08C81882F90E09C012150C8
S1132F6031098981882F90E0A901481B590BCA01B6
S1132F709C018A819B81820F931FFC0180810E94A6
S1132F807E1789818F5F898399818C81981718F3C3
S1132F9000000F900F900F900F90DF91CF91089544
S1132FA0CF93DF93CDB7DEB785E290E025E230E042
S1132FB0F90120812F7EFC01208385E290E025E247
S1132FC030E0F90120812061FC0120830000DF91C1
S1132FD0CF910895CF93DF93CDB7DEB785E290E02C
S1132FE025E230E0F90120812062FC01208385E2A2
S1132FF090E025E230E0F90120812F7DFC0120835F
S11330000000DF91CF910895CF93DF93CDB7DEB762
S113301085E290E025E230E0F90120812064FC01A2
S1133020208385E290E025E230E0F90120812F7BC6
S1133030FC0120830000DF91CF910895CF93DF93AB
S11330401F92CDB7DEB789838981882F90E0092E3E
S1133050000CAA0BBB0B40E050E029E030E0841BDD
S1133060950B28173907C8F0825C9F4FFC010C941C
S1133070DA248FE313C086E011C08BE50FC08FE420
S11330800DC086E60BC08DE609C08DE707C087E05A
S113309005C08FE703C08FE601C08FE30F90DF9177
S11330A0CF910895CF93DF9300D01F92CDB7DEB7B1
S11330B09B838A838A819B81892B11F481E01BC0C5
S11330C019828A819B8199238CF489818F5F8983FA
S11330D00DC08A819B812AE030E0B9010E94A424BA
S11330E0CB019B838A8389818F5F89838A819B81BA
S11330F0892B79F789810F900F900F90DF91CF91F1
S11331000895CF93DF9300D000D0CDB7DEB79B8373
S11331108A836C838A819B81892B39F48C818823EF
S113312011F082E01CC081E01AC019828C818823CE
S113313089F089818F5F89830DC08A819B812AE010
S113314030E0B9010E94A424CB019B838A83898146
S11331508F5F89838A819B81892B79F789810F907D
S11331600F900F900F90DF91CF9108950F931F93BD
S1133170CF93DF93CDB7DEB727970FB6F894DEBFB2
S11331800FBECDBF9C838B837E836D834F83198257
S11331908C81881F8827881F8A838A81882339F035
S11331A08B819C819195819591099C838B838B81E3
S11331B09C81892BD1F58F81882F90E001972D81F7
S11331C03E81820F931F2FE3FC01208389818F5F4F
S11331D0898345C08F81882F90E09C01215031095B
S11331E0898191E0980F9983882F90E0A901481B69
S11331F0590BCA019C018D819E818C01020F131F02
S11332008B819C812AE030E0B9010E94A4240E94B1
S11332101E18F80180838B819C812AE030E0B9017B
S11332200E94A424CB019C838B838B819C811816E0
S11332301906ACF48981282F30E08F81482F50E0A3
S113324081E09A81992309F480E0882F90E0BA0103
S1133250681B790BCB01281739070CF4BBCF8A8183
S11332608823A9F08F81882F90E09C012150310997
S11332708981882F90E0F901E81BF90BCF019C01AB
S11332808D819E81820F931F20E4FC01208381E0C5
S113329027960FB6F894DEBF0FBECDBFDF91CF9156
S11332A01F910F9108950F931F93CF93DF93CDB781
S11332B0DEB727970FB6F894DEBF0FBECDBF9B8352
S11332C08A836C835E834D832F8319828C81882348
S11332D039F08A819B819195819591099B838A8399
S11332E08A819B81892BD1F58F81882F90E001976A
S11332F02D813E81820F931F2FE3FC01208389815E
S11333008F5F898345C08F81882F90E09C01215075
S11333103109898191E0980F9983882F90E0A90160
S1133320481B590BCA019C018D819E818C01020F9F
S1133330131F8A819B812AE030E0B9010E94A424F2
S11333400E941E18F80180838A819B812AE030E064
S1133350B9010E94A424CB019B838A838A819B8127
S113336018161906ACF48981282F30E08F81482F74
S113337050E081E09C81992309F480E0882F90E05B
S1133380BA01681B790BCB01281739070CF4BBCFA2
S11333908C818823A9F08F81882F90E09C01215093
S11333A031098981882F90E0F901E81BF90BCF01DD
S11333B09C018D819E81820F931F20E4FC01208358
S11333C081E027960FB6F894DEBF0FBECDBFDF9124
S11333D0CF911F910F910895CF92DF92EF92FF92B8
S11333E00F931F93CF93DF93CDB7DEB761970FB6DB
S11333F0F894DEBF0FBECDBF6A877B878C879D871D
S11334004E87388B2F87098B11E020E030E0A9012B
S11334106A857B858C859D850E94022288230CF019
S113342010E01B836A857B858C859D850E94B5226F
S1133430DC01CB019D838C838C819D81092E000C42
S1133440AA0BBB0BBC01CD010E94ED22DC01CB0118
S11334509C01AD016A857B858C859D850E949521A3
S1133460DC01CB016C017D01E894F7F88E85882F8F
S113347090E00E94B612092E000CAA0BBB0BBC01F3
S1133480CD010E94ED22DC01CB019C01AD01C701FD
S1133490B6010E940224DC01CB01BC01CD010E94D3
S11334A0B522DC01CB019F838E838C819D816B814E
S11334B00E94811888878E819F810E945218898773
S11334C08885282F30E08E85882F90E0280F391FBB
S11334D08989882F90E08217930714F480E07FC0D5
S11334E08989282F30E08E85882F90E0A901481B18
S11334F0590BCA019C018F859889AC01420F531F57
S11335008E819F812E8560E00E9453191A82198250
S113351019C08989282F30E08E85882F90E0281BD8
S1133520390B89819A81820F931F9C018F85988919
S1133530820F931F2FE3FC01208389819A810196D6
S11335409A8389838E85282F30E08985882F90E09F
S1133550281B390B89819A8182179307D4F28989B0
S1133560282F30E08E85882F90E0281B390B888522
S1133570882F90E0A901481B590BCA019C018F8533
S11335809889AC01420F531F8C819D8128856B81E2
S11335900E9453198989282F30E08E85882F90E066
S11335A0B901681B790BCB0101972F853889820FEC
S11335B0931F2989422F50E02E85222F30E0FA01F3
S11335C0E21BF30B9F01215031094F855889240FC9
S11335D0351FF90120812068FC01208381E0619678
S11335E00FB6F894DEBF0FBECDBFDF91CF911F9110
S11335F00F91FF90EF90DF90CF900895CF93DF93DA
S1133600CDB7DEB70E942B170E94A21B0E94911B0C
S11336100000DF91CF910895CF93DF93CDB7DEB74C
S11336200E9452170000DF91CF910895CF93DF934A
S113363000D0CDB7DEB789836A838981863010F0E4
S113364080E009C08981882F90E08D5F9E4F2A8198
S1133650FC01208381E00F900F90DF91CF910895BA
S11336600F93CF93DF93CDB7DEB727970FB6F894B8
S1133670DEBF0FBECDBF69837A838B839C834D836A
S11336802E830F838D81282F30E08F81882F90E047
S1133690820F931F079714F080E010C08D81882F4C
S11336A090E09C012D5F3E4F89819A81AB81BC8162
S11336B00F814E81BC01CD010E94EC1927960FB6F3
S11336C0F894DEBF0FBECDBFDF91CF910F91089567
S11336D0CF93DF9300D000D0CDB7DEB79A83898330
S11336E06B834C838B81282F30E08C81882F90E072
S11336F0820F931F079714F080E00CC08B81882FF2
S113370090E09C012D5F3E4F89819A814C81B901E3
S11337100E94B6180F900F900F900F90DF91CF91E9
S11337200895CF93DF93CDB7DEB70E94D01766E03C
S113373083E091E00E94A0170E9404180000DF912A
S1133740CF910895CF93DF931F92CDB7DEB719823F
S11337500AC08981882F90E08D5F9E4FFC01108202
S113376089818F5F89838981863098F300000F9067
S1133770DF91CF910895CF93DF93CDB7DEB78FE676
S113378090E0FC01108281E890E021E830E0F9014A
S113379020812E7FFC01208380E890E020E830E047
S11337A0F9012081FC01208381E890E021E830E0E8
S11337B0F90120812061FC01208386E890E020EA61
S11337C030E0FC013183208388E890E0FC01118221
S11337D0108284E890E0FC01118210828AE290E079
S11337E02AE230E0F90120812062FC0120838BE28F
S11337F090E02BE230E0F90120812F7DFC01208351
S11338000000DF91CF910895CF93DF93CDB7DEB75A
S113381081E890E021E830E0F90120812E7FFC016D
S1133820208386E890E0FC011182108284E890E015
S1133830FC011182108288E890E0FC011182108260
S113384080E890E020E830E0F90120812F77FC0146
S1133850208381E890E021E830E0F90120812F7E87
S1133860FC0120838AE290E02AE230E0F901208121
S11338702F7DFC0120838BE290E02BE230E0F90104
S113388020812F7DFC0120830000DF91CF910895DA
S1133890CF93DF9300D000D01F92CDB7DEB78D83D6
S11338A064E68D810E94521360E00E944113282F28
S11338B030E040E050E080EA90E0DC010E94EF2438
S11338C0DC01CB0124E630E040E050E0BC01CD0156
S11338D00E94B824DA01C90189839A83AB83BC832B
S11338E088E890E029813A81FC013183208300003B
S11338F00F900F900F900F900F90DF91CF9108953C
S1133900CF93DF93CDB7DEB784E890E0FC0111825A
S1133910108288E890E0FC011182108280E890E037
S113392020E830E0F90120812068FC01208381E84F
S113393090E021E830E0F90120812160FC0120833E
S11339400000DF91CF910895CF93DF93CDB7DEB719
S113395080E890E020E830E0F90120812F77FC0135
S1133960208381E890E021E830E0F90120812E7F76
S1133970FC01208384E890E0FC01118210820000A5
S1133980DF91CF910895CF93DF931F92CDB7DEB728
S113399084E290E024E230E0F90120812C7FFC01F4
S11339A0208385E290E025E230E0F9012081236064
S11339B0FC0120831092090110920A0110920B015C
S11339C010920E0119820AC08981882F90E0845FC9
S11339D09E4FFC01108289818F5F898389818230A7
S11339E098F383E080930F0183E08093100100003B
S11339F00F90DF91CF910895CF93DF931F92CDB7AE
S1133A00DEB785E290E025E230E0F90120812C7FE9
S1133A10FC0120831092090110920A0110920B01FB
S1133A2010920E0119820AC08981882F90E0845F68
S1133A309E4FFC01108289818F5F89838981823046
S1133A4098F383E080930F0183E0809310010000DA
S1133A500F90DF91CF910895CF93DF931F92CDB74D
S1133A60DEB7898380910901882F90E02981222F74
S1133A7030E002C0959587952A95E2F781709927E1
S1133A80892B91F08981282F30E081E090E002C0F9
S1133A90880F991F2A95E2F780959091090189234F
S1133AA08093090181E001C080E00F90DF91CF9104
S1133AB00895CF93DF931F92CDB7DEB789838091AA
S1133AC00A01882F90E02981222F30E002C09595C9
S1133AD087952A95E2F781709927892B91F089813E
S1133AE0282F30E081E090E002C0880F991F2A95CA
S1133AF0E2F7809590910A01892380930A0181E07D
S1133B0001C080E00F90DF91CF910895CF93DF93B0
S1133B101F92CDB7DEB7898380910B01882F90E087
S1133B202981222F30E002C0959587952A95E2F7E6
S1133B3081709927892B91F08981282F30E081E0C9
S1133B4090E002C0880F991F2A95E2F78095909122
S1133B500B01892380930B0181E001C080E00F9069
S1133B60DF91CF910895CF93DF931F92CDB7DEB746
S1133B70898380910E01882F90E02981222F30E0E3
S1133B8002C0959587952A95E2F781709927892B2C
S1133B9011F081E001C080E00F90DF91CF91089592
S1133BA0CF93DF9300D000D0CDB7DEB783E290E0AF
S1133BB0FC018081809590910E0189278A839091E0
S1133BC00F018A818923809580930F0190911001C0
S1133BD08A81982380910F01892780931001909105
S1133BE00F01809110018923882F90E08370992719
S1133BF0982F8A8189238A8390910E018A8189274B
S1133C0080930E0180910E019A8189238B83809188
S1133C100E01982F90958A8189238C83198281C003
S1133C208B81882F90E02981222F30E002C0959566
S1133C3087952A95E2F781709927892BC1F08981AC
S1133C40282F30E081E090E002C0880F991F2A9568
S1133C50E2F7982F80910901892B809309018981CA
S1133C60882F90E0845F9E4FFC0110821FC08C81DE
S1133C70882F90E02981222F30E002C09595879506
S1133C802A95E2F781709927892B81F08981282F61
S1133C9030E081E090E002C0880F991F2A95E2F796
S1133CA0982F80910A01892B80930A0180910E013B
S1133CB0882F90E02981222F30E002C095958795C6
S1133CC02A95E2F781709927892B41F18981882F00
S1133CD090E0845F9E4FFC0180818436F8F48981F2
S1133CE0882F90E09C01245F3E4FF90120812F5FD3
S1133CF0845F9E4FFC012083243681F48981282F20
S1133D0030E081E090E002C0880F991F2A95E2F725
S1133D10982F80910B01892B80930B0189818F5FF0
S1133D2089838981823008F47BCF00000F900F9043
S1133D300F900F90DF91CF910895CF93DF93CDB77C
S1133D40DEB7F89481E0DF91CF910895CF93DF93AC
S1133D5000D0CDB7DEB79A8389838FE590E02981BF
S1133D603A81F9012081FC01208300000F900F901B
S1133D70DF91CF910895CF93DF93CDB7DEB78AE774
S1133D8090E02AE730E0F90120812775FC012083C7
S1133D908CE790E0FC0110828CE790E02CE730E0A7
S1133DA0F90120812064FC0120838AE790E02AE75E
S1133DB030E0F90120812660FC0120838EE790E049
S1133DC020EFFC0120830000DF91CF910895CF9371
S1133DD0DF9300D0CDB7DEB78FE590E0FC018081A2
S1133DE08A830E949D1E89831CC08AE790E02AE78B
S1133DF030E0F90120812775FC0120838CE790E0F5
S1133E00FC0110828AE790E02AE730E0F901208182
S1133E10287FFC0120838EE790E02FEFFC012083B4
S1133E2019828981882309F7CE0102960E94A61E71
S1133E3000000F900F90DF91CF910895CF93DF93FF
S1133E40CDB7DEB78AE790E02AE730E0F9012081B8
S1133E502068FC0120838AE790E02AE730E0F9013A
S1133E6020812064FC01208300008AE790E0FC01AB
S1133E708081882F90E080749927892BB1F788E797
S1133E8090E0FC01808191810000DF91CF91089541
S1133E90CF93DF93CDB7DEB78CE790E02CE730E02B
S1133EA0F9012081207EFC0120838CE790E02CE73F
S1133EB030E0F9012081FC0120838AE790E02AE7C1
S1133EC030E0F90120812064FC01208300008AE7AE
S1133ED090E0FC018081882F90E080749927892BE1
S1133EE0B1F788E790E0FC0180819181DF91CF9167
S1133EF00895CF92DF92EF92FF92CF93DF93CDB7E5
S1133F00DEB729970FB6F894DEBF0FBECDBF198276
S1133F101A821B821C821D8214C00E94481FCC017D
S1133F20A0E0B0E029813A814B815C81820F931F2C
S1133F30A41FB51F89839A83AB83BC838D818F5F54
S1133F408D838D81843048F369817A818B819C8152
S1133F500E94ED22DC01CB0120E030E040E855E492
S1133F60BC01CD010E940722DC01CB0120E030E03E
S1133F7040EA50E4BC01CD010E940224DC01CB01E3
S1133F808E839F83A887B98720E030E543EC57E40C
S1133F906E817F81888599850E940224DC01CB0192
S1133FA06C017D012E813F814885598560E070E078
S1133FB080EA90E40E949521DC01CB019C01AD01D3
S1133FC0C701B6010E940722DC01CB01BC01CD016F
S1133FD029960FB6F894DEBF0FBECDBFDF91CF9107
S1133FE0FF90EF90DF90CF900895CF92DF92EF9201
S1133FF0FF92CF93DF9300D000D0CDB7DEB70E94FD
S1134000791FDC01CB01BC01CD010E94BA23DC0184
S1134010CB0189839A83AB83BC8320EA30E642EFE9
S113402059E369817A818B819C810E940224DC019D
S1134030CB0125E539EF46E95AE3BC01CD010E94E5
S11340409521DC01CB016C017D012BE037ED4BE0C8
S113405055EB69817A818B819C810E940224DC0169
S1134060CB0129813A814B815C81BC01CD010E9445
S11340700224DC01CB0129813A814B815C81BC01A2
S1134080CD010E940224DC01CB019C01AD01C701DA
S1134090B6010E949621DC01CB019C01AD0160E0D8
S11340A070E080E89FE30E940722DC01CB0123E358
S11340B033E948E853E4BC01CD010E949521DC01B9
S11340C0CB01BC01CD010F900F900F900F90DF91A9
S11340D0CF91FF90EF90DF90CF900895CF93DF932F
S11340E0CDB7DEB78CE790E02CE730E0F901208112
S11340F0207EFC0120838CE790E02CE730E0F9017E
S113410020812160FC0120838AE790E02AE730E0E7
S1134110F90120812064FC01208300008AE790E0FB
S1134120FC018081882F90E080749927892BB1F756
S113413088E790E0FC0180819181DF91CF9108951F
S1134140CF92DF92EF92FF92CF93DF93CDB7DEB79A
S113415029970FB6F894DEBF0FBECDBF19821A821D
S11341601B821C821D8214C00E946E20CC01A0E020
S1134170B0E029813A814B815C81820F931FA41F97
S1134180B51F89839A83AB83BC838D818F5F8D83B5
S11341908D81843048F369817A818B819C810E946E
S11341A0ED22DC01CB0120E030E040E855E4BC0125
S11341B0CD010E940722DC01CB0120E030E040EA7F
S11341C050E4BC01CD010E940224DC01CB018E83AA
S11341D09F83A887B98720E030E44CE156E46E81E0
S11341E07F81888599850E940224DC01CB016C01C2
S11341F07D012E813F814885598560E070E080EA29
S113420090E40E949521DC01CB019C01AD01C70122
S1134210B6010E940722DC01CB01BC01CD01299625
S11342200FB6F894DEBF0FBECDBFDF91CF91FF90E4
S1134230EF90DF90CF900895CF92DF92EF92FF92AC
S1134240CF93DF9300D000D0CDB7DEB70E94A0207B
S1134250DC01CB01BC01CD010E94BA23DC01CB01FE
S113426089839A83AB83BC8325EE31EC44E559E31F
S113427069817A818B819C810E940224DC01CB01BB
S113428021EA38EE4CEA5AE3BC01CD010E949621A2
S1134290DC01CB016C017D0129E436E84CE754E3F1
S11342A069817A818B819C810E940224DC01CB018B
S11342B029813A814B815C81BC01CD010E94022499
S11342C0DC01CB0129813A814B815C81BC01CD01A8
S11342D00E940224DC01CB019C01AD01C701B6019F
S11342E00E949621DC01CB019C01AD0160E070E0ED
S11342F080E89FE30E940722DC01CB0123E333E93A
S113430048E853E4BC01CD010E949521DC01CB01B6
S1134310BC01CD010F900F900F900F90DF91CF91C2
S1134320FF90EF90DF90CF9008955058BB27AA27B5
S11343300E94AD210C9473230E94652338F00E94DF
S11343406C2320F039F49F3F19F426F40C94522383
S11343500EF4E095E7FB0C944C23E92F0E94842390
S113436058F3BA17620773078407950720F079F4A6
S1134370A6F50C94A6230EF4E0950B2EBA2FA02DCF
S11343800B01B90190010C01CA01A0011124FF27FE
S1134390591B99F0593F50F4503E68F11A16F040F9
S11343A0A22F232F342F4427585FF3CF46953795F8
S11343B02795A795F0405395C9F77EF41F16BA0BBD
S11343C0620B730B840BBAF09150A1F0FF0FBB1F6B
S11343D0661F771F881FC2F70EC0BA0F621F731FB4
S11343E0841F48F4879577956795B795F7959E3F11
S11343F008F0B0CF9395880F08F09927EE0F9795A2
S1134400879508950E94282308F481E008950E9466
S11344101B220C9473230E946C2358F00E94652382
S113442040F029F45F3F29F00C944C2351110C9473
S1134430A7230C9452230E94842368F39923B1F395
S1134440552391F3951B550BBB27AA2762177307B6
S1134450840738F09F5F5F4F220F331F441FAA1F4A
S1134460A9F335D00E2E3AF0E0E832D09150504006
S1134470E695001CCAF72BD0FE2F29D0660F771FB4
S1134480881FBB1F261737074807AB07B0E809F09A
S1134490BB0B802DBF01FF2793585F4F3AF09E3F1F
S11344A0510578F00C944C230C94A7235F3FE4F35C
S11344B0983ED4F3869577956795B795F7959F5F62
S11344C0C9F7880F911D9695879597F90895E1E0AE
S11344D0660F771F881FBB1F621773078407BA070D
S11344E020F0621B730B840BBA0BEE1F88F7E09568
S11344F00895BEE304D008F490E80895BFE32227AA
S11345003327A9010E948C2360F19F5748F1B91702
S113451040F1BFE3B91B9927B8503AF4660F771FEF
S1134520881F991FB395D2F316C0B8504AF0232FB1
S1134530342F452F562F672F782F8827B850BAF776
S1134540B85F49F086957795679557954795379560
S11345502795BA95B9F716F40E94552388940895BF
S1134560889460E070E0CB0108950E94BC226894B6
S1134570B1110C94A72308950E948C2388F09F57AF
S113458098F0B92F9927B751B0F0E1F0660F771F73
S1134590881F991F1AF0BA95C9F714C0B13091F069
S11345A00E94A623B1E008950C94A623672F782FC8
S11345B08827B85F39F0B93FCCF38695779567952E
S11345C0B395D9F73EF490958095709561957F4F9A
S11345D08F4F9F4F0895E89409C097FB3EF4909540
S11345E08095709561957F4F8F4F9F4F9923A9F0C8
S11345F0F92F96E9BB279395F69587957795679557
S1134600B795F111F8CFFAF4BB0F11F460FF1BC09A
S11346106F5F7F4F8F4F9F4F16C0882311F096E92D
S113462011C0772321F09EE8872F762F05C06623DB
S113463071F096E8862F70E060E02AF09A95660F94
S1134640771F881FDAF7880F9695879597F908954D
S1134650990F0008550FAA0BE0E8FEEF161617068F
S1134660E807F907C0F012161306E407F50798F0F7
S1134670621B730B840B950B39F40A2661F0232B10
S1134680242B252B21F408950A2609F4A140A6958C
S11346908FEF811D811D089597F99F6780E870E071
S11346A060E008959FEF80EC089590958095709553
S11346B0609550954095309521953F4F4F4F5F4FF2
S11346C06F4F7F4F8F4F9F4F089500240A94161603
S11346D0170618060906089500240A9412161306EC
S11346E0140605060895092E0394000C11F488237A
S11346F052F0BB0F40F4BF2B11F460FF04C06F5F96
S11347007F4F8F4F9F4F089557FD9058440F551F6B
S113471059F05F3F71F04795880F97FB991F61F03F
S11347209F3F79F087950895121613061406551FB6
S1134730F2CF4695F1DF08C0161617061806991F22
S1134740F1CF86957105610508940895E894BB2717
S113475066277727CB0197F908950E94282308F448
S11347608FEF089516F00C946F240C9452236894E0
S11347700C944C230E948C23A8F39923C1F3AEF329
S1134780DF93CF931F930F93FF92C92FDD278823C5
S11347902AF02197660F771F881FDAF720E030E0B0
S11347A040E85FEB9FE3883920F0803E38F02196A3
S11347B08F770E949621E0E9F0E004C00E949621E0
S11347C0EDEBF0E00E947D248B01BE01EC01FB2E99
S11347D06F5771097595771F880B990B0E94ED220D
S11347E028E132E741E35FE30E941524AF2D9801ED
S11347F0AE01FF900F911F91CF91DF910E94AD21E7
S11348000C9473230E9415240C9473230E94652333
S113481038F00E946C2320F0952311F00C944C2363
S11348200C94522311240C94A7230E94842370F324
S1134830959FC1F3950F50E0551F629FF001729F41
S1134840BB27F00DB11D639FAA27F00DB11DAA1F50
S1134850649F6627B00DA11D661F829F2227B00D9D
S1134860A11D621F739FB00DA11D621F839FA00D28
S1134870611D221F749F3327A00D611D231F849F78
S1134880600D211D822F762F6A2F11249F575040CF
S11348909AF0F1F088234AF0EE0FFF1FBB1F661F4A
S11348A0771F881F91505040A9F79E3F510580F013
S11348B00C944C230C94A7235F3FE4F3983ED4F369
S11348C0869577956795B795F795E7959F5FC1F7B7
S11348D0FE2B880F911D9695879597F908959F3F14
S11348E031F0915020F4879577956795B795880FA7
S11348F0911D9695879597F90895DF93CF931F930C
S11349000F93FF92EF92DF927B018C01689406C0B3
S1134910DA2EEF010E941524FE01E894A591259159
S1134920359145915591A6F3EF010E94AD21FE0109
S11349309701A801DA9469F7DF90EF90FF900F9147
S11349401F91CF91DF91089597FB072E16F40094E1
S113495007D077FD09D00E94212507FC05D03EF43D
S1134960909581959F4F0895709561957F4F089517
S1134970A1E21A2EAA1BBB1BFD010DC0AA1FBB1F5F
S1134980EE1FFF1FA217B307E407F50720F0A21BD1
S1134990B30BE40BF50B661F771F881F991F1A943E
S11349A069F760957095809590959B01AC01BD0168
S11349B0CF010895EE0FFF1F0590F491E02D0994A7
S11349C0A29FB001B39FC001A39F700D811D11244C
S11349D0911DB29F700D811D1124911D08950E9497
S11349E0E024A59F900DB49F900DA49F800D911D70
S11349F0112408952A0D3B1D4C1D5D1D6E1D7F1D48
S1134A00801F911F08950024A7FD00942A0F301DD4
S1134A10401D501D601D701D801D901D08952A1994
S1134A203B094C095D096E097F09800B910B0895C0
S1134A302A153B054C055D056E057F05800791072A
S1134A400895AA1BBB1B51E107C0AA1FBB1FA617D1
S1134A50B70710F0A61BB70B881F991F5A95A9F723
S1134A6080959095BC01CD01089581E090E0F89483
S10B4A700C943A25F894FFCFE1
S9030000FC
